:020000041008E2
:4000000000780408F90208100D0000006103081061030810610308106103081000000000000000000000000000000000813C08105D03081000000000F13C0810553D0810F0
:400040005D0308105D0308105D0308105D0308105D0308105D0308105D0308105D0308105D0308105D0308105D0308105D0308105D0308105D0308105D0308105D03081000
:400080005D0308105D0308105D0308105D0308105D0308105D0308105D0308105D0308105D0308105D0308105D0308105D0308105D030810650708105D0308105D030810B4
:4000C0005D0308105D0308105D0308105D0308105D0308105D0308105D0308105D0308105D0308105D0308105D0308105D0308105D0308105D0308105D0308105D03081080
:400100005D0308105D0308105D0308105D0308105D0308105D0308105D0308105D0308105D0308105D0308105D0308105D0308105D0308105D0308105D0308105D0308103F
:400140005D0308105D0308105D0308105D0308105D0308105D0308105D0308105D0308105D0308105D0308105D0308105D0308105D0308105D0308105D0308105D030810FF
:400180005D0308105D0308105D0308105D0308105D0308105D0308105D0308105D0308105D0308105D0308105D0308105D0308105D0308105D0308105D0308105D030810BF
:4001C0005D0308105D0308105D0308105D0308105D0308105D0308105D0308105D0308105D0308105D0308105D0308105D0308105D0308105D0308105D0308105D0308107F
:400200005D0308105D0308105D0308105D0308105D0308105D0308105D0308105D0308105D0308105D0308105D0308105D0308105D0308105D0308105D0308105D0308103E
:400240005D0308105D0308105D0308105D0308105D0308105D0308105D0308105D0308105D0308105D0308105D0308105D0308105D0308105D0308105D0308105D030810FE
:400280005D0308105D0308105D03081010B5054C237833B9044B13B10448AFF300800123237010BD48740208000000001C580810084B10B51BB108490848AFF300800848EB
:4002C000036803B910BD074B002BFBD0BDE81040184700BF000000004C7402081C58081010460208000000007047EFF3108072B6704780F310887047FFF7F6FF72B6114CBF
:40030000114DAC4209DA21686268A368043BA2BFC858D050FAE70C34F3E70C490C4A00209142BCBF41F8040BFAE70A480A490860BFF34F8F00F002FA00F0DCF900F0E4F8F9
:40034000FEE70000FC37091014380910487402087C4203080040020808ED00E0FEE7FEE700B504207146084202D0EFF3098001E0EFF30880043000F0C1FEFEE708B544F252
:400380000803984215D045F2010398420AD0B0F5805F18D10C4803F06BFF0021084601F007FD08BD094803F063FF8022084B5A6008BD084803F05CFF8022054B9A60002178
:4003C000084601F0F5FC08BD904C0810A04C081080063240AC4C08101E4B984238D100B583B00DF107020121002002F0CFFA9DF80730012B10D013B1022B1AD025E01648BA
:4004000003F036FF0822154B9A600223144A536002F5A062936018E0124803F029FF08220E4B9A6002230E4A936002F5A06253600BE00D4803F01CFF0822084B5A6002233E
:40044000074A936002F5A062936003B05DF804FB704700BFBF000100BC4C08100000324080003240C84C0810D84C081000B583B002A9002341F8043D084B186802F006FD2B
:40048000019B3BB14FF08052054B1A60BFF34F8FBFF36F8F03B05DF804FB00BFBC41030804ED00E008B5124803F0E2FE00214FF0FF3002F0D1FB0F4B18600F4803F004FEA5
:4004C00001E005F0E1FA0D4B1B78022BF9D10C4801F0A4FB0B4802F04BFA00234FF0FF3219460448006802F01BFD05F0CDFAF4E7E44C0810BC4103087D030810CC410308B4
:400500006D040810D903081000B583B062B603F001FE0F4C2068002302221946406803F0AFFE2068002302221946806803F0A8FE084803F09DFE00230193022200924FF43E
:4005400000520549054802F0F9FE02F029FFFEE704460208F84C0810084D0810A5040810704700BF5C4AD2F8803303F00F0303F1D00152F8212002F00702032A04D0042AB0
:4005800005D092B9554914E0554A116811E003F1C002514951F8222002F01F02112A06D0132A04D04FF4FA4103E04E4901E04FF400418BBB484BD3F8902502F00100D3F8FC
:4005C0008825C2F30172D3F8883513F0405F07D0414BD3F88835C3F30173012B02D102E0012300E0002303B108B9032A46D13A48D0F88025C2F31103D0F88425C2F30C023A
:40060000D0F88005C0F300600130B1FBF2F202FB03F2B2FBF0F131E0012B2FD12E4BD3F8402602F00100D3F80026C2F30172D3F8003613F0405F07D0274BD3F80036C3F383
:400640000173012B02D102E0012300E0002303B108B9032A12D12048D0F8002602F07F02D0F80036C3F30423D0F80006C0F3044002FB01F2B2FBF3F2B2FBF0F1164BD3F8D4
:400680008033C3F3011321FA03F215494A601648D0F89030C3F3072301330069000E0130B2FBF0F08860B2FBF3F3CB600B6103F5742202F23F220D48A0FB0202C2F387420F
:4006C0000A7503F2E7330A4AA2FB03239B098B61DB03CB61704700BF0000264000127A008C42020800366E010000214083DE1B43D34D621008B5104BD3F8802122F040420C
:4007000042F08042C3F88021D3F8802142F00042C3F88021D3F8802122F00102C3F88021FFF71EFFFFF71EFF00F024F800F02AF800F02CFC08BD00BF0000264008B5FFF757
:40074000D4FD074AD2F8883043F47003C2F88830BFF34F8FBFF36F8FFFF7CBFD08BD00BF00ED00E008B5024800F0F4FA08BD00BF9074020808B500221146042000F0DAF8D7
:4007800008BD00BF10B500F014FD0446044800F08DF9044800F0EEF9204600F00EFD10BD64740208104D081010B504462146034800F030FD0028F9D010BD00BF000066403A
:4007C000054BD3F80833C3F30803002BF8D0024BD3F84003704700BF0000664038B50C4B9A680C4B9A420ED10D46044619B9FC21094800F073FC04F11003064A52F823001F
:4008000042F8235038BD1030044B53F8200038BD00ED00E0004002084C4D08100000081070B338B504460D464368072B03D93621154800F053FCB4F900306268002B08DB39
:400840005201D2B203F1604303F5614383F8002305E003F00F035201D2B20C49CA540C4B9A680C4B9A420DD11DB94521064800F035FC2946B4F90000FFF7B0FF002038BDB1
:4008800005487047002038BD4C4D081014ED00E000ED00E0004002080100560038B50369002B0DDA0D4604460B0C1B0423B140F2A721044800F012FCA9B26160002038BD98
:4008C000014838BD904D081001008A0038B50368002B01DA002300E0094B73B90D460446C2600B0C1B0423B140F28E21054800F0F5FBA9B2A160002038BD014838BD00BF14
:4009000001008A00904D081038B504460D4619B99921064800F0E2FB2369002B03DAE3682B60002038BD024838BD00BFD04D081001008A000F2840D8F8B515460E460446D4
:4009400082B979B90F2804D940F29D11214800F0C5FB600100F1804000F50C101E4B18600020F8BD5DB366B316F01F0F2BD10F2C04D940F29D11174800F0B0FB640104F17F
:40098000804404F50C14144F3C607E60BD60F2080021284603F00AFC00212046FFF77EFF3A4652F8040B0021FFF790FF68B900213868FFF773FF50B9F8BD08487047074807
:4009C000F8BD0648F8BD0548F8BD0548F8BD0448F8BD00BF104E0810E475020803018A0001018A002DE9F0411B4B1B68DC68236883422CD90D464609A0EB4610012303FA1B
:400A000000F819B900F0D5FB074600E00027124B18680368002B01DA002300E00F4B83B9626852F8263018EA030F05D023EA080342F82630002400E0094C0021FFF72EFF59
:400A400000E0084C25B9384600F0B7FB00E0064C2046BDE8F08100BFE475020801008A00020188000301880004018A000B4B1B68DB681A6882420CD94109A0EB41100122B3
:400A800002FA00F05B6853F82130184203D004487047044870470448704700BFE47502080101880004018A0000018800024B1B680BB9014B18607047F07502082DE9F84322
:400AC0000446884691461E46089F072803D9B421244800F003FB244B1B682C2000FB04F01C18F5B21D50C6F307236360360CA6600F2D04D940F29D111C4800F0EFFA6D01BB
:400B000005F1804505F50C15256165680F2D04D94FF4DC71154800F0E1FA154B03EB45156561A668330C1B0423B14FF4EB710F4800F0D4FA330C1B0423B140F2D7110B48BA
:400B400000F0CCFAB3B243EA0646AE60C4F81C90C4F820800023A36117B1B7F90030A381BDE8F883504E0810F0750208104E081000102340F0B58FB0044618B950212C480A
:400B800000F0ACFAA369072B03D95421284800F0A5FAE36A1BB95621254800F09FFAE368072B03D95721224800F098FA236A072B03D958211E4800F091FA236B1BB95921F5
:400BC0001B4800F08BFA07AE04F114050FCD0FC62F6802AD26460FCE0FC533682B60079B1933ADF83030089B0D93A26AE16A0CAD00953B460A98FFF761FF00210091069B79
:400C00000A460598FFF75AFF216B2846FFF708FEBDF93030002B08DB590903F01F03012202FA03F3034A42F821300FB0F0BD00BF504E081000E100E0F8B507460E461D46A7
:400C400014461AB9FC21224800F048FA072F03D9FD211F4800F042FA072E03D9FE211C4800F03CFA1B4B1B682C2202FB073002FB06367368012202FA03F31B04476802FAB3
:400C800007F70269EAB1B169E9B91268002A01DA002200E0104AC2B92288134323600369DC600123B361756204693B0C1B0423B140F28E21094800F011FABAB2A260002082
:400CC000F8BD0748F8BD0748F8BD0648F8BD00BF504E0810F075020801008A00104E081004028A0007028A0070B504460E461546072804D940F25F11084800F0EFF9084BE5
:400D00001B682C2202FB0434E369AB4204D9236A43F82560002070BD024870BD504E0810F07502080A028A0038B504460D46072804D94FF4C771054800F0D0F9044B1B68E2
:400D40002C2202FB0434A56238BD00BF504E0810F075020870B582B000230193044620B94FF4D971264800F0B9F9236923B940F2B311234800F0B2F9636923B94FF4DA71A8
:400D80001F4800F0ABF9236A23B940F2B5111C4800F0A4F96369DD682A0C1CD012041A601B6820690369002B15DA01A9FFF7ACFD60B9019803681E0CDBB2E269934206D27C
:400DC000226A52F8233013B1984700E0002631462069FFF763FDADB275B16369ADB21D601B68636A1BB198470023636202E0A36A03B198470023A36163691B6802B070BDE4
:400E0000504E081010B50446072804D940F20B210D4800F063F90D4B1B682C2202FB0434B4F90C30002B0DDB5A0903F01F03012101FA03F32032064941F82230BFF34F8F41
:400E4000BFF36F8F002010BD504E0810F075020800E100E010B50446072804D940F22A210B4800F03BF90B4B1B682C2202FB0434B4F90C30002B08DB590903F01F030122F3
:400E800002FA03F3044A42F82130002010BD00BF504E0810F075020800E100E01F4B98422DD00CD840282ED003D8E8B1102828D02FE0802829D0B0F5807F28D029E0184BEE
:400EC000984228D006D8B0F1204F0DD0154B984212D01EE0144B98420AD00133984209D0023B984215D101E0002070470F4870470F4870470F4870474FF4A0007047074879
:400F000070470D4870470D4870470D487047034870470C4870474FF4A400704706005200010000F0090000A0040000F00100520002005200030052000100500002005000A6
:400F400005005200FF00520008B50C4B1B69002B12DB0B4B1868FFF7A1FF0122094BC3F88C24084BD3F80C34002BFAD1054BD3F88C34002BF5D108BD034808BD2000234053
:400F8000F4750208000025400200500000B583B05523ADF80030002301930C496846FFF73FFCBDF90030002B08DB590903F01F03012202FA03F3064A42F82130022205491A
:400FC0000120FFF791FE03B05DF804FB5546020800E100E07547020838B5044600F0E9F82CB1184B5B681F2B03D9002302E0002300E001231D460BB3E368E3B12368E3B19C
:40100000104B99680B46002203E0A34204D01A465B69002BF9D100E000257DB111B9094B9C6000E05461226100236361054A53680133536002E0002500E0002500F0BDF83E
:40104000284638BD0476020838B5044600F0B1F8144B5A680AB399680B4602E0A34204D05B69002BFAD1002500E00125B5B1A14206D14B695BB10B498B600021196106E069
:4010800019695C694C61596909B11B690B61013A044B5A6012B99A6000E0002500F08DF8284638BD0476020810B5044605E0084B186800F075F8A4F50044B4F5004FF6D89F
:4010C000044B186800FB04F000F06AF810BD00BFA8420208A442020801BEFEE738B50D46044C18220146204603F074F9A5610020FFF7F2FF604A0208FEE700BF08B5026869
:40110000254BDA6142681A6282685A62C2689A620269DA6242691A6382695A63C2699A631E4A916AD963D16A1964516A5964516B9964926BDA64F1EE103A13F0900F27D0EE
:40114000026A154B1A65426A5A65826A9A65C26ADA65026B1A66426B5A66826B9A66C26BDA66026C1A67426C5A67826C9A67C26CDA67026DC3F88020426DC3F88420826D2C
:40118000C3F88820C26DC3F88C20026EC3F89020FFF7B2FF08BD00BF604A020800ED00E00230800803D001300238FCD100BF00BF7047EFF3108072B6704780F310887047A2
:4011C00010B4D0F8003303F00F03072B06D900230DE0D0F84043CC54013300E000239342F7D306E0D0F8404321F8134001339342F8D35DF8044B704710B51446D0F80833DB
:40120000C3F308039A4200D31C462246FFF7D8FF204610BD036813F4006F01D0802200E04022D0F80832C3F30803934203D0C0F84012012070470020704700BF10B4D0F86F
:40124000003203F00F03072B06D900230DE0CC5CC0F84042013300E000239342F7D306E031F81340C0F8404201339342F8D35DF8044B704710B51446036813F4006F01D042
:40128000802200E04022D0F80832C3F30803D31AA34200D81C462246FFF7D0FF204610BD2DE9F84305460C46036813F4006F02D04FF0800801E04FF04008D5F8007207F015
:4012C0000F07A26A012A19D9D4F82490E262561EB9F1000F00D026B940F22C512548FFF7FDFE324649462846FFF7C4FFA36A1B1AA362072F00D9400048446062D5F80832E9
:40130000C3F30803984533D0A36A012B30D10023A362072F02D8636A1E7801E0636A1E88FFF747FFC5F840624FF40073C5F8803FD5F8803FFFF741FFD5F8883F23F4007237
:4013400022F0010242F4007623F4EE6323F0030323B14FF481610848FFF7C0FEC5F8886F236843F002032360236B0BB101209847BDE8F883904E0810D04E08102DE9F04157
:4013800005460C46036813F4006F01D0802600E040267608A769D4F81C8017B1B8F1000F04D14FF490613148FFF798FE424639462846FFF721FF236A03442362E3691B1A09
:4013C000E36173BBA368FBB1E3689E4201D8013E00E05E1E2B6813F4006F01D0802300E040239E4204D340F25E212148FFF776FED5F8043323F0FF03F6B21E43C5F80463E4
:401400000123C5F8C83F02E00023C5F8C83F636823F001036360236B33B304209847BDE8F081A169D5F8002302F00F02072A00D940000844A0619E4216D95C1E2B6813F452
:40144000006F01D0802300E040239C4204D340F25E210748FFF742FED5F8043323F0FF02E3B21343C5F80433BDE8F081904E0810D04E0810002800F0A98170B50546002947
:4014800000F0A6819E4B984200F0A48116460C460B78022B03D942219A48FFF71FFE637B023BDBB2062B03D943219648FFF716FEA37B3BB1022B05D0032B03D0442191485F
:4014C000FFF70CFE94F82130012B03D945218D48FFF704FE94F82830012B03D946218948FFF7FCFD2378012B06D86368083B082B94BF0023012307E0A37F2BB16368013B55
:40150000062B94BF002301231BB148217D48FFF7E5FDA368053B042B03D949217948FFF7DDFD6369FF2B03D94A217648FFF7D6FDA369FF2B03D94B217248FFF7CFFDA37CE0
:401540006BB1237833B9A368092B05D1A37B2BB1012304E0012302E0012300E000231BB14D216848FFF7BAFD636B23F4366323F00D031BB14F216348FFF7B0FDE36B23F45D
:40158000EE6323F003031BB150215E48FFF7A6FD2378022B01D1A37F13B163685A1E00E00022237F13B14FF4803100E00021A068082802D84FF4006300E00023194302F01C
:4015C0000F030B4343F000732B60236B2A6812F4006F01D0802200E04022934203D365214848FFF77BFDA36B2A6812F4006F01D0802200E04022934203D366214148FFF766
:401600006DFD636A2A6812F4006F01D0802200E04022934203D367213A48FFF75FFD23781B0603F040732B64637F0BB1402200E00022A17C11B14FF4806300E0002313435F
:40164000227C12B14FF4807200E000221343627C12B14FF4007200E000221A43E36A013B1B0403F470231343627B013A02F007021343A27B120102F030021343AB64237B7F
:4016800013B14FF4807200E00022E17B21B92378022B03D1012302E0012300E0002313B14FF4007300E000231A43A368013B03F00F031343C5F80033227DA3691B0403F403
:4016C0007F031343C5F81033E26AD5F8003303F00F0303339A4201D3102A03D97D210948FFF7FCFCE37F23B12378012B03D0002302E0002300E0012333B14FF4807204E0EF
:4017000000006940144F08100022637B013B03F007031A43A37B1B0103F0300313436B64237B13B14FF4807200E00022A368013B03F00F0313432278012A02D14FF48032A2
:4017400000E000221343C5F8003294F83030C5F8043394F8203013B14FF0007100E0002194F82120012A02D14FF0807300E000230B4394F82820012A02D14FF4803200E0FC
:401780000022134394F8242013432B6594F83830C5F80432636B23F4926323F002031B051B0DC5F8C83FE36B23F08C035B055B0DC5F8883F86B1002070603060B060F060C3
:4017C0003062F0623063054B736370BD04487047034870BD024870BD002070BDEFCDAB000160AA000B694A69934202D34869181A7047CA694869101A184470472DE9F0419B
:4018000007460D46036813F4006F02D04FF0800801E04FF040084FEA5808D7F80863C6F308062C6926E00134EB689C4200D100246B699C420FD12B6B0BB1082098476B69D7
:401840009C4208D10023C7F8C83F0CB1013C13E0EC68013C10E0D7F84023D7F8003303F00F03072B02D8AB681A5502E0AB6823F81420013E002ED6D12C61EC68294638466D
:40188000FFF7B0FF201A804519D908B1441E00E000243B6813F4006F01D0802300E040239C4204D340F25E210648FFF717FCD7F8040320F0FF03E0B21843C7F80403BDE8A6
:4018C000F08100BFD04E081038B504460D46D0F8003E13F0080F35D0D0F8CC3F13F448730AD04A681A434A60C0F8C03FD0F8C03F0B6B0BB110209847D4F8CC3F13F4006F9F
:4019000009D06B6843F400636B604FF40063C4F8C03FD4F8C03FD4F8CC3F13F0010F11D0EB6923B129462046FFF728FD05E0AB681BB129462046FFF761FF0123C4F8C03FB9
:40194000D4F8C03FD4F8003E13F0040F2ED0D4F88C3F13F4A0630AD02A681A432A60C4F8803FD4F8803F2B6B0BB120209847D4F88C3F13F0010F08D029462046FFF790FC3A
:401980000123C4F8803FD4F8803FD4F88C3F13F4007F0BD00022C4F8882F2B6823F001032B60EA622B6B0BB10220984738BD00BF10B50378012B02D0082B29D02EE01B4B0A
:4019C0001B78012B2CD00320FFF750F8184B984228D0FFF7EEFB174B1860022004F056F8044604F05EF8022C05D1032805D0052805D1002404E0104C02E0002400E00E4C3A
:401A00000D4B9C420FD10B4B1868FFF7D6FB0AE0084B1868FFF7D1FB002404E0064C02E0054C00E0044C204610BD00BFCC4103080101880034760208FF00420008B50378F6
:401A4000022B1CD0082B14D0012B1ED1124B1B78012B1CD0FFF7ADFB104B5860022004F015F8022815D00D4B5868FFF7A6FB0C4808BD0A4B5868FFF7A0FB002008BD074B8B
:401A80005868FFF79AFB064808BD054808BD044808BD002008BD00BFCC41030834760208FF00420010B5044C2046FFF7CDFA04F11800FFF7C9FA10BDB042020810B5A8B10F
:401AC0000D4A9060C36A0BB10C4A136000240C4B1C700C4B1C700C4B1C600C4B1C7000F05FF90B4B1C700B4B1C7000E00A4CFEF749FE204610BD00BF34760208C441030819
:401B0000DC410308E0410308E4410308E1410308CB410308D04103080100160010B590B0354B0CAC186859689A68DB680FC42822002102A802F03AFB304B02930CAB04937A
:401B400042F65413ADF8143004238DF816302C4A92681269069241F2660207921B22ADF82020ADF8222003228DF824208DF8253006238DF8263010238DF827308DF8283073
:401B80008DF829307223ADF82A3001238DF82E301C4C2046FFF720FA04F11800FFF71CFA03F070FF08A803F0C7FF034600BB164B039302A803F088FF0346B0B90122134B98
:401BC0001A700023124A1370124A13700C4B9B681A6A00929B6ADB88ADF804300823ADF8063068460CF032FD034600210A4A1160184610B010BD00BF544F0810BD21081060
:401C000034760208B0420208F44A0208CC410308D4410308D5410308E441030818B1034A1060002070470248704700BFC04103080100160008B5044B1B689847034B1B68A4
:401C400003B1984708BD00BF58760208C041030808B510B1034A52689047034B1B6803B1984708BD58760208C041030870B5C0B006460C4615464FF480720849684602F04C
:401C80008AFA05E016F8012B6A401DF80250013C002CF7D1284640B070BD00BF644F081008B50022FFF7E2FF08BD00BF08B5FFF780FA08BD08B5FFF780FA08BD08B501202E
:401CC000FFF7C8F808BD00BF08B5FFF7F7FF08BD08B50120FFF796F808BD00BF08B5FFF7F7FF08BD08B5094B58601960012208491046FEF7F9FF034628B900220549012034
:401D0000FEF7F2FF0346184608BD00BF58760208511C0810351C081038B515460B46024601210020FEF788FF044618B129460120FEF7FAFF204638BD704700BF704700BF55
:401D40000020704700487047110016000048704711001600004870471100160000487047110016000048704711001600004870471100160000487047110016000048704783
:401D800011001600004870471100160000487047110016000048704711001600704700BF08B5024800F0CEFD08BD00BFDC430208F8B5022872D8002972D10022134606E0B7
:401DC0003B4CE45C012C01D90132D2B20133002BF6D0012A0CD1374B1B681C6801EB8102930023445B681B79023BDBB2012B59D8314B1B78002B57D1304B1970E0B92D4F46
:401E00003C68236801EB8105AA009D186668C1EBC1014B001E44B18829822168114449686468E45A0C8039680C682244526849680B445B8853801EE001281CD11D4F3C68A1
:401E4000236801EB8105AA009D186668C1EBC1014B001E44B1892982216811444D68616819440989298039680C682244526849680B445B895380124B18700E4B1B68186817
:401E80000E4B1B7803EB83039A00104408F07AF9034650B90121084A117006E0094B04E0084B02E0084B00E0084B1846F8BD00BFD44103083C760208D5410308CA41030864
:401EC000E14103080100160002001600FF00160070B439B9144B1B681B689968CE7F00231D460EE0104B1B681B68D968CE7FF6E7CA5C52B10133CC5C1B2C01D0134400E094
:401F00000125B34201D2002DF2D05DB101338279CA54002204E0D4180134855C0D550132052AF8D970BC70473C76020870B504460CF0D8FB054620BB134B1968086A2289CD
:401F400002EB82029300143B03445A6812F0007F17D0E67B1B695A68CB69D21A06EB4606B318A28821680948184402F014F9E37B074AD35C012B04D1064A137843F002037D
:401F80001370284670BD00BF3C760208D8410308D0410308CB41030830B587B002891A4B1B685B699B889A4229D1044601AB07C883E807000022ADF81020A289ADF81220B5
:401FC00040228DF814201846FFF7B0FF054680B923681B7803F002039BB22BB10B4B1B6821460B48984704E0084B1B68214609489847094A137803F0FE03137000E00025E3
:40200000284607B030BD00BF3C760208C44103080500010006000100DC41030838B50289531E9BB2112B1AD8C17BD1B90E4B1C68256A02EB82029300143B2B445A6812F0B2
:40204000007F09D01B695A68E369D31A01EB41011944064B5B5A13800CF012FB38BD012038BD012038BD00BF3C760208D84103084288531E9BB2112B1AD84178D1B910B4DF
:402080000F4B1868046A02EB82029300143B23445A6812F0007F0FD01B695A68C369D31A01EB41011944074B5B5A1380002004E0012070470120704700205DF8044B704749
:4020C0003C760208D84103080E4B1B7813F0010F17D100B583B071B18389ADF800300389ADF8023012238DF804308DF8051068460BF0DCFB02E0C0680BF0F8FB03B05DF8C3
:4021000004FB7047DC41030810B4044688B10023194606E0104A52F82320944200D1012101330D4A1279934206D20029F2D0002003E00021094800E0002050B949B9064BE3
:402140001B792BB9044A42F823400133137100E003485DF8044B7047E8410308010016000300160070B506460D460020044606E0084B53F824302946304698470134054B0B
:402180001B799C4204D2044B1B7813F0010FEFD170BD00BFE8410308DC41030883792BB100207047C25C32B9013300E00023052BF8D9002070470120704700BF70B58CB01B
:4021C00004460D46B94A137843F00103137044F20A03984200F0E98136D841F20403984200F01E8314D841F20103984200F0FC8003D8B0F5805F65D017E341F202039842C7
:4022000000F0F58041F20303984200F029810CE344F20403984200F036810AD842F20403984200F0B78043F21203984200F0A780FBE244F20603984200F0028244F20803DB
:40224000984200F0F981F0E245F20E03984200F0B1821BD845F20203984200F07A820AD844F21003984200F0A38145F20103984200F02582D9E245F20303984200F0828283
:4022800045F20C03984200F08782CEE245F21403984200F0BA820AD845F20F03984200F08C8245F21003984200F0AC82BDE245F21703984200F0AC8246F20103984200F0CE
:4022C000FB81B2E27A4B1E683046FFF767FF60B1304608F047FF764E00213068FFF7F8FD01213068FFF7F4FD37E0724B1A68936A1B791BB34FF0B05191F8043603F03F03F6
:4023000091F8050600F03F0043EA801391F8030600F01F0043EA003391F8001601F07F0143EA4143126B1370624A1168096BC3F3072048701268126B1B0C93705D4E3368C3
:40234000186B08F00FFF33680021186BFFF7C0FD33680121186BFFF7BBFD564B1B68986A023009F015FB544A05AB1068516803C305A808F01BFF0222504B1A7055E20023EC
:402380004E4A13704E4A13700A20FEF78DFEFFF789FB4AE24B4B1B6813F0010F40F045820023ADF814308DF81630424E33689B6A93F900308DF8143005A808F011FF336898
:4023C0009B6A93F901308DF8143001238DF81530FF238DF8163005A808F002FF394A136843F00103136020E2FFF7BCFE1DE24978354B1B88ADF81430002319E0334A32F8E8
:402400001320ADF808209DF8092012B93048825C00E00022012A0AD92C4A12F81320914205D12A4A32F81330ADF8143002E00133002BE3D09DF81530FF2B05D104D14FF4A1
:4024400072712448FEF74AFEBDF81430ADF82030ADF81C30C3F3072329781F4AD154E4E10B78002B40F0E1810B7A33B91B4B0022DA809A801A4A1A604B600C4A137803F013
:40248000FE031370D1E149790F4B1B88ADF81430002336E00D4A32F81320ADF80C209DF80D20FAB90A48825C1DE000BFDC410308E04202083C76020864500810CC4103082B
:4024C000D5410308E44103086C500810C8410308D441030870500810E041030878780208487402080022012A0AD9B54A12F81320914205D1B24A32F81330ADF8143002E076
:402500000133002BC6D09DF81530FF2B05D104D14FF47271AB48FEF7E1FDBDF81430ADF82430ADF81430C3F307236978A64AD154EB78002B40F079816979A44B1B88ADF889
:402540001430002319E09E4A32F81320ADF810209DF8112012B99E48825C00E00022012A0AD9974A12F81320914205D1944A32F81330ADF8143002E00133002BE3D09DF8F8
:402580001530FF2B05D104D14FF472718D48FEF7A5FDBDF81430ADF82830ADF81430C3F3072301218B4AD1543FE1FFF7DBFD3CE10B7E012B02D10022874B1A70E97E834B4E
:4025C0001B88ADF81030002319E07D4A32F81320ADF814209DF8152012B97D48825C00E00022012A0AD9764A12F81320914205D1734A32F81330ADF8103002E00133002BFC
:40260000E3D09DF81130FF2B05D104D14FF472716C48FEF763FDBDF81030ADF82C30ADF81030C3F30723FF2B02D0297E6B4AD15402226B4B1A70F8E00222694B1A70F4E063
:40264000FFF790FD674B1B7813F0010F00F0ED80614B1B78012B03D102225F4B1A70E4E0032B03D100225C4B1A70DEE0022B40F0DC800022584B1A705B4B1B685B685B4A1B
:402680001178C1EBC10203EB42039A79002A00F0CC809B88002B00F0C880554B1B78002B40F0C3800120FFF783FB002840F0BD800122494B1A70B8E0FFF754FDB5E00B88AD
:4026C000ADF800309DF801301BB90221404AD15405E023B94FF461713A48FEF7FFFC6A782988374B23F812106B780021414AD15403EB4301404E88193B4B1B681B692A78BB
:4027000002EB420202F58352134433F8062F9B788A538370687800EB400002213044FFF7BFFA6B7803EB430333449B7898420BD0324B1B680021324898476B7803EB4303CA
:40274000981900229A53827029462046FFF70AFD6BE00B88ADF804309DF805301BB900211B4AD15405E023B94FF461711548FEF7B5FC6B780021174AD15429462046FFF7A7
:40278000F1FC52E00B88ADF814301723ADF8163005A80BF097F848E00846FFF7FDFB014620B929462046FFF7DDFC01462846FFF78BFC3AE0FFF7D6FC37E0FFF7D3FC34E0F6
:4027C000C841030870500810D04103086C500810D441030870780208D541030874780208CC410308DC4103083C760208CA410308E1410308E0410308D8410308C441030835
:4028000004000100FFF7AEFC0FE0FFF7ABFC0CE00846FFF72DFC29462046FFF7A3FC04E00A4A137843F001031370094B1B7813F0110F09D0064A137803F0FE031370054BA2
:402840001B682946204698470CB070BDCB410308DC410308C44103081C4B1B68002B34D01A4B5B681B685A8803899A422DD18388012B2AD103681B78022B26D810B588B085
:40288000044603AB07C883E807000022ADF81820A289ADF81A2040228DF81C201846FFF745FB80B9A389ADF8043000238DF806300294064B1B6801A905489847054A1378E9
:4028C00003F0FE03137008B010BD704784780208BF000100DC41030800B587B000238DF81730009301930293039304930123ADF80430074B5B681B685B88ADF808300DF120
:40290000170300936846FFF711FB07B05DF804FB84780208B0F5803F11D208B583B245F20202934207D045F20E02934205D10846FFF792FF01E0FFF7CFFF002008BD002098
:40294000704700BF50B110B5064C60600648FFF7DBFB63685B681BB1236010BD0348704710BD00BF847802081529081001001600044B18605B6813B158600020704702481D
:40298000704700BF8478020802001600DAB11346D8B901291BD100B587B0002202920392049205920193ADF808100B4B5B681B685B88ADF80C3001A8FFF730FB08B1074811
:4029C00007E0002005E005487047044870470348704707B05DF804FB847802080100160000F1080343604FF0FF328260C360036100230360704700BF00230361704700BF49
:402A000043684B609A688A609A68516099600861036801330360704730B40D68B5F1FF3F01D1026907E000F1080200E01A4653681C68A542FAD253684B6099608A605160FE
:402A4000086103680133036030BC704703694268816891608268416851605A68904201D182685A6000220261186801381860704710B5044601F016F9A26BE36B9A4201D185
:402A8000012400E0002401F021F9204610BD00BF10B5044601F006F9A36B0BB9012400E0002401F013F9204610BD00BF70B504461646856B026CFAB166B9806801F06BFBD5
:402AC000A268236C1344A3606268934214D32368A36011E0C06801F05EFB236C5B42E2681A44E26021688A4202D262681344E360022E01D105B1013D0135A563002070BD48
:402B0000026C72B110B50346C4681444C4604068844201D31868D8600846D96801F03BFB10BD704738B5054601F0BCF895F8454064B20AE06B6A53B105F1240000F01EFE2C
:402B400008B100F099FE013C64B2002CF2DCFF2385F8453001F0BAF801F0A4F895F8444064B20AE02B6953B105F1100000F006FE08B100F081FE013C64B2002CF2DCFF234A
:402B800085F8443001F0A2F838BD00BF08B972B6FEE738B504460D4601F084F82168E26B236C03FB021060600020A063A160013A02FB0313E360FF2384F8443084F8453033
:402BC0007DB92369ABB104F1100000F0D7FD80B14FF08052094B1A60BFF34F8FBFF36F8F07E004F11000FFF7FBFE04F12400FFF7F7FE01F06BF8012038BD00BF04ED00E0C5
:402C000010B5029B0C4609B91B6000E01A60D8631C6401211846FFF7B9FF10BD08B972B6FEE7F0B583B0034611B101FB00F000E000201D4617460C46483001F081F90646B5
:402C400038B100903B4600F1480221462846FFF7D7FF304603B0F0BD08B972B6FEE7884201D272B6FEE710B50C4602220021FFF7D5FF034600B18463184610BDF0B585B024
:402C8000019208B972B6FEE7044619B9026C1AB9012202E0012200E000220AB972B6FEE7022B03D1E26B012A02D102E0012200E000220AB972B6FEE71D460E4600F0E4FDB1
:402CC00018B9019B1BB9012302E0012300E000230BB972B6FEE7002700F0E4FFA26BE36B9A4201D3022D21D12A4631462046FFF7DDFE636A6BB104F1240000F03FFD88B1EA
:402D00004FF08052324B1A60BFF34F8FBFF36F8F08E038B14FF080522D4B1A60BFF34F8FBFF36F8F00F0D2FF01204EE0019B1BB900F0CCFF002048E01FB902A800F05CFDE9
:402D4000012700F0C3FF00F05BFB00F0ABFF94F844305BB2B3F1FF3F02D1002384F8443094F845305BB2B3F1FF3F02D1002384F8453000F0ABFF01A902A800F04BFDF0B91E
:402D80002046FFF775FEA0B1019904F1100000F0CDFC2046FFF7C6FE00F0BAFB00289BD14FF080520A4B1A60BFF34F8FBFF36F8F92E72046FFF7B6FE00F0AAFB8CE720462B
:402DC000FFF7B0FE00F0A4FB002005B0F0BD00BF04ED00E008B972B6FEE72DE9F843044619B9006C18B9012002E0012000E0002008B972B6FEE7022B03D1E06B012802D1DC
:402E000002E0012000E0002008B972B6FEE71F469046894601F014F8EFF311864FF0200383F31188BFF36F8FBFF34F8FA26BE36B9A4201D3022F1ED194F845506DB23A46A5
:402E400049462046FFF732FEB5F1FF3F0DD1636A9BB104F1240000F091FC80B1B8F1000F0FD00120C8F800000CE06B1C5BB284F84530012006E0002004E0012002E001207D
:402E800000E0012086F31188BDE8F88308B972B6FEE770B50446036C0BB172B6FEE703681BB943681BB9012302E0012300E000230BB972B6FEE70E4600F0C2FFEFF3118531
:402EC0004FF0200383F31188BFF36F8FBFF34F8FA26BE36B9A4218D294F845305BB20132A263B3F1FF3F0AD1636A83B104F1240000F044FC68B176B1012030600CE00133A2
:402F00005BB284F84530012006E0002004E0012002E0012000E0012085F3118870BD00BF2DE9F04184B0019208B972B6FEE7044619B9026C1AB9012202E0012200E0002203
:402F40000AB972B6FEE71F46884600F09DFC18B9019B1BB9012302E0012300E000230BB972B6FEE7002600F09DFEA56B5DB3E66841462046FFF7C4FD8FB9013DA5632369A9
:402F8000EBB104F1100000F0F9FBC0B14FF08052394B1A60BFF34F8FBFF36F8F0FE0E660636A63B104F1240000F0E8FB38B14FF08052314B1A60BFF34F8FBFF36F8F00F0AA
:402FC00085FE012054E0019B1BB900F07FFE00204EE01EB902A800F00FFC012600F076FE00F00EFA00F05EFE94F844305BB2B3F1FF3F02D1002384F8443094F845305BB2A0
:40300000B3F1FF3F02D1002384F8453000F05EFE01A902A800F0FEFBF0B92046FFF738FDA0B1019904F1240000F080FB2046FFF779FD00F06DFA002895D14FF080520E4B74
:403040001A60BFF34F8FBFF36F8F8CE72046FFF769FD00F05DFA86E72046FFF763FD00F057FA2046FFF714FD00283FF47CAF002004B0BDE8F08100BF04ED00E000230BE035
:40308000074A52F8332032B9054A42F8331002EBC303586070470133092BF1D9704700BFF041030870B504460D46164600F0FAFD94F844305BB2B3F1FF3F02D1002384F8FF
:4030C000443094F845305BB2B3F1FF3F02D1002384F8453000F0FAFDA36B2BB93246294604F1240000F034FB2046FFF71BFD70BD094B9B6A1B680BB9012300E0002323B151
:403100004FF0FF32044BDA627047034B9A6AD268D2685268DA6270478C78020810B50446006B00F07DFF204600F07AFF10BD00BF2DE9F0478246894615469846089F099EB0
:403140000A9C9200A521206B01F030F8236B05F18042013A03EB820525F00705002308E019F80310E21882F8341019F8032012B101330F2BF4D9002384F84330062F00D95D
:403180000627E762201DFFF737FC04F11800FFF733FC2461C7F10703A3616462002306E003F1100204EB8202002151600133042BF6D90023A36584F85C30424651462846AA
:4031C00000F044FD206006B13460BDE8F08700BF70B5002407E004EB8402930010481844FFF7FEFB0134062CF5D90E4C04F1BC063046FFF7F5FB04F1D0052846FFF7F0FB62
:4032000004F11400FFF7ECFB04F1E400FFF7E8FB2046FFF7E5FBA662C4F8F85070BD00BFBC7802088C78020838B5044600F03AFD264BD3F8FC200132C3F8FC20D3F80031BA
:403240004BB9224BC3F80041D3F8FC30012B10D1FFF7BEFF0DE01D4BD3F804314BB91B4BD3F80031DA6AE36A9A4202D8174BC3F80041164AD2F808310133C2F80831E36AF3
:40328000D2F80C21934202D9104AC2F80C310F4D05F1300003EB83039A00211D1044FFF7AFFB00F013FDD5F804316BB1D5F80031DA6AE36A9A4207D24FF08052044B1A6018
:4032C000BFF34F8FBFF36F8F38BD00BF8C78020804ED00E070B504460E46174BD3F81051D3F800010430FFF7B1FBB4F1FF3F07D136B11148D0F800110431FFF781FB70BD60
:403300002C440D4BD3F800315C60A54208D90A4BD3F8F800D3F800110431FFF77DFB70BD054DA86AD5F800110431FFF775FBEB6A9C4200D2EC6270BD8C7802082DE9F043CD
:4033400085B006460F4615469846900000F0F8FD60B18146602000F0F3FD044610B1C0F8309004E0484600F05BFE00E000248CB10023039302940D9B01930C9B00934346C4
:403380002A4639463046FFF7D3FE2046FFF74CFF012001E04FF0FF3005B0BDE8F08300BF00B583B0124B019300230093802211491148FFF7C3FF012801D100F0CBFA0128C9
:4033C0000DD172B60D4B4FF0FF32DA620122C3F804210022C3F8102100F0E0FC04E0B0F1FF3F01D172B6FEE703B05DF804FB00BFA8790208A8500810493608108C7802089E
:40340000034AD2F818310133C2F81831704700BF8C780208014BD3F8100170478C7802082DE9F041394BD3F81831002B5ED1374BD3F810410134C3F8104194B99B6A1B6897
:403440000BB172B6FEE7314B9A6AD3F8F8109962C3F8F820D3F820210132C3F82021FFF747FE2A4BDB6A9C4203D2002645E0012600E00026254B9B6A1B680BB9012300E047
:40348000002323B14FF0FF32204BDA6235E01F4B9B6ADB68DD686B689C4202D21B4AD3622BE005F104084046FFF7D0FAAB6A1BB105F11800FFF7CAFAEB6A144AD2F80C212D
:4034C000934202D9114AC2F80C31104F07F1300003EB83039A0041461044FFF791FAEA6AD7F80031DB6A9A42C1D2C3E7074AD2F824310133C2F824310026044BD3F82831DB
:4035000003B101263046BDE8F08100BF8C780208364BD3F818310BB972B6FEE770B500F0C1FB324BD3F81821013AC3F81821D3F81831002B52D12D4BD3F8FC303BBB002485
:403540004FE02A4D2B6ADC6804F11800FFF77EFA261D3046FFF77AFAE36AD5F80C21934201D9C5F80C31214D05F1300003EB83039A0031461044FFF743FAE26AD5F8003154
:40358000DB6A9A4204D30122C5F8282100E00024164B5B69002BD4D10CB1FFF7A9FD134BD3F8244164B1FFF73BFF18B101220F4BC3F82821013CF6D100220C4BC3F82421FE
:4035C0000A4BD3F828315BB14FF08052084B1A60BFF34F8FBFF36F8F012402E0002400E0002400F073FB204670BD00BF8C78020804ED00E038B51FE0FFF702FF114BD3F860
:40360000E440FFF785FFBCB100F04CFB0D4CD4F8F030DD68281DFFF719FAD4F8FC30013BC4F8FC30D4F81431013BC4F8143100F04DFB2846FFF772FD024BD3F81431002B73
:40364000DAD138BD8C78020808B5FFF7D3FF064B1B6B012BF9D94FF08052044B1A60BFF34F8FBFF36F8FF0E78C78020804ED00E02D4BD3F8183123B101222B4BC3F8282175
:40368000704710B5284B0022C3F82821D3F800311B6B1A68B2F1A53F0BD15A68B2F1A53F07D19A68B2F1A53F03D1DB68B3F1A53F07D01D4BD3F80001D3F80011343100F009
:4036C000DDFB194BD3F80C3103E00BB972B6FEE7013B03EB83018A0013490A44126B002AF3D008469900CC18A2000244546B64685463303019448A0008320244944206D11D
:40370000606803EB83018A0007490A445063064903EB830082000A44526BD268C1F80021C1F80C3110BD00BF8C78020808B972B6FEE710B50C46054BD3F800111831FFF733
:403740006BF901212046FFF7C5FD10BD8C78020808B972B6FEE738B50C461546064AD2F800111831FFF74CF90DB14FF0FF3429462046FFF7AFFD38BD8C78020838B5C368F1
:40378000DC680CB972B6FEE704F118052846FFF75DF9164BD3F81831ABB9251D2846FFF755F9E36A114AD2F80C21934202D90F4AC2F80C3103EB83039A0029460C48104496
:4037C000FFF71EF903E029460A48FFF719F9E26A064BD3F80031DB6A9A4204D90120034BC3F8280138BD002038BD00BF8C780208BC780208A078020808B972B6FEE7044AD3
:40380000D2F820110160D2F810214260704700BF8C78020808B972B6FEE738B5044609B972B6FEE70D4600F03DFA124BD3F810112A68B2F1FF3F13D02068D3F820319842A0
:4038400002D0636899420DD26368C81A82420BD95B1A13442B602046FFF7CEFF002404E0002402E0012400E0012400F02FFA204638BD00BF8C7802080122024BC3F828212F
:40388000704700BF8C780208064BD3F804312BB1044BD3F818311BB90220704701207047002070478C780208064B1A681368B3FA83F35B09036013B9D368186870470020F4
:4038C000704700BFB879020808B54160006191420AD8D21A83699A4211D2011D0A4B5868FFF79AF8002008BD9A4201D2994208D2011D054B1868FFF78FF8002008BD012097
:4039000008BD012008BD00BFB879020870B500F0C9F90E4B9B68B3B90C4C04F10C063046FFF75EF804F120052846FFF759F82660656000220C210A20FFF770F9A06010B16F
:403940000349FFF79BFB00F0C1F970BDB8790208B050081000B583B0FFF7D8FF0A4B9B6853B10A4B0193032300930023802208490848FFF7E3FC00E0002008B972B6FEE789
:4039800003B05DF804FB00BFB8790208EC790208B8500810E93B081008B972B6FEE730B585B015460446124A9068F0B11A46019102950394052913DCFFF766FF022807D11F
:4039C0000023089A01A90A488068FFF757F90DE000231A4601A906488068FFF74FF905E0002301A9FFF7F6F900E0002005B030BDB879020870B582B022E0DB681E68DC6870
:403A0000251D2846FFF722F8636A20469847E369012B15D1A36933449E4207D26360246129460D4B1868FEF7F7FF09E0002100910B4632462046FFF7AFFF08B972B6FEE764
:403A4000054B1B681A68002AD7D1034A51681160536002B070BD00BFB879020838B50546FFF7D8FC0446074B9B6B984204D2FFF7C1FF01232B6001E000232B60014B9C6389
:403A8000204638BDB879020870B582B005460E46104B1B68DB68DC68201DFEF7D7FFE369012B11D1A1692B46324629442046FFF70BFF48B1002100910B462A462046FFF725
:403AC0006BFF08B972B6FEE7636A2046984702B070BD00BFB879020870B582B006460C46FFF78EFC01A8FFF7B9FF019B1BBB054644B9B04206D3FFF70BFD29463046FFF779
:403B0000C3FF1AE02CB10E4B5B681C68B4FA84F464092246711B0A4B9868FFF7C3FAFFF7F7FC50B94FF08052064B1A60BFF34F8FBFF36F8F01E0FFF7EBFC02B070BD00BF53
:403B4000B879020804ED00E030B587B03FE0039B002B3CDB059C636913B1201DFEF776FF02A8FFF77BFF039B092B30D8DFE803F00505052F202C05052F200499A5690B46B9
:403B8000024629442046FFF79FFE00B3636A20469847E369012B1AD1A269002100910B46049802442046FFF7F7FE80B972B6FEE70499A16109B972B6FEE703460246014464
:403BC0002046FFF781FE02E0204600F029FA00231A4603A903488068FFF7A2F90028B6D107B030BDB879020800B583B001A8FFF75BFE0199FFF770FFFFF7A6FFF6E700BFF8
:403C0000044B1B68B3F1FF3F01D072B6FEE772B6FEE700BFE442020806480068006880F3088862B661B6BFF34F8FBFF36F8F00DF00BF000008ED00E0DFF80C00016841F472
:403C4000700101607047000088ED00E04FF0807340F8043C21F0010140F8081C054B40F80C3C40F8202C6FF0020340F8243C4438704700BF013C08100000000000000000B6
:403C8000074B19680868B0E8F04F80F30988BFF36F8F4FF0000080F311887047AFF300808C79020872B6074A136801331360012B06D1054B1B6813F0FF0F01D072B6FEE7A3
:403CC000704700BFE442020804ED00E0054B1B680BB972B6FEE7013B024A136003B962B6704700BFE44202080000000000000000EFF30980BFF36F8F154B1A681EF0100F0A
:403D000008BF20ED108A20E9F04F10604DF8043D4FF0200080F31188BFF34F8FBFF36F8FFFF7A6FC4FF0000080F3118808BC19680868B0E8F04F1EF0100F08BFB0EC108A93
:403D400080F30988BFF36F8F704700BFAFF300808C79020808B572B6FFF762FB18B14FF08052024B1A6062B608BD00BF04ED00E0064B1B68064AA2FB03239B09013B054A8C
:403D800013600722044B1A60704700BF98420208D34D621014E000E010E000E000B583B0224B1A78D2B20192FF221A701B78DBB28DF803309DF803301D4A03F020031370C5
:403DC0000723536009E01A4A5368013B53609DF803305B00DBB28DF803309DF8033013F0800FF0D1124A53681B0203F4E0635360019BDBB20D4A13700E4B1A6842F47F02B6
:403E00001A601A6842F07F421A60FFF7B1FF0022094B1A60FFF710FF084A136843F040431360FFF7F9FEFFF7EBFE00BF00E400E0F479020820ED00E0E442020834EF00E0A2
:403E4000EFF305830F2B08D9094A9B5CDBB2094A1278934201D272B6FEE7074B1B6803F4E063044A5268934201D972B6FEE77047F0E300E0F47902080CED00E008B572B6E2
:403E800040F20B310148FDF729F9FEE7C0500810134A12F0070F07D0D11D21F00701C1F5404313440A4601E04FF440430D49C1F858250020C1F85C051344083B23F00703D1
:403EC000C1F8603558601860981A50601360C1F86405C1F868054FF00043C1F86C357047FC790208A4340308134B00E013461A688242FBD310B45C681919884203D1416886
:403F0000214459601846446801198A420DD10B49D1F860158A4206D05268224442601A681268026002E0016000E00260984200D018605DF8044B7047FC390308A43403081C
:403F400070B50446FFF75CFA344BD3F860350BB9FFF79EFF314BD3F86C351C424ED15CB1083414F0070F07D024F00704083404F007030BB172B6FEE7002C41D0274BD3F815
:403F800068359C423ED8254BD3F8585503F5AB6301E02B4615466A68944202D92A68002AF7D11E4AD2F8602595422DD01E6808362A681A606B681B1B102B09D9281910F00C
:403FC000070F01D072B6FEE743606C60FFF78CFF6A681249D1F868359B1AC1F86835D1F864158B4202D20D49C1F864350B4BD3F86C351A436A6000232B6006E0002604E02D
:40400000002602E0002600E00026FFF781FA16F0070F01D072B6FEE7304670BDA434030848B338B50346A0F1080550F8042C1249D1F86C1512EA010401D172B6FEE750F847
:40404000080C08B172B6FEE7A4B198B91C4622EA010243F8042CFFF7D3F954F8043C064AD2F868150B44C2F868352846FFF73CFFFFF74EFA38BD7047A434030870B539B9D6
:4040800000240AE015F8010BFCF78EFB013402E016460D460024B442F4DB204670BD00BF70B551B900240DE0FCF78AFBC0B2287001340A2806D0013502E016460D46002472
:4040C000B442F1DB204670BD88B108B5094AD062094B1B7833B91046FDF7F0FC0122064B1A7000E0002020B9FDF718FD08BD0348704708BDE8420208143A030801001600D7
:4041000008B502490248FDF7DFFB08BD404203080000664008B5114B1B785BB9104A11491148FDF7A7F911491148FCF779FB01220A4B1A700E4BB3F90030002B08DB590945
:4041400003F01F03012202FA03F30A4A42F82130054A136843F00043136008BD3C3A030840420308985208100000664001410810444D081000E100E010B50139024490422D
:4041800007D010F8013B11F8014FA342F7D0181B10BD002010BD10B5431E0A44914204D011F8014B03F8014FF8E710BD02440346934202D003F8011BFAE7704770B50E462D
:4041C000054618B183690BB900F0CCFAAB69AC6813B9284600F0C6FA224B9C4201D16C6808E0214B9C4201D1AC6803E01F4B9C4208BFEC68A3891B0701D523693BB92146D9
:40420000284600F04FF910B14FF0FF3070BD013EA36816F8011F013BA36091B1002B04DAA269934206DB0A2904D023685A1C22601970EDE72246284600F0E0F80130E7D14B
:40424000E2E7002B08DA22460A21284600F0D6F80130D9D00A2070BD23680A205A1C2260187070BDBC570810DC570810FC570810024B01461868FFF7A1BF00BF04460208B8
:404280002DE9F7431D464F4B1E6804460F46904626B1B36913B9304600F064FA4A4B9C4201D1746808E0494B9C4201D1B46803E0474B9C4208BFF468B8F1020F04D0B8F11D
:4042C000010F79D8002D77DB2146304600F0E0F9616B41B104F14403994202D0304600F033FB002363630023A3616360A3891B0603D52169304600F027FBA38923F44A6303
:4043000023F00303B8F1020FA3811ED001AB6A462146304600F0B0FAA3891843A0810DB9009D00E02FBB284600F006FB0746D0B9DDF80090A94502D14FF0FF3006E04846B3
:4043400000F0FAFA074678B9F6E70020A38943F00203A3810023A36004F1470323602361012363612AE0A946A38943F08003A3814D46B36913B9304600F0F4F9B8F1010F7C
:4043800008BFA389276004BF43F00103A381A389276103F0080080B2656158B113F001034FF000001DBF6D42A060A561A56008BF184603E0A06001E04FF0FF3003B0BDE82A
:4043C000F08300BF04460208BC570810DC570810FC57081010B5034642B111F8014B03F8014B013A002CF7D11A4400E010BD934202D003F8014BFAE710BD0000F8B50F46E1
:404400001446064618B183690BB900F0ABF9224B9C4201D1746808E0204B9C4201D1B46803E01F4B9C4208BFF468A369A360A3891A0709D523693BB123682069181A63699F
:404440009842FDB20FDB08E02146304600F02AF80028F1D04FF0FF30F8BD2146304600F017F90028F6D1A368013BA36023685A1C22601F706269431C934204D0A389DB07DD
:4044800007D50A2D05D12146304600F001F90028E0D12846F8BD00BFBC570810DC570810FC570810324B70B51D6806460C4625B1AB6913B9284600F055F92E4B9C4201D160
:4044C0006C6808E02C4B9C4201D1AC6803E02B4B9C4208BFEC68B4F90C309AB215071DD4D00602D4092232603AE0510712D5616B41B104F14403994202D0304600F024FA44
:4045000000236363A38923F02403A3810023636023692360A38943F00803A38123694BB9A38903F42073B3F5007F03D02146304600F0C6F9A28912F0010305D00023A3608D
:4045400063695B42A36103E0920758BF6369A36023695BB9B4F90C3003F0800080B230B143F04003A3814FF0FF3070BD002070BD04460208BC570810DC570810FC570810A6
:404580008A892DE9F041054610070C4659D44B68002B02DC0B6C002B17DDE66AAEB102F48052002392B22F682B600AB1606D15E0216A01232846B047411C0FD12B686BB1F1
:4045C0001D2B01D0162B03D12F600020BDE8F081A38943F04003A381BDE8F081A3895A0705D56368C01A636B0BB1236CC01A00230246E66A216A2846B047431CA38906D1E0
:4046000029681D293AD8214ACA40D60736D500226260D9042269226004D5421C01D12B6803B96065616B2F600029CED004F14403994202D0284600F087F900206063BDE8D8
:40464000F0810F69002FC0D093070E6808BF4B690F6018BF0023C7EB06088B6002E00744C0EB0808B8F1000FAFDD43463A46216AA66A2846B0470028F1DCA38943F0400327
:40468000A3814FF0FF30BDE8F08100BF0100402038B50B6905460C46DBB118B183690BB900F060F80C4B9C4201D16C6808E00B4B9C4201D1AC6803E0094B9C4208BFEC68DA
:4046C000B4F90C302BB121462846BDE83840FFF757BF002038BD00BFBC570810DC570810FC570810014900F0A9B800BF91460810002310B504460360436083608181436633
:40470000C281036143618361194608225C30FFF74DFD054B6362054BA362054BE362054B2462236310BD00BFC14A0810E34A08101B4B08103F4B081070B568234D1E5D43CB
:404740000E4605F1740100F04DF9044640B1002180E842000C30A06005F16802FFF726FD204670BD836910B5044633BB8364C3640365124B124A1B688262984204BF0123B6
:40478000836100F01FF86060204600F01BF8A060204600F017F80022E06004216068FFF7A7FF01220921A068FFF7A2FF02221221E068FFF79DFF0123A36110BDB85708105C
:4047C000E5460810F8B51C4B1E68B369074613B93046FFF7C7FF4836B4687368013B04D4B4F90C507DB16834F8E733680BB13668F2E704213846FFF79FFF30600028F6D1B6
:404800000C233B60F8BD4FF6FF73E3810123A38165662560A560656025616561A5610822294604F15C00FFF7C1FC6563A563A564E5642046F8BD00BFB85708102DE9F84319
:404840008046894600F14804002694B1A5686768013F0CD4AB89012B07D9B5F90E30013303D029464046C84706436835F0E72468EBE73046BDE8F88370B50E46B1F90E10D6
:40488000002990B014461D4606DA00232B60B3891A060ED540230EE001AA00F077F90028F3DB029A02F47042A2F500535A425A412A604FF480630020236010B070BD00000E
:4048C0008B8973B59E0705460C4610D401AB6A46FFF7D2FF00990646284600F083F868B9B4F90C309A0522D443F00203A38104F14703236023610123636118E00D4BAB62EF
:40490000A389206043F08003A381009B6361019B20614BB1B4F90E10284600F049F918B1A38943F00103A381A0893043A08102B070BD00BFE5460810024B0146186800F01C
:4049400051B800BF0446020838B50546002946D051F8043C0C1F002BB8BFE41800F04AF91F4A1368114613B96360146032E0A3420ED92268A018834204BF18685B68636033
:4049800004BF121822600C6024E0A24203D813465A68002AF9D118681918A1420BD12168014458188242196014D1106852685A60014419600EE002D90C232B600AE02168DA
:4049C0006018824204BF10685268626004BF091821605C602846BDE8384000F00CB938BDB441030870B5CD1C25F0030508350C2D38BF0C25002D064601DBA94202D90C235B
:404A0000336046E000F0F6F8234B1C681A462146A1B10B685B1B0ED40B2B03D90B60CC18CD501EE08C420DBF63684B686360136018BF0C4615E00C464968E9E7174C236860
:404A40001BB9304600F02CF820602946304600F027F8431C18D0C41C24F00304A0420DD12560304600F0C7F804F10B00231D20F00700C31A0ED05A42E25070BD211A3046FA
:404A800000F00EF80130EBD10C233360304600F0B2F8002070BD00BFB4410308B041030838B5064C002305460846236000F0D6F8431C02D1236803B12B6038BD7842030847
:404AC00010B50C46B1F90E1000F096F80028ABBF636DA3891B1823F48053ACBF6365A38110BD2DE9F0411F468B89DB0505460C46164605D502230022B1F90E1000F068F8B8
:404B0000A389B4F90E1023F48053A38132463B462846BDE8F04100F017B810B50C46B1F90E1000F055F8431CA38915BF606523F4805343F48053A38118BFA38110BDB1F9AA
:404B40000E1000F013B8000038B5074C054608461146002222601A46FFF790FA431C02D1236803B12B6038BD7842030838B5064C002305460846236000F050F8431C02D10A
:404B8000236803B12B6038BD7842030838B5074C0023054608461146236000F047F8431C02D1236803B12B6038BD00BF7842030838B5064C002305460846236000F03EF853
:404BC000431C02D1236803B12B6038BD7842030838B5074C054608461146002222601A4600F034F8431C02D1236803B12B6038BD784203087047704738B5074C05460846B2
:404C00001146002222601A46FFF74AFA431C02D1236803B12B6038BD78420308024B58221A604FF0FF30704778420308024B58221A604FF0FF30704778420308024B58220C
:404C40001A600020704700BF78420308024B58221A604FF0FF30704778420308044A05491368002B08BF0B461844106018467047B841030880420308F8B500BFF8BC08BC44
:404C80009E467047F8B500BFF8BC08BC9E467047537461636B20537461727465640D0000436F6E6E65637465640D0000446973636F6E6E65637465640D0000004E6F206122
:404CC0006C6572740D0000004D656469756D20616C6572740D0000004869676820616C6572740D00424C45205461736B20537461727465640D00000053797374656D205303
:404D00007461727465640D00626C655461736B000300000001000000010000000000000005036000040000000100000000000000010000000604600008000000C4750208F4
:404D4000650708102E0000000700000047656E6572617465645F536F757263655C50536F43365C70646C5C647269766572735C7065726970686572616C5C737973696E74AF
:404D80005C63795F737973696E742E630000000047656E6572617465645F536F757263655C50536F43365C70646C5C647269766572735C7065726970686572616C5C697027
:404DC000635C63795F6970635F6472762E68000047656E6572617465645F536F757263655C50536F43365C70646C5C647269766572735C7065726970686572616C5C697042
:404E0000635C63795F6970635F6472762E63000047656E6572617465645F536F757263655C50536F43365C70646C5C647269766572732F7065726970686572616C2F697060
:404E4000632F63795F6970635F6472762E68000047656E6572617465645F536F757263655C50536F43365C70646C5C647269766572735C7065726970686572616C5C6970EE
:404E8000635C63795F6970635F706970652E630047656E6572617465645F536F757263655C50536F43365C70646C5C647269766572735C7065726970686572616C5C736327
:404EC000625C63795F7363625F756172742E680047656E6572617465645F536F757263655C50536F43365C70646C5C647269766572735C7065726970686572616C5C7363D9
:404F0000625C63795F7363625F636F6D6D6F6E2E6800000047656E6572617465645F536F757263655C50536F43365C70646C5C647269766572735C70657269706865726169
:404F40006C5C7363625C63795F7363625F756172742E63002400060030000100280002002400020000316253C4F5A697B988DBEA7D4C1F2E4372211087B6E5D4FACB98A931
:404F80003E0F5C6D86B7E4D5427320113F0E5D6CFBCA99A8C5F4A796013063527C4D1E2FB889DAEB3D0C5F6EF9C89BAA84B5E6D7407122137E4F1C2DBA8BD8E9C7F6A594E1
:404FC00003326150BB8AD9E87F4E1D2C02336051C6F7A495F8C99AAB3C0D5E6F4170231285B4E7D67A4B1829BE8FDCEDC3F2A1900736655439085B6AFDCC9FAE80B1E2D3E1
:4050000044752617FCCD9EAF38095A6B4574271681B0E3D2BF8EDDEC7B4A192806376455C2F3A0914776251483B2E1D0FECF9CAD3A0B586904356657C0F1A293BD8CDFEEA0
:4050400079481B2AC1F0A3920534675678491A2BBC8DDEEF82B3E0D1467724153B0A5968FFCE9DAC3F06000000000000FFFF000047656E6572617465645F536F7572636598
:405080005C50536F43365C70646C5C6D6964646C65776172655C626C655C63795F626C655F6761702E68000049444C4500000000546D725100000000546D7220537663004C
:4050C00047656E6572617465645F536F757263655C50536F43365C70646C5C72746F735C4672656552544F535C392E302E305C536F757263655C706F727461626C655C470E
:4051000043435C434D34465C706F72742E630000000000000100120001000028010000000B0000000018000000000000020003280100020003000000002A00000000000014
:405140000300002A01000201030000000600000030430208040003280100020005000000012A0000000000000500012A010002010500000002000000384302080600032825
:405180000100020007000000042A0000000000000700042A01000201070000000800000040430208080003280100020009000000A62A0000000000000900A62A01000201F6
:4051C0000900000001000000484302080A000328010002000B000000C92A0000000000000B00C92A010002010B00000001000000504302080C000028010000000F000000EB
:4052000001180000000000000D000328010020000F000000052A0000000000000E00052A000020010F00000004000000584302080F00022901010A030F000000020000004E
:40524000604302081000002801000000120000000218000000000000110003280100040012000000062A0000000000001200062A0001040112000000010000006843020889
:40528000010003000500070009000B000C000E000F00000010001200000000000C000000080000000002000000000000000000000000000000000000000000000000000069
:4052C000000000000B00000000000000000000000000000000000000000404000104080002041400030C200004042C0005064800919B081025A0081025A0081025A00810E3
:4053000025A008100D860810E186081025A0081025A0081025A0081025A0081025A0081025A0081025A0081025A0081025A0081025A00810B99D0810059E08103D940810B2
:40534000419608101D9A0810A9740810000000005C570810FC56081008000000110F091000000000CC550810185508100F00000000000000000000000000000000000000F7
:405380000000000001200000ADAB081006200000F1AC081007200000C1AB081008200000B1AC081009200000B1AD08100A200000ADAA08100B20000075AD08100C20000070
:4053C0003DAD08101020000009AB08101120000089AA0810122000008DAC08101420000029AD08101520000021AB081017200000DDAA08100E2000000DAB0810ACFD0000F8
:4054000083AF0810ADFD000077AE0810A0FD0000EDAF0810A1FD0000D7AE0810A2FD000013AF0810A5FD0000E3B00810A6FD000047B00810A8FD000049AE0810A9FD0000DD
:405440001FAE0810AAFD00003BAF0810ABFD0000A9B00810AFFD000039AF0810C3FD000095B00810B0FD00000DB00810B2FD00005BB008100514000067AB08102D0C0000EC
:4054800041AC08107B0C0000EFAB08107C0C0000E5AD081027200F2028201020292010202B200A202C200B202D200D202E200C204E20172000000100010000010001020288
:4054C000030002000000000002020100020000010001000501000502020300020000000000020501000500002D070910950809109D07091001010B0102028102820503049A
:405500000403840906090709080909090A09050A0C0B0D0D0E0E00000100000001000000000000000200000004000000020000000300000007000000050000000400000009
:405540000A00000008000000050000000C0000000B000000060000000E0000000D00000007000000100000000F00000008000000130000001100000009000000160000006B
:40558000140000000A0000001700000017000000FF00000018000000180000000B0000001B000000190000000C0000001D0000001C0000000D0000001F0000001E000000A2
:4055C0000E0000002100000020000000010000006D2B0910FEFFFFFF392A0910010000006D2B091006000000312D0910F8FFFFFF392A091018001200552A0910A000000C25
:40560000AD27091047FFEDFB392A0910E8000C00A529091000012000B52809101FFED3FF392A0910A000000CA13109105FFFFFFB392A091000020000F92F0910FFFDFFFFCE
:40564000392A0910000C0000B5260910FFF3FFFF392A0910000A0000592909100100000079290910FEF7FFFF392A091000200000F927091000400000A9300910FF9FFFFF4B
:40568000392A0910FFFFFFFF3F2A0910FFFFFFFFAD26091000800000A926091000000100A5260910FF7FFEFF392A0910008001009D260910FF7FFEFF392A091000008003ED
:4056C00099260910FFFF7FFC392A091000801F0AA1260910FF7FE0F5392A09100000000000000000000000000000000087000000000000000000000000000000810000007D
:405700000000000000000000820000000100000001000000010000000200000002000000020000000400000003000000030000000600000005000000F100000007000000D1
:4057400007000000F20000000900000008000000FF0000000A0000000A000000020000003136091001000000313609100E0000002535091002000000693509100C000000C3
:405780000D35091002000000A93509100C0000000D3509100E000000313609100C0000006D360910020000000D3509100E000000B136091043000000A44502080000000037
:4057C00000000000000000000000000000000000000000000000000000000000000000000000000000000000000000000000000000000000000000000000000000000000A9
:4058000000000000000000000000000000000000000000000000000000000000000000002DE9F05F00250746041D00F1180840682E4E4FF6FF7A88B1616879B180070DD1EC
:40584000207A80070AD198F80E0038B12849084600F0A2FB10EA0A0002D044E0354642E02289A37ADFF88C90206858B1C9F800000025A9F80420A9F80650A9F8083029468C
:40588000FEF794FCA07A801D00F0FF0B5946606800F072F8050021D1404601F06DF905001CD1E06820B1384600F0CCFA050015D1B9F80400B9F80610884206D3401A80B248
:4058C000594600F0A9FE20B100E05046354628B109E0A07A801DC0B200F0C6F900F0DAF90549012008702846BDE8F09F010016008D5B0810403A0308E4430208034800783A
:40590000012801D100F018BD70470000E443020810B500F073FB0449002008608880C88008810249087010BD403A0308E443020870B5044600208A0703D001F00302891A1C
:40594000091D084B89B2DA889E885518B54206D81D682A442260DA881144D98070BD024870BD0000403A0308030016000148008970470000403A03082DE9F84705460C46E2
:405980000020890000908A466846FFF7D1FF07004BD12748009B0022036017E003F82220062A08D2234803EB820100EB820046784E70408807E005EB8200183803EB8201D3
:4059C00086784E700088521C4880D2B2A242E5D300251EE005F1010909F0FF0015E003EB850203EB8001B2F802C04E88B4450AD991F80180A1F802C092F801C081F801C011
:405A0000568082F80180401CC0B2A042E7D309F0FF05A542DED347B951466846FFF788FF070002D10449009808603846BDE8F887E8430208D8520810EC430208F0B5002393
:405A400019E05A1C00EB830612E030F8235030F82240A5420BD2778820F8234000EB8204B4F802C0A6F802C020F822506780521C8A42EAD35B1C8B42E3D3F0BD00487047A1
:405A80004C3A030805F0EABCFFF738BF10B5022401F016F810B100F03DFF00B90124204610BD05207047000010B5002428B110220349FEF770FB204610BD024810BD00001F
:405AC0004C3A030801001600F8B506004FF000008DF8000006F1040407D020892081304601F0C6F8050002D011E01248F8BDA17A6A46606801F096F8050008D1E06830B152
:405B0000708C000903D0304600F0FAF905462089208165B93046FFF783FE050007D1304600F09EFF0546A17A6068FFF787FF2846F8BD00000100160038B504004FF00000A0
:405B4000ADF8000008D06189090A05D1617A102902D8E179102901D90A4838BDA0816946204600F0B9FF0500A089BDF800100844A08104D1102221460348FEF70CFB2846D2
:405B800038BD0000010016004C3A030870470000002809D005494A68002A05D0011F087852F8200000F0E2BC70470000E843020810B50446FFF7DAFEC0B2801DA0420BD361
:405BC0000648406840B150F8240000F03BFC002801D000F8044B10BD002010BDE8430208F8B516460D460446FFF7C0FEC0B2801DA04203D24FF0FF300090F8BDB2B2E9B22A
:405C0000684600F049FC0099481C03D00248406840F824100098F8BDE84302082DE9F0410746FFF7A3FE801D0B49C6B2002005460C680CE0617839B16188B94202D320785E
:405C4000FFF7B6FF002804D1241D6D1CEDB2B542F0D3BDE8F0810000E8430208002801D0FFF796BF7047000070B506460848002504680AE0617829B162882078121D002350
:405C8000FFF7AEFF241D6D1CEDB2B542F2D370BDE84302081CB50024142001908DF800402346064A694606480BF0C0FE04480068401C01D14FF6FF7420461CBDFD5C081082
:405CC000F04302080EB50C4A0146002312684FF6FF7004290DD009290AD109200093ADF80800ADF80A30694610460BF09CFE80B20EBD04200093F2E7F043020870B5D0E915
:405D00000054468900890C282DD2DFE800F02C2C0606112C2C152C191C27E0B23246294609F076F8E0B23246294600F035FD1AE000200BF087FB16E02878FCF72FF812E0AF
:405D400000F008FE0FE0E8B2022C02D008F0A6FD09E0FF2807D002F02BFF04E02846022C03D008F071FE002070BD03F0FBF9FAE70148006800F0C8BAF04302082DE9F04190
:405D80001F4F0026386D60B1796D51B14218891E12F8024C0022FBF769FF844201D0194E2BE0002505EB850307EB8304606800B357F82310E9B16289D7F854C0624518D2C7
:405DC00094F80CC01CF0090F02D0FEF7E4F90AE009780170606831B1628957F82310083A08310830F1E723691BB10122207B114698476D1CADB2042DD4D33046BDE8F0816D
:405E00005C3A0308FFFF1600F0B5C10701D040F008000B4CFF2184F85D10002101250E4601EB810204EB820205FA01F3177B03409F4200D11681491CC9B20429F0D3F0BDCC
:405E40005C3A030870B5124900B3418C114CC1F30711002584F85C10016921654069C4E91505FF2684F85D6028464FF6FF7300EB800204EB8201401C4B8144F822500D6145
:405E80000E73C0B20D810428F1D30021084670BD010016005C3A030810B5174B48B3417839B3002202E04908521CD2B20029FAD102EB8201114A02EB810111F8084CFF2C59
:405EC00017D103787BB1438821F80A3C946D136D234441F8143C4488936D2344936582680AB141F8042C103942780A72406800230860184610BD0000010016005C3A0308AA
:405F0000F0B5428C234C46690021C2F30712D2B3D3070BD090F8203003EBC30505EB431501EB850101EB031101F14001530715D5C37F2C2513FB05F55FEA857C4FF00C07B1
:405F400023D003EB430505EBC30307EB830505F00305C5EB830505F11005294492070ED590F821004FF00803C20095070FD003EBC00202F00302C2EBC0020C321144891C21
:405F80008E4200D300242046F0BD0C35E5E70832F4E70000010016000F4A10B5002313600E4A13600E4B18600E4801600E49012008600E49086000020E4990600C48086023
:405FC0000D4914300860A0F58A70506000F0D0F800F008FA002010BD0C440208F443020820440208244402081044020800440208BC3B030804440208184402080020704711
:4060000010B501004FF0000010D0094B1A689C681144A14209D25868196010448A0704D001F00302891A091D196010BD002010BDF44302082DE9F04102461A4F002010251C
:406040003B1F4FF0FF38444639681B6807E000EB800605EB86068E59761C1ED0401C9842F5D3601C16D004EB84060C2000EB86000A5002EB42008000FFF7C2FF396841F857
:40608000260060B1396805EB8602002088507868401C78602046BDE8F0810446E1E74046F9E70000044402082DE9F0410F464FF0FF36002821DB2249096888421DD8E7B1D7
:4060C000DFF87C8000EB800508F104081020D8F8001000EB85040859401C0ED0FBF7FEFDD8F800000C2202EB8502015950F802C04346614504DBFBF7E7FD3046BDE8F08106
:40610000082101EB8506815950F8250001EB410500EB85003D6805607D684560BD6885601868491C82588A4200D10021815118680159491C0151FBF7C7FD0020DEE70000BD
:4061400000440208002803DB08490968884202D94FF0FF307047054900EB8000091D1022096802EB8000085870470000004402082DE9F0430020134A0427441E03464FF010
:40618000080C1025A2F10409506014E000EB8001166807EB8108401C46F8083016680CEB810846F80830166805EB810846F80840166846F82130D9F800108842E6D3002099
:4061C000BDE8F083044402082DE9F0410E464FF0FF3700284CDB29490968884248D8EEB3DFF8988000EB800408F104081020D8F8001000EB84054859401C39D0FBF76EFD1E
:40620000D8F800004346415949B3042101EB8407C25950F8240002EB420100EB8100521CD0F800C0C6F800C0D0F804C0C6F804C08068B060186850F8240000EB81000021BD
:406240000160416081600C21186801EB84014158914200D10022C251186801E008E009E04159491E4151FBF72FFD0020BDE8F0813846FBE7FBF728FDFAE7000000440208EC
:406280002DE9F0470D4601001E4C4FF00000089E80464FF0FF37206010D0606885420DD262B15EB1642E09D804F10C09C5EBC501D9F8000000EB8104207A10B13846BDE811
:4062C000F0870120226020721846FFF7B3FE6060401C13D06681A6812761676199F80410A94201D289F8045041460B4661F30F030A46284600F052F82846E0E784F80880E9
:40630000DCE700000C44020810B5002810DB0949496888420CD80749C0EBC0000C31096801EB80004068FFF70DFF08B1002010BD012010BD0C440208FEB5174E4FF0FF37BD
:406340003D4600240DE03068C4EBC40100EB8100017A29B14068FFF7F5FE08B1254603E0641C3079A042EEDA681C13D03068C5EBC50100EB8104FBF7B1FC69466068FFF760
:4063800023FF0546FBF7A0FC002DD9D1216868468847D5E7FEBD00001844020838B50024009400F001F838BD1FB500220C49541E00280A6012DB496888420FD80849C0EB0B
:4063C000C0000C31096801EB800001A94068FFF76BFE401C02D0002004B010BD2046FBE70C440208F0B50021154A4E1EA2F10C0711710B46BE601EE0C1EBC1000425146869
:4064000005EB800566511468082505EB800544F820301468635514680C2505EB8005635314680A2505EB800563531825146805EB8000491C265078688142DDD30020F0BD80
:406440001844020838B5041E4FF00000009012DB1048007884420EDA0E4D0C35286800EB0411096839B1042101EB04110844694600F047F908B1002038BDFBF72FFC0F217A
:40648000286801EB0411425C521E4254FBF71CFC009838BD284402082DE9F74F8A46002500996C1ED21C0C604FF6FC71DFF8B88002EA0107A8F10C0128460A78D8F80010A1
:4064C00005E001EB00131B687BB1401CC0B29042F7D3601C2CD0042000EB041B01EB0B00514600F0FDF818BB01E00446F1E7D8F800000C2101EB041147520E22D8F8001009
:4065000002EB041207FB0AF001F802A00F22D8F8001002EB041201F802A000F0ABF8D8F8001001EB0411086010B1814600260EE0012516E0D8F8001001EB0B00494600F028
:40654000FAF808B1012500E0B944761CF6B25645F0D335B90098046098F80410491C88F804102846BDE8FE8F34440208F8B54FF000070D46041EADF800703ADB25480078B5
:40658000844236DADFF88CC00CF10C0CDCF8001001EB0410006860B30C2202EB04128E5A0E2202EB041285428B5C06FB030220D395421ED2002205E002FB060EAE4504D0D5
:4065C000521CD2B29A42F7D39FB1042000EB0417C81966466A46294600F0C7F848B9BDF80000012807D030682946384400F0A3F818B10120F8BD0020F8BDFBF76FFB0F216A
:40660000306801EB0411425C521C4254FBF75CFBF1E70000284402082DE9F0410D46002400F03CF8002821D11149002201F10C034A600C210E264FF00F0E14E01F6801EB41
:40664000041C07EB04173A601F6827F80C201F6806EB041C07F80C200EEB041C1F68641CE4B207F80C20AC42E8D31A71BDE8F0812844020800280BD0074AC01C20F00301D9
:40668000506853880144994203D8936851601844704700207047000028440208F8B5064600200E4D00900C01297021466846FFF73FF958B905F10C0100980860301B001FD5
:4066C00084B221466846FFF733F910B14FF6FF70F8BD6C800098A8600020F8BD2844020830B50D4604000AD0A800FFF7C3FF606028B125704FF0FF306080002030BD01200C
:4067000030BD70B50D46040004D01DB1B4F90200002801DA012070BDFBF7E0FAB4F90210606850F8210028606088401E6080FBF7CBFA002070BD70B50D46040006D02DB1B0
:406740002078B4F90210401E814201DB012070BDFBF7C4FA6088401C00B26080616841F82050FBF7B1FA002070BD70B500231D4610B1B0F902400AE0012070BD466856F80A
:4067800023608E4201D1012503E05B1CDBB29C42F4DA1570002070BD70B586B015460E460446182200216846FDF700FD00238DF800308DF80140ADF804506846029600F00E
:4067C0000CF906B070BD00000EB501890091407801900A20ADF808000020ADF80A000348694600680BF01FF90EBD0000F04302080EB541680091417801910221ADF808103F
:406800000089ADF80A000348694600680BF00BF90EBD0000F043020800F0DEB802490020488000F071B800003C4402082DE9F041074621480125002405704FF6FF75012FB6
:4068400002D0022F2FD10DE0477082801B4A128842F4807282818160174800F0BEF810BB2C4620E0164E012B20D0B6F800C0022B624492B2328010D081607188091D8A42BF
:4068800011D1104947708280098841F400718181094800F0A2F818B103E009684161ECE72C46002030802046BDE8F0814A887280096801610420F5E7EC3B03082045020848
:4068C0003C440208A444020870B504460D4600EB4400C20000212846FDF768FC074A0020074914711560907150710648FBF7FAF908B1002070BD012070BD000040440208F0
:40690000C9670810F167081001491420FFF7DCBF043C030810B5FBF7C9F906494A7989798A4201D1012400E00024FBF7C3F9204610BD00004044020805494879401CC0B2A5
:4069400048710A79904201D100204871704700004044020810B5FBF7BBF90B4948798A7990420DD0096800EB400001EBC000AFF21B020649FBF7D0F910B10920FFF7A2F95C
:40698000BDE81040FBF79AB9404402083969081070B5104C0146A2796379501CC0B2834216D02579854200D193B1206802EB420200EBC2001822FDF7EEFBA079401CC0B22F
:4069C000A0712179884201D10020A071012070BD002070BD40440208704710B5FFF7D8FF0446FFF7B7FF204610BD000010B5124802F0D2FB68B9114801F0EEFF48B91149F3
:406A00000F480860084600F025FA10B90E4809F0D9F804000ED1FFF7B1F90404240C04D0002141F2050000F07FF900214FF4805000F07AF9204610BD958108103F8508102D
:406A400019BB081050440208F1B6081010B504F06FFB03F0A5FCBDE8104004F0F3BC000070B50546041D00F1180600F09BF9124829680160616809888180A17A03290ED38B
:406A800061688979017261684989C1F34701417261688989C180B1798172B17BC17200F091F8002806D100F0A5F8002802D1034A0121117070BD0000E43D030848440208D7
:406AC00010B502F053F9012803D1FFF751F9012800D0002010BD00002DE9F0411C4D0C46060005D0DFF86C8098F8000018B16D1C2846BDE8F081708908F0F6FA308808F0D9
:406B0000F9FA0500F4D1304609F02CFF0746304603F010FB0744304600F0CAFF384400F634102080304605F05EFC218808442080B17BC1EBC10100EBC1002080304601F0C6
:406B4000E1FB218808442080A8F80400D0E70000010016004844020810B505F0DBFB03F0F7FA00F077FF09F027FF01F089FBBDE8104008F08DBA000010B5040010481DD0EC
:406B8000204608F08DFA002818D1204601F086FB002813D1204609F01BFF00280ED1204600F060FF002809D1204603F0D7FA002804D12046BDE8104005F0B8BB10BD00000D
:406BC00001001600094810B50949C07A887000F025FF064801F0A0FB002806D103F0D0FABDE81040014805F0DFBB10BDE43D03084844020810B500220849094800F0D6FE91
:406C000010F0FF0008D000220449054800F0CEFEBDE8104004F0E2BE10BD0000ED69081059A80810F0B5002635461670334616E030F82340082C0AD900EB83077F8837B1E7
:406C4000083C20F823401478641C147005E053B100EB830420F8235065805B1CDBB28B42E6D33046F0BD014EFBE7000001001600F0B52B4B041D002099881B7802460BB1F1
:406C80002848F0BD274E2368083E4BB127898F4206D3616821B100234FF0020CA57A35E03046F0BD0CEB820431F804E0BEF1000F28D031F822402CB304FB0E339BB23AB197
:406CC000012A0ED0022A11D0032A14D000201BE0B1F800E08C78BEF1230FE1D3032CDFD310E08C8874B1302CDAD30BE00C894CB1282CD5D306E08C8924B1233C4FF6BA7EF8
:406D00007445CDD20028CCD1521CD2B29542C9D8C5EBC50103EB81018F42C1D3F0BD00004844020809001600034A1268002A02D0002800D010477047E43D030870B50446BB
:406D400005F04FFB01F0F4FB00F010FE144D012C11D0022C0ED1002143F21200FFF7E4FF00F020F8FEF7D4FDFFF7F6FEFFF76EFE0020287070BDFEF781FE4489FFF722FFE2
:406D800038B9FFF737FF20B901202870204608F0ABF9BDE87040002143F20100FFF7C4BF48440208024800210160416081607047E43D030830B50C46054600F00DF8002897
:406DC00006D1044A6978126802EB0111C988218030BD0000544402080B4B024642F6137051781B7899420DD2084B1B6803EB01110B7A6FEA03039B0704D4127809788A4219
:406E000000D10020704700004A4402085444020810B50A490A4B027809781B68491EC9B203EB01142478A24202D14170002010BD0029F3D14FF6FF7010BD00004A440208A9
:406E4000544402080249096801EB0010807B70475444020842F6117138B1006828B105490A6822B142F61470704708467047086000207047584402082DE9F74F84B01546A5
:406E800004980E4660B1152E05D01E2E0BD9D22E09D0522E07D042F6127007B0BDE8F08F42F61170F9E700200390049890F80180FF208DF808000498FFF78EFF07002ED102
:406EC000DFF854A542F6147B1B2E0CD01D2E0AD0F0070BD0012E06D0DAF8001001EB0810007BB0421AD1F00703D00FE01E2EF3D0F9E71E2E14D0DAF8001001EB0810407B23
:406F000020B1522E0CD0D22E08D109E01D2E07D1DAF8001001EB0810407B08B15F46D6E0012E20D0DAF8001001EB0810C088001DFEF774FE040018D002214FF0010942F629
:406F400016700F2E75D013DC4FF005024FF0030729D2DFE806F0282BFB48FA54F971F880F78FF685F5000920E2E742F60577AEE0182E6FD009DCA6F11002082A13D2DFE8F2
:406F800002F0E7B5FDE81212EBEB1E2E7ED006DC192E7BD01B2E01D01D2E04D1EEE0522E75D0D22E74D042F612778DE0E878042809D0DAF80030A97803EB0810007B401EB0
:406FC00081420ED105E0DAF8001001EB0810007B38B1A87860712888A071000AE071E878F7E05F4670E02988172901D207466BE0ADF8067028886071000AA07144E02879AF
:40700000012817D01027ADF8061028796071EA88BDF80630BF1C201D7A4318442968FDF7BAF8BDF80600E98807FB0100ADF806002AE050E00227E6E7ADF80690A888296811
:407040008200601DFDF7A7F8BDF80600A98800EB8100EBE7D0E1ADF80610A888801C5CE0286808B1A88828B9012003900020ADF806900090434601222146284600F0EEFB8D
:40708000070026D00398F8B1267102E061E075E076E100208DF80A008DF80960304600F09FFA04998DF808006A460988ADF80410BDF806100094091DADF8061001460020C2
:4070C00002F0CAFF070002D02046FEF7C7FD3846E3E6E8889DE1ADF80690AA88601D2968FDF759F8BDF80600A988AFE0EA88002A3FF47CAFAA88002AFAD0DAF8007007EB19
:407100000813DB885B1E9A42BFF670AF2A68002AEED0ADF80610A888001DA8806071AA88E888BDF806304243201D18442968FDF732F8BDF80600A988EA8801FB020075E71B
:40714000DBE0BFE0B5E083E047E033E021E003E0DEE0ADF8069097E729890029C8D0ADF80690221D288909F80200BDF80670631D010AF954BDF80600801C4EE04346012253
:407180002146284600F046FB07009DD1E888C01C4CE729881729FFF429AFADF8067028886071000AA071DAF80020298802EB0810418069E7298800299AD06B88002B97D0E0
:4071C00099423FF613AF6171080AA0716888E071000A2072ADF8062056E72A89002A87D06989002984D08A42EBD8ADF80690221D288909F80200BDF80670631D010AF95480
:40720000BDF80670A11D68897854010ABDF80670E01D3954BDF80600001D81B2ADF80610A8898854BDF80610000AC854BDF806004346801C82B2ADF806202146284600F080
