:020000041000EA
:4000000000400208310100100D000000950100100000000000000000000000000000000000000000000000000000000091010010000000000000000091010010910100109B
:4000400091010010A5040010910100109101001091010010910100109101001091010010910100109101001091010010910100109101001091010010910100109101001049
:400080009101001091010010910100109101001091010010910100109101001091010010910100109101001091010010910100109101001091010010910100109101001020
:4000C00010B5064C2378002B07D1054B002B02D0044800E000BF0123237010BD5404000800000000EC260010084B10B5002B03D00749084800E000BF07480368002B00D102
:4001000010BD064B002BFBD09847F9E70000000058040008EC260010EC000008000000007047EFF3108072B6704780F310887047FFF7F6FF72B6104C104DAC4209DA216882
:400140006268A368043B02DBC858D050FAE70C34F3E70B490B4A0020521A02DD043A8850FCDC094809490860BFF34F8F00F000F900F01EF8FEE70000F0260010082700107D
:4001800054040008200600080000000808ED00E0FEE7FEE700B504207146084202D0EFF3098001E0EFF30880043001F06DFAFEE710B562B6014800F04FF9FEE700000810DC
:4001C00070B56249E0239B00CB580F2213401A00D0329200525807210A40032A05D0042A06D0002A12D15A4814E05A4A106811E01A00C0329200554952581F210A40112ABF
:4002000006D0132A04D0FA20C00103E0524801E080200002002B36D14C4BB222D2009A5801211140B125ED005A59120F032422405B591B0F1C4207D0444C63591B0F032458
:400240002340012B02D102E0012300E00023002B01D0002901D1032A4BD13C4BB022D2009D58AD03AD0B3D495958C904C90C9C58240E01231C40013401F090FA6843210050
:4002800001F08CFA35E0012B33D1304BC822D2009A5801251540C024E4001A59120F03210A401B591B0F194207D028490B591B0F03210B40012B02D102E0012300E00023CE
:4002C000002B01D0002D01D1032A12D11F4DC022D200AB587F210B40A958090A1F263140AC58240C3440584301F058FA210001F055FAE0239B00154AD3581B090322134070
:40030000D840144C6060164B1D692D0AFC32154001351969090E013101F040FAA060290001F03CFA0500E06020610E4BC0180E4901F034FA20750D4BE818FA21890001F079
:400340002DFAA061C003E06170BDC0460000264000127A00C000000800366E0184050000000021403F420F0040420F00E703000010B5234BB021C9005A58520052085A50F5
:40038000E02080001A583024A2431A50802252045A501C491C4A9950A021890104329950FF211A4A995081315A58920092088020C00502435A505A588020000602435A5050
:4003C0005A58012082435A5000F0A8F9FFF7F8FE00F070F800F078F800F0F8FFB0235B055B78002B04D0B0235B055B78DBB200E02123212B03D1064B0022DA605A6010BD8F
:400400000000264001000200840500008C050000E00023408023024AD3580320184070470000214010B5FFF77CFE084980228C58074B2340074C23438B508823034AD358D1
:40044000DB06FAD5FFF771FE10BDC04600002140FCFF00000100FA0570B50500FFF761FE0400FFF7D7FF032801D1FFF7DBFF0A4AB0239B00D55080215058084B0340084806
:40048000034353508823044AD358DB06FAD52000FFF74BFE70BDC04600002140FCFF00000300FA0510B5024800F062FD10BDC0467004000810B5034A60328021042000F089
:4004C00047FB10BD7005000810B501F046F90400044800F0FDFB044800F064FC200001F040F910BD7004000814190010FEE7C046F0B50025002711E0BB00C658F3B2FF226B
:40050000964308E06A008A181478A419527822700135013BDBB2002BF4D10137002FEBD0F0BDC0460323064A1360064A136080225201054B1A60054A054B1A607047C04644
:4005400008203140102031409402364001001180000E1F4130B587B0574BA021C9005A58032082435A50554990240A59544802400A510A691202120A8024640422430A613C
:400580000A6910400861E022920099580F20814399509958213081439950995880200006014399500021012000F044FD0021022000F040FD0021032000F03CFD0021042066
:4005C00000F038FD0021002000F034FD01A83D4903000A0032CA32C312CA12C300F052FD002802D00420FFF781FF3349364A8B588020000603438B50344800F0FDFD00288F
:4006000002D00420FFF772FF2B4C314BE158314A0A40E250E158304A0A40E250E25880252D062A43E250043BE1582C4A0A40E250E1582B4A0A40802189010A43E250E25814
:40064000802109020A43E250264A1168264B0B40802149000B431360002001F085F8234AA3581D43A550A3580125AB432B43A3506421002001F020F81D4B1E4A9D501E4873
:4006800019580F4A1140C424A401214319508021C9001A4858505858002419481C50802000011C582240FE24240222431A50154A5A505B5807B030BD0000264000002140FB
:4006C000FF00FFFF48190010087F0000400D030004050000FEFCFFFFFFFF00FFFFF0FFFFFF8FFFFF00002740FFFCFFFF0C050000000001404C0C00000408000001FF0080A8
:40070000CC0C000000FF008010B50A00002101F0DAF810BD10B501F0CDF810BD70B58AB09621002000F0C8FF00F09EFF002801D100F08AFF012000F009FF4A4A516C4A4BAE
:400740000B40E82189010B435364536C1B0AFF2213403A2B07D1434A516C444B0B40E82189010B435364FFF7F5FE414A414B1A6000240CE06200121953003F4AD318198BC3
:400780009A8AD88A00041043FFF7BEFF01340B2CF0D900240AE0620012199300364AD3185A6E196ED86DFFF7B5FF0134112CF2D9324D2900343128003830FFF799FE304ABC
:4007C0001368812149000B43136001AC22002B003C3343CB43C243CB43C243CB43C22100284800F0FDFD24220021200001F06BF8012301932100244800F0F2FD22002B0069
:40080000603323CB23C223CB23C223CB23C221001E4800F0E5FD24220021200001F053F88623019321001A4800F0DAFD2200194B043323CB23C223CB23C223CB23C22100B2
:40084000154800F0CDFD24220021200001F03BF86023E3602100114800F0C2FDFFF762FE0AB070BD00002740FF00FFFFFFC5FFDF0300FA05F001214048190010481A00104D
:400880000079344000003240800032400003324080033240C81A0010000432408005324010B583089A00801AC000FF228240D44381400A40072B32D89B001949CB589F4694
:4008C000184B196A0C4022431A6228E0154B596A0C4022435A6222E0124B996A0C4022439A621CE00F4BD96A0C402243DA6216E00C4B196B0C4022431A6310E0094B596BB1
:400900000C4022435A630AE0064B996B0C4022439A6304E0034BD96B0C402243DA6310BD202400100000214083089A00801AC100FF228A40072B2BD89B001748C3589F46DC
:40094000164B186A1040C84023E0144B586A1040C8401EE0114B986A1040C84019E00F4BD86A1040C84014E00C4B186B1040C8400FE00A4B586B1040C8400AE0074B986B5B
:400980001040C84005E0054BD86B1040C84000E00020C0B27047C046402400100000214070B504000D000B4B9A680B4B9A420BD1002903D1FC21094800F038FE1034064B49
:4009C000A400E058E55003E01034A400044BE05870BDC04600ED00E0000000086024001000000010F0B583B0041E019150D04368032B03D93621294800F018FE0023E05E58
:400A0000002802DBA178FFF74BFF0023E25E6368002A12DB9008224EC0308000875903210A40D200FF25290091408F4399012B000B4093403B43835117E092B20F2111409A
:400A400008398908063189001648844661444E6803200240D200FF2738009040864398013B000340934033434B600E4B9A680E4B9A420FD1019B002B03D14521074800F078
:400A8000D5FD0023E05E0199FFF78AFF002002E0064800E0002003B0F0BDC0466024001000E100E000ED00E0000000080100560070B504000D000369002B0ADA0B0C03D018
:400AC0000549064800F0B2FD2D042D0C6560002000E0034870BDC046A7020000A424001001008A0070B505000C000368002B01DA002300E0084B002B0BD1EA60230C03D0B2
:400B00000649074800F092FD2404240CAC60002000E0014870BDC04601008A008E020000A424001070B505000C1E03D19921064800F07CFD2B69002B03DAEB68236000209A
:400B400000E0024870BDC046E424001001008A00F8B504000E0015000F283FD8002A10D100290ED10F2804D99E21FF31214800F05DFD6401204B9C466444204B1C60002029
:400B800037E0002D2CD0002E2CD0F3062CD10F2C04D99E21FF31174800F048FD6401164B9C466444154F3C607E60BD60F2080021280000F088FE00212000FFF779FF3A004D
:400BC00001CA0021FFF78EFF00280FD10B4B18680021FFF76DFF00280AD10AE0084808E0074806E0064804E0054802E0054800E00448F8BD24250010000023400006000872
:400C000003018A0001018A00F0B583B00D001C4B1B68DC68236883422DD947097B01C01A012383401E00002903D100F096FD019001E000230193124B18680368002B01DA8F
:400C4000002300E00F4B002B0ED16368BF00DF193B68334203D0B3433B60002400E00A4C0021FFF725FF00E0084C002D04D1019800F077FD00E0064C200003B0F0BDC0468F
:400C80000006000801008A00020188000301880004018A000A4B1B68DA68136883420BD943095901401A0121814052689B009B580B4203D0034802E0034800E00348704712
:400CC000000600080101880004018A0000018800034B1B68002B01D1014B18607047C0460C060008F0B5474680B404000F0090461E00072803D9B421254800F097FC254B2E
:400D00001B682C2060431C18FF22150035402560330A13406360330CA3600F2D04D99E21FF311D4800F082FC6B011C4A94466344236165680F2D04D9DC214900164800F01C
:400D400075FC6D01164B9C4665446561A668330C04D0EB214900104800F068FC330C04D0D821FF310C4800F061FC3604330C1E43AE604346E36127620023A361069B002BB2
:400D800002D000229B5EA38104BC9046F0BDC046642500100C060008242500100000234000102340F0B58FB0041E03D150212E4800F03CFC6368032B03D952212A4800F064
:400DC00035FCE36A002B03D15621274800F02EFCE368072B03D95721234800F027FC236A072B03D95821204800F020FC236B002B03D159211C4800F019FC07AA130021004A
:400E000061C961C321C921C302AD290023001433C1CBC1C141CB41C10821535E0CAE3380079B1933B370089B0D930B9B0A980096A26AE16AFFF756FF2B69E8680022009285
:400E40000021FFF74FFF216B3000FFF7CBFD0023F25E002A05DB1F231A401E3B9340034A13600FB0F0BDC0466425001000E100E0F8B505000F0016001C00002A03D1FC21B4
:400E8000244800F0D3FB072D03D9FD21214800F0CDFB072F03D9FE211E4800F0C7FB1E4B1B682C2128004843181879435918012213004D68AB401B044568AA40150002691B
:400EC000002A20D08F69002F1FD11268002A01DA002200E0114A002A19D132681204120C134333600369DE6001238B614C6204692B0C03D00A490B4800F098FB2A04120CC6
:400F0000A260002004E0084802E0084800E00748F8BDC046642500100C06000801008A008E0200002425001004028A0007028A0070B505000C001600072804D96021FF31EC
:400F4000084800F073FB084B1B682C2068431818C369B34204D9036AB6009C51002000E0024870BD642500100C0600080A028A0070B582B0040000230193002804D1D921EF
:400F800049002B4800F052FB2369002B04D1B421FF31274800F04AFB6369002B04D1DA214900234800F042FB236A002B04D1B621FF311F4800F03AFB6269D5682B0C1FD00D
:400FC0001B041360136820690369002B18DA01A9FFF7A8FD00280ED1019803681E0CFF221340E269934207D29B00226AD358002B02D0984700E0002631002069FFF758FDB2
:401000002D042D0C0FD063691D601B68636A002B03D098470023636203E0A36A002B00D098470023A36163691B6802B070BDC0466425001004281DD8042904D94B1EFF3B7D
:401040009BB2132B18D8FF290CD91F2319400B4A0300C0339B009950D03080000423835000200AE007231940D0308000034BC150002002E0024800E0014870470000264006
:4010800001004A0070B5041E04D1EF2149004C4800F0CCFAB023DB004A4AD358002B01DB002500E0484D002D00D086E0474B22689A4204D9EE21FF31414800F0B7FA2368EC
:4010C0009B03990BE3791B068022520413400B43B022D2003B498B50A2883D4B9A4204D9FA214900364800F0A1FA2289394B9A4204D9F621FF31324800F098FAA388DB0488
:40110000D90C23891B04344A13400B43334A2D498B50A37A0F2B04D9FC21FF31284800F085FAE37A0F2B04D9FE214900244800F07DFAA289264B9A4204D9FE21FF312048F7
:4011400000F074FAA37A0F211940E27A1201FF2313400B43A289120221490A401343A27B1207C02189050A401343B122D20015498B50A379072B03D91A49114800F056FAA7
:40118000228A144B9A4203D917490D4800F04EFA0C4816494658164B1E40A3791B02E022D2001340334343504658124B1E40238A1B04094A134033434350280070BDC046D7
:4011C000A42500100000264003004A00FFFF0300FF1F0000FF0100000000FF018405000000FF1F0005020000060200008C050000FFF8FFFFFFFF00FE70B505002D492E4AF4
:401200008B588020000603438B502C0003E0012000F000FA013CB223DB00264AD3585B0701D4002CF3D12349B122D2008858234B03408020800503438B50002D02D00ED076
:40124000002C0CD01B49B022D2008B588020000603438B5003E0012000F0DCF9013CB223DB00144AD358DB0701D4002CF3D1002D0ED0002C0CD10F4AB021C90053585B00C1
:401280005B0853500C4953585B005B0853500BE0084B0221B222D2009950B121C9005A58C020800502435A50002C01D1044800E0002070BD000026408C050000FFFFFFCFFC
:4012C00002004A00214B984230D00ED8402831D004D800281FD010282AD031E080282BD080235B00984229D02AE0194B984229D007D8A0231B0698420DD0164B984212D08B
:401300001EE0154B98420AD0144B984209D0144B984215D101E0002016E0124814E0124812E0124810E0A020C0030DE007480BE00F4809E00F4807E00F4805E0034803E0FD
:401340000E4801E0A420C0037047C04606005200010000F0090000A0040000F0050000F0030000F0010052000200520003005200010050000200500005005200FF005200DD
:4013800010B50C4B1B69002B11DB0B4B1868FFF799FF0121094B0A4AD150084B084AD358002BFAD1074BD358002BF6D100E0064810BDC04600002340100600080C04000060
:4013C000000025408C0400000200500010B5022202490020FFF7ACFD10BDC0463501000870B505000C00002848D0002948D0FF230A689A4303D08D21224800F017F9FF236D
:4014000022699A4303D08E211E4800F00FF9A3685B0D03D08F211B4800F008F963685B0A03D09021174800F001F9E3695B0F03D09121144800F0FAF8236A5B0F03D0922127
:40144000104800F0F3F8104BEB18DB090F4A944663441B0122682A60E268AA622269EA6262692A63A2686A626268AA61A2696A63E2691A60226A5A60002002E0044800E0AC
:40148000034870BD2C2600100000CEBF0010030401005A00034A9369802149040B4393617047C04600F02540024A9169024B0B409361704700F02540FFFFFFFE10B5074AD9
:4014C000074813580F24A34302210B43135004381358A3431943115010BDC0460000214004F0000010B5074A074813580F24A34303210B43135004381358A34319431150CB
:4015000010BDC0460000214004F000000449054A8858054B0340C020C00103438B5070470000214004F00000FF8FFFFF0449054A8858054B03408020C00103438B507047D2
:401540000000214004F00000FF8FFFFF70B50500012803D92A492B4800F068F800F0FDF80400294B294AD3581F221340E822D200B02149058A5CD31A5A1E9341DBB29D4210
:4015800039D0002D14D1FFF785FFFFF797FF1F481D4943581F229343143A13434350FFF7B5FFE823DB00B0225205D35CDAB211E01648154943581F229343143A134343504A
:4015C000092000F027F8FFF7B1FF114BB0225205D35CDAB20D4E0C4831581F23994313400B433350012D06D1092000F013F8FFF779FFFFF759FF200000F0B3F870BDC04680
:40160000ED060000AC2600101CFF0000000026404107000010B5034B1B78584300F094F810BDC046D400000801BEFEE770B50D00044C18220100200000F04DF9A5610020C3
:40164000FFF7F2FF18040008054B802212069A649B6C002B01DB002000E002487047C0460000274003004600054B8022120198585B68FF221A4202D08023DB0218437047F9
:4016800000002640FEE7C04610B50A4B0268DA6142681A6282685A62C2689A620269DA6242691A6382695A63C2699A63FFF7EAFF10BDC04618040008F0B5002801D01922DA
:4016C00000E064228A42924152421C4BE8256D005C590327BC433A4014435C515C59184E34405C51D03D5C59BC4322435A515A5916405E51002805D010290DD921290DD804
:40170000012014E01D290BD93A290BD957290BD978290BD803200AE0002008E0022006E0002004E0012002E0022000E00420054A13680F218B4303431360F0BD0000214062
:40174000FFFCFFFF000025400230800803D001300238FCD1C046C0467047EFF3108072B6704780F310887047042805D1094A116804230B4313600CE00006C0239B041840EE
:4017800090239B00044AD050024A136804218B431360704710E000E000002140002243088B4274D303098B425FD3030A8B4244D3030B8B4228D3030C8B420DD3FF2209021D
:4017C00012BA030C8B4202D31212090265D0030B8B4219D300E0090AC30B8B4201D3CB03C01A5241830B8B4201D38B03C01A5241430B8B4201D34B03C01A5241030B8B42F5
:4018000001D30B03C01A5241C30A8B4201D3CB02C01A5241830A8B4201D38B02C01A5241430A8B4201D34B02C01A5241030A8B4201D30B02C01A5241CDD2C3098B4201D3AD
:40184000CB01C01A524183098B4201D38B01C01A524143098B4201D34B01C01A524103098B4201D30B01C01A5241C3088B4201D3CB00C01A524183088B4201D38B00C01A08
:40188000524143088B4201D34B00C01A5241411A00D20146524110467047FFE701B5002000F006F802BDC0460029F7D076E770477047C046002310B59A4203D0CC5CC454D6
:4018C0000133F9E710BD03008218934202D019700133FAE77047030030B5002A0DD00C7801335D1E013A2C700131002CF5D19A189A4202D01C700133FAE730BDF8B5C046B0
:40190000F8BC08BC9E467047F8B5C046F8BC08BC9E4670470300000001000000010000000000000005036000040000000100000000000000010000000604600008000000E9
:40194000E0050008A5040010F4010000140004010A000905080000006301000000203440740080203440740000223440740080223440740000243440740080243440740073
:40198000002634407400802634407400002834407400802834407400002A34407400802A3440740000213440F01A00109000000000233440801B001090000000002534409D
:4019C000101C00109000000000273440A01C00109000000000293440301D001090000000002B3440C01D00109000000000603440501E00107C00000080603440CC1E001062
:401A00007C00000000613440481F00107C00000080613440C41F00107C00000000623440402000107C00000080623440BC2000107C00000000633440382100107C00000062
:401A400080633440B42100107C00000000643440302200107C00000080643440AC2200107C00000000653440282300107C00000080653440A42300107C00000028C0000002
:401A800001703440080000000000000000000000006000000000000000000000000000000000000300000000000000000000000000000000000000BA00000000000000001C
:401AC000000000000000000000001D1DFE0000000000000000000000000000000000000000000000000000000004040000000000000000100000000000000000FFFFFFFF9A
:401B0000FFFFFFFFFFFFFFFFFFFFFFFFFFFFFF4FFF000000FFFFFFFFFFFFFFFFFFFFFFFFFFFFFFFFFFFFFFFFFF00000000000000061F00000000001F1F0000000000000018
:401B400000000000FFFFFFFFFFFFFFFFFFFFF7FF11111111111111111111111111111111111111111111111111111111101111111111111111111111181111111111111143
:401B80000000100A0000000000000000FFFFFFFFFFFFFFFFFFFFFF4FFFFFFF7FFFFFFFFFFF000000FFFFFFFFFFFFFFFFFFFFFFFFFFFFFFFFFFFFFFFFFF0000001F00000046
:401BC0001F1F0E1F1F1F061F1F000006000000000000000FFFFFFFFFFFFFFFFEFFFFF7FF1711111111111111111111111111111111111111111111110111111111111111E2
:401C0000111111111111110111119111101111110000B8840000000000000000FFFFFFFFFFFFFFFFFFFFFFFFFFFFFFFFFFFFFFFFFF000000FFFFFFFFFFFFFFFFFFFFFFFF0A
:401C4000FFFFFFFFFFFFFFFFFF00000008000F1F1F1F1F1F00001F00001F001F0000000000000000FFFFFFFFFFFFFDFFFF7FFFFE11111111111111111111111111111111DD
:401C80001111111111111111111111111111111111111111111111111111111111111111800002120000000000000040FFFFF7FFFFFFFFFFFFFFFFFFFFFFFFFFFFFFFFFF4C
:401CC000FF000000FFFFFFFFFFFFFFFFFFFFFFFFFFFFFFFFFFFFFFFFFF000000001F1F001F000000001F1F001F1F1F07F60000F0F0000F00FFFFFFFFFFFFFFFFFFFFFFBF62
:401D0000111111111111111111111111111111111111111111111111111111111111111111111111101111111111111111110111001045240000000000000000FFFFFF2FDF
:401D4000FF0FFFFFFFFFFFFFFFFFFFFFFFFFFFFFFF000000FFFFFFFFFFFFFFFFFFFFFFFFFFFFFF2FFFFFFFFFFF0000001F001F0000001F0005001F001F1F001F000000105B
:401D8000000F0F00FFFFFFFFFFFFFFFFFFFEFFDFF111111111111111111111111111111111111D111111121111111111111111161111111111111111111111111111111110
:401DC000000014200000000000000000FFFFF7FFF6F64FFFFFFFFF5F67FF0F7F7FFFFFFF47000000FFFFFFFFFFFFFFFFFFFFFFF7FFFFFFFFFFFFFFFFFF00000000061F0066
:401E00001F1F0000000007001F1F000000F0070000F0000FFFFFFFFFFFFFFFFFFFFFFFFF111111111411111111111111111111111111111111111111111117111111D1114C
:401E400011111E1195111211131197187211D1B100000000000000201F1F1F1F1F1F1F1F1F1F1F071F1F1F1F1F1F1F0F1F1F1F1F1F1F1F1F1F1F1F1F000000001F08000071
:401E80000407000C1F0000000000000001000000FFFFFFFFFFFFFFFFFFF7AFFD11111111111111111191111111111111111111111111111111111111D111111111111111AD
:401EC00011111111111511111111111F00080000000000001F1F1F1F1F1F1F07061F1F1F1F1F1F0D1F1F1F1F00171F1F1F081F1F1F1F1F1F020000001F0B1F0E050000003F
:401F00000D00001F0300000000700007FFFFFBFFFFFFFFFFFFFFFFFF111111F1D4111111111111111111111111D11111111151111116111111111117111111A11101111135
:401F4000151110101EE1111F00000000000000001F1F1F1F1F1F1F1F1F1F081F1F1F1F1F1F1F1F1F1F0F1F1F1F081F1F1F1F1F1F0000001F1F1F031F00001F00000E00009E
:401F80000000000000400700FFFFFFFFFFFFFFFFFFFFF9FB111111D1E1111111111011111111111111111111111A11D1111611111111111117111111111F1E111111101187
:401FC0001111111F00000100000000001F1F061F1F1F1F1F1F1F1F1F1F1F1F1F1F071F1F1F1F1F1F1F1F1F1F1F1F1F1F001F08000F000000001F08001F0D0E005F0070F089
:4020000046000600FFFFFFFFFFFFFFFFFFFFFFDF111111111111D1111111111111111111111111111111111111111D111111911111111111111D61D101101111111011EE1D
:4020400000000000000000101F1F1F1F1F1F1F1F1F1F1F1F1F1F1F1F1F1F1F1F1F1F171F1F161F1F1F1F1F1F1F071F0000001F0000001F00001F00090070000000010F0056
:40208000FFFFEFFFFFFBF7FFFFFFFFFE111111DB1F1101111111111111111111111111111111111111111111111111111D111111B11111111111E11111F10E1100000000F8
:4020C000000000021F1F1F061F1F1F1F1F1F1F1F1F1F1F041F1F1F1F1F071F1F1F1F1F1F1F1F161F071F1F001F07000000001F00041F00000060400030700001FFFFFFFF69
:40210000FFFFFFFFFFFFFFBF111111111E1111116111101111111111111111111110111119011111111111D1111111111111E1E11116111811ED1E1100000000000000000F
:402140001F1F1F1F1F1F1F1F1F1F1F1F1F1F1F1F1F1F1F0F1F1F171F1F1F1F1F1F1F1F1F00000000000000000000001F060500000000000000000000FFFFFFFFFFFFFFFF75
:40218000FFDFFFFF111111111111111111111111111111111111111111111111111111111111111111191111111111111111111711E1101000000000000000C41F1F1F1FF7
:4021C0001F1F1F1F1F1F1F1F1F1F1F1F1F0F1F1F1F1F1F1F1F1F1F1F1F1F1F1F1F0000000F1F001F1F071F0F1F060000000000000000000FFFFFFFFFFFFFFFFFFFFFFB2F77
:4022000011111111111111111111111111111111111111D11111111111111111111191111111111111111111111111E1E11E111100000000000000C41F1F1F1F1F1F1F1FC5
:402240001F1F1F1F1F1F1F1F1F1F1F1F041F1F1F1F1F1F1F1F1F1F1F00001F06070F1F0700000F0000000D070000000000000000FFFFFFFFFFFFFFFFFFFFFB3F111111A109
:40228000111111111111111111111111111111F11111111111111110111111111111111111111111111111101111111100000000000000091F1F1F1F1F1F1F1F1F1F1F1FD7
:4022C0001F1F1F1F1F1F1F1F1F1F1F1F1F1F1F1F1F1F1F1F00071F081F00000000071F06071F001FF0000060F0000F03FFFFFFFFFFFFFFFFFFEFBFFF111111111111111136
:402300001111111111111111111111F1111111111111111D11111111111111111110111111E1EE111E11DEDD00000000000000001F1F1F1F1F1F1F1F1F1F1F1F1F1F1F1FC7
:402340001F1F1F1F1F1F1F1F1F1F1F1F1F1F1F1F0F000F00000004001F000E00000F000000000000000F0700FFFFFFFFFFFFFFFFFFFBFFFF1111111111111111111111113D
:402380001111111111111111111111111111101111111111111111111111111111111F11111D111100000000000001041F1F0C001F1F1F1F1F1F1F1F1F1F1F1F1F1F1F1F61
:4023C0001F1F1F1F1F081F1F1F1F1F1F0000070007000000060000001F06000000007F0002F00000FFFFFFFFFFFFEFFFFFFFFBFF11111171D11111111111111111111111C6
:40240000111611111111111111D11111111111111111111111111111D111B11111DF1111C0080010CC080010D8080010E4080010F0080010FC080010080900101409001077
:40244000400900104A090010540900105E09001068090010720900107C0900108609001047656E6572617465645F536F757263655C50536F43365C70646C5C647269766524
:4024800072735C7065726970686572616C5C737973696E745C63795F737973696E742E630000000047656E6572617465645F536F757263655C50536F43365C70646C5C6435
:4024C0007269766572735C7065726970686572616C5C6970635C63795F6970635F6472762E68000047656E6572617465645F536F757263655C50536F43365C70646C5C646B
:402500007269766572735C7065726970686572616C5C6970635C63795F6970635F6472762E63000047656E6572617465645F536F757263655C50536F43365C70646C5C642F
:402540007269766572732F7065726970686572616C2F6970632F63795F6970635F6472762E68000047656E6572617465645F536F757263655C50536F43365C70646C5C6471
:402580007269766572735C7065726970686572616C5C6970635C63795F6970635F706970652E630047656E6572617465645F536F757263655C50536F43365C70646C5C644D
:4025C0007269766572735C7065726970686572616C5C737973636C6B5C63795F737973636C6B2E630000000047656E6572617465645F536F757263655C50536F43365C70F0
:40260000646C5C647269766572735C7065726970686572616C5C737973636C6B5C63795F737973636C6B2E680000000047656E6572617465645F536F757263655C50536F5F
:4026400043365C70646C5C647269766572735C7065726970686572616C5C6770696F5C63795F6770696F2E630000000047656E6572617465645F536F757263655C50536FB3
:4026800043365C70646C5C647269766572735C7065726970686572616C5C6770696F5C63795F6770696F2E680000000047656E6572617465645F536F757263655C50536F6E
:4026C00043365C70646C5C647269766572735C7065726970686572616C5C737973706D5C63795F737973706D2E630000000000000000001000000008C000000010270010C7
:40270000C00000085803000054040008CC0100000048E80100127A0000093D0000093D0000093D0004000000A00F00000000D00702FF0000E9000010C10000100000000065
:402740000004400B12D03E22094B1A60094A0A4B1A600A4B0621A322D2009950084A98509B58074B054AD358002BFADA7047C046040126401E1F00000801264000002640AA
:402780001C05000010B54378FF2B0DD100F034F9064BDB685A68116801230B4313601368DB07FCD400F038F910BDC04680002340F0B583B006000F0000F046F9050003284F
:4027C00024D12B4B1B69002B22DB002000F00CF9284B98421ED00023274A0021012000F02BF9002803D0254C17E0013400E00024002000F0F9F81F4B984202D0204B9C428C
:40280000F3D91F4B9C4207D91C4C06E0002404E01A4C02E0194C00E00024002C24D100F0EBF80190174A0121174800F0FDF800280ED1002E04D13800FFF782FF134C08E051
:40284000114B1B69002BFBDB00F006F9040000E00A4C032D05D10121002000F0D5F80028F9D1019800F0D8F8200003B0F0BDC046C000234001018800E0000008050052008C
:40288000EF49020010060008000023400100500070B5304B1B68002BFBDA2E4BD96802220A43DA60DB68DB071FD52A4EF2681204150C294B1A69120A1204FF24240422408C
:4028C000110090241A59120A12060A432A43F2601969224A114090252D012943196119590A402A431A511A691B591A4B00225A605B681B4A116904230B431361012801D007
:4029000030BF00E020BF134B1B68002BFBDA114BDB68DB0715D510480269104B1A4014000C4DEA68120C1202FF2109020A4022430261902142581340EA68120E120213437D
:402940004350044BDA6802218A43DA6000225A6070BDC046E000234000002140FF00FFFF00ED00E0164A116904230B431361012801D030BF00E020BF124B1B68002BFBDA41
:4029800086235B00104AD358002B14D10F4A104B1A6006220F4B1A6038320F4B1A6006320E4B1A600D4B1B68002BFBDA0C4986235B00054AD1500022024B5A607047C04681
:4029C00000ED00E0E0002340000025401E1F00000801264018052640040126401C052640AAAAAAAA0000000001B40248844601BC604700BF950C001001B40248844601BC76
:402A0000604700BF5B17001001B40248844601BC604700BF090C001001B40248844601BC604700BF6317001001B40248844601BC604700BFE50A001001B40248844601BCB6
:402A4000604700BF710E001001B40248844601BC604700BF1504001001B40248844601BC604700BF81130010000000000000000000000000000000000000000000000000BC
:402A80000000000000000000000000000000000000000000000000000000000000000000000000000000000000000000000000000000000000000000000000000000000016
:402AC00000000000000000000000000000000000000000000000000000000000000000000000000000000000000000000000000000000000000000000000000000000000D6
:402B00000000000000000000000000000000000000000000000000000000000000000000000000000000000000000000000000000000000000000000000000000000000095
:402B40000000000000000000000000000000000000000000000000000000000000000000000000000000000000000000000000000000000000000000000000000000000055
:402B80000000000000000000000000000000000000000000000000000000000000000000000000000000000000000000000000000000000000000000000000000000000015
:402BC00000000000000000000000000000000000000000000000000000000000000000000000000000000000000000000000000000000000000000000000000000000000D5
:020000041008E2
:4000000000780408F90208100D00000061030810610308106103081061030810000000000000000000000000000000005D0308105D030810000000005D0308105D0308104C
:400040005D0308105D0308105D0308105D0308105D0308105D0308105D0308105D0308105D0308105D0308105D0308105D0308105D0308105D0308105D0308105D03081000
:400080005D0308105D0308105D0308105D0308105D0308105D0308105D0308105D0308105D0308105D0308105D0308105D0308105D030810F50508105D0308105D03081026
:4000C0005D0308105D0308105D0308105D0308105D0308105D0308105D0308105D0308105D0308105D0308105D0308105D0308105D0308105D0308105D0308105D03081080
:400100005D0308105D0308105D0308105D0308105D0308105D0308105D0308105D0308105D0308105D0308105D0308105D0308105D0308105D0308105D0308105D0308103F
:400140005D0308105D0308105D0308105D0308105D0308105D0308105D0308105D0308105D0308105D0308105D0308105D0308105D0308105D0308105D0308105D030810FF
:400180005D0308105D0308105D0308105D0308105D0308105D0308105D0308105D0308105D0308105D0308105D0308105D0308105D0308105D0308105D0308105D030810BF
:4001C0005D0308105D0308105D0308105D0308105D0308105D0308105D0308105D0308105D0308105D0308105D0308105D0308105D0308105D0308105D0308105D0308107F
:400200005D0308105D0308105D0308105D0308105D0308105D0308105D0308105D0308105D0308105D0308105D0308105D0308105D0308105D0308105D0308105D0308103E
:400240005D0308105D0308105D0308105D0308105D0308105D0308105D0308105D0308105D0308105D0308105D0308105D0308105D0308105D0308105D0308105D030810FE
:400280005D0308105D0308105D03081010B5054C237833B9044B13B10448AFF300800123237010BDAC47020800000000DC390810084B10B51BB108490848AFF30080084813
:4002C000036803B910BD074B002BFBD0BDE81040184700BF00000000B0470208DC390810C4420208000000007047EFF3108072B6704780F310887047FFF7F6FF72B6114C37
:40030000114DAC4209DA21686268A368043BA2BFC858D050FAE70C34F3E70C490C4A00209142BCBF41F8040BFAE70A480A490860BFF34F8F00F04AF900F024F900F01EF830
:40034000FEE70000E0390810F8390810AC470208C44A02080040020808ED00E0FEE7FEE700B504207146084202D0EFF3098001E0EFF30880043002F0C5FFFEE708B562B61A
:4003800000F084F900F0F8FD00F056F900F09CFD0028FBD100F094F9002000F0CFFB4FF6FE73984202DC114BC3F80C01012000F0B1FB40B101220D4B5A600222A3F5BF23C5
:4003C000A3F520735A60022000F0A4FB48B1074B01229A609A610222A3F5BF23A3F520739A6000F0D7FC00F0C7FDCFE700003840704700BF5C4AD2F8803303F00F0303F10A
:40040000D00152F8212002F00702032A04D0042A05D092B9554914E0554A116811E003F1C002514951F8222002F01F02112A06D0132A04D04FF4FA4103E04E4901E04FF44F
:4004400000418BBB484BD3F8902502F00100D3F88825C2F30172D3F8883513F0405F07D0414BD3F88835C3F30173012B02D102E0012300E0002303B108B9032A46D13A48CD
:40048000D0F88025C2F31103D0F88425C2F30C02D0F88005C0F300600130B1FBF2F202FB03F2B2FBF0F131E0012B2FD12E4BD3F8402602F00100D3F80026C2F30172D3F873
:4004C000003613F0405F07D0274BD3F80036C3F30173012B02D102E0012300E0002303B108B9032A12D12048D0F8002602F07F02D0F80036C3F30423D0F80006C0F30440BA
:4005000002FB01F2B2FBF3F2B2FBF0F1164BD3F88033C3F3011321FA03F215494A601648D0F89030C3F3072301330069000E0130B2FBF0F08860B2FBF3F3CB600B6103F5B1
:40054000742202F23F220D48A0FB0202C2F387420A7503F2E7330A4AA2FB03239B098B61DB03CB61704700BF0000264000127A008C42020800366E010000214083DE1B43DA
:40058000D34D621008B5104BD3F8802122F0404242F08042C3F88021D3F8802142F00042C3F88021D3F8802122F00102C3F88021FFF71EFFFFF71EFF00F024F800F02AF8E4
:4005C00002F0E6FD08BD00BF0000264008B5FFF78CFE074AD2F8883043F47003C2F88830BFF34F8FBFF36F8FFFF783FE08BD00BF00ED00E008B5024802F044FC08BD00BF4B
:40060000F447020808B500221146042002F040FA08BD00BF10B502F0D0FE0446044802F0F3FA044802F054FB204602F0CAFE10BDC8470208A035081008B5084B1B783BB95A
:40064000074A0021074802F075FC0122034B1A70044B01229A609A6108BD00BF48490208DC3508100000384008B5074B1B7833B900F012FA00F07EFA0122034B1A7000F057
:4006800059F800F0DFFE08BD4949020810B5FFF7EBFF044610B900F0DDFD044614B900F059FD044614B900F067FC044600F00CFC0028FBD100F0E8FA00F0AAFA204610BDA3
:4006C00070B5194D0026344629E063090433174A52F8233004F01F02D34013F0010F1CD0EB7E012B02D0022B09D011E0284600F0A5F806462946204600F094F90DE02846AC
:4007000000F080F806462946204600F0F3F804E04FF4B771064802F0E5FD2C350134022CD3D9304670BD00BFA4360810184A02084036081070B500230AE01D4A191D02EB6A
:400740008100002444604FF0FF3042F821000133002BF2D0174C032325E06668A27E144B2B4400211976012A03D0D2B1032A07D917E02069A8B1228BF17902F0EAFE10E004
:4007800023690BB1F2791A706168002307E003F1080201EB42024FF6FF7050800133002BF5D02C342B465D1E002BD6D170BD00BF184A0208A436081010B582B0044608465C
:4007C000638802A921F8083D1346228A02F054FEBDF8003063809DF8023023719DF8033063719DF80430A37102B010BD30B40B884A889C1A0025CD800079844200DDCC80C8
:4008000030BC70472DE9F0418468038B456890F81A8000270BE042462146284600F042FA074621462846FFF7E1FF0A3433465E1E002BF0D13846BDE8F08100BF2DE9F04733
:4008400080468468476890F81AA0466A0025A94616E03246398A208802F036FE2A4631463846FFF7A9FF0C3652462146384600F019FA814621463846FFF7B8FF0A34013580
:40088000B8F818309D42E4D34846BDE8F08700BFF0B50C8B8D684F680A69012324E010EA030403D17E88B979314402E07988BE79891BEE88B14201D3002100E01946A142FE
:4008C00002D01678013E1670A14201D014783CB920EA0300084309B9F97900E0012111705B000A350132744604F1FF3E002CD6D1F0BD00BF38B504468A7E154B03441D7E16
:40090000012A04D12846FFF7C3FF054604E04FF43871104802F0E6FC0D4B23441D76620904F01F04012303FA04F445B90432084B03EB8202536823EA0404546038BD0432B5
:40094000034B03EB820253681C43546038BD00BF184A02086C360810F0B583B00B8B8A684D68D1F810E0844618B96F88A879074402E06888AF79C71B0024012009E0D388DE
:400980009F4201D3002300E003461C430A32400033465E1E002BF2D154B19EF8003013B1013B8EF800309EF8003023B1644602E0EB798EF800305CB10E466A88AB790F8BA6
:4009C000D21A3946B06801F009FF034610B923E0002321E0B27E022A1ED100233A46316A01A801F067FF034600220AE002A901EB420131F8040C02F1080105EB410148805B
:400A000001329342F2D807E003F1080205EB42024FF6FF7151800133002BF5D0204603B0F0BD00BF38B504468A7E194B03441D7E012A03D062B1032A05D909E02846FFF7AE
:400A400027FF054609E02846FFF786FF054604E040F226410F4802F045FC0D4B23441D76620904F01F04012303FA04F445B90432074B03EB8202536823EA0404546038BD83
:400A80000432034B03EB820253681C43546038BD184A02086C36081070B51C4CA4220021204602F056FD4FF4434323804FF41063638041F66A03A3800823A3830123A377DD
:400AC0000423E377124E203406F18C050FCD0FC40FCD0FC40FCD0FC495E8030084E80300304606F1080403230CE0A268238B04E010F8013B53720A320B46591E002BF7D116
:400B00002C342B465D1E002BEFD170BD184A02089C36081002280DD800F01F02012303FA02F24009031D044800EB83035B6802EA0300704700207047184A0208022810D8E2
:400B40002C230B4A03FB002393F82230023BDBB2012B09D82C22064B02FB0030C368588A70474FF6FF7070474FF6FF70704700BF9C3608100023024AD380024A13607047B5
:400B8000184A020894490208C9B2062902D083180021197130F8121000EB42035980024400231372704700BF70B506460D46012305E0224629463046FFF7E6FF23465C1E91
:400BC000002BF6D170BD00BF08B52C23054A03FB0023986801EB81014A00997E1044FFF7E3FF08BDA436081038B505462C23074A03FB00231B8B04E021462846FFF7E4FFB8
:400C000023465C1E002BF7D138BD00BFA436081010B5032303E02046FFF7E6FF23465C1E002BF8D110BD00BFF8B505462C230F4A03FB00235E681B8B14E02C230B4A03FB03
:400C400005239F6804EB8402500004EB44018A00596A0A44DB7E012B03D1318A385A02F027FC23465C1E002BE7D1F8BDA436081010B5032303E02046FFF7D6FF23465C1EA7
:400C8000002BF8D110BD00BF08B5FFF7F1FF08BD00FA03F3C2F5807001FB00F102FB0310000A70472DE9F04106460D461746012342E035F8140005EB44035988884207D371
:400CC000431A2A194FF0000E82F808E0012201E00B1A002292B996F805E073450ED92B191B7A327A934205D3224639462846FFF74BFF20E02A19013313721CE096F804E0CC
:400D0000734504D996F805E0734514D29AB9FBB2062B10D005EB040898F804E0082301224EEA0121FFF7B4FFC0F30F2205EB44035A8088F8040023465C1E002BB9D100200A
:400D4000BDE8F08110B52C23064A03FB0020846801EB81014B00827EE1184068FFF7A2FF10BD00BFA436081070B506462C23084A03FB00231B8B002505E021463046FFF7CA
:400D8000E1FF054323465C1E002BF6D1284670BDA436081038B50025032304E02046FFF7E3FF054323465C1E002BF7D1284638BD30B49F280ED940F2FE3399420AD9244CAB
:400DC000A1FB04454B1B05EB53035B0AC3EB832399422FD09F280DD9B1F5FF7F0AD91D4CA1FB04454B1B05EB53031B0AC3EB4323994221D09F280CD97E290AD9164CA1FBE8
:400E000004454B1B05EB53039B09C3EBC313994214D09F2814D93E2914D9104CA1FB04454B1B05EB53035B09C3EB831399420BD000200AE0042008E0032006E0022004E05E
:400E4000002002E0002000E0012030BC704700BF051040002140800011080402054110044A1E032A01D8102300E0002379B183B1642202FB03F3B3FBF0F3002001E0013000
:400E80005B00092BFBD90A2B04D9013802E0002000E00020C0B2704708B5084A536823F0F853536002F5A02202F50E72136823F00103136000F0ECFE08BD00BF700031400A
:400EC00008B501F02BFC08BD024BD86800F08000704700BF184A020810B5164BDB6813F4803F0ED102280ED843090433114A52F8233000F01F02D34013F0010F05D10124AE
:400F000004E0112402E0012400E0002484B92C23094A03FB0023DB7E022B02D101F010FC06E0012B02D100F0C5FE01E04FF0FF34204610BD184A0208A436081008B50C4BA7
:400F4000DB6813F4803F0DD10A4B1B78012B05D0022B09D101F0C2FA002008BD00F0FEFD002008BD112008BD4FF0FF3008BD00BF184A020898490208124BDB6813F0800FC7
:400F80001AD110B500244FF0FF3312E02046FFF7A3FF034660B9012C03D801220A4B5A7002E00022084B5A70FFF7C8FF034606E00134022CEAD902E0112318467047184694
:400FC00010BD00BF184A020898490208124B1B78834220D010B50446012B02D1FFF75CFF03E0022B01D1FFF76BFF012C05D100F035FC0122084B1A7010BD022C05D101F0E2
:40100000C9F80222044B1A7010BD032C02D00022014B1A7010BD70479849020830B583B00025074C08E02179002300930E22206802F0D4F808340135082DF4D903B030BD6B
:401040006037081010B51C4A93780133DBB293709078FFF741FF044650B9174B9B78DBB2022B02D10022144B5A70FFF767FF1FE0114B9B78DBB2022B11D1104B1A89013252
:401080001A81DA6822F08002DA60DA6822F07F42DA60DA6842EA0064DC60002408E0074BDA6822F07F42DA60DA6842EA0062DA60002CC8D110BD00BF98490208184A0208C9
:4010C00010B50146124BB3F90030002B0DDB5A0903F01F03012404FA03F320320D4840F82230BFF34F8FBFF36F8F094C204601F045FCB4F90030002B08DB590903F01F0347
:40110000012202FA03F3034A42F8213010BD00BFD435081000E100E070B5022801D8002500E001258DB904462C23094A03FB0023DE7E022E02D1282101F0D4F8012E04D145
:401140005521204600F086FE0546284670BD00BFA436081038B50024254604E02046FFF7DBFF05430134022CF8D9284638BD00BF70B5002519E02C230D4A03FB0523DB7EEC
:40118000012B11D12C2303FB05F3D658002404E006EBC40000F02AFD01342C23044A03FB05231B7E9C42F3D30135022DE3D970BDA43608102C23034A03FB0020436858891F
:4011C000704700BFA43608102C23034A03FB002043685981704700BFA4360810C0EB0032012303FA01F101398A4205D9C0EB0020814203D305207047062070470020704718
:401200002DE9F04180460E46FFF7D4FF07460022318800F0E3FB01463846FFF7C9FD054620B931887800FFF7D9FF054629463846FFF716FE04466B1FDBB2012B03D83946C1
:401240004046FFF7C1FF2001C0B228433073BDE8F08100BFF0B58BB04FF47A73ADF8003040F65503ADF802304FF41663ADF80430544B9A7F4CF25033B3FBF2F3ADF80C30F0
:4012800000F0ECFA00252E4652E02C234E4A03FB0523DB7E012B44D12C2303FB05235C680C23238000232373BDF80C30474AA2FB03235B09274627F80A3F5521284600F0D0
:4012C000C9FD0497424B1B788DF81830414B1A884FF47A7303FB02F23F4BA3FB0213D21A03EB5203C3F3CF23ADF80E30684602F06BF83A4B984203D9062601E05B006381CF
:40130000BDF80C10638941F2707202FB03F29142F4D8032BF2D90AAB03EB850343F80C0C05E001220AAB03EB850343F80C2C0135022DAAD9002427E02C23234A03FB042339
:40134000DB7E012B1FD12C2303FB04235D685521204600F07FFD064305F10A0304930AAB03EB840353F80C3C0293194B1B788DF81830EB89ADF8063005F1100305936846E0
:4013800002F048F828800134022CD5D9002413E02C230D4A03FB0423DB7E012B0BD12C2303FB042359682046FFF72AFF5521204600F050FD06430134022CE9D930460BB08D
:4013C000F0BD00BF184A0208A4360810F1197605B0420208B242020801011000870D0100F8B5002427E02C23144A03FB04235D68DB7E012B02D0022B05D016E0294620466A
:40140000FFF7FEFE16E02E88204601F0DDF907463146FFF7CDFC064601463846FFF720FD0001C0B23043287304E040F21E71044801F058FF0134022CD5D9F8BDA4360810C8
:40144000EC37081008B5FFF7CBFFFFF7E7FD0020FFF7BCFD002008BD10B51B4B5A6822F0F8525A60194C80226260A26A22F0704242F0C042A2621A6822F4F8521A600222D2
:401480006260A26A22F0F00242F06002A2621A6822F4F8121A6004236360A36A23F4706343F4C063A362012001F010FFA36A23F07043A362A36A23F0F003A362A36A23F431
:4014C0007063A36210BD00BF70003140800332400F4B19782C220F4B01FB02335B680E4AD2F8D02091B2188801238340013B994206D20A4B1B680A49097823F811207047B1
:40150000064A12680649097822F81130704700BF9A490208A436081000003640BC4A0208A837081038B5224C227822492C2302FB03125068227802FB03131A7E013A1E4B82
:401540001B78DBB29A421BD91B4C23780133DBB22370174D29782C22164B01FB02339968237803EB83035A000A44144B1A6000F00DFA2878217800F027FB00F071FA38BD1D
:4015800000220D4B1A700E4AD36823F48033D3600C4B1B78012B02D1FFF754FD38BD084BDA6822F08002DA601A8901321A8138BD9A490208A4360810A0490208BC4A0208C7
:4015C000184A02089949020808B5094B4FF483721A601B68FFF77CFF064A138901331381D36823F4803323F08003D36008BD00BFF0003640184A020810B50C4B1B782C2207
:4016000003FB02F30A4AD3580A4A147803EBC404094B4FF483721A601B68FFF759FF204600F0E4FAFFF77EFF10BD00BF9A490208A4360810A0490208F000364001390843DB
:40164000014B1860704700BF000236400E4B1B6823F4F8730D4A917F0D4AB2FBF1F20D498A4204D843F02003074A136070470A498A4204D843F03003034A1360704743F032
:401680004003014A13607047AC420208184A020880F0FA02001BB70000366E01044A054B1A604FF0C17203F580731A60704700BF0000830100043640084A136803F07F0386
:4016C00043F0C17343F48033136002F58072136803F07F0343F400031360704700043640074A136843F0805343F001031360054A054B1A604FF0C17203F580731A6070474C
:40170000A8023640000083010004364010B40488012000FA04F4013C04EB840303FA00F00C4BA3FB00035B0901335818844200D220468B4201D8C91A00E00021914203D852
:40174000904203D2062002E0062000E000205DF8044B70471F85EB510023164A136002F5927213600432136006212C3A11604FF48071083A11600121903A1160A2F5807281
:401780004FF48371116012680B4A136003220B4B1A604FF4FA6300E0013B094A126812F0040F01D1002BF7D113B90822034B1A60704700BF8C013640F80036404003364089
:4017C000F00036401E4B4FF483721A601B681D4BB3F90030002B08DB590903F01F03012202FA03F3184A42F821300023174A136030321360043213602C3A13605021983A89
:4018000011600121643A11600C3A13608032136843F08073136002220D4B1A604FF4FA6300E0013B0B4AD2F8842012F0070F01D0002BF6D140F20132074B1A60704700BF90
:40184000F0003640D435081000E100E080023640F8003640000036404003364010B5FFF787FCFFF7F9FD4FF480323D4B1A603D490B6843F0805343F001030B6000233A4A22
:40188000136002F5E07213600C32136060321360A2F5CE72136002F582721360083A136032480360A2F5807213604FF0487402F5A87214602E4CA26A22F07042A262A4F5A6
:4018C0008134A4F58874626822F0F85242F08062626004F5A02404F50974226842F4805222604FF48074234A14600A6842F0805242F001020A604FF0807204390A6040F620
:401900004134A1F58E710C6001F584710B600260FFF7C4FE184B9B7F013BFF2B09D81749D1F8002822F47F421B029BB21343C1F80038FFF78BFE124B1B6843F0004343F418
:401940008053104A13600F220F4B1A600022A3F588731A600A2203F590731A6010BD00BF04023640A8023640F40036408402364080033240A0023640184A020800000140AA
:40198000AC420208000036400003364038B5054601F013FD0D490B6823F07F020C4B1C7825446B7A13430B6001F00BFD01F005FD08490B6823F07F02074B1B681C44637A5A
:4019C00013430B6001F0FDFC38BD00BF00043640A837081000053640BC4A020830B401248C40631E40B10F2904D9A4F10A03B3FBF0F301E0B3FBF0F3053A012A00D85B08E6
:401A00000BB9012000E0184630BC704708B50C4B19782C220B4B01FB02335B6859891B7B18045A1F012A01D840F00070053B012B02D8490800D10121FFF700FE08BD00BFF0
:401A40009A490208A436081008B5027B01884089FFF7C4FF80B2014B186008BD1403364008B50D4BB3F90030002B0DDB5A0903F01F03012101FA03F32032084941F822303D
:401A8000BFF34F8FBFF36F8F0122054B1A60FFF763FEFFF797FE08BDD435081000E100E08001364008B5064AD36843F4803343F08003D360172001F009FCFFF7D1FF08BDA6
:401AC000184A0208F8B5054601F077FC06462F682C79072C04D94FF464711F4801F002FCA400BA6A0F23A34022EA0301062202FA04F30B43BB622C682D79072D04D940F228
:401B00004521154801F0EEFB04F13F4303F54E03DB0903F1806303F544331B01032D0BD81A68ED001F21A94022EA01010B2202FA05F50D431D600BE0043D5A68ED001F213E
:401B4000A94022EA01010B2202FA05F50D435D60304601F036FCF8BDAC370810F8B5144F3B78144D2C2603FB06535868124C002323703B7803FB06539968237803EB83033A
:401B80005A000A440D4B1A60FFF700FF3B7803FB06F3EB58207803EBC000094B1860FFF791FF0848FFF78CFAFFF77CFFF8BD00BF9A490208A4360810A0490208BC4A02089E
:401BC000C04A0208F915081008B52C2303FB00F0044B185800EBC100034B1860FFF772FF08BD00BFA4360810C04A0208F8B5064601F0E3FB074634683579072D04D940F2ED
:401C00004521224801F06EFB04F13F4303F54E03DB0903F1806303F544331B01032D08D81A68ED001F2101FA05F522EA05051D6008E0043D5A68ED001F2101FA05F522EA14
:401C400005055D6035683479072C04D94FF464710E4801F047FBA400AA6A0F23A34022EA03010E2202FA04F30B43AB6235683479072C04D940F24731044801F033FB0123B4
:401C8000A3406B60384601F09CFBF8BDAC37081008B5064B1B78012B06D1054B1868FFF7A5FF0022014B1A7008BD00BFA1490208C04A0208F8B5114E2C2707FB00635D68A5
:401CC000C0B20F4C20700120FFF780F9FFF7E0FF237803FB07F3F2580A4B1A600A4BDA6822F07F02DA602178DA680A43DA602846FFF7AAFEFFF78AFEF8BD00BFA4360810C0
:401D00009A490208C04A0208184A020838B52C23114A03FB00235D68C9B2104C21709968237803EB83035A000A440D4B1A60FFF7C1FF2846FFF72AFE20780A4A136803EB30
:401D4000C0001060FFF7BEFE0122074B1A700748FFF7B6F938BD00BFA4360810A0490208BC4A0208C04A0208A1490208C91508102DE9F84307460D4690462E4908782C22DB
:401D80002D4B00FB02335E684FF0000985F8009008782A4B1978FFF7B9FFFFF78DFC8024B94503D22B7823EA04032B7064082B7823432B703046FFF7E9FDFFF773FE4CF6D9
:401DC000C44300E0013B1E4AD26812F0800F01D0002BF7D11B4B1B68B3F80090002CDFD1144B1B782C2203FB02F3134AD358134A107803EBC000144B1860FFF7F7FE002297
:401E0000124B1A70FFF76CFC4A4639463046FFF77DFC98F800202B789A4205D288F800300B4A1371A2F80690064B1B682A785A72BDE8F8839A490208A4360810A049020876
:401E4000184A0208BC4A0208C04A0208A1490208AC4202082DE9F04383B004460F462C233A4A03FB00235E6801258DF80450B14639F8098B05FA08F808F1FF3801FB08F330
:401E8000334AA2FB03384FEA5818C2B2314B1A703148FFF715F9314B1D71DD800025304B1D700AE001AA49464046FFF761FF05432B4A13780133DBB213702C23234A03FB53
:401EC00004231A7F264B1B78DBB29A42EAD89DF8043001335B0873720022214B1A7023E02C231A4A03FB04239A681D4B1B7803EB830302EB43021B4B1A60537A717A8B42B3
:401F00000BD35B1ADBB207FB03F363331049A1FB0313C3F34713537201E000235372104A13780133DBB213702C23084A03FB04231A7F0B4B1B78DBB29A42D1D80022084B92
:401F40001A70284603B0BDE8F08300BFA43608101F85EB519A490208C9150810AC420208A0490208BC4A020842890388901E10FB03F080B2704700BF08B52A4BB3F9003077
:401F8000002B0DDB5A0903F01F03012101FA03F32032254941F82230BFF34F8FBFF36F8F224B4FF483721A601B68214BD3F8D020D3F8D4309BB213FA82F31E4A128892B24B
:401FC000934204D91B4A13889BB2538002E09BB2184A5380184B1B689847184BDB6813F0800F0FD1164A124B1A604FF4407203F5C6731A60134A03F51D731A601F22A3F5BF
:4020000098731A60074BB3F90030002B08DB590903F01F03012202FA03F3034A42F8213008BD00BFD435081000E100E0F000364000003640A4490208B4420208184A0208D6
:4020400020100C80800E43013F4B1A683F4B1B7813445A7A3E4B13433E4A136000233E4A53803E493E4A1160012102F5C0721160112102F5807211604FF080710432116087
:402080003C3213600622374B1A60374A28331A6041F2101204331A60344AC43B1A6040F2033203F5A8731A604FF4FA6300E0013B2F4A126812F0010F01D0002BF7D12C4BD8
:4020C0001B6813F0010F03D04FF44272284B1A60284BDA7F284BB3FBF2F3284A934204D9274A934203D8302302E0202300E0402343F0004343F44123194A136040F2013275
:40210000204B1A60002320490B6001F580710B6004310B603C310B6038390B601B482831086042F2102004310860C4390B601F21174B1960A3F5F0734FF4837119601B6847
:402140000B4B1A60704700BFBC4A0208A8370810800E430100043640A449020820100C80000036408802364001010100AA00050040033640184A020880F0FA02001BB70088
:4021800000366E018C0136408001364001030300D002364010B5FFF75FF9454B9A6A22F0F0029A629A6A22F470629A624FF4837203F57F3303F5B8731A60002404331C604C
:4021C000022204331A6088331C6004331C6041F2415204331A604FF4407204331A60354A03F51D731A6003F580731C60324AA3F544731A60314A10331A6004331C607C333C
:402200001C6004331C6004331C6008331C6001F0D4F82B4A136823F48053136001F0D1F82322284B1A604FF0807204331A6001F0C4F8254A136823F0805323F4801343F0D3
:402240008053136001F0BDF8204A214B1A6042F2102204331A600C331C601F2210331A600F2230331A60042210331A6004331C600C331C604FF4427220331A60154AA3F538
:4022800050731A60144BDB7F013BFF2B09D81349D1F8002822F47F421B029BB21343C1F80038FEF7BBFE0E48FEF70AFF10BD00BF80033240800E4301AA0005002A00000CD2
:4022C00094023640A0023640A802364001030300B002364020100C80184A020800000140791F08102DE9F84380460E462C242B4B04FB0034D4F80890294BC3F80090606803
:40230000FFF732FE274B1880198889B201FB06F1254EA6FB0136E37E022B3CD17609227F657F05FB02F5002109E01D4A1368002018801368402058720A3313600131A942A7
:40234000F3D32024402700E01C464046FEF7C4FDFEF7F4FD154BDB6813F0800FFAD1104BC3F8009000210FE00D4B1B681A88964203D25A7A22EA07025A725A7A22435A72EE
:402380000A33074A13600131A942EDD3C4F347032746002CD8D1BDE8F88300BFA4360810BC4A0208A44902081F85EB51184A0208F8B5054601F001F806462F682C79072C3B
:4023C00004D94FF464711F4800F08CFFA400BA6A0F23A34022EA0301062202FA04F30B43BB622C682D79072D04D940F24521154800F078FF04F13F4303F54E03DB0903F154
:40240000806303F544331B01032D0BD81A68ED001F21A94022EA01010A2202FA05F50D431D600BE0043D5A68ED001F21A94022EA01010A2202FA05F50D435D60304600F0DF
:40244000C0FFF8BDAC370810F8B5054600F0B5FF06462F682C79072C04D94FF464711E4800F040FFA400BB6A0F2202FA04F423EA0404BC622C682D79072D04D940F2452108
:40248000154800F02FFF04F13F4303F54E03DB0903F1806303F544331B01032D0BD81A68ED001F21A94022EA0101042202FA05F50D431D600BE0043D5A68ED001F21A940F5
:4024C00022EA0101042202FA05F50D435D60304600F077FFF8BD00BFAC37081010B50022114B1A70114B1B689968114A11605A7F104CA280187FE0801B68A36003EBC0005F
:40250000E060FFF755FFA068FFF79EFF0A4A0B4B1A600B4AD36843F08003D360172000F0D5FEFFF791FD10BDA04902089C490208BC4A0208A44902084D260810B44202081A
:40254000184A020870B5054600F037FF06462C682D79072D04D940F24521124800F0C2FE04F13F4303F54E03DB0903F1806303F544331B01032D08D81A68ED001F2101FA60
:4025800005F522EA05051D6008E0043D5A68ED001F2101FA05F522EA05055D60304600F010FF70BDAC370810F8B5064600F005FF074634683579072D04D940F2452122487A
:4025C00000F090FE04F13F4303F54E03DB0903F1806303F544331B01032D08D81A68ED001F2101FA05F522EA05051D6008E0043D5A68ED001F2101FA05F522EA05055D6030
:4026000035683479072C04D94FF464710E4800F069FEA400AA6A0F23A34022EA0301062202FA04F30B43AB6235683479072C04D940F24731044800F055FE0123A3406B60C3
:40264000384600F0BEFEF8BDAC37081010B52C4B19682C4B18782C4C23889AB263889BB2D31A21F81030E068FFF76CFF274A13780133DBB21370A388013B9BB2A3805BB103
:40268000E0680830E060FFF793FE1D4A13680A331360FFF7D9FC10BD1B4AD388013B9BB2D380D3B114469068FFF77EFFA0680830A060FFF7C9FE164B1A68537FA380136874
:4026C000107F03EBC000E060FFF772FE0C4A13680A331360FFF7B8FC10BD0B4B9868FFF763FF0C4B1B7813B1FEF7ACFC10BD0A4B1A8901321A81DA6822F08002DA6010BD96
:40270000BC4A0208A8370810A4490208A04902089C49020899490208184A0208074B1B8A53B110B5054CE068FFF70CFFA068FFF73BFF0023238210BD704700BFA4490208CD
:4027400038B50446C2B2184B1A700220FEF73EFCFFF7E4FF154B2C2202FB0434144B1C6065686C892A88134B1A602846FFF7FCFB114B18802B7B013CC4F30B0444EA034420
:4027800044F040640D4B1C600D4BDB7F013BFF2B09D80C49D1F8002822F47F421B029BB21343C1F8003838BD9A490208A43608109C49020814033640A449020800023640E7
:4027C000184A0208000001402C23034A03FB002043685889704700BFA4360810F0B50023334C237004461E460BE0E588954206D9AE4204D22E4E3371012737702E460A3481
:4028000001338B42F1D32A4B1B78002B47D14BE0274EB3181B7903EB83056C000519B5F806E002EB42077D003544A5F80AE09BB901EB81056C000A3C0444E6885500154467
:402840006C001B4D2C442681013303EB83035D000544EB88A38120E04D1EEDB2AB420CD1A4F10A030344DD88540014446300104C23441D81C4889C810FE00A3C0444E688A2
:40288000550015446C000A4D2C442681013303EB83035D000544EB88A381013200E00022034B1B789A42B3D3014B1878F0BD00BFB84902082DE9F041002533E01D4C2C4488
:4028C00024793CB905EB45077E001A4F3E440027378109E0561EB44206D105EB45077E00144F3E440027B7816F002F447E00114F3E44B6F80C80B6F808E0CEEB0807B6F812
:402900000AC00EEB0C0608EB060E01FB07F696FBFEF604FB013434447F34C4F30F2420F815400135034C2478A542C7D32046BDE8F08100BFB849020838B50C4B9A680C4B02
:402940009A420ED10D46044619B9FC21094800F0C9FC04F11003064A52F8230042F8235038BD1030044B53F8200038BD00ED00E000400208183808100000081070B338B50D
:4029800004460D464368072B03D93621154800F0A9FCB4F900306268002B08DB5201D2B203F1604303F5614383F8002305E003F00F035201D2B20C49CA540C4B9A680C4B37
:4029C0009A420DD11DB94521064800F08BFC2946B4F90000FFF7B0FF002038BD05487047002038BD1838081014ED00E000ED00E0004002080100560038B50369002B0DDA0B
:402A00000D4604460B0C1B0423B140F2A721044800F068FCA9B26160002038BD014838BD5C38081001008A0038B50368002B01DA002300E0094B73B90D460446C2600B0CF8
:402A40001B0423B140F28E21054800F04BFCA9B2A160002038BD014838BD00BF01008A005C38081038B504460D4619B99921064800F038FC2369002B03DAE3682B60002047
:402A800038BD024838BD00BF9C38081001008A000F2840D8F8B515460E46044682B979B90F2804D940F29D11214800F01BFC600100F1804000F50C101E4B18600020F8BD0D
:402AC0005DB366B316F01F0F2BD10F2C04D940F29D11174800F006FC640104F1804404F50C14144F3C607E60BD60F2080021284600F02FFD00212046FFF77EFF3A4652F89A
:402B0000040B0021FFF790FF68B900213868FFF773FF50B9F8BD084870470748F8BD0648F8BD0548F8BD0548F8BD0448F8BD00BFDC380810C849020803018A0001018A00A5
:402B40002DE9F0411B4B1B68DC68236883422CD90D464609A0EB4610012303FA00F819B900F02BFC074600E00027124B18680368002B01DA002300E00F4B83B9626852F8B8
:402B8000263018EA030F05D023EA080342F82630002400E0094C0021FFF72EFF00E0084C25B9384600F00DFC00E0064C2046BDE8F08100BFC849020801008A00020188006A
:402BC0000301880004018A000B4B1B68DB681A6882420CD94109A0EB4110012202FA00F05B6853F82130184203D004487047044870470448704700BFC84902080101880045
:402C000004018A0000018800024B1B680BB9014B18607047D44902082DE9F8430446884691461E46089F072803D9B421244800F059FB244B1B682C2000FB04F01C18F5B263
:402C40001D50C6F307236360360CA6600F2D04D940F29D111C4800F045FB6D0105F1804505F50C15256165680F2D04D94FF4DC71154800F037FB154B03EB45156561A66831
:402C8000330C1B0423B14FF4EB710F4800F02AFB330C1B0423B140F2D7110B4800F022FBB3B243EA0646AE60C4F81C90C4F820800023A36117B1B7F90030A381BDE8F88368
:402CC0001C390810D4490208DC38081000102340F0B58FB0044618B950212C4800F002FBA369072B03D95421284800F0FBFAE36A1BB95621254800F0F5FAE368072B03D9AF
:402D00005721224800F0EEFA236A072B03D958211E4800F0E7FA236B1BB959211B4800F0E1FA07AE04F114050FCD0FC62F6802AD26460FCE0FC533682B60079B1933ADF8F4
:402D40003030089B0D93A26AE16A0CAD00953B460A98FFF761FF00210091069B0A460598FFF75AFF216B2846FFF708FEBDF93030002B08DB590903F01F03012202FA03F35D
:402D8000034A42F821300FB0F0BD00BF1C39081000E100E0F8B507460E461D4614461AB9FC21224800F09EFA072F03D9FD211F4800F098FA072E03D9FE211C4800F092FACC
:402DC0001B4B1B682C2202FB073002FB06367368012202FA03F31B04476802FA07F70269EAB1B169E9B91268002A01DA002200E0104AC2B92288134323600369DC60012310
:402E0000B361756204693B0C1B0423B140F28E21094800F067FABAB2A2600020F8BD0748F8BD0748F8BD0648F8BD00BF1C390810D449020801008A00DC38081004028A0095
:402E400007028A0070B504460E461546072804D940F25F11084800F045FA084B1B682C2202FB0434E369AB4204D9236A43F82560002070BD024870BD1C390810D449020860
:402E80000A028A0070B582B000230193044620B94FF4D971264800F025FA236923B940F2B311234800F01EFA636923B94FF4DA711F4800F017FA236A23B940F2B5111C480D
:402EC00000F010FA6369DD682A0C1CD012041A601B6820690369002B15DA01A9FFF7C2FD60B9019803681E0CDBB2E269934206D2226A52F8233013B1984700E0002631460F
:402F00002069FFF779FDADB275B16369ADB21D601B68636A1BB198470023636202E0A36A03B198470023A36163691B6802B070BD1C390810002800F0AC8070B40446002A6C
:402F400000F0A98092F828300BB1012500E00025137F0BB1022300E000231D431669B60406F4802645EA060395682D0405F440351D431668300600F0E0602843136B556BFF
:402F800043EA45031B0503F440130343906B43EA8000052E03D1D3681B029BB202E053681B029BB20343081D800123501368062B08D104EB81130120C3F808013F20C3F82B
:402FC00028011DE0936843B904EB81130020C3F808013120C3F8280112E0012B08D1506904EB8113C3F808011C20C3F8280107E004EB81130120C3F808011220C3F828019C
:40300000106A04EB8113C3F80C01506AC3F810015069C3F814019069C3F81801136EB3F1FF3F17D0106C00F00F00966C360206F470663043156D2D0405F470250543906D27
:40304000000380B228431B01DBB2034304EB8110C0F82031D36B03F00303566C360106F030063343D56C2D0205F440752B43506D8001C0B21843D36D9B0003F00C030343AC
:4030800004EB8114C4F82431D36AC4F83831002002E002487047014870BC70470100B6001F4B98422DD00CD840282ED003D8E8B1102828D02FE0802829D0B0F5807F28D0B8
:4030C00029E0184B984228D006D8B0F1204F0DD0154B984212D01EE0144B98420AD00133984209D0023B984215D101E0002070470F4870470F4870470F4870474FF4A000F1
:403100007047074870470D4870470D4870470D487047034870470C4870474FF4A400704706005200010000F0090000A0040000F001005200020052000300520001005000D0
:403140000200500005005200FF00520008B50C4B1B69002B12DB0B4B1868FFF7A1FF0122094BC3F88C24084BD3F80C34002BFAD1054BD3F88C34002BF5D108BD034808BD62
:4031800020002340D8490208000025400200500000B583B05523ADF80030002301930C496846FFF7EBFBBDF90030002B08DB590903F01F03012202FA03F3064A42F8213084
:4031C000022205490120FFF73DFE03B05DF804FB0943020800E100E0294402082DE9F04104460D46174698469DF81860072903D9D121344800F076F837F00F0303D0D22173
:40320000304800F06FF8B8F1010F03D9D3212D4800F068F836F01F0303D0D421294800F061F822680123AB4022EA030308F0010808FA05F843EA08032360A36AA9000F225A
:403240008A4023EA020207F00F0303FA01F71743A762072D04D940F245211B4800F042F836F01F0304D040F24621174800F03AF804F13F4404F54E04E40904F1806404F524
:4032800044342401032D0DD82268ED001F23AB4022EA030306F01F0606FA05F51D432560BDE8F081043D6268ED001F23AB4022EA030306F01F0606FA05F51D436560BDE880
:4032C000F08100BF5C3908109C39081008B5034B1B7800FB03F000F067F808BDA042020801BEFEE738B50D46044C18220146204600F037F9A5610020FFF7F2FF18470208C7
:40330000FEE700BF08B50268254BDA6142681A6282685A62C2689A620269DA6242691A6382695A63C2699A631E4A916AD963D16A1964516A5964516B9964926BDA64F1EEE4
:40334000103A13F0900F27D0026A154B1A65426A5A65826A9A65C26ADA65026B1A66426B5A66826B9A66C26BDA66026C1A67426C5A67826C9A67C26CDA67026DC3F8802024
:40338000426DC3F88420826DC3F88820C26DC3F88C20026EC3F89020FFF7B2FF08BD00BF1847020800ED00E00230800803D001300238FCD100BF00BF7047EFF3108072B647
:4033C000704780F310887047014670B582890569CB8980884FF47A76584306FB00F42888B2FBF0F0B4FBF0F00C7E4B886043B0FBF3F00B884343B3FBF6F35A43044BB2FBAD
:40340000F3F3012213B15B085200FBE72A8070BD00E1F505014643888A88007EC3EB03435043B3FBF0F00B698A891B88B2FBF3F3104A4343B3FBF2F3CA8853430A22B3FBCD
:40344000F2F38A6846F2A710824294BF6422C8221020934205D90138C0B206284FEA5303F7D149694B2253436422B3FBF2F30B80704700BFA086010003B10B8800888000A7
:4034800080B2824238BF02469A4238BF1A4692B25308FF2B0A804FEAD2028CBFFF23DBB2FF2A8B70CB7086BFFF230B710A7170478B0813800F23C9089372002351809080A4
:4034C000D0801081D3727047937A30B5948890805B00041BDBB24ABF013393729372957A538848BF644205F00F05A342957203D9012B03D9013B00E0013353800F2D04D0E0
:403500001DB15388B4EB830F04D90023D0801081D37230BDD488844201D9D08003E01489844238BF1081D07A092802D80130D07230BD1089D488001B80B2834204D9B3EB4D
:40354000910F03D9013B00E0013353805388138030BD02440346934202D003F8011BFAE7704710B5034642B111F8014B03F8014B013A002CF7D11A4400E010BD934202D0EE
:4035800003F8014BFAE710BDF8B500BFF8BC08BC9E467047F8B500BFF8BC08BC9E4670470300000001000000010000000000000005036000040000000100000000000000A6
:4035C00001000000060460000800000028490208F50508103100000007000000040000000000000000000000000000000000000064000000008000000000000000000000AB
:4036000000400000000000000000000001000000000000000200000003000000FFFFFFFF03000000FFFFFFFF03000000FFFFFFFF03000000FFFFFFFF03000000FFFFFFFF4C
:4036400047656E6572617465645F536F757263655C50536F43365C43617053656E73655F436F6E74726F6C2E6300000047656E6572617465645F536F757263655C50536FF8
:4036800043365C43617053656E73655F50726F63657373696E672E6300000000202020202020200060370810384A0208704A02080000000090490208012800000500020123
:4036C00005006400001900004C49020880000000883708104C4A0208A24A0208000000008C49020809280000010001020101000000000000000000000000000098370810BF
:403700005E4A0208AC4A020800000000884902080128000001000102010100000000000000000000000000000C00640028280A031E2004000000A0000000FFFF6400640058
:4037400028280A031E202A000000A00000006400640028280A031E202A000000A00000000004324003000000000432400400000000043240050000000004324006000000CD
:40378000000432400700000000043240010000008000324000000000000432400200000080003240000000000000000047656E6572617465645F536F757263655C50536FEC
:4037C00043365C70646C5C647269766572732F7065726970686572616C2F6770696F2F63795F6770696F2E680000000047656E6572617465645F536F757263655C50536FA4
:4038000043365C43617053656E73655F53656E73696E672E6300000047656E6572617465645F536F757263655C50536F43365C70646C5C647269766572735C706572697021
:40384000686572616C5C737973696E745C63795F737973696E742E630000000047656E6572617465645F536F757263655C50536F43365C70646C5C647269766572735C705B
:4038800065726970686572616C5C6970635C63795F6970635F6472762E68000047656E6572617465645F536F757263655C50536F43365C70646C5C647269766572735C7097
:4038C00065726970686572616C5C6970635C63795F6970635F6472762E63000047656E6572617465645F536F757263655C50536F43365C70646C5C647269766572732F7089
:4039000065726970686572616C2F6970632F63795F6970635F6472762E68000047656E6572617465645F536F757263655C50536F43365C70646C5C647269766572735C7070
:4039400065726970686572616C5C6970635C63795F6970635F706970652E630047656E6572617465645F536F757263655C50536F43365C70646C5C647269766572735C7079
:4039800065726970686572616C5C6770696F5C63795F6770696F2E630000000047656E6572617465645F536F757263655C50536F43365C70646C5C647269766572735C7060
:4039C00065726970686572616C5C6770696F5C63795F6770696F2E68000000000000000000000810004002088C020000003A08108C4202088C040000AC4702081803000062
:403A00000048E80100127A0000093D0000127A0000127A0008000000401F00000000A00F20000000010001004D26081002FF0000B10208108D0208100000000080B2C30040
:403A4000B0B13E210B4A116041F61E7104321160A2F584720621C2F8181523F07F43C2F81C35D2F81C35044BD3F81C35002BFADA704700BF040126400000264008B54FF20E
:403A80006003404AD3589BB2A2F580229268013B032B76D8DFE803F0021F3C59032A02D10822394B9A60394A13691069C0F307221B0E581C02FB0000354B03FB00F0354BC2
:403AC0001B68354AA2FB03239B09B0FBF3F08230FFF7B4FF08BD032A02D108222A4B9A602A4A13691069C0F307221B0E581C02FB0000274B03FB00F0264B1B68264AA2FBD6
:403B000003239B09B0FBF3F08230FFF797FF08BD032A02D108221C4B9A601C4A13691069C0F307221B0E581C02FB0000184B03FB00F0184B1B68184AA2FB03239B09B0FB23
:403B4000F3F08230FFF77AFF08BD032A02D108220D4B9A600D4A13691069C0F307221B0E581C02FB00000A4B03FB00F0094B1B68094AA2FB03239B09B0FBF3F08230FFF734
:403B80005DFF08BD00002540A00023400000214040420F0090420208D34D621008B54378FF2B0ED100F05AF9064BDB685A68136843F001031360136813F0010FFBD100F093
:403BC00035F908BD80002340F8B505460E46264B1B69002B1FDB002000F030F9234B98421BD00023224A0121184600F03FF918B1204C15E0013400E00024002000F01EF95C
:403C00001A4B984202D01C4B9C42F3D91A4B9C4205D9184C04E0174C02E0164C00E0002404BB00F01BF90746144A0121144800F0F5F868B925B93046FFF700FF114C08E0D6
:403C40000F4B1B69002BFBDB00F018F9044600E0084C0121002000F0F9F80028F9D1384600F0E4F82046F8BDA000234001018800B842020805005200EF490200D84902081F
:403C80002000234001005000394B1B68002BFBDA30B4374BDA6842F00102DA60DB6813F0020F20D0324DEB689CB232490A69120A120402F47F02D1F890301B0A42EA0363D4
:403CC0002343EB600B6923F47F4343F410630B61D1F8903023F47F4343F41063C1F890300B69D1F89030224B00225A605B68224A136943F004031361012801D030BF07E0BC
:403D000020BF1E4B1B7803B120BF01221B4B1A70184BD3F8803003F00303022BE7D0144B1B68002BFBDA124BDB6813F0020F15D010490B6923F47F420D48C3681B0C1B0263
:403D400003F47F4313430B61D1F8903023F47F42C3681B0E42EA0323C1F89030044BDA6822F00102DA6000225A6030BC704700BFE00023400000214000ED00E0E84902087E
:403D80001E4A136943F004031361012801D030BF07E020BF1A4B1B7803B120BF0122184B1A70184BD3F8803003F00303022BE7D0154B1B68002BFBDA144BD3F80C31C3B9A6
:403DC00041F61E72124B1A60062203F582631A603E22A3F214431A60442203F583631A600C4B1B68002BFBDA4FF0AA32074BC3F80C210022044B5A60704700BF00ED00E085
:403E0000E849020800002140E000234000002540080126401C0526400000000001B40248844601BC604700BF292A081001B40248844601BC604700BFC333081001B40248F8
:403E4000844601BC604700BFC92B081001B40248844601BC604700BF412B081001B40248844601BC604700BFBB33081001B40248844601BC604700BF952D081001B4024822
:403E8000844601BC604700BF4D310810000000000000000000000000000000000000000000000000000000000000000000000000000000000000000000000000000000007F
:403EC00000000000000000000000000000000000000000000000000000000000000000000000000000000000000000000000000000000000000000000000000000000000C2
:403F00000000000000000000000000000000000000000000000000000000000000000000000000000000000000000000000000000000000000000000000000000000000081
:403F40000000000000000000000000000000000000000000000000000000000000000000000000000000000000000000000000000000000000000000000000000000000041
:403F80000000000000000000000000000000000000000000000000000000000000000000000000000000000000000000000000000000000000000000000000000000000001
:403FC00000000000000000000000000000000000000000000000000000000000000000000000000000000000000000000000000000000000000000000000000000000000C1
:0200000490303A
:02000000BBED56
:0200000490501A
:0C0000000005E20721002101E229DCEDEF
:00000001FF