:020000041000EA
:4000000000400208310100100D000000950100100000000000000000000000000000000000000000000000000000000091010010000000000000000091010010910100109B
:4000400091010010A5040010910100109101001091010010910100109101001091010010910100109101001091010010910100109101001091010010910100109101001049
:400080009101001091010010910100109101001091010010910100109101001091010010910100109101001091010010910100109101001091010010910100109101001020
:4000C00010B5064C2378002B07D1054B002B02D0044800E000BF0123237010BD540400080000000074260010084B10B5002B03D00749084800E000BF07480368002B00D17A
:4001000010BD064B002BFBD09847F9E7000000005804000874260010EC000008000000007047EFF3108072B6704780F310887047FFF7F6FF72B6104C104DAC4209DA2168FA
:400140006268A368043B02DBC858D050FAE70C34F3E70B490B4A0020521A02DD043A8850FCDC094809490860BFF34F8F00F000F900F01EF8FEE7000078260010902600106E
:4001800054040008200600080000000808ED00E0FEE7FEE700B504207146084202D0EFF3098001E0EFF30880043001F031FAFEE710B562B6014800F04FF9FEE70000081018
:4001C00070B56249E0239B00CB580F2213401A00D0329200525807210A40032A05D0042A06D0002A12D15A4814E05A4A106811E01A00C0329200554952581F210A40112ABF
:4002000006D0132A04D0FA20C00103E0524801E080200002002B36D14C4BB222D2009A5801211140B125ED005A59120F032422405B591B0F1C4207D0444C63591B0F032458
:400240002340012B02D102E0012300E00023002B01D0002901D1032A4BD13C4BB022D2009D58AD03AD0B3D495958C904C90C9C58240E01231C40013401F054FA684321008C
:4002800001F050FA35E0012B33D1304BC822D2009A5801251540C024E4001A59120F03210A401B591B0F194207D028490B591B0F03210B40012B02D102E0012300E000230A
:4002C000002B01D0002D01D1032A12D11F4DC022D200AB587F210B40A958090A1F263140AC58240C3440584301F01CFA210001F019FAE0239B00154AD3581B0903221340E8
:40030000D840144C6060164B1D692D0AFC32154001351969090E013101F004FAA060290001F000FA0500E06020610E4BC0180E4901F0F8F920750D4BE818FA21890001F02E
:40034000F1F9A061C003E06170BDC0460000264000127A00C000000800366E0184050000000021403F420F0040420F00E703000010B5234BB021C9005A58520052085A5032
:40038000E02080001A583024A2431A50802252045A501C491C4A9950A021890104329950FF211A4A995081315A58920092088020C00502435A505A588020000602435A5050
:4003C0005A58012082435A5000F094F9FFF7F8FE00F070F800F078F800F0BCFFB0235B055B78002B04D0B0235B055B78DBB200E02123212B03D1064B0022DA605A6010BDDF
:400400000000264001000200840500008C050000E00023408023024AD3580320184070470000214010B5FFF77CFE084980228C58074B2340074C23438B508823034AD358D1
:40044000DB06FAD5FFF771FE10BDC04600002140FCFF00000100FA0570B50500FFF761FE0400FFF7D7FF032801D1FFF7DBFF0A4AB0239B00D55080215058084B0340084806
:40048000034353508823044AD358DB06FAD52000FFF74BFE70BDC04600002140FCFF00000300FA0510B5024800F026FD10BDC0467004000810B5034A60328021042000F0C5
:4004C0000BFB10BD7005000810B501F00AF90400044800F0C1FB044800F028FC200001F004F910BD700400089C180010FEE7C046F0B50025002711E0BB00C658F3B2FF2210
:40050000964308E06A008A181478A419527822700135013BDBB2002BF4D10137002FEBD0F0BDC04630B587B0594BA021C9005A58032082435A50574990240A595648024060
:400540000A510A691202120A8024640422430A610A6910400861E022920099580F20814399509958213081439950995880200006014399500021012000F020FD00210220CF
:4005800000F01CFD0021032000F018FD0021042000F014FD0021002000F010FD01A83F4903000A0032CA32C312CA12C300F02EFD002802D00420FFF799FF3549384A8B58DB
:4005C0008020000603438B50364800F0D9FD002802D00420FFF78AFF2D4C334BE158334A0A40E250E158324A0A40E250E25880252D062A43E250043BE1582E4A0A40E250DC
:40060000E1582D4A0A40802189010A43E250E258802109020A43E250284A1168284B0B40802149000B431360002001F061F8254AA3581D43A550A3580125AB432B43A350C4
:400640006421002000F0FCFF1F4B204A9D5020481958114A11408C24A401214319508021C9001C485850585800201B4C1851802424011D592A40B0252D012A431A51174A87
:400680005A505A58C5221201985007B030BDC0460000264000002140FF00FFFFD0180010087F0000400D030004050000FEFCFFFFFFFF00FFFFF0FFFFFF8FFFFF00002740E1
:4006C000FFFCFFFF0C05000000000140140C00000408000001FF00804C0C000000FF008010B50A00002101F0B2F810BD10B501F0A5F810BD70B58AB09621002000F0A0FFEF
:4007000000F076FF002801D100F062FF012000F0E1FE394A516C394B0B40E82189010B435364536C1B0AFF2213403A2B07D1324A516C334B0B40E82189010B435364FFF74D
:40074000F1FE304A304B1A6000240CE06200121953002E4AD318198B9A8AD88A00041043FFF7BEFF01340B2CF0D900240AE0620012199300254AD3185A6E196ED86DFFF74D
:40078000B5FF0134112CF2D9214C2100343120003830FFF7ADFE1F4A1368812149000B43136001AD2A0023003C3343CB43C243CB43C243CB43C22900174800F0D5FD2A0085
:4007C0002300603313CB13C213CB13C213CB13C22900124800F0C8FD2A00114B043313CB13C213CB13C213CB13C229000D4800F0BBFD0AB070BDC04600002740FF00FFFFA5
:40080000FFC5FFDF0300FA05F0012140D0180010D0190010007934400000324080023240501A00100003324010B583089A00801AC000FF228240D44381400A40072B32D80A
:400840009B001949CB589F46184B196A0C4022431A6228E0154B596A0C4022435A6222E0124B996A0C4022439A621CE00F4BD96A0C402243DA6216E00C4B196B0C402243B1
:400880001A6310E0094B596B0C4022435A630AE0064B996B0C4022439A6304E0034BD96B0C402243DA6310BDA82300100000214083089A00801AC100FF228A40072B2BD84B
:4008C0009B001748C3589F46164B186A1040C84023E0144B586A1040C8401EE0114B986A1040C84019E00F4BD86A1040C84014E00C4B186B1040C8400FE00A4B586B104029
:40090000C8400AE0074B986B1040C84005E0054BD86B1040C84000E00020C0B27047C046C82300100000214070B504000D000B4B9A680B4B9A420BD1002903D1FC210948B6
:4009400000F038FE1034064BA400E058E55003E01034A400044BE05870BDC04600ED00E000000008E823001000000010F0B583B0041E019150D04368032B03D936212948FD
:4009800000F018FE0023E05E002802DBA178FFF74BFF0023E25E6368002A12DB9008224EC0308000875903210A40D200FF25290091408F4399012B000B4093403B43835170
:4009C00017E092B20F21114008398908063189001648844661444E6803200240D200FF2738009040864398013B000340934033434B600E4B9A680E4B9A420FD1019B002BB6
:400A000003D14521074800F0D5FD0023E05E0199FFF78AFF002002E0064800E0002003B0F0BDC046E823001000E100E000ED00E0000000080100560070B504000D00036991
:400A4000002B0ADA0B0C03D00549064800F0B2FD2D042D0C6560002000E0034870BDC046A70200002C24001001008A0070B505000C000368002B01DA002300E0084B002BD9
:400A80000BD1EA60230C03D00649074800F092FD2404240CAC60002000E0014870BDC04601008A008E0200002C24001070B505000C1E03D19921064800F07CFD2B69002B3E
:400AC00003DAEB682360002000E0024870BDC0466C24001001008A00F8B504000E0015000F283FD8002A10D100290ED10F2804D99E21FF31214800F05DFD6401204B9C46FE
:400B00006444204B1C60002037E0002D2CD0002E2CD0F3062CD10F2C04D99E21FF31174800F048FD6401164B9C466444154F3C607E60BD60F2080021280000F088FE0021E6
:400B40002000FFF779FF3A0001CA0021FFF78EFF00280FD10B4B18680021FFF76DFF00280AD10AE0084808E0074806E0064804E0054802E0054800E00448F8BDAC24001014
:400B8000000023400006000803018A0001018A00F0B583B00D001C4B1B68DC68236883422DD947097B01C01A012383401E00002903D100F096FD019001E000230193124B90
:400BC00018680368002B01DA002300E00F4B002B0ED16368BF00DF193B68334203D0B3433B60002400E00A4C0021FFF725FF00E0084C002D04D1019800F077FD00E0064CA5
:400C0000200003B0F0BDC0460006000801008A00020188000301880004018A000A4B1B68DA68136883420BD943095901401A0121814052689B009B580B4203D0034802E039
:400C4000034800E003487047000600080101880004018A0000018800034B1B68002B01D1014B18607047C0460C060008F0B5474680B404000F0090461E00072803D9B421E1
:400C8000254800F097FC254B1B682C2060431C18FF22150035402560330A13406360330CA3600F2D04D99E21FF311D4800F082FC6B011C4A94466344236165680F2D04D9D1
:400CC000DC214900164800F075FC6D01164B9C4665446561A668330C04D0EB214900104800F068FC330C04D0D821FF310C4800F061FC3604330C1E43AE604346E361276292
:400D00000023A361069B002B02D000229B5EA38104BC9046F0BDC046EC2400100C060008AC2400100000234000102340F0B58FB0041E03D150212E4800F03CFC6368032B94
:400D400003D952212A4800F035FCE36A002B03D15621274800F02EFCE368072B03D95721234800F027FC236A072B03D95821204800F020FC236B002B03D159211C4800F013
:400D800019FC07AA1300210061C961C321C921C302AD290023001433C1CBC1C141CB41C10821535E0CAE3380079B1933B370089B0D930B9B0A980096A26AE16AFFF756FFA4
:400DC0002B69E868002200920021FFF74FFF216B3000FFF7CBFD0023F25E002A05DB1F231A401E3B9340034A13600FB0F0BDC046EC24001000E100E0F8B505000F0016004D
:400E00001C00002A03D1FC21244800F0D3FB072D03D9FD21214800F0CDFB072F03D9FE211E4800F0C7FB1E4B1B682C2128004843181879435918012213004D68AB401B047B
:400E40004568AA4015000269002A20D08F69002F1FD11268002A01DA002200E0114A002A19D132681204120C134333600369DE6001238B614C6204692B0C03D00A490B48FE
:400E800000F098FB2A04120CA260002004E0084802E0084800E00748F8BDC046EC2400100C06000801008A008E020000AC24001004028A0007028A0070B505000C0016004D
:400EC000072804D96021FF31084800F073FB084B1B682C2068431818C369B34204D9036AB6009C51002000E0024870BDEC2400100C0600080A028A0070B582B004000023B7
:400F00000193002804D1D92149002B4800F052FB2369002B04D1B421FF31274800F04AFB6369002B04D1DA214900234800F042FB236A002B04D1B621FF311F4800F03AFB30
:400F40006269D5682B0C1FD01B041360136820690369002B18DA01A9FFF7A8FD00280ED1019803681E0CFF221340E269934207D29B00226AD358002B02D0984700E0002609
:400F800031002069FFF758FD2D042D0C0FD063691D601B68636A002B03D098470023636203E0A36A002B00D098470023A36163691B6802B070BDC046EC24001004281DD81F
:400FC000042904D94B1EFF3B9BB2132B18D8FF290CD91F2319400B4A0300C0339B009950D03080000423835000200AE007231940D0308000034BC150002002E0024800E040
:40100000014870470000264001004A0070B5041E04D1EF2149004C4800F0CCFAB023DB004A4AD358002B01DB002500E0484D002D00D086E0474B22689A4204D9EE21FF31BB
:40104000414800F0B7FA23689B03990BE3791B068022520413400B43B022D2003B498B50A2883D4B9A4204D9FA214900364800F0A1FA2289394B9A4204D9F621FF313248DF
:4010800000F098FAA388DB04D90C23891B04344A13400B43334A2D498B50A37A0F2B04D9FC21FF31284800F085FAE37A0F2B04D9FE214900244800F07DFAA289264B9A4280
:4010C00004D9FE21FF31204800F074FAA37A0F211940E27A1201FF2313400B43A289120221490A401343A27B1207C02189050A401343B122D20015498B50A379072B03D990
:401100001A49114800F056FA228A144B9A4203D917490D4800F04EFA0C4816494658164B1E40A3791B02E022D2001340334343504658124B1E40238A1B04094A1340334349
:401140004350280070BDC0462C2500100000264003004A00FFFF0300FF1F0000FF0100000000FF018405000000FF1F0005020000060200008C050000FFF8FFFFFFFF00FE16
:4011800070B505002D492E4A8B588020000603438B502C0003E0012000F000FA013CB223DB00264AD3585B0701D4002CF3D12349B122D2008858234B034080208005034397
:4011C0008B50002D02D00ED0002C0CD01B49B022D2008B588020000603438B5003E0012000F0DCF9013CB223DB00144AD358DB0701D4002CF3D1002D0ED0002C0CD10F4A2A
:40120000B021C90053585B005B0853500C4953585B005B0853500BE0084B0221B222D2009950B121C9005A58C020800502435A50002C01D1044800E0002070BD0000264039
:401240008C050000FFFFFFCF02004A00214B984230D00ED8402831D004D800281FD010282AD031E080282BD080235B00984229D02AE0194B984229D007D8A0231B069842A8
:401280000DD0164B984212D01EE0154B98420AD0144B984209D0144B984215D101E0002016E0124814E0124812E0124810E0A020C0030DE007480BE00F4809E00F4807E0EE
:4012C0000F4805E0034803E00E4801E0A420C0037047C04606005200010000F0090000A0040000F0050000F0030000F001005200020052000300520001005000020050009C
:4013000005005200FF00520010B50C4B1B69002B11DB0B4B1868FFF799FF0121094B0A4AD150084B084AD358002BFAD1074BD358002BF6D100E0064810BDC0460000234066
:40134000100600080C040000000025408C0400000200500010B5022202490020FFF7ACFD10BDC0463501000870B505000C00002848D0002948D0FF230A689A4303D08D214B
:40138000224800F017F9FF2322699A4303D08E211E4800F00FF9A3685B0D03D08F211B4800F008F963685B0A03D09021174800F001F9E3695B0F03D09121144800F0FAF899
:4013C000236A5B0F03D09221104800F0F3F8104BEB18DB090F4A944663441B0122682A60E268AA622269EA6262692A63A2686A626268AA61A2696A63E2691A60226A5A60DE
:40140000002002E0044800E0034870BDB42500100000CEBF0010030401005A00034A9369802149040B4393617047C04600F02540024A9169024B0B409361704700F02540B5
:40144000FFFFFFFE10B5074A074813580F24A34302210B43135004381358A3431943115010BDC0460000214004F0000010B5074A074813580F24A34303210B431350043848
:401480001358A3431943115010BDC0460000214004F000000449054A8858054B0340C020C00103438B5070470000214004F00000FF8FFFFF0449054A8858054B03408020DE
:4014C000C00103438B5070470000214004F00000FF8FFFFF70B50500012803D92A492B4800F068F800F0FDF80400294B294AD3581F221340E822D200B02149058A5CD31AB0
:401500005A1E9341DBB29D4239D0002D14D1FFF785FFFFF797FF1F481D4943581F229343143A13434350FFF7B5FFE823DB00B0225205D35CDAB211E01648154943581F221F
:401540009343143A13434350092000F027F8FFF7B1FF114BB0225205D35CDAB20D4E0C4831581F23994313400B433350012D06D1092000F013F8FFF779FFFFF759FF2000C1
:4015800000F0B3F870BDC046ED060000342600101CFF0000000026404107000010B5034B1B78584300F094F810BDC046D400000801BEFEE770B50D00044C1822010020004A
:4015C00000F04DF9A5610020FFF7F2FF18040008054B802212069A649B6C002B01DB002000E002487047C0460000274003004600054B8022120198585B68FF221A4202D0B0
:401600008023DB021843704700002640FEE7C04610B50A4B0268DA6142681A6282685A62C2689A620269DA6242691A6382695A63C2699A63FFF7EAFF10BDC04618040008A1
:40164000F0B5002801D0192200E064228A42924152421C4BE8256D005C590327BC433A4014435C515C59184E34405C51D03D5C59BC4322435A515A5916405E51002805D0F9
:4016800010290DD921290DD8012014E01D290BD93A290BD957290BD978290BD803200AE0002008E0022006E0002004E0012002E0022000E00420054A13680F218B43034316
:4016C0001360F0BD00002140FFFCFFFF000025400230800803D001300238FCD1C046C0467047EFF3108072B6704780F310887047042805D1094A116804230B4313600CE0CE
:401700000006C0239B04184090239B00044AD050024A136804218B431360704710E000E000002140002243088B4274D303098B425FD3030A8B4244D3030B8B4228D3030C96
:401740008B420DD3FF22090212BA030C8B4202D31212090265D0030B8B4219D300E0090AC30B8B4201D3CB03C01A5241830B8B4201D38B03C01A5241430B8B4201D34B03E4
:40178000C01A5241030B8B4201D30B03C01A5241C30A8B4201D3CB02C01A5241830A8B4201D38B02C01A5241430A8B4201D34B02C01A5241030A8B4201D30B02C01A5241F2
:4017C000CDD2C3098B4201D3CB01C01A524183098B4201D38B01C01A524143098B4201D34B01C01A524103098B4201D30B01C01A5241C3088B4201D3CB00C01A5241830883
:401800008B4201D38B00C01A524143088B4201D34B00C01A5241411A00D20146524110467047FFE701B5002000F006F802BDC0460029F7D076E770477047C046002310B53F
:401840009A4203D0CC5CC4540133F9E710BD03008218934202D019700133FAE77047030030B5002A0DD00C7801335D1E013A2C700131002CF5D19A189A4202D01C700133C2
:40188000FAE730BDF8B5C046F8BC08BC9E467047F8B5C046F8BC08BC9E4670470300000001000000010000000000000005036000040000000100000000000000010000005B
:4018C0000604600008000000E0050008A5040010F4010000140004010A00090508000000630100000020344074008020344074000022344074008022344074000024344082
:401900007400802434407400002634407400802634407400002834407400802834407400002A34407400802A3440740000213440781A00109000000000233440081B001036
:401940009000000000253440981B00109000000000273440281C00109000000000293440B81C001090000000002B3440481D00109000000000603440D81D00107C00000062
:4019800080603440541E00107C00000000613440D01E00107C000000806134404C1F00107C00000000623440C81F00107C00000080623440442000107C00000000633440D4
:4019C000C02000107C000000806334403C2100107C00000000643440B82100107C00000080643440342200107C00000000653440B02200107C000000806534402C230010D5
:401A00007C000000EC0C0000017034400400000000000000000000000006000000000000000000000000000000000800000000002300000000000000000000006800600050
:401A40000000000000000000000000001212000000030000000000000000000000000000000000BA0000000000000000000000000000000000001D1D00000000000000004B
:401A800000000010FFFFFFFFFFFFF0FFFFFFFFFFFFFFFFFFFFFFFFFFFF000000FFFFFFFFFFFFFFFFFFFFFFFFFFFFFFFFFFFFFFFFFF00000000000000000000060000000049
:401AC00000001F070000000000000000FFFFFFFFFFFFFFFFFFFFFFFE0111111111111111111111111111111111111111111111111111111111111111111111111113111133
:401B00001111111111111111000004020000000000000080FFFFFFF5FFFFFFFFFFFFFFFFFFFFFFFFFFFFFFFFFF000000FFFFFFFFFFFFFFFFFFFFFFFFFFFFFFFFFFFFFFFFCA
:401B4000FF0000001F001F0000001F07001F1F00061F1F000000000000000000FDFFFFFFFFFFFFFFFFDFFF7F11111111111111111111111111111111111111111111111196
:401B8000111111110111111111111111111111111111111111111111000081810000000000000000FFFFFFFFFFFFFFFFFFFFFFFFFFFFFFFFFFFFFFFF16000000FFFFFFFF9D
:401BC000FFFFFFFFFFFFFFFFFFFFFFFFFFFFFFFFFF0000001F00001F00001F1F1F00001F00000C1FF000200000000000FFFFFFFFFFFFFFFDFFFFFFFF111110111111111188
:401C0000111111111111111B1111111111111111111111111111111111111111111111111111111E11111811000000180000000000000004FFFFFFFFF7FFFFFFFFFFFFFFD6
:401C4000FFFFFFFFFFFFFFFFFF000000FFFFFFFFFFFFFFFFFFFFFFFFFFFFFFFFFFFFFFFFFF00000007060F060000071F1F00001F1F1F001F0000000000FF0000EFFFFFFFB4
:401C8000FFFFFFFFFFFFFB7E1111111111111111111111111111111111111111111111111111111111111111111111110311101111111111111111118000A300000000006D
:401CC00000000081FFFFFFFFFFFFFFFFFFFFFFFFFFFFFFFFFFFFFFFFFF000000FFFFFFFFFFFFFFFFFFFFFFFFFFFFFFFFFFFFFFFFFF0000001F1F0000001F001F1F071F00CC
:401D00000000070E000000F000000000FFFFFFFFFFFFFFFFFFEDFF7E1111111111111111111111111111111111111111111111111111111111111111111111111111111195
:401D400011111111111111111020000400000000000104407F6F7FFF75FFFFFFF6FFFFFF5FFF0FF350FFFFFFFF000000FFFFFFFFFFFFFFFFFFFFFFFFFFFFFFFFFFFFFFFFF9
:401D8000FF000000061F00001F0000001F021F001F000607000F0F000000F000FFFFFFEFFFFFFFFFFFFFFFBF1111111111111111111111111111111111111111111111112A
:401DC00011E11111111E11111111115193111113111811517191111100000000000000001F1F1F1F1F1F1F1F1F1F1F1F1F1F1F1F1F071F1F1F1F1F1F1F1F1F1F1F1F1F1FBB
:401E0000000600000000001F000000000000051F0000000000000000FFFFFFFF7FDFFFFFFFFFFFFF1111111111111111111111111111111111111111111111111111111129
:401E400011119111111111114111111111111111111111E100000020000000001F1F1F051F1F1F1F1F1F1F1F1F1F1F1F1F1F1F1F1F1F1F171F171F1F1F1F1F1F03001F0096
:401E800000000E00001F0F001F0703000000000300006000FFFFFFFFFFFFFF7FFFFFDFFF111111117111111111111111111111111111A101111101111111111111F1111136
:401EC0001111D1111111111111161111D111ED1100000000000020101F1F1F1F1F1F011F1F1F1F1F1F1F1F1F1F1F1F1F1F1F1F1F1F1F071F1F1F1F1F1F00000C0500060061
:401F00001F0004050007001F7000F00500000000FFFFFFFFFFFFFFFFFDFBFFFF11111111E1111111111111111111111111111111111111111171111111E1110111110111BC
:401F4000114111111D1101D11E11111E00000000000000101F1F1F1F1F1F1F1F061F1F1F1F1F1F1F1F1F1F061F1F1F171F1F1F1F1F1F1F1F0000001F00001F0E0E0000007F
:401F80001F0C0E070000000000050000FFFFFFFFFFFFFFFEFFDFFFFE11111111F1111111111111111111111111111111111111111711111111111111111116111110111178
:401FC0001111111111F1E11100000000000000000F1F1F1F1F1F1F1F1F1F1F1F1F1F1F071F1F1F1F1F1F1F1F1F1F1F1F1F1F1F1F1F1F0000001F001F091F0C000000000041
:40200000000006F040006000FFFFFFFFFFFFFFFFFFF6FF7F1111111DD111111111111111111111111111111111111111F11111111011111111111111E1150E11DF11111169
:40204000D151111100000000000000401F1F00041F1F1F1F1F1F1F0D1F1F1F1F1F1F1F1F1F1F1F1F171F1F1F1F1F1F1F1F07000007000000061F00000200001F00000F06C8
:402080000700F060FFFFFFFFFFFFFFFFFFFFFFBF111111801111111111911111111111117111111111111111D14111111D1111111111111D10011111DE1111111ED1110115
:4020C00000000000000000001F1F1F1F1F1F1F1F1F071F1F1F1F1F1F1F1F1F1F1F1F1F1F1F171F1F1F1F1F1F00000000000000000000000000000000000000000000000020
:40210000FFFFFFFFFFFFFFFFFFFFFFFF1111119111111111111111111111111111111111111111111111111111111117111111111111111111111111011111100000000006
:40214000000000C11F1F1F0F1F1F1F1F1F1F1F1F1F1F1F1F1F1F1F1F1F1F171F1F1F1F1F1F1F1F1F1F0006080000001F0D071F00000000000000000000000000FFFFFFFF5B
:40218000FFFFFFFFFFDFFF3D111111111111111111111111111111111111111111111111111111A1141111111111111111111E11111111111111101100000000000000C07A
:4021C0001F1F1F1F1F1F1F1F1F1F1F1F1F1F1F1F1F1F1F1F1F1F1F1F1F1F1F1F1F1F1F1F0C00061F00001F07070C000000001F07F000000000000000FFFFFFFFFFFFFFFF87
:40220000FFFFFB2D1111111111111111111111111111111111111111111111111111111D111111111111111111111111111111111111111100000000000000801F1F1F1F40
:402240001F1F1F1F1F1F1F1F1F1F1F1F1F1F1F1F1F1F1F1F1F1F1F1F1F1F1F1F1F000000000000001F000000061F001F0000000000FF0000FFFFFFFFFFFFFFFFFFFFFBFF89
:4022800011111111D11111111111111111111111111111111111E1111111111F111111111111111111111111111111D11E1111E100000000000000001F1F1F1F1F1F1F1FBB
:4022C0001F1F1F1F1F1F1F1F1F1F1F1F1F1F1F121F1F1F1F1F1F1F1F0F0C0000000F000F00000000000000000000006000000000FFFFFFFFFFFFFFFFFFFFFFFF1111111132
:40230000111111111111111101111111111111111111F11111111111111111111111111111111111711111111111111100000200000000041F1F1F1F1F1F1F061F1F1F1F20
:402340001F1F1F1F1F1F1F0F1F1F1F1F1F1F1F1F1F1F1F1F001F000000000000000007001F000000430F760000006000FFFFFFFFFFFFFFFFFFFFFFFF111111111411111115
:4023800011111111D1111111111111111111F1111111D11111111111111111111111111D11DE11D11119111E4808001054080010600800106C080010780800108408001073
:4023C000900800109C080010C8080010D2080010DC080010E6080010F0080010FA080010040900100E09001047656E6572617465645F536F757263655C50536F43365C7055
:40240000646C5C647269766572735C7065726970686572616C5C737973696E745C63795F737973696E742E630000000047656E6572617465645F536F757263655C50536F44
:4024400043365C70646C5C647269766572735C7065726970686572616C5C6970635C63795F6970635F6472762E68000047656E6572617465645F536F757263655C50536FEB
:4024800043365C70646C5C647269766572735C7065726970686572616C5C6970635C63795F6970635F6472762E63000047656E6572617465645F536F757263655C50536FB0
:4024C00043365C70646C5C647269766572732F7065726970686572616C2F6970632F63795F6970635F6472762E68000047656E6572617465645F536F757263655C50536FF2
:4025000043365C70646C5C647269766572735C7065726970686572616C5C6970635C63795F6970635F706970652E630047656E6572617465645F536F757263655C50536FCD
:4025400043365C70646C5C647269766572735C7065726970686572616C5C737973636C6B5C63795F737973636C6B2E630000000047656E6572617465645F536F757263654E
:402580005C50536F43365C70646C5C647269766572735C7065726970686572616C5C737973636C6B5C63795F737973636C6B2E680000000047656E6572617465645F536F4A
:4025C000757263655C50536F43365C70646C5C647269766572735C7065726970686572616C5C6770696F5C63795F6770696F2E630000000047656E6572617465645F536F34
:40260000757263655C50536F43365C70646C5C647269766572735C7065726970686572616C5C6770696F5C63795F6770696F2E680000000047656E6572617465645F536FEE
:40264000757263655C50536F43365C70646C5C647269766572735C7065726970686572616C5C737973706D5C63795F737973706D2E63000000000000000000100000000831
:40268000C000000098260010C00000085803000054040008CC0100000048E80100127A0000093D0000093D0000093D0004000000A00F00000000D00702FF0000E900001029
:4026C000C1000010000000000004400B12D03E22094B1A60094A0A4B1A600A4B0621A322D2009950084A98509B58074B054AD358002BFADA7047C046040126401E1F00002F
:4027000008012640000026401C05000010B54378FF2B0DD100F044F9064BDB685A68116801230B4313601368DB07FCD400F040F910BDC04680002340F0B583B006000F0041
:4027400000F03EF90500032824D12B4B1B69002B22DB002000F03CF9284B98421ED00023274A0021012000F03BF9002803D0254C17E0013400E00024002000F029F91F4B39
:40278000984202D0204B9C42F3D91F4B9C4207D91C4C06E0002404E01A4C02E0194C00E00024002C24D100F0FBF80190174A0121174800F0DDF800280ED1002E04D13800AB
:4027C000FFF782FF134C08E0114B1B69002BFBDB00F0D6F8040000E00A4C032D05D10121002000F0D5F80028F9D1019800F0E0F8200003B0F0BDC046C000234001018800B7
:40280000E000000805005200EF49020010060008000023400100500070B5304B1B68002BFBDA2E4BD96802220A43DA60DB68DB071FD52A4EF2681204150C294B1A69120A90
:402840001204FF2424042240110090241A59120A12060A432A43F2601969224A114090252D012943196119590A402A431A511A691B591A4B00225A605B681B4A1169042380
:402880000B431361012801D030BF00E020BF134B1B68002BFBDA114BDB68DB0715D510480269104B1A4014000C4DEA68120C1202FF2109020A40224302619021425813401E
:4028C000EA68120E120213434350044BDA6802218A43DA6000225A6070BDC046E000234000002140FF00FFFF00ED00E0164A116904230B431361012801D030BF00E020BFC6
:40290000124B1B68002BFBDA86235B00104AD358002B14D10F4A104B1A6006220F4B1A6038320F4B1A6006320E4B1A600D4B1B68002BFBDA0C4986235B00054AD1500022E5
:40294000024B5A607047C04600ED00E0E0002340000025401E1F00000801264018052640040126401C052640AAAAAAAA0000000001B40248844601BC604700BF6D0A0010E2
:4029800001B40248844601BC604700BF0913001001B40248844601BC604700BF910B001001B40248844601BC604700BFE316001001B40248844601BC604700BFEB16001075
:4029C00001B40248844601BC604700BF1504001001B40248844601BC604700BF1D0C001001B40248844601BC604700BFF90D0010000000000000000000000000000000009B
:020000041008E2
:4000000000780408F90208100D0000006103081061030810610308106103081000000000000000000000000000000000E12D08105D03081000000000512E0810B52E0810FC
:400040005D0308105D0308105D0308105D0308105D0308105D0308105D0308105D0308105D0308105D0308105D0308105D0308105D0308105D0308105D0308105D03081000
:400080005D0308105D0308105D0308105D0308105D0308105D0308105D0308105D0308105D0308105D0308105D0308105D0308105D030810FD0808105D0308105D0308101B
:4000C0005D0308105D0308105D0308105D0308105D0308105D0308105D0308105D0308105D0308105D0308105D0308105D0308105D0308105D0308105D0308105D03081080
:400100005D0308105D0308105D0308105D0308105D0308105D0308105D0308105D0308105D0308105D0308105D0308105D0308105D0308105D0308105D0308105D0308103F
:400140005D0308105D0308105D0308105D0308105D0308105D0308105D0308105D0308105D0308105D0308105D0308105D0308105D0308105D0308105D0308105D030810FF
:400180005D0308105D0308105D0308105D0308105D0308105D0308105D0308105D0308105D0308105D0308105D0308105D0308105D0308105D0308105D0308105D030810BF
:4001C0005D0308105D0308105D0308105D0308105D0308105D0308105D0308105D0308105D0308105D0308105D0308105D0308105D0308105D0308105D0308105D0308107F
:400200005D0308105D0308105D0308105D0308105D0308105D0308105D0308105D0308105D0308105D0308105D0308105D0308105D0308105D0308105D0308105D0308103E
:400240005D0308105D0308105D0308105D0308105D0308105D0308105D0308105D0308105D0308105D0308105D0308105D0308105D0308105D0308105D0308105D030810FE
:400280005D0308105D0308105D03081010B5054C237833B9044B13B10448AFF300800123237010BD3C48020800000000A46B0810084B10B51BB108490848AFF30080084888
:4002C000036803B910BD074B002BFBD0BDE81040184700BF0000000040480208A46B081058430208000000007047EFF3108072B6704780F310887047FFF7F6FF72B6114C17
:40030000114DAC4209DA21686268A368043BA2BFC858D050FAE70C34F3E70C490C4A00209142BCBF41F8040BFAE70A480A490860BFF34F8F00F03CF900F016F900F01EF84C
:40034000FEE70000A86B0810C06B08103C480208480C03080040020808ED00E0FEE7FEE700B504207146084202D0EFF3098001E0EFF30880043001F0DFFAFEE700B583B027
:4003800062B600220821042001F00EFD0C4B1860002401940225009523464FF4C8720949094802F07FF80194009523464FF4C8720649074802F076F802F0A6F8FEE700BF42
:4003C000B80B03087C6508104D060810886508105D080810704700BF5C4AD2F8803303F00F0303F1D00152F8212002F00702032A04D0042A05D092B9554914E0554A116867
:4004000011E003F1C002514951F8222002F01F02112A06D0132A04D04FF4FA4103E04E4901E04FF400418BBB484BD3F8902502F00100D3F88825C2F30172D3F8883513F0E7
:40044000405F07D0414BD3F88835C3F30173012B02D102E0012300E0002303B108B9032A46D13A48D0F88025C2F31103D0F88425C2F30C02D0F88005C0F300600130B1FBDE
:40048000F2F202FB03F2B2FBF0F131E0012B2FD12E4BD3F8402602F00100D3F80026C2F30172D3F8003613F0405F07D0274BD3F80036C3F30173012B02D102E0012300E0E9
:4004C000002303B108B9032A12D12048D0F8002602F07F02D0F80036C3F30423D0F80006C0F3044002FB01F2B2FBF3F2B2FBF0F1164BD3F88033C3F3011321FA03F21549C4
:400500004A601648D0F89030C3F3072301330069000E0130B2FBF0F08860B2FBF3F3CB600B6103F5742202F23F220D48A0FB0202C2F387420A7503F2E7330A4AA2FB0323D6
:400540009B098B61DB03CB61704700BF0000264000127A008C42020800366E010000214083DE1B43D34D621008B5104BD3F8802122F0404242F08042C3F88021D3F8802176
:4005800042F00042C3F88021D3F8802122F00102C3F88021FFF71EFFFFF71EFF00F0B6F900F0BCF901F090F908BD00BF0000264008B5FFF79AFE074AD2F8883043F47003F8
:4005C000C2F88830BFF34F8FBFF36F8FFFF791FE08BD00BF00ED00E000B583B0164B0022C3F8C82F0422C3F8C02FD3F8C03F134BB3F90030002B09DB5A0903F01F030121D9
:4006000001FA03F360320E4941F8223002A9002341F8043D0B4B186801F0ECFC019B43B13BB14FF08052084B1A60BFF34F8FBFF36F8F03B05DF804FB000066406066081039
:4006400000E100E05848020804ED00E010B582B000F09AF9664B1868002302221946406803F044FE634803F00DFE03220021012001F09AFB604B1860604C6149204600F0AB
:40068000D7F9B4F90030002B08DB590903F01F03012202FA03F35B4A42F8213004225A4BC3F8C82F00234FF0FF3219465248006801F0EAFC8EE04E4B186842685368013B53
:4006C0005360002B04DA416803F0E4FDC0B204E042681368591C116018783F38342879D8DFE800F066787878787878787878787878787878787878787878787878787878E7
:4007000078787878787878787878787878787878493A78782A1B7878590000228DF8002001238DF801300A230193134669463748006801F057FB4DE000228DF8002001238C
:400740008DF801306FF009030193134669462F48006801F047FB3DE001238DF800308DF801300A23019300231A4669462748006801F038FB2EE001238DF800308DF8013073
:400780006FF00903019300231A4669461F48006801F028FB1EE0002000F048F80446012000F044F802462146194803F0F9FC11E0184803F067FD184803F0F2FC174803F00D
:4007C000EFFC174803F0ECFC164803F0E9FC164803F058FD0C4BD3F80833C3F30803002B7FF469AF0422084BC3F8C82F5AE700BF14430208946508105848020860660810FF
:40080000D905081000E100E000006640B80B0308A4650810C0650810D0650810E0650810F0650810006608101066081008B9012300E000239B0103F1804303F56013D3F89B
:400840000C01642303FB00F3034880FB0320DB17C3EBA01064387047D34D621010B582B002F020FC02F036FC002400234FF0FF3269461F48006801F007FC9DF800301BB1F2
:40088000012B02D1002400E001249DF80130012B17D1A30103F1804303F56013D3F80C21642303FB02F2134B83FB0213D217C2EBA313643B019AD21800D50022642A02DC3B
:4008C00002E0019A00E064224FF47A7303FB02F3094A82FB0312DB17C3EB621303F57A73A20102F1804202F56012C2F80C31BCE7B80B0308D34D62101F85EB5108B5024871
:4009000000F01AFB08BD00BF8848020808B500221146042000F016F908BD00BF10B501F068F80446044800F0C9F9044800F02AFA204601F062F810BD5C4802082C660810E3
:4009400010B504462146034800F078FB0028F9D010BD00BF00006640054BD3F80833C3F30803002BF8D0024BD3F84003704700BF0000664008B50249024800F0B9FE08BDF1
:40098000BC0B03080000664008B5114B1B785BB9104A1149114800F081FC1149114800F047F801220A4B1A700E4BB3F90030002B08DB590903F01F03012202FA03F30A4A7E
:4009C00042F82130054A136843F00043136008BDDC490208BC0B03086866081000006640750908106066081000E100E038B50C4B9A680C4B9A420ED10D46044619B9FC214E
:400A0000094800F089FF04F11003064A52F8230042F8235038BD1030044B53F8200038BD00ED00E000400208A86608100000081070B338B504460D464368072B03D9362185
:400A4000154800F069FFB4F900306268002B08DB5201D2B203F1604303F5614383F8002305E003F00F035201D2B20C49CA540C4B9A680C4B9A420DD11DB94521064800F04C
:400A80004BFF2946B4F90000FFF7B0FF002038BD05487047002038BDA866081014ED00E000ED00E0004002080100560038B50369002B0DDA0D4604460B0C1B0423B140F244
:400AC000A721044800F028FFA9B26160002038BD014838BDEC66081001008A0038B50368002B01DA002300E0094B73B90D460446C2600B0C1B0423B140F28E21054800F09F
:400B00000BFFA9B2A160002038BD014838BD00BF01008A00EC66081038B504460D4619B99921064800F0F8FE2369002B03DAE3682B60002038BD024838BD00BF2C670810D6
:400B400001008A000F2840D8F8B515460E46044682B979B90F2804D940F29D11214800F0DBFE600100F1804000F50C101E4B18600020F8BD5DB366B316F01F0F2BD10F2CF5
:400B800004D940F29D11174800F0C6FE640104F1804404F50C14144F3C607E60BD60F2080021284602F083FE00212046FFF77EFF3A4652F8040B0021FFF790FF68B900217D
:400BC0003868FFF773FF50B9F8BD084870470748F8BD0648F8BD0548F8BD0548F8BD0448F8BD00BF6C670810E049020803018A0001018A002DE9F0411B4B1B68DC68236826
:400C000083422CD90D464609A0EB4610012303FA00F819B900F0EDFE074600E00027124B18680368002B01DA002300E00F4B83B9626852F8263018EA030F05D023EA0803FB
:400C400042F82630002400E0094C0021FFF72EFF00E0084C25B9384600F0CFFE00E0064C2046BDE8F08100BFE049020801008A00020188000301880004018A000B4B1B6850
:400C8000DB681A6882420CD94109A0EB4110012202FA00F05B6853F82130184203D004487047044870470448704700BFE04902080101880004018A0000018800024B1B6898
:400CC0000BB9014B18607047EC4902082DE9F8430446884691461E46089F072803D9B421244800F019FE244B1B682C2000FB04F01C18F5B21D50C6F307236360360CA66075
:400D00000F2D04D940F29D111C4800F005FE6D0105F1804505F50C15256165680F2D04D94FF4DC71154800F0F7FD154B03EB45156561A668330C1B0423B14FF4EB710F483E
:400D400000F0EAFD330C1B0423B140F2D7110B4800F0E2FDB3B243EA0646AE60C4F81C90C4F820800023A36117B1B7F90030A381BDE8F883AC670810EC4902086C67081016
:400D800000102340F0B58FB0044618B950212C4800F0C2FDA369072B03D95421284800F0BBFDE36A1BB95621254800F0B5FDE368072B03D95721224800F0AEFD236A072B4A
:400DC00003D958211E4800F0A7FD236B1BB959211B4800F0A1FD07AE04F114050FCD0FC62F6802AD26460FCE0FC533682B60079B1933ADF83030089B0D93A26AE16A0CAD94
:400E000000953B460A98FFF761FF00210091069B0A460598FFF75AFF216B2846FFF708FEBDF93030002B08DB590903F01F03012202FA03F3034A42F821300FB0F0BD00BF6C
:400E4000AC67081000E100E0F8B507460E461D4614461AB9FC21224800F05EFD072F03D9FD211F4800F058FD072E03D9FE211C4800F052FD1B4B1B682C2202FB073002FBBF
:400E800006367368012202FA03F31B04476802FA07F70269EAB1B169E9B91268002A01DA002200E0104AC2B92288134323600369DC600123B361756204693B0C1B0423B145
:400EC00040F28E21094800F027FDBAB2A2600020F8BD0748F8BD0748F8BD0648F8BD00BFAC670810EC49020801008A006C67081004028A0007028A0070B504460E4615467E
:400F0000072804D940F25F11084800F005FD084B1B682C2202FB0434E369AB4204D9236A43F82560002070BD024870BDAC670810EC4902080A028A0070B582B00023019333
:400F4000044620B94FF4D971264800F0E5FC236923B940F2B311234800F0DEFC636923B94FF4DA711F4800F0D7FC236A23B940F2B5111C4800F0D0FC6369DD682A0C1CD0DB
:400F800012041A601B6820690369002B15DA01A9FFF7C2FD60B9019803681E0CDBB2E269934206D2226A52F8233013B1984700E0002631462069FFF779FDADB275B1636955
:400FC000ADB21D601B68636A1BB198470023636202E0A36A03B198470023A36163691B6802B070BDAC67081010B4D0F8003303F00F03072B06D900230DE0D0F84043CC54E0
:40100000013300E000239342F7D306E0D0F8404321F8134001339342F8D35DF8044B704710B51446D0F80833C3F308039A4200D31C462246FFF7D8FF204610BD036813F440
:40104000006F01D0802200E04022D0F80832C3F30803934203D0C0F84012012070470020704700BF10B4D0F8003203F00F03072B06D900230DE0CC5CC0F84042013300E00F
:4010800000239342F7D306E031F81340C0F8404201339342F8D35DF8044B704710B51446036813F4006F01D0802200E04022D0F80832C3F30803D31AA34200D81C462246B7
:4010C000FFF7D0FF204610BD2DE9F84305460C46036813F4006F02D04FF0800801E04FF04008D5F8007207F00F07A26A012A19D9D4F82490E262561EB9F1000F00D026B913
:4011000040F22C51254800F007FC324649462846FFF7C4FFA36A1B1AA362072F00D9400048446062D5F80832C3F30803984533D0A36A012B30D10023A362072F02D8636AA7
:401140001E7801E0636A1E8800F053FCC5F840624FF40073C5F8803FD5F8803F00F04DFCD5F8883F23F4007222F0010242F4007623F4EE6323F0030323B14FF48161084848
:4011800000F0CAFBC5F8886F236843F002032360236B0BB101209847BDE8F883EC6708102C6808102DE9F04105460C46036813F4006F01D0802600E040267608A769D4F823
:4011C0001C8017B1B8F1000F04D14FF49061314800F0A2FB424639462846FFF721FF236A03442362E3691B1AE36173BBA368FBB1E3689E4201D8013E00E05E1E2B6813F4FD
:40120000006F01D0802300E040239E4204D340F25E21214800F080FBD5F8043323F0FF03F6B21E43C5F804630123C5F8C83F02E00023C5F8C83F636823F001036360236B22
:4012400033B304209847BDE8F081A169D5F8002302F00F02072A00D940000844A0619E4216D95C1E2B6813F4006F01D0802300E040239C4204D340F25E21074800F04CFBE6
:40128000D5F8043323F0FF02E3B21343C5F80433BDE8F081EC6708102C680810002800F0A98170B50546002900F0A6819E4B984200F0A48116460C460B78022B03D94221A3
:4012C0009A4800F029FB637B023BDBB2062B03D94321964800F020FBA37B3BB1022B05D0032B03D04421914800F016FB94F82130012B03D945218D4800F00EFB94F82830AD
:40130000012B03D94621894800F006FB2378012B06D86368083B082B94BF0023012307E0A37F2BB16368013B062B94BF002301231BB148217D4800F0EFFAA368053B042BF8
:4013400003D94921794800F0E7FA6369FF2B03D94A21764800F0E0FAA369FF2B03D94B21724800F0D9FAA37C6BB1237833B9A368092B05D1A37B2BB1012304E0012302E0F6
:40138000012300E000231BB14D21684800F0C4FA636B23F4366323F00D031BB14F21634800F0BAFAE36B23F4EE6323F003031BB150215E4800F0B0FA2378022B01D1A37F3A
:4013C00013B163685A1E00E00022237F13B14FF4803100E00021A068082802D84FF4006300E00023194302F00F030B4343F000732B60236B2A6812F4006F01D0802200E007
:401400004022934203D36521484800F085FAA36B2A6812F4006F01D0802200E04022934203D36621414800F077FA636A2A6812F4006F01D0802200E04022934203D3672178
:401440003A4800F069FA23781B0603F040732B64637F0BB1402200E00022A17C11B14FF4806300E000231343227C12B14FF4807200E000221343627C12B14FF4007200E022
:4014800000221A43E36A013B1B0403F470231343627B013A02F007021343A27B120102F030021343AB64237B13B14FF4807200E00022E17B21B92378022B03D1012302E092
:4014C000012300E0002313B14FF4007300E000231A43A368013B03F00F031343C5F80033227DA3691B0403F47F031343C5F81033E26AD5F8003303F00F0303339A4201D389
:40150000102A03D97D21094800F006FAE37F23B12378012B03D0002302E0002300E0012333B14FF4807204E000006940706808100022637B013B03F007031A43A37B1B0154
:4015400003F0300313436B64237B13B14FF4807200E00022A368013B03F00F0313432278012A02D14FF4803200E000221343C5F8003294F83030C5F8043394F8203013B191
:401580004FF0007100E0002194F82120012A02D14FF0807300E000230B4394F82820012A02D14FF4803200E00022134394F8242013432B6594F83830C5F80432636B23F48B
:4015C000926323F002031B051B0DC5F8C83FE36B23F08C035B055B0DC5F8883F86B1002070603060B060F0603062F0623063054B736370BD04487047034870BD024870BDC3
:40160000002070BDEFCDAB000160AA000B694A69934202D34869181A7047CA694869101A184470472DE9F04107460D46036813F4006F02D04FF0800801E04FF040084FEA5D
:401640005808D7F80863C6F308062C6926E00134EB689C4200D100246B699C420FD12B6B0BB1082098476B699C4208D10023C7F8C83F0CB1013C13E0EC68013C10E0D7F877
:401680004023D7F8003303F00F03072B02D8AB681A5502E0AB6823F81420013E002ED6D12C61EC6829463846FFF7B0FF201A804519D908B1441E00E000243B6813F4006F3E
:4016C00001D0802300E040239C4204D340F25E21064800F021F9D7F8040320F0FF03E0B21843C7F80403BDE8F08100BF2C68081038B504460D46D0F8003E13F0080F35D0AA
:40170000D0F8CC3F13F448730AD04A681A434A60C0F8C03FD0F8C03F0B6B0BB110209847D4F8CC3F13F4006F09D06B6843F400636B604FF40063C4F8C03FD4F8C03FD4F86C
:40174000CC3F13F0010F11D0EB6923B129462046FFF728FD05E0AB681BB129462046FFF761FF0123C4F8C03FD4F8C03FD4F8003E13F0040F2ED0D4F88C3F13F4A0630AD020
:401780002A681A432A60C4F8803FD4F8803F2B6B0BB120209847D4F88C3F13F0010F08D029462046FFF790FC0123C4F8803FD4F8803FD4F88C3F13F4007F0BD00022C4F860
:4017C000882F2B6823F001032B60EA622B6B0BB10220984738BD00BF1F4B98422DD00CD840282ED003D8E8B1102828D02FE0802829D0B0F5807F28D029E0184B984228D0F1
:4018000006D8B0F1204F0DD0154B984212D01EE0144B98420AD00133984209D0023B984215D101E0002070470F4870470F4870470F4870474FF4A0007047074870470D48F5
:4018400070470D4870470D487047034870470C4870474FF4A400704706005200010000F0090000A0040000F001005200020052000300520001005000020050000500520012
:40188000FF00520008B50C4B1B69002B12DB0B4B1868FFF7A1FF0122094BC3F88C24084BD3F80C34002BFAD1054BD3F88C34002BF5D108BD034808BD20002340F04902081E
:4018C000000025400200500000B583B05523ADF80030002301930C496846FFF7A9F8BDF90030002B08DB590903F01F03012202FA03F3064A42F82130022205490120FFF7C7
:40190000FBFA03B05DF804FB9D43020800E100E0BD44020801BEFEE738B50D46044C18220146204602F094FDA5610020FFF7F2FFA8470208FEE700BF08B50268254BDA61DB
:4019400042681A6282685A62C2689A620269DA6242691A6382695A63C2699A631E4A916AD963D16A1964516A5964516B9964926BDA64F1EE103A13F0900F27D0026A154B85
:401980001A65426A5A65826A9A65C26ADA65026B1A66426B5A66826B9A66C26BDA66026C1A67426C5A67826C9A67C26CDA67026DC3F88020426DC3F88420826DC3F888204D
:4019C000C26DC3F88C20026EC3F89020FFF7B2FF08BD00BFA847020800ED00E0000000000230800803D001300238FCD100BF00BF7047EFF3108072B6704780F31088704778
:401A0000002800F0AC8070B40446002A00F0A98092F828300BB1012500E00025137F0BB1022300E000231D431669B60406F4802645EA060395682D0405F440351D43166887
:401A4000300600F0E0602843136B556B43EA45031B0503F440130343906B43EA8000052E03D1D3681B029BB202E053681B029BB20343081D800123501368062B08D104EB04
:401A800081130120C3F808013F20C3F828011DE0936843B904EB81130020C3F808013120C3F8280112E0012B08D1506904EB8113C3F808011C20C3F8280107E004EB811359
:401AC0000120C3F808011220C3F82801106A04EB8113C3F80C01506AC3F810015069C3F814019069C3F81801136EB3F1FF3F17D0106C00F00F00966C360206F47066304308
:401B0000156D2D0405F470250543906D000380B228431B01DBB2034304EB8110C0F82031D36B03F00303566C360106F030063343D56C2D0205F440752B43506D8001C0B2F9
:401B40001843D36D9B0003F00C03034304EB8114C4F82431D36AC4F83831002002E002487047014870BC70470100B60000F1080343604FF0FF328260C3600361002303600C
:401B8000704700BF00230361704700BF43684B609A688A609A68516099600861036801330360704730B40D68B5F1FF3F01D1026907E000F1080200E01A4653681C68A542E0
:401BC000FAD253684B6099608A605160086103680133036030BC704703694268816891608268416851605A68904201D182685A6000220261186801381860704710B5044657
:401C000001F000F9A26BE36B9A4201D1012400E0002401F00BF9204610BD00BF10B5044601F0F0F8A36B0BB9012400E0002401F0FDF8204610BD00BF70B504461646856B2B
:401C4000026CFAB166B9806801F026FEA268236C1344A3606268934214D32368A36011E0C06801F019FE236C5B42E2681A44E26021688A4202D262681344E360022E01D162
:401C800005B1013D0135A563002070BD026C72B110B50346C4681444C4604068844201D31868D8600846D96801F0F6FD10BD704738B5054601F0A6F895F8454064B20AE094
:401CC0006B6A53B105F1240000F00CFE08B100F087FE013C64B2002CF2DCFF2385F8453001F0A4F801F08EF895F8444064B20AE02B6953B105F1100000F0F4FD08B100F02B
:401D00006FFE013C64B2002CF2DCFF2385F8443001F08CF838BD00BF08B972B6FEE738B504460D4601F06EF82168E26B236C03FB021060600020A063A160013A02FB031357
:401D4000E360FF2384F8443084F845307DB92369ABB104F1100000F0C5FD80B14FF08052094B1A60BFF34F8FBFF36F8F07E004F11000FFF7FBFE04F12400FFF7F7FE01F028
:401D800055F8012038BD00BF04ED00E010B5029B0C4609B91B6000E01A60D8631C6401211846FFF7B9FF10BD08B972B6FEE7F0B583B0034611B101FB00F000E000201D462F
:401DC00017460C46483001F013F9064638B100903B4600F1480221462846FFF7D7FF304603B0F0BDF0B585B0019208B972B6FEE7044619B9026C1AB9012202E0012200E027
:401E000000220AB972B6FEE7022B03D1E26B012A02D102E0012200E000220AB972B6FEE71D460E4600F0E4FD18B9019B1BB9012302E0012300E000230BB972B6FEE700279F
:401E400000F0E0FFA26BE36B9A4201D3022D21D12A4631462046FFF7EFFE636A6BB104F1240000F03FFD88B14FF08052324B1A60BFF34F8FBFF36F8F08E038B14FF08052A6
:401E80002D4B1A60BFF34F8FBFF36F8F00F0CEFF01204EE0019B1BB900F0C8FF002048E01FB902A800F05CFD012700F0BFFF00F05BFB00F0A7FF94F844305BB2B3F1FF3F09
:401EC00002D1002384F8443094F845305BB2B3F1FF3F02D1002384F8453000F0A7FF01A902A800F04BFDF0B92046FFF787FEA0B1019904F1100000F0CDFC2046FFF7D8FE9E
:401F000000F0BAFB00289BD14FF080520A4B1A60BFF34F8FBFF36F8F92E72046FFF7C8FE00F0AAFB8CE72046FFF7C2FE00F0A4FB002005B0F0BD00BF04ED00E008B972B6FF
:401F4000FEE72DE9F843044619B9006C18B9012002E0012000E0002008B972B6FEE7022B03D1E06B012802D102E0012000E0002008B972B6FEE71F469046894601F010F8C4
:401F8000EFF311864FF0BF0383F31188BFF36F8FBFF34F8FA26BE36B9A4201D3022F1ED194F845506DB23A4649462046FFF744FEB5F1FF3F0DD1636A9BB104F1240000F05C
:401FC00091FC80B1B8F1000F0FD00120C8F800000CE06B1C5BB284F84530012006E0002004E0012002E0012000E0012086F31188BDE8F88308B972B6FEE770B50446036C2C
:402000000BB172B6FEE703681BB943681BB9012302E0012300E000230BB972B6FEE70E4600F0BEFFEFF311854FF0BF0383F31188BFF36F8FBFF34F8FA26BE36B9A4218D231
:4020400094F845305BB20132A263B3F1FF3F0AD1636A83B104F1240000F044FC68B176B1012030600CE001335BB284F84530012006E0002004E0012002E0012000E00120D4
:4020800085F3118870BD00BF2DE9F04184B0019208B972B6FEE7044619B9026C1AB9012202E0012200E000220AB972B6FEE71F46884600F09DFC18B9019B1BB9012302E0ED
:4020C000012300E000230BB972B6FEE7002600F099FEA56B5DB3E66841462046FFF7D6FD8FB9013DA5632369EBB104F1100000F0F9FBC0B14FF08052394B1A60BFF34F8F68
:40210000BFF36F8F0FE0E660636A63B104F1240000F0E8FB38B14FF08052314B1A60BFF34F8FBFF36F8F00F081FE012054E0019B1BB900F07BFE00204EE01EB902A800F061
:402140000FFC012600F072FE00F00EFA00F05AFE94F844305BB2B3F1FF3F02D1002384F8443094F845305BB2B3F1FF3F02D1002384F8453000F05AFE01A902A800F0FEFB5C
:40218000F0B92046FFF74AFDA0B1019904F1240000F080FB2046FFF78BFD00F06DFA002895D14FF080520E4B1A60BFF34F8FBFF36F8F8CE72046FFF77BFD00F05DFA86E77C
:4021C0002046FFF775FD00F057FA2046FFF726FD00283FF47CAF002004B0BDE8F08100BF04ED00E000230BE0074A52F8332032B9054A42F8331002EBC30358607047013348
:40220000092BF1D9704700BFF40B030870B504460D46164600F0F6FD94F844305BB2B3F1FF3F02D1002384F8443094F845305BB2B3F1FF3F02D1002384F8453000F0F6FD90
:40224000A36B2BB93246294604F1240000F034FB2046FFF72DFD70BD094B9B6A1B680BB9012300E0002323B14FF0FF32044BDA627047034B9A6AD268D2685268DA627047DA
:40228000304A020810B50446006B00F0E1FE204600F0DEFE10BD00BF2DE9F0478246894615469846089F099E0A9C9200A521206B01F0FDFA236B05F18042013A03EB8205C1
:4022C00025F00705002308E019F80310E21882F8341019F8032012B101330F2BF4D9002384F84330062F00D90627E762201DFFF749FC04F11800FFF745FC2461C7F107030B
:40230000A3616462002306E003F1100204EB8202002151600133042BF6D90023A36584F85C3042465146284600F044FD206006B13460BDE8F08700BF70B5002407E004EB97
:402340008402930010481844FFF710FC0134062CF5D90E4C04F1BC063046FFF707FC04F1D0052846FFF702FC04F11400FFF7FEFB04F1E400FFF7FAFB2046FFF7F7FBA6629B
:40238000C4F8F85070BD00BF604A0208304A020838B5044600F036FD264BD3F8FC200132C3F8FC20D3F800314BB9224BC3F80041D3F8FC30012B10D1FFF7BEFF0DE01D4BC4
:4023C000D3F804314BB91B4BD3F80031DA6AE36A9A4202D8174BC3F80041164AD2F808310133C2F80831E36AD2F80C21934202D9104AC2F80C310F4D05F1300003EB83030D
:402400009A00211D1044FFF7C1FB00F00FFDD5F804316BB1D5F80031DA6AE36A9A4207D24FF08052044B1A60BFF34F8FBFF36F8F38BD00BF304A020804ED00E070B50446CE
:402440000E46174BD3F81051D3F800010430FFF7C3FBB4F1FF3F07D136B11148D0F800110431FFF793FB70BD2C440D4BD3F800315C60A54208D90A4BD3F8F800D3F80011D0
:402480000431FFF78FFB70BD054DA86AD5F800110431FFF787FBEB6A9C4200D2EC6270BD304A02082DE9F04385B006460F4615469846900000F09CFD60B18146602000F08E
:4024C00097FD044610B1C0F8309004E0484600F0BFFD00E000248CB10023039302940D9B01930C9B009343462A4639463046FFF7D3FE2046FFF74CFF012001E04FF0FF30D5
:4025000005B0BDE8F08300BF00B583B0124B019300230093802211491148FFF7C3FF012801D100F0CBFA01280DD172B60D4B4FF0FF32DA620122C3F804210022C3F810217F
:4025400000F0DCFC04E0B0F1FF3F01D172B6FEE703B05DF804FB00BF4C4B0208B0680810B1270810304A0208034AD2F818310133C2F81831704700BF304A0208014BD3F83E
:4025800010017047304A02082DE9F041394BD3F81831002B5ED1374BD3F810410134C3F8104194B99B6A1B680BB172B6FEE7314B9A6AD3F8F8109962C3F8F820D3F82021EC
:4025C0000132C3F82021FFF747FE2A4BDB6A9C4203D2002645E0012600E00026254B9B6A1B680BB9012300E0002323B14FF0FF32204BDA6235E01F4B9B6ADB68DD686B68DF
:402600009C4202D21B4AD3622BE005F104084046FFF7E2FAAB6A1BB105F11800FFF7DCFAEB6A144AD2F80C21934202D9114AC2F80C31104F07F1300003EB83039A00414666
:402640001044FFF7A3FAEA6AD7F80031DB6A9A42C1D2C3E7074AD2F824310133C2F824310026044BD3F8283103B101263046BDE8F08100BF304A0208364BD3F818310BB972
:4026800072B6FEE770B500F0BDFB324BD3F81821013AC3F81821D3F81831002B52D12D4BD3F8FC303BBB00244FE02A4D2B6ADC6804F11800FFF790FA261D3046FFF78CFA64
:4026C000E36AD5F80C21934201D9C5F80C31214D05F1300003EB83039A0031461044FFF755FAE26AD5F80031DB6A9A4204D30122C5F8282100E00024164B5B69002BD4D1D4
:402700000CB1FFF7A9FD134BD3F8244164B1FFF73BFF18B101220F4BC3F82821013CF6D100220C4BC3F824210A4BD3F828315BB14FF08052084B1A60BFF34F8FBFF36F8F03
:40274000012402E0002400E0002400F06FFB204670BD00BF304A020804ED00E038B51FE0FFF702FF114BD3F8E440FFF785FFBCB100F048FB0D4CD4F8F030DD68281DFFF71C
:402780002BFAD4F8FC30013BC4F8FC30D4F81431013BC4F8143100F049FB2846FFF772FD024BD3F81431002BDAD138BD304A020808B5FFF7D3FF064B1B6B012BF9D94FF03E
:4027C0008052044B1A60BFF34F8FBFF36F8FF0E7304A020804ED00E02D4BD3F8183123B101222B4BC3F82821704710B5284B0022C3F82821D3F800311B6B1A68B2F1A53F35
:402800000BD15A68B2F1A53F07D19A68B2F1A53F03D1DB68B3F1A53F07D01D4BD3F80001D3F80011343100F0D9FB194BD3F80C3103E00BB972B6FEE7013B03EB83018A000B
:4028400013490A44126B002AF3D008469900CC18A2000244546B64685463303019448A0008320244944206D1606803EB83018A0007490A445063064903EB830082000A4436
:40288000526BD268C1F80021C1F80C3110BD00BF304A020808B972B6FEE710B50C46054BD3F800111831FFF77DF901212046FFF7C5FD10BD304A020808B972B6FEE738B52F
:4028C0000C461546064AD2F800111831FFF75EF90DB14FF0FF3429462046FFF7AFFD38BD304A020838B5C368DC680CB972B6FEE704F118052846FFF76FF9164BD3F81831C9
:40290000ABB9251D2846FFF767F9E36A114AD2F80C21934202D90F4AC2F80C3103EB83039A0029460C481044FFF730F903E029460A48FFF72BF9E26A064BD3F80031DB6AAE
:402940009A4204D90120034BC3F8280138BD002038BD00BF304A0208604A0208444A020808B972B6FEE7044AD2F820110160D2F810214260704700BF304A020808B972B6BA
:40298000FEE738B5044609B972B6FEE70D4600F039FA124BD3F810112A68B2F1FF3F13D02068D3F82031984202D0636899420DD26368C81A82420BD95B1A13442B60204630
:4029C000FFF7CEFF002404E0002402E0012400E0012400F02BFA204638BD00BF304A02080122024BC3F82821704700BF304A0208064BD3F804312BB1044BD3F818311BB957
:402A0000022070470120704700207047304A0208064B1A681368B3FA83F35B09036013B9D368186870470020704700BF5C4B020808B54160006191420AD8D21A83699A42A5
:402A400011D2011D0A4B5868FFF7ACF8002008BD9A4201D2994208D2011D054B1868FFF7A1F8002008BD012008BD012008BD00BF5C4B020870B500F0C5F90E4B9B68B3B924
:402A80000C4C04F10C063046FFF770F804F120052846FFF76BF82660656000220C210A20FFF782F9A06010B10349FFF79BFB00F0BDF970BD5C4B0208B868081000B583B090
:402AC000FFF7D8FF0A4B9B6853B10A4B0193032300930023802208490848FFF7E3FC00E0002008B972B6FEE703B05DF804FB00BF5C4B0208904B0208C0680810512D0810D0
:402B000008B972B6FEE730B585B015460446124A9068F0B11A46019102950394052913DCFFF766FF022807D10023089A01A90A488068FFF757F90DE000231A4601A9064822
:402B40008068FFF74FF905E0002301A9FFF7F6F900E0002005B030BD5C4B020870B582B022E0DB681E68DC68251D2846FFF734F8636A20469847E369012B15D1A36933441A
:402B80009E4207D26360246129460D4B1868FFF709F809E0002100910B4632462046FFF7AFFF08B972B6FEE7054B1B681A68002AD7D1034A51681160536002B070BD00BFAB
:402BC0005C4B020838B50546FFF7D8FC0446074B9B6B984204D2FFF7C1FF01232B6001E000232B60014B9C63204638BD5C4B020870B582B005460E46104B1B68DB68DC682A
:402C0000201DFEF7E9FFE369012B11D1A1692B46324629442046FFF70BFF48B1002100910B462A462046FFF76BFF08B972B6FEE7636A2046984702B070BD00BF5C4B0208F9
:402C400070B582B006460C46FFF78EFC01A8FFF7B9FF019B1BBB054644B9B04206D3FFF70BFD29463046FFF7C3FF1AE02CB10E4B5B681C68B4FA84F464092246711B0A4B15
:402C80009868FFF7C3FAFFF7F7FC50B94FF08052064B1A60BFF34F8FBFF36F8F01E0FFF7EBFC02B070BD00BF5C4B020804ED00E030B587B03FE0039B002B3CDB059C6369ED
:402CC00013B1201DFEF788FF02A8FFF77BFF039B092B30D8DFE803F00505052F202C05052F200499A5690B46024629442046FFF79FFE00B3636A20469847E369012B1AD1F4
:402D0000A269002100910B46049802442046FFF7F7FE80B972B6FEE70499A16109B972B6FEE70346024601442046FFF781FE02E0204600F08DF900231A4603A903488068CD
:402D4000FFF7A2F90028B6D107B030BD5C4B020800B583B001A8FFF75BFE0199FFF770FFFFF7A6FFF6E700BF044B1B68B3F1FF3F01D072B6FEE772B6FEE700BFB04202084E
:402D800006480068006880F3088862B661B6BFF34F8FBFF36F8F00DF00BF000008ED00E0DFF80C00016841F4700101607047000088ED00E04FF0807340F8043C21F00101F4
:402DC00040F8081C054B40F80C3C40F8202C6FF0020340F8243C4438704700BF692D0810074B19680868B0E8F04F80F30988BFF36F8F4FF0000080F311887047AFF3008095
:402E0000304B020872B6074A136801331360012B06D1054B1B6813F0FF0F01D072B6FEE7704700BFB042020804ED00E0054B1B680BB972B6FEE7013B024A136003B962B6F7
:402E4000704700BFB04202080000000000000000EFF30980BFF36F8F154B1A681EF0100F08BF20ED108A20E9F04F10604DF8043D4FF0BF0080F31188BFF34F8FBFF36F8FC0
:402E8000FFF7AAFC4FF0000080F3118808BC19680868B0E8F04F1EF0100F08BFB0EC108A80F30988BFF36F8F704700BFAFF30080304B020808B572B6FFF766FB18B14FF060
:402EC0008052024B1A6062B608BD00BF04ED00E0064B1B68064AA2FB03239B09013B054A13600722044B1A60704700BF98420208D34D621014E000E010E000E000B583B0D9
:402F0000224B1A78D2B20192FF221A701B78DBB28DF803309DF803301D4A03F0BF0313700723536009E01A4A5368013B53609DF803305B00DBB28DF803309DF8033013F08A
:402F4000800FF0D1124A53681B0203F4E0635360019BDBB20D4A13700E4B1A6842F47F021A601A6842F07F421A60FFF7B1FF0022094B1A60FFF714FF084A136843F04043C0
:402F80001360FFF7FDFEFFF7EFFE00BF00E400E0984B020820ED00E0B042020834EF00E0EFF305830F2B08D9094A9B5CDBB2094A1278934201D272B6FEE7074B1B6803F4B4
:402FC000E063044A5268934201D972B6FEE77047F0E300E0984B02080CED00E008B572B640F20B310148FEF797FCFEE7C868081038B5044610F0070F02D020F007040834D3
:40300000FFF7B2FA104B1B682BB90F4A02F10C0323F0070313600D4BD3F85C351C444BF6F772944208D8A34208D2074A15681D44064BC3F85C4502E0002500E00025FFF730
:403040001BFB284638BD00BFA04B02084806030808B172B6FEE7704770B539B900240AE015F8010BFDF76CFC013402E016460D460024B442F4DB204670BD00BF70B551B983
:4030800000240DE0FDF768FCC0B2287001340A2806D0013502E016460D460024B442F1DB204670BD08B5084B1B783BB9074A01210748FEF7A5FC0122034B1A70044B0222C3
:4030C0009A609A6108BD00BFA80B0308186908100000384008B5084B1B783BB9074A00210748FEF78DFC0122034B1A70044B01229A609A6108BD00BFA90B03087C69081010
:403100000000384081F0004102E000BF83F0004330B54FEA41044FEA430594EA050F08BF90EA020F1FBF54EA000C55EA020C7FEA645C7FEA655C00F0E2804FEA5454D4EB8C
:403140005555B8BF6D420CDD2C4480EA020281EA030382EA000083EA010180EA020281EA0303362D88BF30BD11F0004F4FEA01314FF4801C4CEA113102D0404261EB410102
:4031800013F0004F4FEA03334CEA133302D0524263EB430394EA050F00F0A780A4F10104D5F1200E0DDB02FA0EFC22FA05F2801841F1000103FA0EF2801843FA05F3594171
:4031C0000EE0A5F120050EF1200E012A03FA0EFC28BF4CF0020C43FA05F3C01851EBE37101F0004507D54FF0000EDCF1000C7EEB00006EEB0101B1F5801F1BD3B1F5001F05
:403200000CD349085FEA30004FEA3C0C04F101044FEA445212F5800F80F09A80BCF1004F08BF5FEA500C50F1000041EB045141EA050130BD5FEA4C0C404141EB010111F4DE
:40324000801FA4F10104E9D191F0000F04BF01460020B1FA81F308BF2033A3F10B03B3F120020CDA0C3208DD02F1140CC2F10C0201FA0CF021FA02F10CE002F11402D8BF92
:40328000C2F1200C01FA02F120FA0CFCDCBF41EA0C019040E41AA2BF01EB0451294330BD6FEA04041F3C1CDA0C340EDC04F11404C4F1200220FA04F001FA02F340EA030098
:4032C00021FA04F345EA030130BDC4F10C04C4F1200220FA02F001FA04F340EA0300294630BD21FA04F0294630BD94F0000F83F4801306BF81F480110134013D4EE77FEA95
:40330000645C18BF7FEA655C29D094EA050F08BF90EA020F05D054EA000C04BF1946104630BD91EA030F1EBF0021002030BD5FEA545C05D14000494128BF41F0004130BDF4
:4033400014F580043CBF01F5801130BD01F0004545F0FE4141F470014FF0000030BD7FEA645C1ABF194610467FEA655C1CBF0B46024650EA013406BF52EA033591EA030F4B
:4033800041F4002130BD00BF90F0000F04BF0021704730B54FF4806404F132044FF000054FF0000150E700BF90F0000F04BF0021704730B54FF4806404F1320410F000458A
:4033C00048BF40424FF000013EE700BF42004FEAE2014FEA31014FEA02701FBF12F07F4393F07F4F81F06051704792F0000F14BF93F07F4F704730B54FF4607401F0004542
:4034000021F0004120E700BF50EA010208BF704730B54FF000050AE050EA010208BF704730B511F0004502D5404261EB41014FF4806404F132045FEA915C3FF4DCAE4FF055
:4034400003025FEADC0C18BF03325FEADC0C18BF033202EBDC02C2F1200300FA03FC20FA02F001FA03FE40EA0E0021FA02F11444C1E600BF70B54FF0FF0C4CF4E06C1CEA26
:4034800011541DBF1CEA135594EA0C0F95EA0C0F00F0DEF82C4481EA030621EA4C5123EA4C5350EA013518BF52EA033541F4801143F4801338D0A0FB02CE4FF00005E1FB4E
:4034C00002E506F00042E0FB03E54FF00006E1FB03569CF0000F18BF4EF0010EA4F1FF04B6F5007F64F5407404D25FEA4E0E6D4146EB060642EAC62141EA55514FEAC5207A
:4035000040EA5E504FEACE2EB4F1FD0C88BFBCF5E06F1ED8BEF1004F08BF5FEA500E50F1000041EB045170BD06F0004646EA010140EA020081EA0301B4EB5C04C2BFD4EBF0
:403540000C0541EA045170BD41F480114FF0000E013C00F3AB8014F1360FDEBF002001F0004170BDC4F10004203C35DA0C341BDC04F11404C4F1200500FA05F320FA04F077
:4035800001FA05F240EA020001F0004221F0004110EBD37021FA04F642EB06015EEA430E08BF20EAD37070BDC4F10C04C4F1200500FA04F320FA05F001FA04F240EA02004B
:4035C00001F0004110EBD37041F100015EEA430E08BF20EAD37070BDC4F1200500FA05F24EEA020E20FA04F301FA05F243EA020321FA04F001F0004121FA04F220EA0200A8
:4036000000EBD3705EEA430E08BF20EAD37070BD94F0000F0FD101F00046400041EB010111F4801F08BF013CF7D041EA060195F0000F18BF704703F00046520043EB0303E8
:4036400013F4801F08BF013DF7D043EA0603704794EA0C0F0CEA135518BF95EA0C0F0CD050EA410618BF52EA4306D1D181EA030101F000414FF0000070BD50EA410606BFD5
:403680001046194652EA430619D094EA0C0F02D150EA013613D195EA0C0F05D152EA03361CBF104619460AD181EA030101F0004141F0FE4141F470014FF0000070BD41F082
:4036C000FE4141F4780170BD70B54FF0FF0C4CF4E06C1CEA11541DBF1CEA135594EA0C0F95EA0C0F00F0A7F8A4EB050481EA030E52EA03354FEA013100F088804FEA0333E4
:403700004FF0805545EA131343EA12634FEA022245EA111545EA10654FEA00260EF000419D4208BF964244F1FD0404F5407402D25B084FEA3202B61A65EB03055B084FEAC1
:4037400032024FF480104FF4002CB6EB020E75EB030E22BFB61A754640EA0C005B084FEA3202B6EB020E75EB030E22BFB61A754640EA5C005B084FEA3202B6EB020E75EB4A
:40378000030E22BFB61A754640EA9C005B084FEA3202B6EB020E75EB030E22BFB61A754640EADC0055EA060E18D04FEA051545EA16754FEA06164FEAC30343EA52734FEA9B
:4037C000C2025FEA1C1CC0D111F4801F0BD141EA00014FF000004FF0004CB6E711F4801F04BF01430020B4F1FD0C88BFBCF5E06F3FF6AFAEB5EB030C04BFB6EB020C5FEA24
:40380000500C50F1000041EB045170BD0EF0004E4EEA113114EB5C04C2BFD4EB0C0541EA045170BD41F480114FF0000E013C90E645EA060E8DE60CEA135594EA0C0F08BFE0
:4038400095EA0C0F3FF43BAF94EA0C0F0AD150EA01347FF434AF95EA0C0F7FF425AF104619462CE795EA0C0F06D152EA03353FF4FDAE1046194622E750EA410618BF52EA9A
:4038800043067FF4C5AE50EA41047FF40DAF52EA43057FF4EBAE12E710B5431E0A44914204D011F8014B03F8014FF8E710BD02440346934202D003F8011BFAE770472DE940
:4038C000F04788B0002B149F1299109EDDF84CA01D4627F02007BBBF03F100431D4600232D231446B8BF1446462F0B7003D0452F03D1013601E0032300E0022307AA049279
:4039000006AA03928DE8480422462B4600F008FF472F804602D1119BDB0728D5462F08EB060911D198F80030302B0AD1002200232046294602F078FD18B9C6F10106CAF8F6
:403940000060DAF800309944002200232046294602F06AFD08B9302202E0CDF81C9006E0079B994503D9591C07911A70F8E7079B159AC8EB03034046136008B0BDE8F087A0
:4039800073B503460029B8BF494203F8022BB4BF2D222B220929427019DD0DF1070216460A2591FBF5F405FB14113031092C02F8011D2146F5DC3031541E02F8011CB44268
:4039C0001A460AD214F8012B03F8012BF7E730241A46214402F8024B5970101A02B070BD2DE9F04F91B00C46DDF8688016461F46054601F0DBFD03680893184600F020FD31
:403A000000230E93D8F800300990073323F0070303F1080294F818A0D4F800B0C8F80020D3E90023C4E91223D4E9128929F000430B93CDF828804FF0FF32A74BDDE90A0181
:403A400002F024FDA0B94FF0FF32A34BDDE90A0102F0FEFC60B9002200234046494602F0EDFC10B12D2384F843309C4B9C4A0AE042464B464046494602F008FD002800F07D
:403A80009281984B984ABAF1470F8CBF90469846032323612BF0040323604FF000093DE0BAF1670F00F08A81BAF1470F00F08681236000210DF13302019363680590029207
:403AC000009342464B460691CDF810A0CDF80CE02846FFF7F4FE0AF0DF03472B804600F08481BAF1650F0D9900F28D810139524604F150000D91FFF743FF0E9A8318012ADE
:403B00008146236100F37C812268D10700F178819DF8333013B12D2384F84330009733460FAA2146284600F09FF9013002D14FF0FF3096E123685A0501D4236965E0BAF1B9
:403B4000650F40F2D58000220023D4E9120102F06BFC78B30123654A31462846B8470130E5D00E9B0D9A9A420BDB2368D80708D423689B0740F111814FF0000804F119096E
:403B800006E1099B089A31462846B8470130CED04FF0000804F11A090E9B013B9845E7DA01234A4631462846B8470130BFD008F10108F1E70D9B002B29DC01234B4A314609
:403BC0002846B8470130B2D00D9B23B90E9B13B92368D907CCD5099B089A31462846B8470130A4D04FF0000904F11A0A0D9B5B42994509DA0123524631462846B847013099
:403C000095D009F10109F1E70E9B4246A7E00E9AA36D9A42A8BF1A46002A914606DC4FF0000A29EAE97904F11A0B11E01346314642462846B8470130F1D178E701235A46A9
:403C400031462846B84701303FF471AF0AF1010AA36DC9EB03029245F0DB08EB03090D9A0E9B9A420FDB2368DA070CD40E9B0D9A9844C9EB08089B1A9845A8BF9846B8F19A
:403C8000000F08DC0FE0099B089A31462846B8470130EBD14BE743464A4631462846B84701303FF444AF4FF0000928EAE87804F11A0A09E00123524631462846B8470130F8
:403CC0003FF435AF09F101090D9A0E9B9B1AC8EB03039945EEDB4BE7FFFFEF7FE8690810EC690810F0690810F4690810F86908100E9A012A01DCDB0738D5012342463146AF
:403D00002846B84701303FF412AF099B089A31462846B84701303FF40AAF00220023D4E9120102F081FB20B14FF0000804F11A0A0EE00E9B08F10102013B19E00123524672
:403D400031462846B84701303FF4F1AE08F101080E9B013B9845F1DB4B4604F1500231462846B84701307FF403AFE0E60123424631462846B8470130EED1D8E601234A4602
:403D800031462846B84701303FF4D1AE08F10108E3680F9A9B1A9845F0DBE0680F9B9842B8BF18465DE06268531C0EA84BF480630DF1340E7FF474AE062201E012B901222E
:403DC000626075E6002106910DF133018DE80C00236005904246CDF810A0CDF80CE002914B462846FFF76BFD80460D9BD81C02DB626893421DDDAAF1020A5FFA8AFA70E6D3
:403E00000133236184E6BAF1660F14D10029636807DD216113B92268D2071DD501330B4419E013B92268D00701D5023313E0012311E04FF0670A0D9B0E9A934205DB2268E5
:403E40002361D10708D5013305E0002BD4BFC3F102030123134423610D9BA3654FF0000956E611B0BDE8F08F2DE9F04791461F460A698B68DDF820809342B8BF1346C9F897
:403E8000003091F8432006460C4612B10133C9F800302368990642BFD9F800300233C9F80030256815F0060510D104F1190A07E00123524639463046C04701301AD0013588
:403EC000E368D9F800209B1A9D42F1DB94F843302268003318BF012392060FD5E1185A1C302081F84300224494F8451082F84310023303E04FF0FF30BDE8F08704F1430288
:403F000039463046C0470130F4D02268D9F80050E36802F00602042A08BF5D1B2269A3680CBF25EAE57500259342C4BF9B1AED184FF000091A344D4509D001232246394626
:403F40003046C0470130D5D009F10109F3E70020BDE8F0872DE9F04317460A7E85B06E2A984606460C460C9B01F1430E00F0AE8011D8632A22D009D8002A00F0BB80582A35
:403F800040F0CA8081F84520834955E0642A1ED0692A1CD0C0E0732A00F0B08009D86F2A2ED0702A40F0B8800A6842F020020A603EE0752A24D0782A3AD0ADE01A6801F148
:403FC0004205111D1960136884F84230A8E021681A6811F0800F02D0111D196008E011F0400F02F10401196002D0B2F9003000E01368002B3CDA2D225B4284F8432037E0FA
:4040000021681A6811F0800F02D0111D196007E011F0400F02F10401196001D0138800E01368227E5C496F2A14BF0A2208221BE078225A4984F845202268186812F0800F42
:4040400000F104051D6003D1550601D5038800E00368D00744BF42F0200222601BB9226822F0200222601022002084F8430001E049490A226568A560002D08DB206820F000
:40408000040020602BB9002D7DD175460CE0002B79D07546B3FBF2F002FB1033CB5C05F8013D03460028F5D1082A0BD12368DA0708D5236962689A42DEBF302305F8013C2B
:4040C00005F1FF35C5EB0E0323612EE008681A68496910F0800F03D0101D1860136808E010F0400F02F104001860136801D0198000E0196000232361754616E01A68111D31
:404100001960156862680021284601F0C1FA08B1401B6060636804E004F1420584F8422001232361002384F84330CDF800803B4603AA21463046FFF797FE013002D14FF00F
:40414000FF3026E023692A4639463046C0470130F5D023689B0710D5002504F1190907E001234A4639463046C0470130E7D00135E368039A9B1A9D42F2DBE068039B984210
:40418000B8BF184605E00B7884F8423004F142058AE705B0BDE8F083FA6908100B6A08100FB40A4B13B51C6824B1A36913B9204601F056F905AB049AA1680193204601F059
:4041C00071FE02B0BDE8104004B070471443020870B50E46054618B183690BB901F040F9AB69AC6813B9284601F03AF9224B9C4201D16C6808E0214B9C4201D1AC6803E004
:404200001F4B9C4208BFEC68A3891B0701D523693BB92146284600F083F910B14FF0FF3070BD013EA36816F8011F013BA36091B1002B04DAA269934206DB0A2904D0236885
:404240005A1C22601970EDE72246284600F014F90130E7D1E2E7002B08DA22460A21284600F00AF90130D9D00A2070BD23680A205A1C2260187070BD2C6A08104C6A081054
:404280006C6A0810024B01461868FFF7A1BF00BF1443020838B50C46054618B183690BB901F0DEF80E4B9C4201D16C6808E00D4B9C4201D1AC6803E00B4B9C4208BFEC68A9
:4042C0002146284601F014FF38B96368013B636023685A1C2260187838BD4FF0FF3038BD2C6A08104C6A08106C6A08102DE9F7431D464F4B1E6804460F46904626B1B3691A
:4043000013B9304601F0ACF84A4B9C4201D1746808E0494B9C4201D1B46803E0474B9C4208BFF468B8F1020F04D0B8F1010F79D8002D77DB2146304601F016F8616B41B116
:4043400004F14403994202D0304601F0D5FC002363630023A3616360A3891B0603D52169304601F0C9FCA38923F44A6323F00303B8F1020FA3811ED001AB6A462146304660
:4043800001F018F9A3891843A0810DB9009D00E02FBB284601F06EF90746D0B9DDF80090A94502D14FF0FF3006E0484601F062F9074678B9F6E70020A38943F00203A38133
:4043C0000023A36004F1470323602361012363612AE0A946A38943F08003A3814D46B36913B9304601F03CF8B8F1010F08BFA389276004BF43F00103A381A389276103F05C
:40440000080080B2656158B113F001034FF000001DBF6D42A060A561A56008BF184603E0A06001E04FF0FF3003B0BDE8F08300BF144302082C6A08104C6A08106C6A0810EB
:40444000034613F8012B002AFBD1181A0138704710B5034642B111F8014B03F8014B013A002CF7D11A4400E010BD934202D003F8014BFAE710BD0000F8B50F461446064689
:4044800018B183690BB900F0EBFF224B9C4201D1746808E0204B9C4201D1B46803E01F4B9C4208BFF468A369A360A3891A0709D523693BB123682069181A63699842FDB2F6
:4044C0000FDB08E02146304600F02AF80028F1D04FF0FF30F8BD2146304600F045FF0028F6D1A368013BA36023685A1C22601F706269431C934204D0A389DB0707D50A2D9F
:4045000005D12146304600F02FFF0028E0D12846F8BD00BF2C6A08104C6A08106C6A0810324B70B51D6806460C4625B1AB6913B9284600F095FF2E4B9C4201D16C6808E033
:404540002C4B9C4201D1AC6803E02B4B9C4208BFEC68B4F90C309AB215071DD4D00602D4092232603AE0510712D5616B41B104F14403994202D0304601F0BEFB00236363FA
:40458000A38923F02403A3810023636023692360A38943F00803A38123694BB9A38903F42073B3F5007F03D02146304601F026F8A28912F0010305D00023A36063695B422D
:4045C000A36103E0920758BF6369A36023695BB9B4F90C3003F0800080B230B143F04003A3814FF0FF3070BD002070BD144302082C6A08104C6A08106C6A08102DE9F74F9D
:4046000003690C699C42804600F38380013C01F114074FEA840E00F1140657F8245006EB0E030193013556F82430B3FBF5F507EB0E09002D39D04FF0000A3846B446D346FD
:4046400050F8042B93B205FB03A34FEA134A9BB2C3EB0B03120CBCF800B005FB02A213FA8BF34FEA124A1FFA82FBDCF80020CBEB124202EB23429BB243EA024381454FEA4F
:40468000224B4CF8043BDBD256F80E306BB9019B043B9E421A4602D3C8F8104005E01268043B002AF8D1013CF3E7404601F04DFA00282CDB013530464FF0000E57F8041BB1
:4046C000D0F800C08AB2C2EB0E03090C13FA8CF3C1EB1C4202EB23429BB243EA0243B9454FEA224E40F8043BE8D256F8242006EB840362B9043B9E421A4602D3C8F810401B
:4047000005E01268043B002AF8D1013CF3E7284600E0002003B0BDE8F08F0000000000002DE9F04F456A97B08246239CCDE9022345B9102000F09EFFCAF8240045608560B4
:404740000560C560DAF82430196859B15A684A60012393408B60504601F01FF8DAF8243000221A60039BA04A002BBFBF01232360039B23F00043B8BF0393DDF80C80A4BFB3
:404780000023236028F000431B0D1B0593421DD1229A42F20F731360029B43B9934A944BC8F31300002814BF1846104600E09048249B002B00F04A85C37813B100F10803DA
:4047C00000E0C31C249A136000F040BDDDE90245002200232046294601F026FE074658B1229A01231360249B002B00F0228581481860013800F02ABD14AB019315AB00937F
