:020000041008E2
:4000000000780408F90208100D0000006103081061030810610308106103081000000000000000000000000000000000F14D08105D03081000000000614E0810C54E08106C
:400040005D0308105D0308105D0308105D0308105D0308105D0308105D0308105D0308105D0308105D0308105D0308105D0308105D0308105D0308105D0308105D03081000
:400080005D0308105D0308105D0308105D0308105D0308105D0308105D0308105D0308105D0308105D0308105D0308105D0308105D030810750C08105D0308105D0308109F
:4000C0005D0308105D0308105D0308105D0308105D0308105D0308105D0308105D0308105D0308105D0308105D0308105D0308105D0308105D0308105D0308105D03081080
:400100005D0308105D0308105D0308105D0308105D0308105D0308105D0308105D0308105D0308105D0308105D0308105D0308105D0308105D0308105D0308105D0308103F
:400140005D0308105D0308105D0308105D0308105D0308105D0308105D0308105D0308105D0308105D0308105D0308105D0308105D0308105D0308105D0308105D030810FF
:400180005D0308105D0308105D0308105D0308105D0308105D0308105D0308105D0308105D0308105D0308105D0308105D0308105D0308105D0308105D0308105D030810BF
:4001C0005D0308105D0308105D0308105D0308105D0308105D0308105D0308105D0308105D0308105D0308105D0308105D0308105D0308105D0308105D0308105D0308107F
:400200005D0308105D0308105D0308105D0308105D0308105D0308105D0308105D0308105D0308105D0308105D0308105D0308105D0308105D0308105D0308105D0308103E
:400240005D0308105D0308105D0308105D0308105D0308105D0308105D0308105D0308105D0308105D0308105D0308105D0308105D0308105D0308105D0308105D030810FE
:400280005D0308105D0308105D03081010B5054C237833B9044B13B10448AFF300800123237010BD38750208000000008CBD0810084B10B51BB108490848AFF30080084825
:4002C000036803B910BD074B002BFBD0BDE81040184700BF000000003C7502088CBD081000470208000000007047EFF3108072B6704780F310887047FFF7F6FF72B6114C08
:40030000114DAC4209DA21686268A368043BA2BFC858D050FAE70C34F3E70C490C4A00209142BCBF41F8040BFAE70A480A490860BFF34F8F00F06CF900F046F900F01EF8EC
:40034000FEE70000F89C0910109D091038750208D44403080040020808ED00E0FEE7FEE700B504207146084202D0EFF3098001E0EFF30880043002F045F9FEE700B583B0CF
:4003800062B604F0FFFE00220821042003F07AFC1C4B186003F086FA1B4B1860002401940225009523464FF4C8721849184803F0F9FF0194009523464FF4C8721549164859
:4003C00003F0F0FF0194009523464FF4C8721349134803F0E7FF0194009523464FF400621049114803F0DEFF01940323009323464FF480520D490E4803F0D4FF04F004F893
:40040000FEE700BF2043030824430308DCAA0810AD060810E8AA0810BD080810F4AA08106D09081000AB0810BD09081010AB0810DD0B0810704700BF5C4AD2F8803303F004
:400440000F0303F1D00152F8212002F00702032A04D0042A05D092B9554914E0554A116811E003F1C002514951F8222002F01F02112A06D0132A04D04FF4FA4103E04E492D
:4004800001E04FF400418BBB484BD3F8902502F00100D3F88825C2F30172D3F8883513F0405F07D0414BD3F88835C3F30173012B02D102E0012300E0002303B108B9032A02
:4004C00046D13A48D0F88025C2F31103D0F88425C2F30C02D0F88005C0F300600130B1FBF2F202FB03F2B2FBF0F131E0012B2FD12E4BD3F8402602F00100D3F80026C2F3D8
:400500000172D3F8003613F0405F07D0274BD3F80036C3F30173012B02D102E0012300E0002303B108B9032A12D12048D0F8002602F07F02D0F80036C3F30423D0F8000632
:40054000C0F3044002FB01F2B2FBF3F2B2FBF0F1164BD3F88033C3F3011321FA03F215494A601648D0F89030C3F3072301330069000E0130B2FBF0F08860B2FBF3F3CB60DE
:400580000B6103F5742202F23F220D48A0FB0202C2F387420A7503F2E7330A4AA2FB03239B098B61DB03CB61704700BF0000264000127A008C42020800366E0100002140F5
:4005C00083DE1B43D34D621008B5104BD3F8802122F0404242F08042C3F88021D3F8802142F00042C3F88021D3F8802122F00102C3F88021FFF71EFFFFF71EFF00F042FBD6
:4006000000F048FB01F0C4FE08BD00BF0000264008B5FFF76AFE074AD2F8883043F47003C2F88830BFF34F8FBFF36F8FFFF761FE08BD00BF00ED00E000B583B0164B00228F
:40064000C3F8C82F0422C3F8C02FD3F8C03F134BB3F90030002B09DB5A0903F01F03012101FA03F360320E4941F8223002A9002341F8043D0B4B186803F03CFC019B43B10D
:400680003BB14FF08052084B1A60BFF34F8FBFF36F8F03B05DF804FB0000664028AC081000E100E05475020804ED00E010B582B000F026FB664B18680023022219464068AB
:4006C00008F0C6F8634808F08FF803220021012003F0D8FA604B1860604C6149204600F063FBB4F90030002B08DB590903F01F03012202FA03F35B4A42F8213004225A4B4F
:40070000C3F8C82F00234FF0FF3219465248006803F03AFC8EE04E4B186842685368013B5360002B04DA416808F066F8C0B204E042681368591C116018783F38342879D8F2
:40074000DFE800F06678787878787878787878787878787878787878787878787878787878787878787878787878787878787878493A78782A1B7878590000228DF800206C
:4007800001238DF801300A230193134669463748006803F0A7FA4DE000228DF8002001238DF801306FF009030193134669462F48006803F097FA3DE001238DF800308DF868
:4007C00001300A23019300231A4669462748006803F088FA2EE001238DF800308DF801306FF00903019300231A4669461F48006803F078FA1EE0002000F048F804460120CE
:4008000000F044F802462146194807F07BFF11E0184807F0E9FF184807F074FF174807F071FF174807F06EFF164807F06BFF164807F0DAFF0C4BD3F80833C3F30803002B52
:400840007FF469AF0422084BC3F8C82F5AE700BFBC4602081CAB08105475020828AC08103906081000E100E000006640204303082CAB081048AB081058AB081068AB0810AC
:4008800078AB081088AB081098AB081008B9012300E002239B0103F1804303F56013D3F80C01642303FB00F3034880FB0320DB17C3EBA01064387047D34D621010B582B04A
:4008C00004F0F8FB04F00CFC002400234FF0FF3269462248006803F057FB9DF800301BB1012B02D1022400E001249DF80130012B17D1A30103F1804303F56013D3F80C2145
:40090000642303FB02F2164B83FB0213D217C2EBA313643B019AD21800D50022642A02DC02E0019A00E064224FF47A7303FB02F30C4A82FB0312DB17C3EB621303F57A738F
:40094000A20102F1804202F56012C2F80C310321054B186803F038F8B7E700BF20430308D34D62101F85EB512443030800B585B004F0D6FB0E4B00930023022203A90D4816
:4009800000F0D4FF0020FFF781FF8DF80C000120FFF77CFF8DF80D00074B18684FF0FF33009300230122114602F08AFFEAE700BFE8430308000064402443030810B582B068
:4009C00004F00AFC05F07EF8002405F023F808BB04F01CFC002004F057FE4FF6FE73984209DC8DF80040019000231A4669460B48006803F077F9012004F032FE00B10024F1
:400A0000022004F02DFE00B1012404F069FF05F059F8DAE7322003F021FED6E72043030800B583B002A9002341F8043D084B186803F060FA019B3BB14FF08052054B1A60FA
:400A4000BFF34F8FBFF36F8F03B05DF804FB00BF2843030804ED00E010B588B004468DF80710642902D964238DF8073014B1012C04D006E01223ADF81C3002E01623ADF809
:400A80001C300DF1070305930123ADF81A30ADF81830402A12D105A90D4802F051FA8DF80C409DF80730049300228DF80D20134603A90848006803F015F906E005A802F072
:400AC0001BFA05A9024802F0C3FA08B010BD00BF6C4303082043030810B586B044F2080398420ED00C4603D8B0F5805F09D06BE045F2010398420FD045F20C03984212D00F
:400B000062E08022314B9A60314807F06DFE0021084602F08FF857E02E4807F065FE80222A4B5A6050E00B89122B05D10B68402219780020FFF790FF2389162B05D1236890
:400B4000402219780120FFF787FF23891A2B0FD100228DF8042001238DF80530236893F900300293134601A91B48006803F0BAF823891D2B0FD101238DF804308DF80530B1
:400B8000236893F90030029300231A4601A91248006803F0A7F82389142B01D0182B10D10023ADF8103040238DF81430A389ADF8123001AB94E8070083E80700184602F0C0
:400BC000F7F8E06813F058F906B010BD80063240B4AB0810C8AB08102043030808B51F4807F002FE00214FF0FF3003F069F81C4B18601C4806F046FC01E00BF0FDF91A4BCF
:400C00001B78022BF9D1194801F04AFF00234FF0FF3219461248006803F0B6F90BF0ECF90021134B186802F0B9FE10F0020FEDD002210F4B186802F0B1FE0020FFF726FE0B
:400C40000022C1B21046FFF707FF0120FFF71EFE0022C1B20120FFF7FFFED7E7D8AB081028430308D90A081070430308210A08102443030808B5024800F030FB08BD00BFCE
:400C80008475020808B500221146042000F016F908BD00BF10B501F010FD0446044800F0C9F9044800F02AFA204601F00AFD10BD58750208ECAB081010B504462146034877
:400CC00000F0DAFB0028F9D010BD00BF00006640054BD3F80833C3F30803002BF8D0024BD3F84003704700BF0000664008B50249024801F061FA08BD2C4303080000664008
:400D000008B5114B1B785BB9104A1149114801F029F81149114800F047F801220A4B1A700E4BB3F90030002B08DB590903F01F03012202FA03F30A4A42F82130054A136878
:400D400043F00043136008BDD87602082C43030838AC081000006640ED0C081028AC081000E100E038B50C4B9A680C4B9A420ED10D46044619B9FC21094801F033FC04F149
:400D80001003064A52F8230042F8235038BD1030044B53F8200038BD00ED00E00040020878AC08100000081070B338B504460D464368072B03D93621154801F013FCB4F9A0
:400DC00000306268002B08DB5201D2B203F1604303F5614383F8002305E003F00F035201D2B20C49CA540C4B9A680C4B9A420DD11DB94521064801F0F5FB2946B4F900001E
:400E0000FFF7B0FF002038BD05487047002038BD78AC081014ED00E000ED00E0004002080100560038B50369002B0DDA0D4604460B0C1B0423B140F2A721044801F0D2FB3E
:400E4000A9B26160002038BD014838BDBCAC081001008A0038B50368002B01DA002300E0094B73B90D460446C2600B0C1B0423B140F28E21054801F0B5FBA9B2A160002003
:400E800038BD014838BD00BF01008A00BCAC081038B504460D4619B99921064801F0A2FB2369002B03DAE3682B60002038BD024838BD00BFFCAC081001008A000F2840D82C
:400EC000F8B515460E46044682B979B90F2804D940F29D11214801F085FB600100F1804000F50C101E4B18600020F8BD5DB366B316F01F0F2BD10F2C04D940F29D11174888
:400F000001F070FB640104F1804404F50C14144F3C607E60BD60F2080021284606F078FF00212046FFF77EFF3A4652F8040B0021FFF790FF68B900213868FFF773FF50B962
:400F4000F8BD084870470748F8BD0648F8BD0548F8BD0548F8BD0448F8BD00BF3CAD0810DC76020803018A0001018A002DE9F0411B4B1B68DC68236883422CD90D46460908
:400F8000A0EB4610012303FA00F819B901F095FB074600E00027124B18680368002B01DA002300E00F4B83B9626852F8263018EA030F05D023EA080342F82630002400E0AA
:400FC000094C0021FFF72EFF00E0084C25B9384601F077FB00E0064C2046BDE8F08100BFDC76020801008A00020188000301880004018A000B4B1B68DB681A6882420CD924
:401000004109A0EB4110012202FA00F05B6853F82130184203D004487047044870470448704700BFDC7602080101880004018A0000018800024B1B680BB9014B186070471A
:40104000E87602082DE9F8430446884691461E46089F072803D9B421244801F0C3FA244B1B682C2000FB04F01C18F5B21D50C6F307236360360CA6600F2D04D940F29D1167
:401080001C4801F0AFFA6D0105F1804505F50C15256165680F2D04D94FF4DC71154801F0A1FA154B03EB45156561A668330C1B0423B14FF4EB710F4801F094FA330C1B0488
:4010C00023B140F2D7110B4801F08CFAB3B243EA0646AE60C4F81C90C4F820800023A36117B1B7F90030A381BDE8F8837CAD0810E87602083CAD081000102340F0B58FB074
:40110000044618B950212C4801F06CFAA369072B03D95421284801F065FAE36A1BB95621254801F05FFAE368072B03D95721224801F058FA236A072B03D958211E4801F0D1
:4011400051FA236B1BB959211B4801F04BFA07AE04F114050FCD0FC62F6802AD26460FCE0FC533682B60079B1933ADF83030089B0D93A26AE16A0CAD00953B460A98FFF7BE
:4011800061FF00210091069B0A460598FFF75AFF216B2846FFF708FEBDF93030002B08DB590903F01F03012202FA03F3034A42F821300FB0F0BD00BF7CAD081000E100E095
:4011C000F8B507460E461D4614461AB9FC21224801F008FA072F03D9FD211F4801F002FA072E03D9FE211C4801F0FCF91B4B1B682C2202FB073002FB06367368012202FAFB
:4012000003F31B04476802FA07F70269EAB1B169E9B91268002A01DA002200E0104AC2B92288134323600369DC600123B361756204693B0C1B0423B140F28E21094801F0D4
:40124000D1F9BAB2A2600020F8BD0748F8BD0748F8BD0648F8BD00BF7CAD0810E876020801008A003CAD081004028A0007028A0070B504460E461546072804D940F25F1173
:40128000084801F0AFF9084B1B682C2202FB0434E369AB4204D9236A43F82560002070BD024870BD7CAD0810E87602080A028A0038B504460D46072804D94FF4C771054828
:4012C00001F090F9044B1B682C2202FB0434A56238BD00BF7CAD0810E876020870B582B000230193044620B94FF4D971264801F079F9236923B940F2B311234801F072F907
:40130000636923B94FF4DA711F4801F06BF9236A23B940F2B5111C4801F064F96369DD682A0C1CD012041A601B6820690369002B15DA01A9FFF7ACFD60B9019803681E0CC3
:40134000DBB2E269934206D2226A52F8233013B1984700E0002631462069FFF763FDADB275B16369ADB21D601B68636A1BB198470023636202E0A36A03B198470023A36107
:4013800063691B6802B070BD7CAD081010B50446072804D940F20B210D4801F023F90D4B1B682C2202FB0434B4F90C30002B0DDB5A0903F01F03012101FA03F3203206495D
:4013C00041F82230BFF34F8FBFF36F8F002010BD7CAD0810E876020800E100E010B50446072804D940F22A210B4801F0FBF80B4B1B682C2202FB0434B4F90C30002B08DBA9
:40140000590903F01F03012202FA03F3044A42F82130002010BD00BF7CAD0810E876020800E100E010B4D0F8003303F00F03072B06D900230DE0D0F84043CC54013300E0CD
:4014400000239342F7D306E0D0F8404321F8134001339342F8D35DF8044B704710B51446D0F80833C3F308039A4200D31C462246FFF7D8FF204610BD036813F4006F01D0D0
:40148000802200E04022D0F80832C3F30803934203D0C0F84012012070470020704700BF10B4D0F8003203F00F03072B06D900230DE0CC5CC0F84042013300E00023934213
:4014C000F7D306E031F81340C0F8404201339342F8D35DF8044B704710B51446036813F4006F01D0802200E04022D0F80832C3F30803D31AA34200D81C462246FFF7D0FFA6
:40150000204610BD02E0C0F84012013A002AFAD1704700BF10B51446036813F4006F01D0802200E04022D0F80832C3F30803D31AA34200D81C462246FFF7E4FF204610BDEE
:401540004B6843F020034B60D0F8043343F48033C0F80433D0F8043323F48033C0F80433D0F804330023C0F8C83FC0F8883F70474B6813F0200F0BD0036823F0004303602C
:4015800000238366C366036843F00043036003680B78DBB2062B03D10023C0F8883F06E00023C0F8C83F036E23F4204303664B6823F010034B600B7E83B10B78DBB2062BF2
:4015C00005D00A69CB689A4203D0022202E0012200E000224B6813434B600FE00B78DBB2062B05D04A69CB689A4203D0082202E0042200E000224B6813434B6000230B70C2
:40160000704700BF4A7A1AB10B7A5340DB4300E0FF23D0F8102322F47F025B0403F47F031343C0F81033704738B504460D4601230B764B7A43B3D0F840335B080122C0F898
:40164000C02FD0F8C02F0A7A934202D04A7A93420FD16A7A934201D100232B761023C4F8403FD4F8403F40F25113C4F8483F01220BE040F2AE512C4800F0B4FF40F2411363
:40168000C4F8883E022200E00122D4F8043243F48033C4F80432D4F8043223F48033C4F80432D4F80432E266012A3CD16B6843F010036B60636E13F0100F16D006232B70E2
:4016C0002B7E3BB16A6A29690A44EA61AB6A5B1A2B6206E02A6B69690A44EA616B6B5B1A2B620123C4F8883F38BD02232B702B7E0BB1AB6A00E06B6B2B62236813F4006F67
:4017000001D0802300E0402323B940F25E21064800F068FFD4F8043323F0FF03C4F804330123C4F8C83F38BDBCAD081038B505460C460A6A42B1C969FFF7CEFE236A1B1AB1
:401740002362E3691844E061236A23B98022FF212846FFF7DFFE38BD38B50546802906D9A1F18003802B0ED8A1F181040CE0036E43F40043036609B14C1E00E00024002392
:40178000C5F8C83F00E03F242B6813F4006F01D0802300E040239C4204D340F25E21064800F020FFD5F8041321F0FF03E1B21943C5F8041338BD00BFBCAD081038B5054678
:4017C0000C460B78023B032B00F28880DFE803F002025B73D0F840338A7A012A0FD10A78D2B2022A07D10122C2661A02CA6003220A70002204E0CA681343012200E00122EB
:40180000002A6BD0226A934207D2227E0AB1236100E06361E360012306E0237E0BB1236900E06369E3600223EB66012B56D1237E5BB1626A21690A44E261E36A994201D209
:401840005B1A00E0002323620AE0226B61690A44E261A36B994201D25B1A00E000232362637A13B9236A7F2B02D80423237038BD2B6E43F400532B66216A2846FFF76CFF69
:401880000523237038BDD0F840230B6A6BB10123C366CB691A700B6A013B0B62CB690133CB61CB680133CB6038BD0223C3660023C0F8C83F38BDD0F80423D2B20132C9697B
:4018C000FFF7CCFD216A091A2162E3691844E0612846FFF741FFE3680133E36038BD00BF70B505460C46164611F0800F04D04FF407710D4800F076FE737A9C4204D140F22D
:401900001D21094800F06EFE3472D5F8103323F0FF036400E4B21C43C5F8104331462846FFF770FE70BD00BF00AE0810F8B50F461D46069C16462AB121B94FF41A71074858
:4019400000F050FEAE4204D240F26921034800F049FE6762A662E562F8BD00BF00AE081070B506460D46144611F0800F04D040F28D21084800F036FE237A9D4204D140F27A
:401980008E21044800F02EFE657221463046FFF739FE70BD00AE081000287DD070B5054600297BD0002A7BD00B7913B13E4B984278D116460C4691F90130002B03DA4F2199
:4019C0003A4800F00FFE94F90230002B03DA5021364800F007FE6278A3789A4203D15121324800F0FFFD2378012B03D952212F4800F0F8FDE378012B03D953212B4800F094
:401A0000F1FD2378012B02D14FF4803200E00022237913B14FF4807300E00023134343F400632B60224B2B6640F20713C5F800330023C5F80433237833B973723246617805
:401A40002846FFF74DFF09E0324661782846FFF747FF3246A1782846FFF782FF154BC5F800324023C5F804320020C5F8C80EC5F8880EC5F8C80FC5F8880FC5F8080F40F2C3
:401A80005113C5F8483F70603070E378B372B062F0623061706170BD07487047064870BD054870BD044870BD0000694000AE081000080040070101000100AA0070B504464D
:401AC0000E46D0F88C3E13F0010F05D001230B70C0F8803ED0F8803ED4F84C5F40F201131D420CD031462046FFF72AFD40F20113C4F8403FD4F8403F45F010050BE03378DF
:401B0000DBB2052B07D115F0100F04D00123C4F8C43FC4F8C83FD4F8CC3F13F0010F08D031462046FFF74AFE0123C4F8C03FD4F8C03F15F0100F0AD031462046FFF718FD05
:401B40001023C4F8403FD4F8403FD4F84C5F15F0400F0DD031462046FFF766FD0123C4F8803ED4F8803E4023C4F8403FD4F8403FD4F88C3F13F0010F08D031462046FFF768
:401B8000D5FD0123C4F8803FD4F8803F70BD00BF2DE9F84305460C46036813F4006F02D04FF0800801E04FF04008D5F8007207F00F07A26A012A19D9D4F82490E262561EC0
:401BC000B9F1000F00D026B940F22C51254800F009FD324649462846FFF77EFCA36A1B1AA362072F00D9400048446062D5F80832C3F30803984533D0A36A012B30D100239D
:401C0000A362072F02D8636A1E7801E0636A1E8800F053FDC5F840624FF40073C5F8803FD5F8803F00F04DFDD5F8883F23F4007222F0010242F4007623F4EE6323F00303E2
:401C400023B14FF48161084800F0CCFCC5F8886F236843F002032360236B0BB101209847BDE8F88344AE0810BCAD08102DE9F04105460C46036813F4006F01D0802600E058
:401C800040267608A769D4F81C8017B1B8F1000F04D14FF49061314800F0A4FC424639462846FFF7DBFB236A03442362E3691B1AE36173BBA368FBB1E3689E4201D8013EAF
:401CC00000E05E1E2B6813F4006F01D0802300E040239E4204D340F25E21214800F082FCD5F8043323F0FF03F6B21E43C5F804630123C5F8C83F02E00023C5F8C83F6368C7
:401D000023F001036360236B33B304209847BDE8F081A169D5F8002302F00F02072A00D940000844A0619E4216D95C1E2B6813F4006F01D0802300E040239C4204D340F2B8
:401D40005E21074800F04EFCD5F8043323F0FF02E3B21343C5F80433BDE8F08144AE0810BCAD0810002800F0A98170B50546002900F0A6819E4B984200F0A48116460C464B
:401D80000B78022B03D942219A4800F02BFC637B023BDBB2062B03D94321964800F022FCA37B3BB1022B05D0032B03D04421914800F018FC94F82130012B03D945218D48C7
:401DC00000F010FC94F82830012B03D94621894800F008FC2378012B06D86368083B082B94BF0023012307E0A37F2BB16368013B062B94BF002301231BB148217D4800F0AE
:401E0000F1FBA368053B042B03D94921794800F0E9FB6369FF2B03D94A21764800F0E2FBA369FF2B03D94B21724800F0DBFBA37C6BB1237833B9A368092B05D1A37B2BB1CA
:401E4000012304E0012302E0012300E000231BB14D21684800F0C6FB636B23F4366323F00D031BB14F21634800F0BCFBE36B23F4EE6323F003031BB150215E4800F0B2FB14
:401E80002378022B01D1A37F13B163685A1E00E00022237F13B14FF4803100E00021A068082802D84FF4006300E00023194302F00F030B4343F000732B60236B2A6812F442
:401EC000006F01D0802200E04022934203D36521484800F087FBA36B2A6812F4006F01D0802200E04022934203D36621414800F079FB636A2A6812F4006F01D0802200E07B
:401F00004022934203D367213A4800F06BFB23781B0603F040732B64637F0BB1402200E00022A17C11B14FF4806300E000231343227C12B14FF4807200E000221343627C17
:401F400012B14FF4007200E000221A43E36A013B1B0403F470231343627B013A02F007021343A27B120102F030021343AB64237B13B14FF4807200E00022E17B21B9237876
:401F8000022B03D1012302E0012300E0002313B14FF4007300E000231A43A368013B03F00F031343C5F80033227DA3691B0403F47F031343C5F81033E26AD5F8003303F0AF
:401FC0000F0303339A4201D3102A03D97D21094800F008FBE37F23B12378012B03D0002302E0002300E0012333B14FF4807204E00000694084AE08100022637B013B03F0D6
:4020000007031A43A37B1B0103F0300313436B64237B13B14FF4807200E00022A368013B03F00F0313432278012A02D14FF4803200E000221343C5F8003294F83030C5F8FC
:40204000043394F8203013B14FF0007100E0002194F82120012A02D14FF0807300E000230B4394F82820012A02D14FF4803200E00022134394F8242013432B6594F83830C1
:40208000C5F80432636B23F4926323F002031B051B0DC5F8C83FE36B23F08C035B055B0DC5F8883F86B1002070603060B060F0603062F0623063054B736370BD044870470F
:4020C000034870BD024870BD002070BDEFCDAB000160AA000B694A69934202D34869181A7047CA694869101A184470472DE9F04107460D46036813F4006F02D04FF0800845
:4021000001E04FF040084FEA5808D7F80863C6F308062C6926E00134EB689C4200D100246B699C420FD12B6B0BB1082098476B699C4208D10023C7F8C83F0CB1013C13E05B
:40214000EC68013C10E0D7F84023D7F8003303F00F03072B02D8AB681A5502E0AB6823F81420013E002ED6D12C61EC6829463846FFF7B0FF201A804519D908B1441E00E060
:4021800000243B6813F4006F01D0802300E040239C4204D340F25E21064800F023FAD7F8040320F0FF03E0B21843C7F80403BDE8F08100BFBCAD081038B504460D46D0F827
:4021C000003E13F0080F35D0D0F8CC3F13F448730AD04A681A434A60C0F8C03FD0F8C03F0B6B0BB110209847D4F8CC3F13F4006F09D06B6843F400636B604FF40063C4F8DB
:40220000C03FD4F8C03FD4F8CC3F13F0010F11D0EB6923B129462046FFF728FD05E0AB681BB129462046FFF761FF0123C4F8C03FD4F8C03FD4F8003E13F0040F2ED0D4F86E
:402240008C3F13F4A0630AD02A681A432A60C4F8803FD4F8803F2B6B0BB120209847D4F88C3F13F0010F08D029462046FFF790FC0123C4F8803FD4F8803FD4F88C3F13F41E
:40228000007F0BD00022C4F8882F2B6823F001032B60EA622B6B0BB10220984738BD00BF1F4B98422DD00CD840282ED003D8E8B1102828D02FE0802829D0B0F5807F28D02C
:4022C00029E0184B984228D006D8B0F1204F0DD0154B984212D01EE0144B98420AD00133984209D0023B984215D101E0002070470F4870470F4870470F4870474FF4A000FF
:402300007047074870470D4870470D4870470D487047034870470C4870474FF4A400704706005200010000F0090000A0040000F001005200020052000300520001005000DE
:402340000200500005005200FF00520008B50C4B1B69002B12DB0B4B1868FFF7A1FF0122094BC3F88C24084BD3F80C34002BFAD1054BD3F88C34002BF5D108BD034808BD70
:4023800020002340EC760208000025400200500000B583B05523ADF80030002301930C496846FEF701FDBDF90030002B08DB590903F01F03012202FA03F3064A42F821303A
:4023C000022205490120FEF753FF03B05DF804FB4547020800E100E0654802082DE9F04104460D46174698469DF81860072903D9D121344800F0F6F837F00F0303D0D2216B
:40240000304800F0EFF8B8F1010F03D9D3212D4800F0E8F836F01F0303D0D421294800F0E1F822680123AB4022EA030308F0010808FA05F843EA08032360A36AA9000F22E8
:402440008A4023EA020207F00F0303FA01F71743A762072D04D940F245211B4800F0C2F836F01F0304D040F24621174800F0BAF804F13F4404F54E04E40904F1806404F532
:4024800044342401032D0DD82268ED001F23AB4022EA030306F01F0606FA05F51D432560BDE8F081043D6268ED001F23AB4022EA030306F01F0606FA05F51D436560BDE88E
:4024C000F08100BFC4AE081004AF081038B5044600F0F3F82CB1184B5B681F2B03D9002302E0002300E001231D460BB3E368E3B12368E3B1104B99680B46002203E0A3423A
:4025000004D01A465B69002BF9D100E000257DB111B9094B9C6000E05461226100236361054A53680133536002E0002500E0002500F0C7F8284638BDFC76020838B50446A0
:4025400000F0BBF8144B5A680AB399680B4602E0A34204D05B69002BFAD1002500E00125B5B1A14206D14B695BB10B498B600021196106E019695C694C61596909B11B6974
:402580000B61013A044B5A6012B99A6000E0002500F097F8284638BDFC76020810B5044605E0084B186800F07FF8A4F50044B4F5004FF6D8044B186800FB04F000F074F858
:4025C00010BD00BFA8420208A442020808B5034B1B7800FB03F000F067F808BDA042020801BEFEE738B50D46044C18220146204606F0E0F9A5610020FFF7F2FF504B020843
:40260000FEE700BF08B50268254BDA6142681A6282685A62C2689A620269DA6242691A6382695A63C2699A631E4A916AD963D16A1964516A5964516B9964926BDA64F1EEF1
:40264000103A13F0900F27D0026A154B1A65426A5A65826A9A65C26ADA65026B1A66426B5A66826B9A66C26BDA66026C1A67426C5A67826C9A67C26CDA67026DC3F8802031
:40268000426DC3F88420826DC3F88820C26DC3F88C20026EC3F89020FFF7B2FF08BD00BF504B020800ED00E00230800803D001300238FCD100BF00BF7047EFF3108072B618
:4026C000704780F310887047002800F0AC8070B40446002A00F0A98092F828300BB1012500E00025137F0BB1022300E000231D431669B60406F4802645EA060395682D048E
:4027000005F440351D431668300600F0E0602843136B556B43EA45031B0503F440130343906B43EA8000052E03D1D3681B029BB202E053681B029BB20343081D800123505F
:402740001368062B08D104EB81130120C3F808013F20C3F828011DE0936843B904EB81130020C3F808013120C3F8280112E0012B08D1506904EB8113C3F808011C20C3F8AB
:40278000280107E004EB81130120C3F808011220C3F82801106A04EB8113C3F80C01506AC3F810015069C3F814019069C3F81801136EB3F1FF3F17D0106C00F00F00966C23
:4027C000360206F470663043156D2D0405F470250543906D000380B228431B01DBB2034304EB8110C0F82031D36B03F00303566C360106F030063343D56C2D0205F44075D0
:402800002B43506D8001C0B21843D36D9B0003F00C03034304EB8114C4F82431D36AC4F83831002002E002487047014870BC70470100B60010B50378012B02D0082B29D0B5
:402840002EE01B4B1B78012B2CD00320FEF7D2FB184B984228D0FFF730FF174B1860022009F0CCFB044609F0D4FB022C05D1032805D0052805D1002404E0104C02E00024AB
:4028800000E00E4C0D4B9C420FD10B4B1868FFF718FF0AE0084B1868FFF713FF002404E0064C02E0054C00E0044C204610BD00BF70430308010188002C770208FF0042003B
:4028C00008B50378022B1CD0082B14D0012B1ED1124B1B78012B1CD0FFF7EFFE104B5860022009F08BFB022815D00D4B5868FFF7E8FE0C4808BD0A4B5868FFF7E2FE00208F
:4029000008BD074B5868FFF7DCFE064808BD054808BD044808BD002008BD00BF704303082C770208FF00420010B5044C2046FFF705FE04F11800FFF701FE10BDB04202082B
:4029400010B5A8B10D4A9060C36A0BB10C4A136000240C4B1C700C4B1C700C4B1C600C4B1C7000F05FF90B4B1C700B4B1C7000E00A4CFEF78FF9204610BD00BF2C77020842
:402980006843030884430308884303088C430308894303086F430308744303080100160010B590B0354B0CAC186859689A68DB680FC42822002102A805F02AFA304B02939E
:4029C0000CAB049342F65413ADF8143004238DF816302C4A92681269069241F2660207921B22ADF82020ADF8222003228DF824208DF8253006238DF8263010238DF8273074
:402A00008DF828308DF829307223ADF82A3001238DF82E301C4C2046FFF758FD04F11800FFF754FD09F0E6FA08A809F03DFB034600BB164B039302A809F0FEFA0346B0B9D1
:402A40000122134B1A700023124A1370124A13700C4B9B681A6A00929B6ADB88ADF804301223ADF80630684612F0A0F8034600210A4A1160184610B010BD00BF44AF08107D
:402A8000C13108102C770208B0420208E44B02087043030878430308794303088C43030818B1034A1060002070470248704700BF644303080100160008B5044B1B689847B1
:402AC000034B1B6803B1984708BD00BF507702086443030808B510B1034A52689047034B1B6803B1984708BD507702086443030870B5C0B006460C4615464FF4807208494F
:402B0000684605F07AF905E016F8012B6A401DF80250013C002CF7D1284640B070BD00BF54AF081008B50022FFF7E2FF08BD00BF08B5FFF7C2FD08BD08B5FFF7C2FD08BD11
:402B400008B50120FEF74AFC08BD00BF08B5FFF7F7FF08BD08B50120FEF718FC08BD00BF08B5FFF7F7FF08BD08B5094B58601960012208491046FEF77BFB034628B90022AE
:402B800005490120FEF774FB0346184608BD00BF50770208D52A0810B92A081038B515460B46024601210020FEF70AFB044618B129460120FEF77CFB204638BD704700BF37
:402BC000704700BF0020704700487047110016000048704711001600004870471100160000487047110016000048704711001600004870471100160000487047110016007E
:402C00000048704711001600004870471100160000487047110016000048704711001600704700BF08B5024800F01EFE08BD00BF98440208F8B5022872D8002972D100225A
:402C4000134606E03B4CE45C012C01D90132D2B20133002BF6D0012A0CD1374B1B681C6801EB8102930023445B681B79023BDBB2012B59D8314B1B78002B57D1304B19708D
:402C8000E0B92D4F3C68236801EB8105AA009D186668C1EBC1014B001E44B18829822168114449686468E45A0C8039680C682244526849680B445B8853801EE001281CD10E
:402CC0001D4F3C68236801EB8105AA009D186668C1EBC1014B001E44B1892982216811444D68616819440989298039680C682244526849680B445B895380124B18700E4B7C
:402D00001B6818680E4B1B7803EB83039A0010440DF0F0FC034650B90121084A117006E0094B04E0084B02E0084B00E0084B1846F8BD00BF78430308347702087943030825
:402D40006E430308894303080100160002001600FF00160070B439B9144B1B681B689968CE7F00231D460EE0104B1B681B68D968CE7FF6E7CA5C52B10133CC5C1B2C01D0D6
:402D8000134400E00125B34201D2002DF2D05DB101338279CA54002204E0D4180134855C0D550132052AF8D970BC70473477020870B5044611F014FF054620BB134B1968E7
:402DC000086A228902EB82029300143B03445A6812F0007F17D0E67B1B695A68CB69D21AC6EBC606B318A28821680948184405F004F8E37B074AD35C012B04D1064A1378D8
:402E000043F002031370284670BD00BF347702087C430308744303086F43030830B587B002891A4B1B685B699B889A4229D1044601AB07C883E807000022ADF81020A289DA
:402E4000ADF8122040228DF814201846FFF7B0FF054680B923681B7803F002039BB22BB10B4B1B6821460B48984704E0084B1B68214609489847094A137803F0FE03137082
:402E800000E00025284607B030BD00BF34770208684303080500010006000100844303084288531E9BB21D2B1AD84178D1B910B40F4B1868046A02EB82029300143B234427
:402EC0005A6812F0007F0FD01B695A68C369D31AC1EBC1011944074B5B5A1380002004E0012070470120704700205DF8044B7047347702087C430308C8B1104B1B68196A64
:402F0000038903EB83039B00143B0B445B6813F0007F0ED100B587B001AB00210491059107C883E807001846FFF742FF03E00E2070470120704707B05DF804FB347702081A
:402F4000A1B1A8B110B586B0034601AC00220492059207C984E807001B88ADF8123040238DF814302046FFF723FF03E00E2070470E20704706B010BDF0B583B000283ED0B1
:402F800006460388ADF804309DF8053013B92348C35C00E00023012B34D91E2935D87378D3B100251E4834E0601800EB80008300143B7344586810F0007F0BD070781B69B1
:402FC0005B68FD695B1BC0EBC000164D2844C35C13800125013401E000242546124B1F68D7F820E001EB81008300143B73441B895B1A9C420CD8002DD6D0094809E00025C5
:40300000074806E00025094803E00025044800E0034805B1002003B0F0BD00BF78430308010016007C430308347702080700160000B583B00DF10602FFF79EFF20B9BDF8E9
:40304000060000F0010000E0002003B05DF804FB30B3034631B330B587B00288ADF804209DF8052012B91448825C00E00022012A1AD91D460C460846FFF73EFFB0B92189AB
:403080002846FFF7D5FF98B102AB94E8070083E807002A88ADF81420184610F0DFFE08E00648704705487047054802E0054800E0054807B030BD00BF78430308010016004D
:4030C0000700160002001600170016000E4B1B7813F0010F17D100B583B071B18389ADF800300389ADF8023012238DF804308DF80510684610F092FE02E0C06810F0BCFEAF
:4031000003B05DF804FB70478443030810B4044688B10023194606E0104A52F82320944200D1012101330D4A1279934206D20029F2D0002003E00021094800E0002050B974
:4031400049B9064B1B792BB9044A42F823400133137100E003485DF8044B704790430308010016000300160070B506460D460020044606E0084B53F8243029463046984783
:403180000134054B1B799C4204D2044B1B7813F0010FEFD170BD00BF904303088443030883792BB100207047C25C32B9013300E00023052BF8D9002070470120704700BF93
:4031C00070B58CB004460D46B94A137843F00103137044F20A03984200F0E98136D841F20403984200F0218314D841F20103984200F0FC8003D8B0F5805F65D01AE341F22F
:403200000203984200F0F58041F20303984200F029810FE344F20403984200F036810AD842F20403984200F0B78043F21203984200F0A780FEE244F20603984200F0028227
:4032400044F20803984200F0F981F3E245F20E03984200F0B4821BD845F20203984200F07D820AD844F21003984200F0A38145F20103984200F02582DCE245F2030398421A
:4032800000F0858245F20C03984200F08A82D1E245F21403984200F0BD820AD845F20F03984200F0B18245F21003984200F0AF82C0E245F21703984200F0AF8246F201035A
:4032C000984200F0FB81B5E27A4B1E683046FFF767FF60B130460EF0FDF9764E00213068FFF738FD01213068FFF734FD37E0724B1A68936A1B791BB34FF0B05191F8043618
:4033000003F03F0391F8050600F03F0043EA801391F8030600F01F0043EA003391F8001601F07F0143EA4143126B1370624A1168096BC3F3072048701268126B1B0C9370C4
:403340005D4E3368186B0EF0C5F933680021186BFFF700FD33680121186BFFF7FBFC564B1B68986A02300EF0CBFD544A05AB1068516803C305A80EF0D1F90222504B1A7048
:4033800058E200234E4A13704E4A13700A20FFF705F9FFF7C9FA4DE24B4B1B6813F0010F40F048820023ADF814308DF81630424E33689B6A93F900308DF8143005A80EF017
:4033C000C7F933689B6A93F901308DF8143001238DF81530FF238DF8163005A80EF0B8F9394A136843F00103136023E2FFF7BCFE20E24978354B1B88ADF81430002319E068
:40340000334A32F81320ADF808209DF8092012B93048825C00E00022012A0AD92C4A12F81320914205D12A4A32F81330ADF8143002E00133002BE3D09DF81530FF2B05D102
:4034400004D14FF472712448FFF7CCF8BDF81430ADF82030ADF81C30C3F3072329781F4AD154E7E10B78002B40F0E4810B7A33B91B4B0022DA809A801A4A1A604B600C4AE6
:40348000137803F0FE031370D4E149790F4B1B88ADF81430002336E00D4A32F81320ADF80C209DF80D20FAB90A48825C1DE000BF84430308E04202083477020854B00810BF
:4034C00070430308794303088C4303085CB008106C4303087843030860B008108843030870790208387502080022012A0AD9B54A12F81320914205D1B24A32F81330ADF8FE
:40350000143002E00133002BC6D09DF81530FF2B05D104D14FF47271AB48FFF763F8BDF81430ADF82430ADF81430C3F307236978A64AD154EB78002B40F07C816979A44B1A
:403540001B88ADF81430002319E09E4A32F81320ADF810209DF8112012B99E48825C00E00022012A0AD9974A12F81320914205D1944A32F81330ADF8143002E00133002BE8
:40358000E3D09DF81530FF2B05D104D14FF472718D48FFF727F8BDF81430ADF82830ADF81430C3F3072301218B4AD15442E1FFF7DBFD3FE10B7E012B02D10022874B1A70A7
:4035C000E97E834B1B88ADF81030002319E07D4A32F81320ADF814209DF8152012B97D48825C00E00022012A0AD9764A12F81320914205D1734A32F81330ADF8103002E016
:403600000133002BE3D09DF81130FF2B05D104D14FF472716C48FEF7E5FFBDF81030ADF82C30ADF81030C3F30723FF2B02D0297E6B4AD15402226B4B1A70FBE00222694BCB
:403640001A70F7E0FFF790FD674B1B7813F0010F00F0F080614B1B78012B03D102225F4B1A70E7E0032B03D100225C4B1A70E1E0022B40F0DF800022584B1A705B4B1B6806
:403680005B685B4A1178C1EBC10203EB42039A79002A00F0CF809B88002B00F0CB80554B1B78002B40F0C6800120FFF7C3FA002840F0C0800122494B1A70BBE0FFF754FD0F
:4036C000B8E00B88ADF800309DF801301BB90221404AD15405E023B94FF461713A48FEF781FF6A782988374B23F812106B780021414AD154C3EBC301404E88193B4B1B68E1
:403700001B692A78C2EBC20202F58352134453F8062F8A519A889B79828083716878C0EBC00006213044FFF7FDF96B78C3EBC30333449B7998420CD0314B1B680021314845
:4037400098476B78C3EBC303981900229A51C0F8032029462046FFF707FD6BE00B88ADF804309DF805301BB900211A4AD15405E023B94FF461711448FEF734FF6B7800214E
:40378000154AD15429462046FFF7EEFC52E00B88ADF814301723ADF8163005A810F04AFB48E00846FFF73AFB014620B929462046FFF7DAFC01462846FFF788FC3AE0FFF76A
:4037C000D3FC37E06C43030860B00810744303085CB008107843030868790208794303086C7902087043030884430308347702086E43030889430308884303087C4303083C
:403800006843030804000100FFF7AEFC12E0FFF7ABFC0FE0FFF7A8FC0CE00846FFF740FB29462046FFF7A0FC04E00B4A137843F001031370094B1B7813F0110F09D0074A91
:40384000137803F0FE031370054B1B682946204698470CB070BD00BF6F43030884430308684303080020704730B108B5034A10600348FFF74BFC08BD024870477C79020853
:4038800065380810010016001AB9084206D10020704731EA000303D000207047012070470120704710B5182001F0AAFB044620B1002340F8043B00F0C7F8204610BD00BF10
:4038C0002DE9F843089F08B972B6FEE7064611F07F4F01D072B6FEE709B972B6FEE7994690460D4601F07CF810B91FB9012302E0012300E000230BB972B6FEE700F0B4FD8D
:4039000034684A4629462046FFF7BEFF38B1B8F1000F18D024EA05033360002714E09FB1B8F1000F01D1002101E04FF08071B9F1000F01D041F080613A462943301D00F0B5
:403940005DFF002400E0002700F016FE0FB338B94FF08052104B1A60BFF34F8FBFF36F8F01F04EF8044610F0007F10D101F052FA34684A4629462046FFF786FF28B1B8F1C7
:40398000000F02D024EA0505356001F057FA24F07F442046BDE8F88304ED00E008B972B6FEE770B5054611F07F4F01D072B6FEE70C4601F02FFA2E6826EA0401296001F08D
:4039C0003DFA304670BD00BF08B972B6FEE7F8B5044611F07F4F01D072B6FEE70D4600F10C0600F041FD206921682943216000251FE04768016821F07F4211F0806F04D166
:403A000023681A4207D1002308E0236832EA030303D0002302E0012300E0012343B111F0807F00D01543216841F0007100F05AFF3846B042DDD1236823EA0503236000F04E
:403A40009BFD2068F8BD00BF00F1080343604FF0FF328260C360036100230360704700BF00230361704700BF43684B609A688A609A68516099600861036801330360704731
:403A800030B40D68B5F1FF3F01D1026907E000F1080200E01A4653681C68A542FAD253684B6099608A605160086103680133036030BC7047036942688168916082684168ED
:403AC00051605A68904201D182685A6000220261186801381860704710B5044601F09AF9A26BE36B9A4201D1012400E0002401F0A5F9204610BD00BF10B5044601F08AF9D5
:403B0000A36B0BB9012400E0002401F097F9204610BD00BF70B504461646856B026CFAB166B9806804F069F9A268236C1344A3606268934214D32368A36011E0C06804F0D2
:403B40005CF9236C5B42E2681A44E26021688A4202D262681344E360022E01D105B1013D0135A563002070BD026C72B110B50346C4681444C4604068844201D31868D8608B
:403B80000846D96804F039F910BD704738B5054601F040F995F8454064B20AE06B6A53B105F1240000F060FE08B100F011FF013C64B2002CF2DCFF2385F8453001F03EF9D5
:403BC00001F028F995F8444064B20AE02B6953B105F1100000F048FE08B100F0F9FE013C64B2002CF2DCFF2385F8443001F026F938BD00BF08B972B6FEE738B504460D46B2
:403C000001F008F92168E26B236C03FB021060600020A063A160013A02FB0313E360FF2384F8443084F845307DB92369ABB104F1100000F019FE80B14FF08052094B1A606B
:403C4000BFF34F8FBFF36F8F07E004F11000FFF7FBFE04F12400FFF7F7FE01F0EFF8012038BD00BF04ED00E010B5029B0C4609B91B6000E01A60D8631C6401211846FFF72B
:403C8000B9FF10BD08B972B6FEE7F0B583B0034611B101FB00F000E000201D4617460C46483001F0ADF9064638B100903B4600F1480221462846FFF7D7FF304603B0F0BDC9
:403CC00008B972B6FEE7884201D272B6FEE710B50C4602220021FFF7D5FF034600B18463184610BDF0B585B0019208B972B6FEE7044619B9026C1AB9012202E0012200E07A
:403D000000220AB972B6FEE7022B03D1E26B012A02D102E0012200E000220AB972B6FEE71D460E4600F05CFE18B9019B1BB9012302E0012300E000230BB972B6FEE7002707
:403D400001F068F8A26BE36B9A4201D3022D21D12A4631462046FFF7DDFE636A6BB104F1240000F081FD88B14FF08052324B1A60BFF34F8FBFF36F8F08E038B14FF08052D5
:403D80002D4B1A60BFF34F8FBFF36F8F01F056F801204EE0019B1BB901F050F8002048E01FB902A800F0D4FD012701F047F800F05BFB01F02FF894F844305BB2B3F1FF3F6A
:403DC00002D1002384F8443094F845305BB2B3F1FF3F02D1002384F8453001F02FF801A902A800F0C3FDF0B92046FFF775FEA0B1019904F1100000F0EFFC2046FFF7C6FE87
:403E000000F0BAFB00289BD14FF080520A4B1A60BFF34F8FBFF36F8F92E72046FFF7B6FE00F0AAFB8CE72046FFF7B0FE00F0A4FB002005B0F0BD00BF04ED00E008B972B604
:403E4000FEE72DE9F843044619B9006C18B9012002E0012000E0002008B972B6FEE7022B03D1E06B012802D102E0012000E0002008B972B6FEE71F469046894601F098F81D
:403E8000EFF311864FF0200383F31188BFF36F8FBFF34F8FA26BE36B9A4201D3022F1ED194F845506DB23A4649462046FFF732FEB5F1FF3F0DD1636A9BB104F1240000F0EE
:403EC000D3FC80B1B8F1000F0FD00120C8F800000CE06B1C5BB284F84530012006E0002004E0012002E0012000E0012086F31188BDE8F88308B972B6FEE770B50446036CCB
:403F00000BB172B6FEE703681BB943681BB9012302E0012300E000230BB972B6FEE70E4601F046F8EFF311854FF0200383F31188BFF36F8FBFF34F8FA26BE36B9A4218D22F
:403F400094F845305BB20132A263B3F1FF3F0AD1636A83B104F1240000F086FC68B176B1012030600CE001335BB284F84530012006E0002004E0012002E0012000E0012073
:403F800085F3118870BD00BF2DE9F04184B0019208B972B6FEE7044619B9026C1AB9012202E0012200E000220AB972B6FEE71F46884600F015FD18B9019B1BB9012302E055
:403FC000012300E000230BB972B6FEE7002600F021FFA56B5DB3E66841462046FFF7C4FD8FB9013DA5632369EBB104F1100000F03BFCC0B14FF08052394B1A60BFF34F8F8F
:40400000BFF36F8F0FE0E660636A63B104F1240000F02AFC38B14FF08052314B1A60BFF34F8FBFF36F8F00F009FF012054E0019B1BB900F003FF00204EE01EB902A800F0ED
:4040400087FC012600F0FAFE00F00EFA00F0E2FE94F844305BB2B3F1FF3F02D1002384F8443094F845305BB2B3F1FF3F02D1002384F8453000F0E2FE01A902A800F076FCB4
:40408000F0B92046FFF738FDA0B1019904F1240000F0A2FB2046FFF779FD00F06DFA002895D14FF080520E4B1A60BFF34F8FBFF36F8F8CE72046FFF769FD00F05DFA86E771
:4040C0002046FFF763FD00F057FA2046FFF714FD00283FF47CAF002004B0BDE8F08100BF04ED00E000230BE0074A52F8332032B9054A42F8331002EBC3035860704701334D
:40410000092BF1D9704700BF9843030870B504460D46164600F07EFE94F844305BB2B3F1FF3F02D1002384F8443094F845305BB2B3F1FF3F02D1002384F8453000F07EFE83
:40414000A36B2BB93246294604F1240000F076FB2046FFF71BFD70BD094B9B6A1B680BB9012300E0002323B14FF0FF32044BDA627047034B9A6AD268D2685268DA6270478B
:404180008079020810B50446006B00F069FF204600F066FF10BD00BF2DE9F0478246894615469846089F099E0A9C9200A521206B03F02EFE236B05F18042013A03EB8205DA
:4041C00025F00705002308E019F80310E21882F8341019F8032012B101330F2BF4D9002384F84330062F00D90627E762201DFFF737FC04F11800FFF733FC2461C7F1070310
:40420000A3616462002306E003F1100204EB8202002151600133042BF6D90023A36584F85C3042465146284600F0CCFD206006B13460BDE8F08700BF70B5002407E004EBF0
:404240008402930010481844FFF7FEFB0134062CF5D90E4C04F1BC063046FFF7F5FB04F1D0052846FFF7F0FB04F11400FFF7ECFB04F1E400FFF7E8FB2046FFF7E5FBA662EB
:40428000C4F8F85070BD00BFB07902088079020838B5044600F0BEFD264BD3F8FC200132C3F8FC20D3F800314BB9224BC3F80041D3F8FC30012B10D1FFF7BEFF0DE01D4B1F
:4042C000D3F804314BB91B4BD3F80031DA6AE36A9A4202D8174BC3F80041164AD2F808310133C2F80831E36AD2F80C21934202D9104AC2F80C310F4D05F1300003EB8303EE
:404300009A00211D1044FFF7AFFB00F097FDD5F804316BB1D5F80031DA6AE36A9A4207D24FF08052044B1A60BFF34F8FBFF36F8F38BD00BF8079020804ED00E070B50446BA
:404340000E46174BD3F81051D3F800010430FFF7B1FBB4F1FF3F07D136B11148D0F800110431FFF781FB70BD2C440D4BD3F800315C60A54208D90A4BD3F8F800D3F80011D5
:404380000431FFF77DFB70BD054DA86AD5F800110431FFF775FBEB6A9C4200D2EC6270BD807902082DE9F04385B006460F4615469846900000F024FE60B18146602000F08B
:4043C0001FFE044610B1C0F8309004E0484600F047FE00E000248CB10023039302940D9B01930C9B009343462A4639463046FFF7D3FE2046FFF74CFF012001E04FF0FF30A4
:4044000005B0BDE8F08300BF00B583B0124B019300230093802211491148FFF7C3FF012801D100F053FB01280DD172B60D4B4FF0FF32DA620122C3F804210022C3F81021D7
:4044400000F064FD04E0B0F1FF3F01D172B6FEE703B05DF804FB00BF9C7A020898B00810F546081080790208034AD2F818310133C2F81831704700BF80790208014BD3F886
:4044800010017047807902082DE9F041394BD3F81831002B5ED1374BD3F810410134C3F8104194B99B6A1B680BB172B6FEE7314B9A6AD3F8F8109962C3F8F820D3F820214E
:4044C0000132C3F82021FFF747FE2A4BDB6A9C4203D2002645E0012600E00026254B9B6A1B680BB9012300E0002323B14FF0FF32204BDA6235E01F4B9B6ADB68DD686B68C0
:404500009C4202D21B4AD3622BE005F104084046FFF7D0FAAB6A1BB105F11800FFF7CAFAEB6A144AD2F80C21934202D9114AC2F80C31104F07F1300003EB83039A0041466B
:404540001044FFF791FAEA6AD7F80031DB6A9A42C1D2C3E7074AD2F824310133C2F824310026044BD3F8283103B101263046BDE8F08100BF80790208364BD3F818310BB9E6
:4045800072B6FEE770B500F045FC324BD3F81821013AC3F81821D3F81831002B52D12D4BD3F8FC303BBB00244FE02A4D2B6ADC6804F11800FFF77EFA261D3046FFF77AFAE0
:4045C000E36AD5F80C21934201D9C5F80C31214D05F1300003EB83039A0031461044FFF743FAE26AD5F80031DB6A9A4204D30122C5F8282100E00024164B5B69002BD4D1C7
:404600000CB1FFF7A9FD134BD3F8244164B1FFF73BFF18B101220F4BC3F82821013CF6D100220C4BC3F824210A4BD3F828315BB14FF08052084B1A60BFF34F8FBFF36F8FE4
:40464000012402E0002400E0002400F0F7FB204670BD00BF8079020804ED00E010B578B104460D4BD3F818310BB172B6FEE7FFF7FBFE00212046FFF761FEFFF77DFF00E079
:40468000002038B94FF08052044B1A60BFF34F8FBFF36F8F10BD00BF8079020804ED00E038B51FE0FFF7E0FE114BD3F8E440FFF763FFBCB100F0AEFB0D4CD4F8F030DD687C
:4046C000281DFFF7F7F9D4F8FC30013BC4F8FC30D4F81431013BC4F8143100F0AFFB2846FFF750FD024BD3F81431002BDAD138BD8079020808B5FFF7D3FF064B1B6B012B27
:40470000F9D94FF08052044B1A60BFF34F8FBFF36F8FF0E78079020804ED00E02D4BD3F8183123B101222B4BC3F82821704710B5284B0022C3F82821D3F800311B6B1A68CC
:40474000B2F1A53F0BD15A68B2F1A53F07D19A68B2F1A53F03D1DB68B3F1A53F07D01D4BD3F80001D3F80011343100F03FFC194BD3F80C3103E00BB972B6FEE7013B03EBCC
:4047800083018A0013490A44126B002AF3D008469900CC18A2000244546B64685463303019448A0008320244944206D1606803EB83018A0007490A445063064903EB830099
:4047C00082000A44526BD268C1F80021C1F80C3110BD00BF8079020808B972B6FEE710B50C46054BD3F800111831FFF749F901212046FFF7A3FD10BD8079020808B972B62A
:40480000FEE703460C48D0F8180108B972B6FEE710B5184614460B46074AD2F8001143F000438B61D2F800111831FFF71DF901212046FFF783FD10BD8079020808B972B604
:40484000FEE738B50C461546064AD2F800111831FFF70AF90DB14FF0FF3429462046FFF76DFD38BD8079020838B5C368DC680CB972B6FEE704F118052846FFF71BF9164BD6
:40488000D3F81831ABB9251D2846FFF713F9E36A114AD2F80C21934202D90F4AC2F80C3103EB83039A0029460C481044FFF7DCF803E029460A48FFF7D7F8E26A064BD3F86F
:4048C0000031DB6A9A4204D90120034BC3F8280138BD002038BD00BF80790208B079020894790208194BD3F818310BB972B6FEE770B541F000430360C4680CB972B6FEE7DD
:40490000FFF7D8F8261D3046FFF7D4F8E36A0F4AD2F80C21934202D90C4AC2F80C310B4D05F1300003EB83039A0031461044FFF79BF8E26AD5F80031DB6A9A4203D9012054
:40494000C5F8280170BD002070BD00BF8079020808B972B6FEE7044AD2F820110160D2F810214260704700BF8079020808B972B6FEE738B5044609B972B6FEE70D4600F070
:4049800049FA124BD3F810112A68B2F1FF3F13D02068D3F82031984202D0636899420DD26368C81A82420BD95B1A13442B602046FFF7CEFF002404E0002402E0012400E058
:4049C000012400F03BFA204638BD00BF807902080122024BC3F82821704700BF80790208064BD3F804312BB1044BD3F818311BB90220704701207047002070478079020874
:404A0000064BD3F800219069D3F80021D3F80031DB6AC3F107039361704700BF80790208064B1A681368B3FA83F35B09036013B9D368186870470020704700BFAC7A0208AC
:404A400008B54160006191420AD8D21A83699A4211D2011D0A4B5868FFF712F8002008BD9A4201D2994208D2011D054B1868FFF707F8002008BD012008BD012008BD00BF5C
:404A8000AC7A020870B500F0C5F90E4B9B68B3B90C4C04F10C063046FEF7D6FF04F120052846FEF7D1FF2660656000220C210A20FFF7E8F8A06010B10349FFF713FB00F0A4
:404AC000BDF970BDAC7A0208A0B0081000B583B0FFF7D8FF0A4B9B6853B10A4B0193032300930023802208490848FFF75BFC00E0002008B972B6FEE703B05DF804FB00BF41
:404B0000AC7A0208E07A0208A8B00810614D081008B972B6FEE730B585B015460446124A9068F0B11A46019102950394052913DCFFF756FF022807D10023089A01A90A48DE
:404B40008068FFF7CFF80DE000231A4601A906488068FFF7C7F805E0002301A9FFF76EF900E0002005B030BDAC7A020870B582B022E0DB681E68DC68251D2846FEF79AFF06
:404B8000636A20469847E369012B15D1A36933449E4207D26360246129460D4B1868FEF76FFF09E0002100910B4632462046FFF7AFFF08B972B6FEE7054B1B681A68002A9C
:404BC000D7D1034A51681160536002B070BD00BFAC7A020838B50546FFF750FC0446074B9B6B984204D2FFF7C1FF01232B6001E000232B60014B9C63204638BDAC7A02087F
:404C000070B582B005460E46104B1B68DB68DC68201DFEF74FFFE369012B11D1A1692B46324629442046FFF70BFF48B1002100910B462A462046FFF76BFF08B972B6FEE779
:404C4000636A2046984702B070BD00BFAC7A020870B582B006460C46FFF706FC01A8FFF7B9FF019B1BBB054644B9B04206D3FFF783FC29463046FFF7C3FF1AE02CB10E4B49
:404C80005B681C68B4FA84F464092246711B0A4B9868FFF73BFAFFF76FFC50B94FF08052064B1A60BFF34F8FBFF36F8F01E0FFF763FC02B070BD00BFAC7A020804ED00E04B
:404CC00030B587B03FE0039B002B3CDB059C636913B1201DFEF7EEFE02A8FFF77BFF039B092B30D8DFE803F00505052F202C05052F200499A5690B46024629442046FFF7AC
:404D00009FFE00B3636A20469847E369012B1AD1A269002100910B46049802442046FFF7F7FE80B972B6FEE70499A16109B972B6FEE70346024601442046FFF781FE02E026
:404D4000204600F08DF900231A4603A903488068FFF71AF90028B6D107B030BDAC7A020800B583B001A8FFF75BFE0199FFF770FFFFF7A6FFF6E700BF044B1B68B3F1FF3F9F
:404D800001D072B6FEE772B6FEE700BFE442020806480068006880F3088862B661B6BFF34F8FBFF36F8F00DF00BF000008ED00E0DFF80C00016841F470010160704700000C
:404DC00088ED00E04FF0807340F8043C21F0010140F8081C054B40F80C3C40F8202C6FF0020340F8243C4438704700BF794D0810074B19680868B0E8F04F80F30988BFF355
:404E00006F8F4FF0000080F311887047AFF30080807A020872B6074A136801331360012B06D1054B1B6813F0FF0F01D072B6FEE7704700BFE442020804ED00E0054B1B68A2
:404E40000BB972B6FEE7013B024A136003B962B6704700BFE44202080000000000000000EFF30980BFF36F8F154B1A681EF0100F08BF20ED108A20E9F04F10604DF8043D16
:404E80004FF0200080F31188BFF34F8FBFF36F8FFFF744FC4FF0000080F3118808BC19680868B0E8F04F1EF0100F08BFB0EC108A80F30988BFF36F8F704700BFAFF30080C4
:404EC000807A020808B572B6FFF7DEFA18B14FF08052024B1A6062B608BD00BF04ED00E0064B1B68064AA2FB03239B09013B054A13600722044B1A60704700BF9842020818
:404F0000D34D621014E000E010E000E000B583B0224B1A78D2B20192FF221A701B78DBB28DF803309DF803301D4A03F0200313700723536009E01A4A5368013B53609DF889
:404F400003305B00DBB28DF803309DF8033013F0800FF0D1124A53681B0203F4E0635360019BDBB20D4A13700E4B1A6842F47F021A601A6842F07F421A60FFF7B1FF00225C
:404F8000094B1A60FFF714FF084A136843F040431360FFF7FDFEFFF7EFFE00BF00E400E0E87A020820ED00E0E442020834EF00E0EFF305830F2B08D9094A9B5CDBB2094A92
:404FC0001278934201D272B6FEE7074B1B6803F4E063044A5268934201D972B6FEE77047F0E300E0E87A02080CED00E008B572B640F20B310148FDF7F5FAFEE7B0B0081014
:4050000038B5044610F0070F02D020F007040834FFF72AFA104B1B682BB90F4A02F10C0323F0070313600D4BD3F85C351C444BF6F772944208D8A34208D2074A15681D44D1
:40504000064BC3F85C4502E0002500E00025FFF793FA284638BD00BFF07A02089835030808B172B6FEE7704770B539B900240AE015F8010BFBF720FE013402E016460D46F5
:405080000024B442F4DB204670BD00BF70B551B900240DE0FBF71CFEC0B2287001340A2806D0013502E016460D460024B442F1DB204670BD08B5074B1B783BB9064A0121DA
:4050C0000648FDF701FB0122024B1A700222034B9A6008BDF83A030800B108100000384008B5074B1B783BB9064A02210648FDF7EBFA0122024B1A700422034B9A6008BD6C
:40510000F93A030864B108100000384008B502490248FCF7D3FC08BDE84303080000644008B5114B1B785BB9104A11491148FCF733FC11491148FBF737FE01220A4B1A700E
:405140000E4BB3F90030002B08DB590903F01F03012202FA03F30A4A42F82130054A136843F00043136008BDFA3A0308E8430308C8B10810000064400D51081030AC0810F5
:4051800000E100E008B5084B1B783BB9074A00210748FDF799FA0122034B1A70044B01229A609A6108BD00BFFB3A0308D0B108100000384008B5074B1B7833B900F012FA8E
:4051C00000F07EFA0122034B1A7000F059F800F0DFFE08BDFC3A030810B5FFF7EBFF044610B900F0DDFD044614B900F059FD044614B900F067FC044600F00CFC0028FBD1B9
:4052000000F0E8FA00F0AAFA204610BD70B5194D0026344629E063090433174A52F8233004F01F02D34013F0010F1CD0EB7E012B02D0022B09D011E0284600F0A5F8064634
:405240002946204600F094F90DE0284600F080F806462946204600F0F3F804E04FF4B7710648FDF7BFF92C350134022CD3D9304670BD00BF98B208102444030834B208102F
:4052800070B500230AE01D4A191D02EB8100002444604FF0FF3042F821000133002BF2D0174C032325E06668A27E144B2B4400211976012A03D0D2B1032A07D917E02069F7
:4052C000A8B1228BF17902F0A3FD10E023690BB1F2791A706168002307E003F1080201EB42024FF6FF7050800133002BF5D02C342B465D1E002BD6D170BD00BF2444030859
:4053000098B2081010B582B004460846638802A921F8083D1346228A02F028F9BDF8003063809DF8023023719DF8033063719DF80430A37102B010BD30B40B884A889C1A56
:405340000025CD800079844200DDCC8030BC70472DE9F0418468038B456890F81A8000270BE042462146284600F042FA074621462846FFF7E1FF0A3433465E1E002BF0D16E
:405380003846BDE8F08100BF2DE9F04780468468476890F81AA0466A0025A94616E03246398A208802F00AF92A4631463846FFF7A9FF0C3652462146384600F019FA81468C
:4053C00021463846FFF7B8FF0A340135B8F818309D42E4D34846BDE8F08700BFF0B50C8B8D684F680A69012324E010EA030403D17E88B979314402E07988BE79891BEE8877
:40540000B14201D3002100E01946A14202D01678013E1670A14201D014783CB920EA0300084309B9F97900E0012111705B000A350132744604F1FF3E002CD6D1F0BD00BF01
:4054400038B504468A7E154B03441D7E012A04D12846FFF7C3FF054604E04FF438711048FDF7C0F80D4B23441D76620904F01F04012303FA04F445B90432084B03EB820280
:40548000536823EA0404546038BD0432034B03EB820253681C43546038BD00BF2444030860B20810F0B583B00B8B8A684D68D1F810E0844618B96F88A879074402E06888C0
:4054C000AF79C71B0024012009E0D3889F4201D3002300E003461C430A32400033465E1E002BF2D154B19EF8003013B1013B8EF800309EF8003023B1644602E0EB798EF8C9
:4055000000305CB10E466A88AB790F8BD21A3946B06801F009FF034610B923E0002321E0B27E022A1ED100233A46316A01A801F067FF034600220AE002A901EB420131F894
:40554000040C02F1080105EB4101488001329342F2D807E003F1080205EB42024FF6FF7151800133002BF5D0204603B0F0BD00BF38B504468A7E194B03441D7E012A03D088
:4055800062B1032A05D909E02846FFF727FF054609E02846FFF786FF054604E040F226410F48FDF71FF80D4B23441D76620904F01F04012303FA04F445B90432074B03EBB2
:4055C0008202536823EA0404546038BD0432034B03EB820253681C43546038BD2444030860B2081070B51C4CA4220021204602F00FFC4FF4434323804FF41063638041F645
:405600006A03A3800823A3830123A3770423E377124E203406F18C050FCD0FC40FCD0FC40FCD0FC495E8030084E80300304606F1080403230CE0A268238B04E010F8013B27
:4056400053720A320B46591E002BF7D12C342B465D1E002BEFD170BD2444030890B2081002280DD800F01F02012303FA02F24009031D044800EB83035B6802EA0300704779
:405680000020704724440308022810D82C230B4A03FB002393F82230023BDBB2012B09D82C22064B02FB0030C368588A70474FF6FF7070474FF6FF70704700BF90B2081096
:4056C0000023024AD380024A1360704724440308483B0308C9B2062902D083180021197130F8121000EB42035980024400231372704700BF70B506460D46012305E02246C3
:4057000029463046FFF7E6FF23465C1E002BF6D170BD00BF08B52C23054A03FB0023986801EB81014A00997E1044FFF7E3FF08BD98B2081038B505462C23074A03FB002351
:405740001B8B04E021462846FFF7E4FF23465C1E002BF7D138BD00BF98B2081010B5032303E02046FFF7E6FF23465C1E002BF8D110BD00BFF8B505462C230F4A03FB0023D2
:405780005E681B8B14E02C230B4A03FB05239F6804EB8402500004EB44018A00596A0A44DB7E012B03D1318A385A01F0FBFE23465C1E002BE7D1F8BD98B2081010B50323CC
:4057C00003E02046FFF7D6FF23465C1E002BF8D110BD00BF08B5FFF7F1FF08BD00FA03F3C2F5807001FB00F102FB0310000A70472DE9F04106460D461746012342E035F8BF
:40580000140005EB44035988884207D3431A2A194FF0000E82F808E0012201E00B1A002292B996F805E073450ED92B191B7A327A934205D3224639462846FFF74BFF20E0DA
:405840002A19013313721CE096F804E0734504D996F805E0734514D29AB9FBB2062B10D005EB040898F804E0082301224EEA0121FFF7B4FFC0F30F2205EB44035A8088F8D1
:40588000040023465C1E002BB9D10020BDE8F08110B52C23064A03FB0020846801EB81014B00827EE1184068FFF7A2FF10BD00BF98B2081070B506462C23084A03FB002396
:4058C0001B8B002505E021463046FFF7E1FF054323465C1E002BF6D1284670BD98B2081038B50025032304E02046FFF7E3FF054323465C1E002BF7D1284638BD30B49F28A5
:405900000ED940F2FE3399420AD9244CA1FB04454B1B05EB53035B0AC3EB832399422FD09F280DD9B1F5FF7F0AD91D4CA1FB04454B1B05EB53031B0AC3EB4323994221D018
:405940009F280CD97E290AD9164CA1FB04454B1B05EB53039B09C3EBC313994214D09F2814D93E2914D9104CA1FB04454B1B05EB53035B09C3EB831399420BD000200AE0BA
:40598000042008E0032006E0022004E0002002E0002000E0012030BC704700BF051040002140800011080402054110044A1E032A01D8102300E0002379B183B1642202FB13
:4059C00003F3B3FBF0F3002001E001305B00092BFBD90A2B04D9013802E0002000E00020C0B2704708B5084A536823F0F853536002F5A02202F50E72136823F00103136005
:405A000000F0ECFE08BD00BF7000314008B501F02BFC08BD024BD86800F08000704700BF2444030810B5164BDB6813F4803F0ED102280ED843090433114A52F8233000F01E
:405A40001F02D34013F0010F05D1012404E0112402E0012400E0002484B92C23094A03FB0023DB7E022B02D101F010FC06E0012B02D100F0C5FE01E04FF0FF34204610BD4C
:405A80002444030898B2081008B50C4BDB6813F4803F0DD10A4B1B78012B05D0022B09D101F0C2FA002008BD00F0FEFD002008BD112008BD4FF0FF3008BD00BF2444030869
:405AC0004C3B0308124BDB6813F0800F1AD110B500244FF0FF3312E02046FFF7A3FF034660B9012C03D801220A4B5A7002E00022084B5A70FFF7C8FF034606E00134022C91
:405B0000EAD902E0112318467047184610BD00BF244403084C3B0308124B1B78834220D010B50446012B02D1FFF75CFF03E0022B01D1FFF76BFF012C05D100F035FC0122FB
:405B4000084B1A7010BD022C05D101F0C9F80222044B1A7010BD032C02D00022014B1A7010BD70474C3B030830B583B00025074C08E02179002300930E222068FCF72EFC4F
:405B800008340135082DF4D903B030BD54B3081010B51C4A93780133DBB293709078FFF741FF044650B9174B9B78DBB2022B02D10022144B5A70FFF767FF1FE0114B9B7810
:405BC000DBB2022B11D1104B1A8901321A81DA6822F08002DA60DA6822F07F42DA60DA6842EA0064DC60002408E0074BDA6822F07F42DA60DA6842EA0062DA60002CC8D154
:405C000010BD00BF4C3B03082444030810B50146124BB3F90030002B0DDB5A0903F01F03012404FA03F320320D4840F82230BFF34F8FBFF36F8F094C2046FBF7B5F8B4F972
:405C40000030002B08DB590903F01F03012202FA03F3034A42F8213010BD00BF20AC081000E100E070B5022801D8002500E001258DB904462C23094A03FB0023DE7E022E1F
:405C800002D1282101F0D4F8012E04D15521204600F086FE0546284670BD00BF98B2081038B50024254604E02046FFF7DBFF05430134022CF8D9284638BD00BF70B5002532
:405CC00019E02C230D4A03FB0523DB7E012B11D12C2303FB05F3D658002404E006EBC40000F02AFD01342C23044A03FB05231B7E9C42F3D30135022DE3D970BD98B208104C
:405D00002C23034A03FB002043685889704700BF98B208102C23034A03FB002043685981704700BF98B20810C0EB0032012303FA01F101398A4205D9C0EB0020814203D3F6
:405D40000520704706207047002070472DE9F04180460E46FFF7D4FF07460022318800F0E3FB01463846FFF7C9FD054620B931887800FFF7D9FF054629463846FFF716FE8D
:405D800004466B1FDBB2012B03D839464046FFF7C1FF2001C0B228433073BDE8F08100BFF0B58BB04FF47A73ADF8003040F65503ADF802304FF41663ADF80430544B9A7FB3
:405DC0004CF25033B3FBF2F3ADF80C3000F0ECFA00252E4652E02C234E4A03FB0523DB7E012B44D12C2303FB05235C680C23238000232373BDF80C30474AA2FB03235B09B9
:405E0000274627F80A3F5521284600F0C9FD0497424B1B788DF81830414B1A884FF47A7303FB02F23F4BA3FB0213D21A03EB5203C3F3CF23ADF80E30684601F03FFB3A4BC6
:405E4000984203D9062601E05B006381BDF80C10638941F2707202FB03F29142F4D8032BF2D90AAB03EB850343F80C0C05E001220AAB03EB850343F80C2C0135022DAAD9B8
:405E8000002427E02C23234A03FB0423DB7E012B1FD12C2303FB04235D685521204600F07FFD064305F10A0304930AAB03EB840353F80C3C0293194B1B788DF81830EB8973
:405EC000ADF8063005F110030593684601F01CFB28800134022CD5D9002413E02C230D4A03FB0423DB7E012B0BD12C2303FB042359682046FFF72AFF5521204600F050FDA1
:405F000006430134022CE9D930460BB0F0BD00BF2444030898B20810F1197605EC420208EE42020801011000870D0100F8B5002427E02C23144A03FB04235D68DB7E012BEF
:405F400002D0022B05D016E029462046FFF7FEFE16E02E88204601F0DDF907463146FFF7CDFC064601463846FFF720FD0001C0B23043287304E040F21E710448FCF732FB7E
:405F80000134022CD5D9F8BD98B20810E0B3081008B5FFF7CBFFFFF7E7FD0020FFF7BCFD002008BD10B51B4B5A6822F0F8525A60194C80226260A26A22F0704242F0C04233
:405FC000A2621A6822F4F8521A6002226260A26A22F0F00242F06002A2621A6822F4F8121A6004236360A36A23F4706343F4C063A3620120FCF7EAFAA36A23F07043A36287
:40600000A36A23F0F003A362A36A23F47063A36210BD00BF70003140800332400F4B19782C220F4B01FB02335B680E4AD2F8D02091B2188801238340013B994206D20A4B43
:406040001B680A49097823F811207047064A12680649097822F81130704700BF4E3B030898B2081000003640C84403089CB3081038B5224C227822492C2302FB03125068F8
:40608000227802FB03131A7E013A1E4B1B78DBB29A421BD91B4C23780133DBB22370174D29782C22164B01FB02339968237803EB83035A000A44144B1A6000F00DFA2878A4
:4060C000217800F027FB00F071FA38BD00220D4B1A700E4AD36823F48033D3600C4B1B78012B02D1FFF754FD38BD084BDA6822F08002DA601A8901321A8138BD4E3B03088F
:4061000098B20810543B0308C8440308244403084D3B030808B5094B4FF483721A601B68FFF77CFF064A138901331381D36823F4803323F08003D36008BD00BFF000364023
:406140002444030810B50C4B1B782C2203FB02F30A4AD3580A4A147803EBC404094B4FF483721A601B68FFF759FF204600F0E4FAFFF77EFF10BD00BF4E3B030898B20810A7
:40618000543B0308F000364001390843014B1860704700BF000236400E4B1B6823F4F8730D4A917F0D4AB2FBF1F20D498A4204D843F02003074A136070470A498A4204D832
:4061C00043F03003034A1360704743F04003014A13607047E84202082444030880F0FA02001BB70000366E01044A054B1A604FF0C17203F580731A60704700BF0000830164
:4062000000043640084A136803F07F0343F0C17343F48033136002F58072136803F07F0343F400031360704700043640074A136843F0805343F001031360054A054B1A6092
:406240004FF0C17203F580731A607047A8023640000083010004364010B40488012000FA04F4013C04EB840303FA00F00C4BA3FB00035B0901335818844200D220468B42A4
:4062800001D8C91A00E00021914203D8904203D2062002E0062000E000205DF8044B70471F85EB510023164A136002F5927213600432136006212C3A11604FF48071083AE2
:4062C00011600121903A1160A2F580724FF48371116012680B4A136003220B4B1A604FF4FA6300E0013B094A126812F0040F01D1002BF7D113B90822034B1A60704700BFD1
:406300008C013640F800364040033640F00036401E4B4FF483721A601B681D4BB3F90030002B08DB590903F01F03012202FA03F3184A42F821300023174A13603032136098
:40634000043213602C3A13605021983A11600121643A11600C3A13608032136843F08073136002220D4B1A604FF4FA6300E0013B0B4AD2F8842012F0070F01D0002BF6D1E7
:4063800040F20132074B1A60704700BFF000364020AC081000E100E080023640F8003640000036404003364010B5FFF787FCFFF7F9FD4FF480323D4B1A603D490B6843F049
:4063C000805343F001030B6000233A4A136002F5E07213600C32136060321360A2F5CE72136002F582721360083A136032480360A2F5807213604FF0487402F5A8721460E6
:406400002E4CA26A22F07042A262A4F58134A4F58874626822F0F85242F08062626004F5A02404F50974226842F4805222604FF48074234A14600A6842F0805242F0010225
:406440000A604FF0807204390A6040F64134A1F58E710C6001F584710B600260FFF7C4FE184B9B7F013BFF2B09D81749D1F8002822F47F421B029BB21343C1F80038FFF72B
:406480008BFE124B1B6843F0004343F48053104A13600F220F4B1A600022A3F588731A600A2203F590731A6010BD00BF04023640A8023640F40036408402364080033240CE
:4064C000A00236402444030800000140E8420208000036400003364038B50546FCF7EDF80D490B6823F07F020C4B1C7825446B7A13430B60FCF7E5F8FCF7DFF808490B68E8
:4065000023F07F02074B1B681C44637A13430B60FCF7D7F838BD00BF000436409CB3081000053640C844030830B401248C40631E40B10F2904D9A4F10A03B3FBF0F301E09B
:40654000B3FBF0F3053A012A00D85B080BB9012000E0184630BC704708B50C4B19782C220B4B01FB02335B6859891B7B18045A1F012A01D840F00070053B012B02D849089A
:4065800000D10121FFF700FE08BD00BF4E3B030898B2081008B5027B01884089FFF7C4FF80B2014B186008BD1403364008B50D4BB3F90030002B0DDB5A0903F01F0301214F
:4065C00001FA03F32032084941F82230BFF34F8FBFF36F8F0122054B1A60FFF763FEFFF797FE08BD20AC081000E100E08001364008B5064AD36843F4803343F08003D360F1
:406600001720FBF7E3FFFFF7D1FF08BD24440308F8B50546FCF751F806462F682C79072C04D94FF464711F48FBF7DCFFA400BA6A0F23A34022EA0301062202FA04F30B43E3
:40664000BB622C682D79072D04D940F245211548FBF7C8FF04F13F4303F54E03DB0903F1806303F544331B01032D0BD81A68ED001F21A94022EA01010B2202FA05F50D43D2
:406680001D600BE0043D5A68ED001F21A94022EA01010B2202FA05F50D435D603046FCF710F8F8BDA0B30810F8B5144F3B78144D2C2603FB06535868124C002323703B7836
:4066C00003FB06539968237803EB83035A000A440D4B1A60FFF700FF3B7803FB06F3EB58207803EBC000094B1860FFF791FF0848FFF78CFAFFF77CFFF8BD00BF4E3B0308FA
:4067000098B20810543B0308C8440308CC4403084561081008B52C2303FB00F0044B185800EBC100034B1860FFF772FF08BD00BF98B20810CC440308F8B50646FBF7BDFF33
:40674000074634683579072D04D940F245212248FBF748FF04F13F4303F54E03DB0903F1806303F544331B01032D08D81A68ED001F2101FA05F522EA05051D6008E0043DC0
:406780005A68ED001F2101FA05F522EA05055D6035683479072C04D94FF464710E48FBF721FFA400AA6A0F23A34022EA03010E2202FA04F30B43AB6235683479072C04D993
:4067C00040F247310448FBF70DFF0123A3406B603846FBF776FFF8BDA0B3081008B5064B1B78012B06D1054B1868FFF7A5FF0022014B1A7008BD00BF553B0308CC4403088E
:40680000F8B5114E2C2707FB00635D68C0B20F4C20700120FFF780F9FFF7E0FF237803FB07F3F2580A4B1A600A4BDA6822F07F02DA602178DA680A43DA602846FFF7AAFE8F
:40684000FFF78AFEF8BD00BF98B208104E3B0308CC4403082444030838B52C23114A03FB00235D68C9B2104C21709968237803EB83035A000A440D4B1A60FFF7C1FF28460F
:40688000FFF72AFE20780A4A136803EBC0001060FFF7BEFE0122074B1A700748FFF7B6F938BD00BF98B20810543B0308C8440308CC440308553B0308156108102DE9F84334
:4068C00007460D4690462E4908782C222D4B00FB02335E684FF0000985F8009008782A4B1978FFF7B9FFFFF78DFC8024B94503D22B7823EA04032B7064082B7823432B708E
:406900003046FFF7E9FDFFF773FE4CF6C44300E0013B1E4AD26812F0800F01D0002BF7D11B4B1B68B3F80090002CDFD1144B1B782C2203FB02F3134AD358134A107803EBB4
:40694000C000144B1860FFF7F7FE0022124B1A70FFF76CFC4A4639463046FFF77DFC98F800202B789A4205D288F800300B4A1371A2F80690064B1B682A785A72BDE8F88319
:406980004E3B030898B20810543B030824440308C8440308CC440308553B0308E84202082DE9F04383B004460F462C233A4A03FB00235E6801258DF80450B14639F8098B43
:4069C00005FA08F808F1FF3801FB08F3334AA2FB03384FEA5818C2B2314B1A703148FFF715F9314B1D71DD800025304B1D700AE001AA49464046FFF761FF05432B4A1378A0
:406A00000133DBB213702C23234A03FB04231A7F264B1B78DBB29A42EAD89DF8043001335B0873720022214B1A7023E02C231A4A03FB04239A681D4B1B7803EB830302EBD3
:406A400043021B4B1A60537A717A8B420BD35B1ADBB207FB03F363331049A1FB0313C3F34713537201E000235372104A13780133DBB213702C23084A03FB04231A7F0B4B77
:406A80001B78DBB29A42D1D80022084B1A70284603B0BDE8F08300BF98B208101F85EB514E3B030815610810E8420208543B0308C844030842890388901E10FB03F080B2BD
:406AC000704700BF08B52A4BB3F90030002B0DDB5A0903F01F03012101FA03F32032254941F82230BFF34F8FBFF36F8F224B4FF483721A601B68214BD3F8D020D3F8D43051
:406B00009BB213FA82F31E4A128892B2934204D91B4A13889BB2538002E09BB2184A5380184B1B689847184BDB6813F0800F0FD1164A124B1A604FF4407203F5C6731A6056
:406B4000134A03F51D731A601F22A3F598731A60074BB3F90030002B08DB590903F01F03012202FA03F3034A42F8213008BD00BF20AC081000E100E0F000364000003640B3
:406B8000583B0308F04202082444030820100C80800E43013F4B1A683F4B1B7813445A7A3E4B13433E4A136000233E4A53803E493E4A1160012102F5C0721160112102F5E9
:406BC000807211604FF08071043211603C3213600622374B1A60374A28331A6041F2101204331A60344AC43B1A6040F2033203F5A8731A604FF4FA6300E0013B2F4A126860
:406C000012F0010F01D0002BF7D12C4B1B6813F0010F03D04FF44272284B1A60284BDA7F284BB3FBF2F3284A934204D9274A934203D8302302E0202300E0402343F0004372
:406C400043F44123194A136040F20132204B1A60002320490B6001F580710B6004310B603C310B6038390B601B482831086042F2102004310860C4390B601F21174B196014
:406C8000A3F5F0734FF4837119601B680B4B1A60704700BFC84403089CB30810800E430100043640583B030820100C80000036408802364001010100AA000500400336405B
:406CC0002444030880F0FA02001BB70000366E018C0136408001364001030300D002364010B5FFF75FF9454B9A6A22F0F0029A629A6A22F470629A624FF4837203F57F3384
:406D000003F5B8731A60002404331C60022204331A6088331C6004331C6041F2415204331A604FF4407204331A60354A03F51D731A6003F580731C60324AA3F544731A60D6
:406D4000314A10331A6004331C607C331C6004331C6004331C6008331C60FBF7AEFC2B4A136823F480531360FBF7ABFC2322284B1A604FF0807204331A60FBF79EFC254A4F
:406D8000136823F0805323F4801343F080531360FBF797FC204A214B1A6042F2102204331A600C331C601F2210331A600F2230331A60042210331A6004331C600C331C604B
:406DC0004FF4427220331A60154AA3F550731A60144BDB7F013BFF2B09D81349D1F8002822F47F421B029BB21343C1F80038FEF7BBFE0E48FEF70AFF10BD00BF8003324043
:406E0000800E4301AA0005002A00000C94023640A0023640A802364001030300B002364020100C802444030800000140C56A08102DE9F84380460E462C242B4B04FB00340D
:406E4000D4F80890294BC3F800906068FFF732FE274B1880198889B201FB06F1254EA6FB0136E37E022B3CD17609227F657F05FB02F5002109E01D4A136800201880136828
:406E8000402058720A3313600131A942F3D32024402700E01C464046FEF7C4FDFEF7F4FD154BDB6813F0800FFAD1104BC3F8009000210FE00D4B1B681A88964203D25A7A52
:406EC00022EA07025A725A7A22435A720A33074A13600131A942EDD3C4F347032746002CD8D1BDE8F88300BF98B20810C8440308583B03081F85EB5124440308F8B505464A
:406F0000FBF7DBFB06462F682C79072C04D94FF464711F48FBF766FBA400BA6A0F23A34022EA0301062202FA04F30B43BB622C682D79072D04D940F245211548FBF752FB2D
:406F400004F13F4303F54E03DB0903F1806303F544331B01032D0BD81A68ED001F21A94022EA01010A2202FA05F50D431D600BE0043D5A68ED001F21A94022EA01010A2225
:406F800002FA05F50D435D603046FBF79AFBF8BDA0B30810F8B50546FBF78FFB06462F682C79072C04D94FF464711E48FBF71AFBA400BB6A0F2202FA04F423EA0404BC62FF
:406FC0002C682D79072D04D940F245211548FBF709FB04F13F4303F54E03DB0903F1806303F544331B01032D0BD81A68ED001F21A94022EA0101042202FA05F50D431D60B3
:407000000BE0043D5A68ED001F21A94022EA0101042202FA05F50D435D603046FBF751FBF8BD00BFA0B3081010B50022114B1A70114B1B689968114A11605A7F104CA280B2
:40704000187FE0801B68A36003EBC000E060FFF755FFA068FFF79EFF0A4A0B4B1A600B4AD36843F08003D3601720FBF7AFFAFFF791FD10BD543B0308503B0308C8440308B9
:40708000583B030899710810F04202082444030870B50546FBF711FB06462C682D79072D04D940F245211248FBF79CFA04F13F4303F54E03DB0903F1806303F544331B01DC
:4070C000032D08D81A68ED001F2101FA05F522EA05051D6008E0043D5A68ED001F2101FA05F522EA05055D603046FBF7EAFA70BDA0B30810F8B50646FBF7DFFA07463468D8
:407100003579072D04D940F245212248FBF76AFA04F13F4303F54E03DB0903F1806303F544331B01032D08D81A68ED001F2101FA05F522EA05051D6008E0043D5A68ED0013
:407140001F2101FA05F522EA05055D6035683479072C04D94FF464710E48FBF743FAA400AA6A0F23A34022EA0301062202FA04F30B43AB6235683479072C04D940F24731B9
:407180000448FBF72FFA0123A3406B603846FBF798FAF8BDA0B3081010B52C4B19682C4B18782C4C23889AB263889BB2D31A21F81030E068FFF76CFF274A13780133DBB25D
:4071C0001370A388013B9BB2A3805BB1E0680830E060FFF793FE1D4A13680A331360FFF7D9FC10BD1B4AD388013B9BB2D380D3B114469068FFF77EFFA0680830A060FFF79D
:40720000C9FE164B1A68537FA3801368107F03EBC000E060FFF772FE0C4A13680A331360FFF7B8FC10BD0B4B9868FFF763FF0C4B1B7813B1FEF7ACFC10BD0A4B1A89013268
