:020000041008E2
:4000000000780408F90208100D00000061030810610308106103081061030810000000000000000000000000000000005D0308105D030810000000005D0308105D0308104C
:400040005D0308105D0308105D0308105D0308105D0308105D0308105D0308105D0308105D0308105D0308105D0308105D0308105D0308105D0308105D0308105D03081000
:400080005D0308105D0308105D0308105D0308105D0308105D0308105D0308105D0308105D0308105D0308105D0308105D0308105D030810C10508105D0308105D0308105A
:4000C0005D0308105D0308105D0308105D0308105D0308105D0308105D0308105D0308105D0308105D0308105D0308105D0308105D0308105D0308105D0308105D03081080
:400100005D0308105D0308105D0308105D0308105D0308105D0308105D0308105D0308105D0308105D0308105D0308105D0308105D0308105D0308105D0308105D0308103F
:400140005D0308105D0308105D0308105D0308105D0308105D0308105D0308105D0308105D0308105D0308105D0308105D0308105D0308105D0308105D0308105D030810FF
:400180005D0308105D0308105D0308105D0308105D0308105D0308105D0308105D0308105D0308105D0308105D0308105D0308105D0308105D0308105D0308105D030810BF
:4001C0005D0308105D0308105D0308105D0308105D0308105D0308105D0308105D0308105D0308105D0308105D0308105D0308105D0308105D0308105D0308105D0308107F
:400200005D0308105D0308105D0308105D0308105D0308105D0308105D0308105D0308105D0308105D0308105D0308105D0308105D0308105D0308105D0308105D0308103E
:400240005D0308105D0308105D0308105D0308105D0308105D0308105D0308105D0308105D0308105D0308105D0308105D0308105D0308105D0308105D0308105D030810FE
:400280005D0308105D0308105D03081010B5054C237833B9044B13B10448AFF300800123237010BD9C47020800000000D41B0810084B10B51BB108490848AFF30080084849
:4002C000036803B910BD074B002BFBD0BDE81040184700BF00000000A0470208D41B0810B8420208000000007047EFF3108072B6704780F310887047FFF7F6FF72B6114C79
:40030000114DAC4209DA21686268A368043BA2BFC858D050FAE70C34F3E70C490C4A00209142BCBF41F8040BFAE70A480A490860BFF34F8F00F030F900F00AF900F01EF864
:40034000FEE70000D81B0810F01B08109C470208C84902080040020808ED00E0FEE7FEE700B504207146084202D0EFF3098001E0EFF30880043001F049FAFEE700B585B0E0
:4003800062B600F03FF900F05FF9094B009301231A460DF10F01074800F0ACFF9DF80F30DBB2054AC2F80C31002001F0D3F9F5E78C4902080000644000003840704700BF81
:4003C0005C4AD2F8803303F00F0303F1D00152F8212002F00702032A04D0042A05D092B9554914E0554A116811E003F1C002514951F8222002F01F02112A06D0132A04D090
:400400004FF4FA4103E04E4901E04FF400418BBB484BD3F8902502F00100D3F88825C2F30172D3F8883513F0405F07D0414BD3F88835C3F30173012B02D102E0012300E04F
:40044000002303B108B9032A46D13A48D0F88025C2F31103D0F88425C2F30C02D0F88005C0F300600130B1FBF2F202FB03F2B2FBF0F131E0012B2FD12E4BD3F8402602F03A
:400480000100D3F80026C2F30172D3F8003613F0405F07D0274BD3F80036C3F30173012B02D102E0012300E0002303B108B9032A12D12048D0F8002602F07F02D0F80036B7
:4004C000C3F30423D0F80006C0F3044002FB01F2B2FBF3F2B2FBF0F1164BD3F88033C3F3011321FA03F215494A601648D0F89030C3F3072301330069000E0130B2FBF0F05A
:400500008860B2FBF3F3CB600B6103F5742202F23F220D48A0FB0202C2F387420A7503F2E7330A4AA2FB03239B098B61DB03CB61704700BF0000264000127A008C420208D5
:4005400000366E010000214083DE1B43D34D621008B5104BD3F8802122F0404242F08042C3F88021D3F8802142F00042C3F88021D3F8802122F00102C3F88021FFF71EFF90
:40058000FFF71EFF00F024F800F02AF801F05CF808BD00BF0000264008B5FFF7A6FE074AD2F8883043F47003C2F88830BFF34F8FBFF36F8FFFF79DFE08BD00BF00ED00E073
:4005C00008B5024800F018FB08BD00BFE447020808B500221146042000F014F908BD00BF10B501F06EF90446044800F0C7F9044800F028FA204601F068F910BDB84702080E
:400600002019081008B5084B1B783BB9074A0021074800F049FB0122034B1A70044B01229A609A6108BD00BF384902085C1908100000384008B50249024800F023FF08BD3E
:400640008C4902080000644008B5114B1B785BB9104A1149114800F083FE1149114800F047F801220A4B1A700E4BB3F90030002B08DB590903F01F03012202FA03F30A4AB2
:4006800042F82130054A136843F00043136008BD394902088C490208C019081000006440350608105419081000E100E038B50C4B9A680C4B9A420ED10D46044619B9FC21BA
:4006C000094801F093F804F11003064A52F8230042F8235038BD1030044B53F8200038BD00ED00E000400208C81908100000081070B338B504460D464368072B03D93621F2
:40070000154801F073F8B4F900306268002B08DB5201D2B203F1604303F5614383F8002305E003F00F035201D2B20C49CA540C4B9A680C4B9A420DD11DB94521064801F08A
:4007400055F82946B4F90000FFF7B0FF002038BD05487047002038BDC819081014ED00E000ED00E0004002080100560038B50369002B0DDA0D4604460B0C1B0423B140F2B1
:40078000A721044801F032F8A9B26160002038BD014838BD0C1A081001008A0038B50368002B01DA002300E0094B73B90D460446C2600B0C1B0423B140F28E21054801F009
:4007C00015F8A9B2A160002038BD014838BD00BF01008A000C1A081038B504460D4619B99921064801F002F82369002B03DAE3682B60002038BD024838BD00BF4C1A08106B
:4008000001008A000F2840D8F8B515460E46044682B979B90F2804D940F29D11214800F0E5FF600100F1804000F50C101E4B18600020F8BD5DB366B316F01F0F2BD10F2C2D
:4008400004D940F29D11174800F0D0FF640104F1804404F50C14144F3C607E60BD60F2080021284601F034F800212046FFF77EFF3A4652F8040B0021FFF790FF68B900210B
:400880003868FFF773FF50B9F8BD084870470748F8BD0648F8BD0548F8BD0548F8BD0448F8BD00BF8C1A08103C49020803018A0001018A002DE9F0411B4B1B68DC6823683A
:4008C00083422CD90D464609A0EB4610012303FA00F819B900F0F5FF074600E00027124B18680368002B01DA002300E00F4B83B9626852F8263018EA030F05D023EA080336
:4009000042F82630002400E0094C0021FFF72EFF00E0084C25B9384600F0D7FF00E0064C2046BDE8F08100BF3C49020801008A00020188000301880004018A000B4B1B682E
:40094000DB681A6882420CD94109A0EB4110012202FA00F05B6853F82130184203D004487047044870470448704700BF3C4902080101880004018A0000018800024B1B687F
:400980000BB9014B18607047484902082DE9F8430446884691461E46089F072803D9B421244800F023FF244B1B682C2000FB04F01C18F5B21D50C6F307236360360CA66051
:4009C0000F2D04D940F29D111C4800F00FFF6D0105F1804505F50C15256165680F2D04D94FF4DC71154800F001FF154B03EB45156561A668330C1B0423B14FF4EB710F486B
:400A000000F0F4FE330C1B0423B140F2D7110B4800F0ECFEB3B243EA0646AE60C4F81C90C4F820800023A36117B1B7F90030A381BDE8F883CC1A0810484902088C1A081041
:400A400000102340F0B58FB0044618B950212C4800F0CCFEA369072B03D95421284800F0C5FEE36A1BB95621254800F0BFFEE368072B03D95721224800F0B8FE236A072B61
:400A800003D958211E4800F0B1FE236B1BB959211B4800F0ABFE07AE04F114050FCD0FC62F6802AD26460FCE0FC533682B60079B1933ADF83030089B0D93A26AE16A0CADC1
:400AC00000953B460A98FFF761FF00210091069B0A460598FFF75AFF216B2846FFF708FEBDF93030002B08DB590903F01F03012202FA03F3034A42F821300FB0F0BD00BFB0
:400B0000CC1A081000E100E0F8B507460E461D4614461AB9FC21224800F068FE072F03D9FD211F4800F062FE072E03D9FE211C4800F05CFE1B4B1B682C2202FB073002FB0E
:400B400006367368012202FA03F31B04476802FA07F70269EAB1B169E9B91268002A01DA002200E0104AC2B92288134323600369DC600123B361756204693B0C1B0423B188
:400B800040F28E21094800F031FEBAB2A2600020F8BD0748F8BD0748F8BD0648F8BD00BFCC1A08104849020801008A008C1A081004028A0007028A0070B504460E461546B4
:400BC000072804D940F25F11084800F00FFE084B1B682C2202FB0434E369AB4204D9236A43F82560002070BD024870BDCC1A0810484902080A028A0070B582B0002301933D
:400C0000044620B94FF4D971264800F0EFFD236923B940F2B311234800F0E8FD636923B94FF4DA711F4800F0E1FD236A23B940F2B5111C4800F0DAFD6369DD682A0C1CD0F2
:400C400012041A601B6820690369002B15DA01A9FFF7C2FD60B9019803681E0CDBB2E269934206D2226A52F8233013B1984700E0002631462069FFF779FDADB275B1636998
:400C8000ADB21D601B68636A1BB198470023636202E0A36A03B198470023A36163691B6802B070BDCC1A0810002800F0AC8070B40446002A00F0A98092F828300BB10125E7
:400CC00000E00025137F0BB1022300E000231D431669B60406F4802645EA060395682D0405F440351D431668300600F0E0602843136B556B43EA45031B0503F4401303435A
:400D0000906B43EA8000052E03D1D3681B029BB202E053681B029BB20343081D800123501368062B08D104EB81130120C3F808013F20C3F828011DE0936843B904EB811352
:400D40000020C3F808013120C3F8280112E0012B08D1506904EB8113C3F808011C20C3F8280107E004EB81130120C3F808011220C3F82801106A04EB8113C3F80C01506A5F
:400D8000C3F810015069C3F814019069C3F81801136EB3F1FF3F17D0106C00F00F00966C360206F470663043156D2D0405F470250543906D000380B228431B01DBB20343BA
:400DC00004EB8110C0F82031D36B03F00303566C360106F030063343D56C2D0205F440752B43506D8001C0B21843D36D9B0003F00C03034304EB8114C4F82431D36AC4F850
:400E00003831002002E002487047014870BC70470100B60010B4D0F8003303F00F03072B06D900230DE0D0F84043CC54013300E000239342F7D306E0D0F8404321F81340A0
:400E400001339342F8D35DF8044B704710B51446D0F80833C3F308039A4200D31C462246FFF7D8FF204610BD10B4D0F8003203F00F03072B06D900230DE0CC5CC0F84042A1
:400E8000013300E000239342F7D306E031F81340C0F8404201339342F8D35DF8044B704710B51446036813F4006F01D0802200E04022D0F80832C3F30803D31AA34200D86F
:400EC0001C462246FFF7D0FF204610BD02E0C0F84012013A002AFAD1704700BF10B51446036813F4006F01D0802200E04022D0F80832C3F30803D31AA34200D81C462246B2
:400F0000FFF7E4FF204610BD4B6843F020034B60D0F8043343F48033C0F80433D0F8043323F48033C0F80433D0F804330023C0F8C83FC0F8883F70474B6813F0200F0BD08A
:400F4000036823F00043036000238366C366036843F00043036003680B78DBB2062B03D10023C0F8883F06E00023C0F8C83F036E23F4204303664B6823F010034B600B7E89
:400F800083B10B78DBB2062B05D00A69CB689A4203D0022202E0012200E000224B6813434B600FE00B78DBB2062B05D04A69CB689A4203D0082202E0042200E000224B6832
:400FC00013434B6000230B70704700BF4A7A1AB10B7A5340DB4300E0FF23D0F8102322F47F025B0403F47F031343C0F81033704738B504460D4601230B764B7A43B3D0F8F1
:4010000040335B080122C0F8C02FD0F8C02F0A7A934202D04A7A93420FD16A7A934201D100232B761023C4F8403FD4F8403F40F25113C4F8483F01220BE040F2AE512C4821
:4010400000F0D4FB40F24113C4F8883E022200E00122D4F8043243F48033C4F80432D4F8043223F48033C4F80432D4F80432E266012A3CD16B6843F010036B60636E13F0AC
:40108000100F16D006232B702B7E3BB16A6A29690A44EA61AB6A5B1A2B6206E02A6B69690A44EA616B6B5B1A2B620123C4F8883F38BD02232B702B7E0BB1AB6A00E06B6B72
:4010C0002B62236813F4006F01D0802300E0402323B940F25E21064800F088FBD4F8043323F0FF03C4F804330123C4F8C83F38BD0C1B081038B505460C460A6A42B1C96914
:40110000FFF7CEFE236A1B1A2362E3691844E061236A23B98022FF212846FFF7DFFE38BD38B50546802906D9A1F18003802B0ED8A1F181040CE0036E43F40043036609B1E5
:401140004C1E00E000240023C5F8C83F00E03F242B6813F4006F01D0802300E040239C4204D340F25E21064800F040FBD5F8041321F0FF03E1B21943C5F8041338BD00BFCA
:401180000C1B081038B505460C460B78023B032B00F28880DFE803F002025B73D0F840338A7A012A0FD10A78D2B2022A07D10122C2661A02CA6003220A70002204E0CA6836
:4011C0001343012200E00122002A6BD0226A934207D2227E0AB1236100E06361E360012306E0237E0BB1236900E06369E3600223EB66012B56D1237E5BB1626A21690A4412
:40120000E261E36A994201D25B1A00E0002323620AE0226B61690A44E261A36B994201D25B1A00E000232362637A13B9236A7F2B02D80423237038BD2B6E43F400532B66CB
:40124000216A2846FFF76CFF0523237038BDD0F840230B6A6BB10123C366CB691A700B6A013B0B62CB690133CB61CB680133CB6038BD0223C3660023C0F8C83F38BDD0F877
:401280000423D2B20132C969FFF7E0FD216A091A2162E3691844E0612846FFF741FFE3680133E36038BD00BF70B505460C46164611F0800F04D04FF407710D4800F096FA05
:4012C000737A9C4204D140F21D21094800F08EFA3472D5F8103323F0FF036400E4B21C43C5F8104331462846FFF770FE70BD00BF501B0810F8B50F461D46069C16462AB1EB
:4013000021B94FF41A71074800F070FAAE4204D240F26921034800F069FA6762A662E562F8BD00BF501B081070B506460D46144611F0800F04D040F28D21084800F056FA3B
:40134000237A9D4204D140F28E21044800F04EFA657221463046FFF739FE70BD501B081000287DD070B5054600297BD0002A7BD00B7913B13E4B984278D116460C4691F92C
:401380000130002B03DA4F213A4800F02FFA94F90230002B03DA5021364800F027FA6278A3789A4203D15121324800F01FFA2378012B03D952212F4800F018FAE378012B72
:4013C00003D953212B4800F011FA2378012B02D14FF4803200E00022237913B14FF4807300E00023134343F400632B60224B2B6640F20713C5F800330023C5F8043323789E
:4014000033B97372324661782846FFF74DFF09E0324661782846FFF747FF3246A1782846FFF782FF154BC5F800324023C5F804320020C5F8C80EC5F8880EC5F8C80FC5F884
:40144000880FC5F8080F40F25113C5F8483F70603070E378B372B062F0623061706170BD07487047064870BD054870BD044870BD00006940501B0810000800400701010053
:401480000100AA0070B504460E46D0F88C3E13F0010F05D001230B70C0F8803ED0F8803ED4F84C5F40F201131D420CD031462046FFF72AFD40F20113C4F8403FD4F8403FEB
:4014C00045F010050BE03378DBB2052B07D115F0100F04D00123C4F8C43FC4F8C83FD4F8CC3F13F0010F08D031462046FFF74AFE0123C4F8C03FD4F8C03F15F0100F0AD054
:4015000031462046FFF718FD1023C4F8403FD4F8403FD4F84C5F15F0400F0DD031462046FFF766FD0123C4F8803ED4F8803E4023C4F8403FD4F8403FD4F88C3F13F0010F71
:4015400008D031462046FFF7D5FD0123C4F8803FD4F8803F70BD00BF1F4B98422DD00CD840282ED003D8E8B1102828D02FE0802829D0B0F5807F28D029E0184B984228D01F
:4015800006D8B0F1204F0DD0154B984212D01EE0144B98420AD00133984209D0023B984215D101E0002070470F4870470F4870470F4870474FF4A0007047074870470D4878
:4015C00070470D4870470D487047034870470C4870474FF4A400704706005200010000F0090000A0040000F001005200020052000300520001005000020050000500520095
:40160000FF00520008B50C4B1B69002B12DB0B4B1868FFF7A1FF0122094BC3F88C24084BD3F80C34002BFAD1054BD3F88C34002BF5D108BD034808BD200023404C49020844
:40164000000025400200500000B583B05523ADF80030002301930C496846FFF749F8BDF90030002B08DB590903F01F03012202FA03F3064A42F82130022205490120FFF7A9
:401680009BFA03B05DF804FBFD42020800E100E01D44020870B584B005460E46042804D940F62401284800F0A1F8731EDBB2012B08D9042E06D0082E04D040F625012248C1
:4016C00000F094F8042E01D0012E1CD11F4B9C68002013E023799D420FD1A3680BB133420BD1E3685A6802929B68039304A800F80C6D23689847154BDC6064690CB3144B13
:401700009842E7D11DE0114BDC68022E01D104B12469002011E023799D420DD1A3680BB1334209D1E3685A6802929B68039304A800F80C6D23689847246914B1044B98427A
:40174000E9D104B070BD00BF941B08105C490208FF00420070B50546012804D94FF497711D4800F043F81D4B5B682BB101210020FFF790FF044600E000242CBB00F0A1F87B
:401780000646164B5B681BB104210020FFF782FF134A136923F004031361012D01D030BF07E020BF0D4B1B7803B120BF01220B4B1A70304600F089F8084B5B684BB1082173
:4017C0000020FFF767FF04E002210020FFF762FF044C204670BD00BF941B08105C49020800ED00E0FF00420001BEFEE738B50D46044C18220146204600F072F8A56100202E
:40180000FFF7F2FF08470208FEE700BF08B50268254BDA6142681A6282685A62C2689A620269DA6242691A6382695A63C2699A631E4A916AD963D16A1964516A5964516BD6
:401840009964926BDA64F1EE103A13F0900F27D0026A154B1A65426A5A65826A9A65C26ADA65026B1A66426B5A66826B9A66C26BDA66026C1A67426C5A67826C9A67C26C33
:40188000DA67026DC3F88020426DC3F88420826DC3F88820C26DC3F88C20026EC3F89020FFF7B2FF08BD00BF0847020800ED00E00230800803D001300238FCD100BF00BFB8
:4018C0007047EFF3108072B6704780F31088704702440346934202D003F8011BFAE7704710B5034642B111F8014B03F8014B013A002CF7D11A4400E010BD934202D003F8C0
:40190000014BFAE710BD0000F8B500BFF8BC08BC9E467047F8B500BFF8BC08BC9E46704703000000010000000100000000000000050360000400000001000000000000003D
:4019400001000000060460000800000018490208C10508102C0000000700000004000000000000000000000000000000000000006400000000800000000000000000000090
:4019800000400000000000000000000001000000000000000200000003000000FFFFFFFF03000000FFFFFFFF03000000FFFFFFFF03000000FFFFFFFF03000000FFFFFFFFE9
:4019C000000800000000000047656E6572617465645F536F757263655C50536F43365C70646C5C647269766572735C7065726970686572616C5C737973696E745C63795F7D
:401A0000737973696E742E630000000047656E6572617465645F536F757263655C50536F43365C70646C5C647269766572735C7065726970686572616C5C6970635C6379D6
:401A40005F6970635F6472762E68000047656E6572617465645F536F757263655C50536F43365C70646C5C647269766572735C7065726970686572616C5C6970635C6379F5
:401A80005F6970635F6472762E63000047656E6572617465645F536F757263655C50536F43365C70646C5C647269766572732F7065726970686572616C2F6970632F637941
:401AC0005F6970635F6472762E68000047656E6572617465645F536F757263655C50536F43365C70646C5C647269766572735C7065726970686572616C5C6970635C637975
:401B00005F6970635F706970652E630047656E6572617465645F536F757263655C50536F43365C70646C5C647269766572735C7065726970686572616C5C7363625C6379DB
:401B40005F7363625F636F6D6D6F6E2E6800000047656E6572617465645F536F757263655C50536F43365C70646C5C647269766572735C7065726970686572616C5C736359
:401B8000625C63795F7363625F657A6932632E630000000047656E6572617465645F536F757263655C50536F43365C70646C5C647269766572735C706572697068657261CE
:401BC0006C5C737973706D5C63795F737973706D2E6300000000000000000810004002088C020000F81B08108C4202087C0400009C4702082C0200000048E80100127A0032
:401C000000093D0000127A0000127A0008000000401F00000000A00F02FF0000B10208108D0208100000000080B2C300B0B13E210B4A116041F61E7104321160A2F5847248
:401C40000621C2F8181523F07F43C2F81C35D2F81C35044BD3F81C35002BFADA704700BF040126400000264008B54FF26003404AD3589BB2A2F580229268013B032B76D85C
:401C8000DFE803F0021F3C59032A02D10822394B9A60394A13691069C0F307221B0E581C02FB0000354B03FB00F0354B1B68354AA2FB03239B09B0FBF3F08230FFF7B4FFDE
:401CC00008BD032A02D108222A4B9A602A4A13691069C0F307221B0E581C02FB0000274B03FB00F0264B1B68264AA2FB03239B09B0FBF3F08230FFF797FF08BD032A02D1EB
:401D000008221C4B9A601C4A13691069C0F307221B0E581C02FB0000184B03FB00F0184B1B68184AA2FB03239B09B0FBF3F08230FFF77AFF08BD032A02D108220D4B9A6057
:401D40000D4A13691069C0F307221B0E581C02FB00000A4B03FB00F0094B1B68094AA2FB03239B09B0FBF3F08230FFF75DFF08BD00002540A00023400000214040420F001C
:401D800090420208D34D621008B54378FF2B0ED100F040F9064BDB685A68136843F001031360136813F0010FFBD100F043F908BD80002340F8B505460E46264B1B69002BF6
:401DC0001FDB002000F01EF9234B98421BD00023224A0121184600F03DF918B1204C15E0013400E00024002000F00CF91A4B984202D01C4B9C42F3D91A4B9C4205D9184C3B
:401E000004E0174C02E0164C00E0002404BB00F001F90746144A0121144800F003F968B925B93046FFF700FF114C08E00F4B1B69002BFBDB00F006F9044600E0084C012138
:401E4000002000F00FF90028F9D1384600F0F2F82046F8BDA000234001018800AC42020805005200EF4902004C4902082000234001005000394B1B68002BFBDA30B4374BEF
:401E8000DA6842F00102DA60DB6813F0020F20D0324DEB689CB232490A69120A120402F47F02D1F890301B0A42EA03632343EB600B6923F47F4343F410630B61D1F8903096
:401EC00023F47F4343F41063C1F890300B69D1F89030224B00225A605B68224A136943F004031361012801D030BF07E020BF1E4B1B7803B120BF01221B4B1A70184BD3F8C8
:401F0000803003F00303022BE7D0144B1B68002BFBDA124BDB6813F0020F15D010490B6923F47F420D48C3681B0C1B0203F47F4313430B61D1F8903023F47F42C3681B0E00
:401F400042EA0323C1F89030044BDA6822F00102DA6000225A6030BC704700BFE00023400000214000ED00E05C4902081E4A136943F004031361012801D030BF07E020BF17
:401F80001A4B1B7803B120BF0122184B1A70184BD3F8803003F00303022BE7D0154B1B68002BFBDA144BD3F80C31C3B941F61E72124B1A60062203F582631A603E22A3F2F3
:401FC00014431A60442203F583631A600C4B1B68002BFBDA4FF0AA32074BC3F80C210022044B5A60704700BF00ED00E05C49020800002140E000234000002540080126408E
:402000001C05264001B40248844601BC604700BF3D09081001B40248844601BC604700BFC318081001B40248844601BC604700BF9D07081001B40248844601BC604700BF5C
:40204000CB18081001B40248844601BC604700BF0516081001B40248844601BC604700BF090B081001B40248844601BC604700BFB50808100000000000000000000000006D
:402080000000000000000000000000000000000000000000000000000000000000000000000000000000000000000000000000000000000000000000000000000000000020
:4020C00000000000000000000000000000000000000000000000000000000000000000000000000000000000000000000000000000000000000000000000000000000000E0
:40210000000000000000000000000000000000000000000000000000000000000000000000000000000000000000000000000000000000000000000000000000000000009F
:40214000000000000000000000000000000000000000000000000000000000000000000000000000000000000000000000000000000000000000000000000000000000005F
:40218000000000000000000000000000000000000000000000000000000000000000000000000000000000000000000000000000000000000000000000000000000000001F
:4021C00000000000000000000000000000000000000000000000000000000000000000000000000000000000000000000000000000000000000000000000000000000000DF
:0200000490303A
:02000000535A51
:0200000490501A
:0C0000000005E20721002101E212745A01
:00000001FF