:020000041000EA
:4000000000400208310100100D000000950100100000000000000000000000000000000000000000000000000000000091010010000000000000000091010010910100109B
:4000400091010010B104001091010010910100109101001091010010910100109101001091010010910100109101001091010010910100109101001091010010910100103D
:400080009101001091010010910100109101001091010010910100109101001091010010910100109101001091010010910100109101001091010010910100109101001020
:4000C00010B5064C2378002B07D1054B002B02D0044800E000BF0123237010BD1C1300080000000098580010084B10B5002B03D00749084800E000BF07480368002B00D14D
:4001000010BD064B002BFBD09847F9E700000000201300089858001044020008000000007047EFF3108072B6704780F310887047FFF7F6FF72B6104C104DAC4209DA216873
:400140006268A368043B02DBC858D050FAE70C34F3E70B490B4A0020521A02DD043A8850FCDC094809490860BFF34F8F00F006F900F01EF8FEE70000CC9B0110E49B0110D4
:400180001C130008282200080000000808ED00E0FEE7FEE700B504207146084202D0EFF3098001E0EFF30880043001F0F3FFFEE710B562B6002000F011FB034800F052F932
:4001C00005F044FCFCE7C0460000081070B56249E0239B00CB580F2213401A00D0329200525807210A40032A05D0042A06D0002A12D15A4814E05A4A106811E01A00C03228
:400200009200554952581F210A40112A06D0132A04D0FA20C00103E0524801E080200002002B36D14C4BB222D2009A5801211140B125ED005A59120F032422405B591B0F8B
:400240001C4207D0444C63591B0F03242340012B02D102E0012300E00023002B01D0002901D1032A4BD13C4BB022D2009D58AD03AD0B3D495958C904C90C9C58240E012356
:400280001C40013402F0F4FD6843210002F0F0FD35E0012B33D1304BC822D2009A5801251540C024E4001A59120F03210A401B591B0F194207D028490B591B0F03210B402E
:4002C000012B02D102E0012300E00023002B01D0002D01D1032A12D11F4DC022D200AB587F210B40A958090A1F263140AC58240C3440584302F0BCFD210002F0B9FDE02359
:400300009B00154AD3581B0903221340D840144C6060164B1D692D0AFC32154001351969090E013102F0A4FDA060290002F0A0FD0500E06020610E4BC0180E4902F098FD02
:4003400020750D4BE818FA21890002F091FDA061C003E06170BDC0460000264000127A00C000000800366E0184050000000021403F420F0040420F00E703000010B5234BAD
:40038000B021C9005A58520052085A50E02080001A583024A2431A50802252045A501C491C4A9950A021890104329950FF211A4A995081315A58920092088020C00502439F
:4003C0005A505A588020000602435A505A58012082435A5000F080F9FFF7F8FE00F070F800F078F801F0F4F9B0235B055B78002B04D0B0235B055B78DBB200E02123212BD7
:4004000003D1064B0022DA605A6010BD0000264001000200840500008C050000E00023408023024AD3580320184070470000214010B5FFF776FE084980228C58074B234086
:40044000074C23438B508823034AD358DB06FAD5FFF76BFE10BDC04600002140FCFF00000100FA0570B50500FFF75BFE0400FFF7D7FF032801D1FFF7DBFF0A4AB0239B00AF
:40048000D55080215058084B03400848034353508823044AD358DB06FAD52000FFF745FE70BDC04600002140FCFF00000300FA0510B5024800F066FD10BDC04638130008B9
:4004C00010B5034A60328021042000F0EFFA10BD3814000810B501F0C8FE0400044800F0EBFB044800F052FC200001F0C2FE10BD38130008D0490010FEE7C046014A024BD0
:400500001A60704701001180000E1F4130B587B05E4A116808230B4313605D4C03E0012001F0F8FD013C594B1B695B0701D4002CF5D1002C01D1574B00E00023002B02D0A0
:400540000520FFF7D9FF544BA020C0001A5803218A4302390A431A50504990240A59504802400A510A691202120A8024640422430A610A6910400861E022920099580F20D0
:40058000814399509958213081439950995880200006014399500021012000F09DFD0021022000F099FD0021032000F095FD0021042000F091FD0021002000F08DFD01A859
:4005C000384903000A0032CA32C312CA12C300F0CBFD002802D00420FFF78EFF2E49324A8B588020000603438B50304800F076FE002802D00420FFF77FFF274C2C4BE15844
:400600002C4A0A40E250E1582B4A0A40E250E25880252D062A43E250043BE158274A0A40E250E158264A0A40802189010A43E250E258802109020A43E250144A1168214B43
:400640000B401360002001F017FE1F4BE2582A43E250E158012291430A43E2506421002001F0B0FD194B0021194A99508021090158580B4A02408C20800102435A508022E0
:40068000D200144999509B5807B030BD0000274020A1070002004A000000264000002140FF00FFFF0C4A0010087F0000400D030004050000FEFCFFFFFFFF00FFFFF0FFFF24
:4006C000FF8FFFFFFFFCFFFF0C05000000000140140C000000FF008070B58EB09621002001F070FD01F046FD002801D101F032FD012001F0ADFB314A516C314B0B40E821DC
:4007000089010B435364536C1B0AFF2213403A2B07D12A4A516C2B4B0B40E82189010B43536401AC34220021200004F021F9264D22000021280001F0D3F834220021200088
:4007400004F016F922000121280001F0C9F8FFF7DDFE24220021200004F00AF92100280001F028FA194D22002B00143343CB43C243CB43C243CB43C22100154801F01AFAF7
:4007800022002B00383343CB43C243CB43C243CB43C221000F4801F00DFA22002B005C3323CB23C223CB23C223CB23C221000A4801F000FAFFF7A2FE0EB070BD000027403D
:4007C000FF00FFFFFFC5FFDF000032400C4A001080023240000332408006324010B5054801F0BEFD0122044B1A70002801D101F0C7FD10BDE0000008C814000810B58308CF
:400800009A00801AC000FF228240D44381400A40072B32D89B001949CB589F46184B196A0C4022431A6228E0154B596A0C4022435A6222E0124B996A0C4022439A621CE0C8
:400840000F4BD96A0C402243DA6216E00C4B196B0C4022431A6310E0094B596B0C4022435A630AE0064B996B0C4022439A6304E0034BD96B0C402243DA6310BD8C4A001075
:400880000000214083089A00801AC100FF228A40072B2BD89B001748C3589F46164B186A1040C84023E0144B586A1040C8401EE0114B986A1040C84019E00F4BD86A1040ED
:4008C000C84014E00C4B186B1040C8400FE00A4B586B1040C8400AE0074B986B1040C84005E0054BD86B1040C84000E00020C0B27047C046AC4A00100000214070B5040045
:400900000D000B4B9A680B4B9A420BD1002903D1FC21094801F00AFC1034064BA400E058E55003E01034A400044BE05870BDC04600ED00E000000008CC4A001000000010AC
:40094000F0B583B0041E019150D04368032B03D93621294801F0EAFB0023E05E002802DBA178FFF74BFF0023E25E6368002A12DB9008224EC0308000875903210A40D200DC
:40098000FF25290091408F4399012B000B4093403B43835117E092B20F21114008398908063189001648844661444E6803200240D200FF2738009040864398013B000340FC
:4009C000934033434B600E4B9A680E4B9A420FD1019B002B03D14521074801F0A7FB0023E05E0199FFF78AFF002002E0064800E0002003B0F0BDC046CC4A001000E100E099
:400A000000ED00E0000000080100560070B504000D000369002B0ADA0B0C03D00549064801F084FB2D042D0C6560002000E0034870BDC046A7020000104B001001008A0097
:400A400070B505000C000368002B01DA002300E0084B002B0BD1EA60230C03D00649074801F064FB2404240CAC60002000E0014870BDC04601008A008E020000104B0010D2
:400A800070B505000C1E03D19921064801F04EFB2B69002B03DAEB682360002000E0024870BDC046504B001001008A00F8B504000E0015000F283FD8002A10D100290ED172
:400AC0000F2804D99E21FF31214801F02FFB6401204B9C466444204B1C60002037E0002D2CD0002E2CD0F3062CD10F2C04D99E21FF31174801F01AFB6401164B9C466444F2
:400B0000154F3C607E60BD60F2080021280003F02FFF00212000FFF779FF3A0001CA0021FFF78EFF00280FD10B4B18680021FFF76DFF00280AD10AE0084808E0074806E043
:400B4000064804E0054802E0054800E00448F8BD904B001000002340CC14000803018A0001018A00F0B583B00D001C4B1B68DC68236883422DD947097B01C01A01238340A0
:400B80001E00002903D101F070FB019001E000230193124B18680368002B01DA002300E00F4B002B0ED16368BF00DF193B68334203D133433B60002400E00A4C0021FFF7F0
:400BC00025FF00E0084C002D04D1019801F051FB00E0064C200003B0F0BDC046CC14000801008A00020188000301880004018A00F0B583B00D001C4B1B68DC682368834291
:400C00002DD947097B01C01A012383401E00002903D101F02AFB019001E000230193124B18680368002B01DA002300E00F4B002B0ED16368BF00DF193B68334203D0B343AF
:400C40003B60002400E00A4C0021FFF7DFFE00E0084C002D04D1019801F00BFB00E0064C200003B0F0BDC046CC14000801008A00020188000301880004018A000A4B1B681C
:400C8000DA68136883420BD943095901401A0121814052689B009B580B4203D0034802E0034800E003487047CC1400080101880004018A0000018800034B1B68002B01D1D1
:400CC000014B18607047C046D8140008F0B5474680B404000F0090461E00072803D9B421254801F023FA254B1B682C2060431C18FF22150035402560330A13406360330CDF
:400D0000A3600F2D04D99E21FF311D4801F00EFA6B011C4A94466344236165680F2D04D9DC214900164801F001FA6D01164B9C4665446561A668330C04D0EB21490010480F
:400D400001F0F4F9330C04D0D821FF310C4801F0EDF93604330C1E43AE604346E36127620023A361069B002B02D000229B5EA38104BC9046F0BDC046D04B0010D814000884
:400D8000904B00100000234000102340F0B58FB0041E03D150212E4801F0C8F96368032B03D952212A4801F0C1F9E36A002B03D15621274801F0BAF9E368072B03D95721F3
:400DC000234801F0B3F9236A072B03D95821204801F0ACF9236B002B03D159211C4801F0A5F907AA1300210061C961C321C921C302AD290023001433C1CBC1C141CB41C180
:400E00000821535E0CAE3380079B1933B370089B0D930B9B0A980096A26AE16AFFF756FF2B69E868002200920021FFF74FFF216B3000FFF785FD0023F25E002A05DB1F23A7
:400E40001A401E3B9340034A13600FB0F0BDC046D04B001000E100E0F8B505000F0016001C00002A03D1FC21244801F05FF9072D03D9FD21214801F059F9072F03D9FE2100
:400E80001E4801F053F91E4B1B682C2128004843181879435918012213004D68AB401B044568AA4015000269002A20D08F69002F1FD11268002A01DA002200E0114A002A03
:400EC00019D132681204120C134333600369DE6001238B614C6204692B0C03D00A490B4801F024F92A04120CA260002004E0084802E0084800E00748F8BDC046D04B0010D5
:400F0000D814000801008A008E020000904B001004028A0007028A0070B505000C001600072804D96021FF31084801F0FFF8084B1B682C2068431818C369B34204D9036AEB
:400F4000B6009C51002000E0024870BDD04B0010D81400080A028A0070B504000D00072804D9C7214900054801F0E0F8044B1B682C2060431818856270BDC046D04B0010E3
:400F8000D814000870B582B0040000230193002804D1D92149002B4801F0C8F82369002B04D1B421FF31274801F0C0F86369002B04D1DA214900234801F0B8F8236A002B4A
:400FC00004D1B621FF311F4801F0B0F86269D5682B0C1FD01B041360136820690369002B18DA01A9FFF74CFD00280ED1019803681E0CFF221340E269934207D29B00226A16
:40100000D358002B02D0984700E0002631002069FFF7FCFC2D042D0C0FD063691D601B68636A002B03D098470023636203E0A36A002B00D098470023A36163691B6802B062
:4010400070BDC046D04B001010B50400072803D90C490D4801F06AF80C4B1B682C20604318180C23C25E002A0ADB1F231A401E3B9340802206498B50BFF34F8FBFF36F8F16
:40108000002010BD0B020000D04B0010D814000800E100E010B50400072803D90A490B4801F044F80A4B1B682C20604318180C23C25E002A05DB1F231A401E3B9340054A48
:4010C0001360002010BDC0462A020000D04B0010D814000800E100E004281DD8042904D94B1EFF3B9BB2132B18D8FF290CD91F2319400B4A0300C0339B009950D03080003E
:401100000423835000200AE007231940D0308000034BC150002002E0024800E0014870470000264001004A0010B50400042804D9892149000A4800F0F9FF2300D0339B00AC
:40114000084A985807231840042807D1C034A400A3581B30184080235B00184310BDC046104C00100000264070B5041E04D1EF2149004C4800F0DAFFB023DB004A4AD35834
:40118000002B01DB002500E0484D002D00D086E0474B22689A4204D9EE21FF31414800F0C5FF23689B03990BE3791B068022520413400B43B022D2003B498B50A2883D4B42
:4011C0009A4204D9FA214900364800F0AFFF2289394B9A4204D9F621FF31324800F0A6FFA388DB04D90C23891B04344A13400B43334A2D498B50A37A0F2B04D9FC21FF3150
:40120000284800F093FFE37A0F2B04D9FE214900244800F08BFFA289264B9A4204D9FE21FF31204800F082FFA37A0F211940E27A1201FF2313400B43A289120221490A40B2
:401240001343A27B1207C02189050A401343B122D20015498B50A379072B03D91A49114800F064FF228A144B9A4203D917490D4800F05CFF0C4816494658164B1E40A379CD
:401280001B02E022D2001340334343504658124B1E40238A1B04094A134033434350280070BDC046104C00100000264003004A00FFFF0300FF1F0000FF0100000000FF0174
:4012C0008405000000FF1F0005020000060200008C050000FFF8FFFFFFFF00FE70B505002D492E4A8B588020000603438B502C0003E0012000F00EFF013CB223DB00264A6A
:40130000D3585B0701D4002CF3D12349B122D2008858234B03408020800503438B50002D02D00ED0002C0CD01B49B022D2008B588020000603438B5003E0012000F0EAFE00
:40134000013CB223DB00144AD358DB0701D4002CF3D1002D0ED0002C0CD10F4AB021C90053585B005B0853500C4953585B005B0853500BE0084B0221B222D2009950B1211A
:40138000C9005A58C020800502435A50002C01D1044800E0002070BD000026408C050000FFFFFFCF02004A00F0B55B4B1B78002B05D05A4B5A4CE358002B00DBA4E0594B46
:4013C000984200D9A2E09A4200D9A1E0564B994200D99FE00124504B5C70FF2810D8504CA327FF00E5590F26B5430F2318402843E0514E4D6359B34307200343635132E09D
:401400004B4B984208D8464E484D74590F239C4318402043705126E0414F444EBB590F24A3431D00030AA4461C00634623402B43BB51404B98420BD83C4D7B59F024A3432F
:401440001C000001FF231840230003437B510AE0334E364D7459384B1C400002F0231B01184020437051FF2A13D82D48A324E4000359F025AB4312010F352A401A43025155
:401480002A4A84582D4B2340E024E4022343835033E0274B9A420BD8214D244C2859274B18401204F0231B031A4002432A5124E01B4E1E4D7459214B1C40130A1B04F02057
:4014C00000030340234373511A4B9A420AD874591B4B1C401205F020000402402300134373510AE00E4D114C2859164B18401206F0231B051A4002432A51074B5960074B82
:40150000074AD150002006E00F4804E00F4802E00E4800E00D48F0BDDC1400081C050000000026400F060000FFFFFF0014050000FF040000FF050000FFF0FFFFFFFFF0FFFC
:40154000FFFF0FFFFFFFFFF003004A0001004A0070B582B0A423DB001D4AD4582402220A0023009201931B4B00225A70002819D1009A019B1A4326D0164B58680A00002378
:40158000002101F00BFE009C019DEE07620832436B0880185941009A019B01F0DFFD0090019110E0009A019B0800002101F0F6FD084B5A685408002500196941002301F098
:4015C000CDFD009001910098019902B070BDC04600002640DC14000870B51A4BC318DA179B185340042B28D9174B184AD458A405A40D80231B02984208D9154B9C46604413
:40160000052101F035FC201A0DD509E0114B181A052101F02DFC00190F4B984202D802E0002000E00D48094D07496B589B0A9B028205920D13436B5001E000240020201AF0
:4016400070BDC0460080FFFF3C050000000026400280FFFF02800000FE030000FF030000F0231B06C3180F4A934201D8580A18E0EC231B06C3180C4A934204D85B0A802086
:40168000400218430DE0EA231B069C466044064B984204D8400A80229202104301E0012040427047FFFF0F00FF7F000010B50400FFF7D6FF431C03D0E40503D0002002E0C8
:4016C000002000E0012010BD214B984230D00ED8402831D004D800281FD010282AD031E080282BD080235B00984229D02AE0194B984229D007D8A0231B0698420DD0164BA1
:40170000984212D01EE0154B98420AD0144B984209D0144B984215D101E0002016E0124814E0124812E0124810E0A020C0030DE007480BE00F4809E00F4807E00F4805E06B
:40174000034803E00E4801E0A420C0037047C04606005200010000F0090000A0040000F0050000F0030000F0010052000200520003005200010050000200500005005200FC
:40178000FF00520010B50C4B1B69002B11DB0B4B1868FFF799FF0121094B0A4AD150084B084AD358002BFAD1074BD358002BF6D100E0064810BDC04600002340E814000835
:4017C0000C040000000025408C0400000200500010B5022202490020FFF79EFB10BDC0468D02000810B5FFF7CDFF10BD10B50400FFF75CFF002825D0FEF7E8FC124BE02282
:4018000052051A605C6000229A60DA600F4B19691A69120AFF2313405A1C0B0E013353430B4C5C430B4B1868FA21890001F020FB0100200001F01CFB074BC118002003F099
:40184000BFF800E0054810BDE81400080000214060F59000C4000008980800000600520070B504000D00FFF721FF002829D0002D29D0FEF7ABFC154BC022D2041A60832243
:4018800052005A609C60DD60114B19691A69120AFF2313405A1C0B0E013353430D4C5C430D4B1868FA21890001F0E2FA0100200001F0DEFAE1239B00C118002003F080F86A
:4018C00002E0064800E0054870BDC046E814000800002140808D5B00C400000806005200F8B506000D001400002800D142E1002A00D141E1072903D93921A04800F016FC0A
:401900002368012B03D93A219C4800F00FFC0F2362689A4303D03B21984800F007FC237A1F22934303D03C21944800F0FFFBE368032B03D93D21914800F0F8FB2369012B2E
:4019400003D93E218D4800F0F1FB6369012B03D93F218A4800F0EAFBA369012B03D94021864800F0E3FBE369032B03D94121834800F0DCFB236A012B03D942217F4800F096
:40198000D5FB636A012B03D943217C4800F0CEFBA36A012B03D94421784800F0C7FBE36A032B03D94521754800F0C0FB236B072B03D94621714800F0B9FB2768072D03D991
:4019C0006F49704800F0B2FB012F04D9BA2189006C4800F0ABFB002F03D10123AB40736002E00123AB40B3606768072D04D9E4218900644800F09AFB0F233A009A4303D07B
:401A00006149604800F092FBAA00B36A0F210800904083430F4097401F43B762277A072D03D95A49574800F081FB1F233A009A4303D05749534800F079FB564BF318DB09E7
:401A4000554A944663441B01032D0BD81A68E8001F2181408A4311001F223A4082400A431A600BE0291F5A68C9001F208840824310001F223A408A4002435A60E768082DE8
:401A800003D946493F4800F051FB032F03D944493C4800F04BFB6A00736A03210800904083430F4097401F4377622769082D03D93C49344800F03AFB012F04D9CA21C900B1
:401AC000304800F033FBB36901221100A9408B431740AF401F43B7616769072D03D93249284800F023FB012F03D93049254800F01DFBF26A01231900A9408C468A431F4036
:401B0000AF401743F7626F00103703210800B84062461043326B8243A0691840A8400243E0690140B9400A433263706BFF2294469043276A1F40636A5A00022313403B4323
:401B4000A26A9100042739400B431F00E36AD900182319403B000B43226B520161460A401343AD00FE2292001540AB4003437363002002E00E4800E00D48F8BD984C00105C
:401B8000E7020000D84C00109103000045020000460200000000CEBF00100304D4060000D50600004F060000D2030000D303000001005A0070B505000C00002848D0002992
:401BC00048D0FF230A689A4303D08D21224800F0ADFAFF2322699A4303D08E211E4800F0A5FAA3685B0D03D08F211B4800F09EFA63685B0A03D09021174800F097FAE36918
:401C00005B0F03D09121144800F090FA236A5B0F03D09221104800F089FA104BEB18DB090F4A944663441B0122682A60E268AA622269EA6262692A63A2686A626268AA611B
:401C4000A2696A63E2691A60226A5A60002002E0044800E0034870BD984C00100000CEBF0010030401005A00034A9369802149040B4393617047C04600F02540024A916917
:401C8000024B0B409361704700F02540FFFFFFFE10B5074A074813580F24A34302210B43135004381358A3431943115010BDC0460000214004F0000010B5074A0748135892
:401CC0000F24A34303210B43135004381358A3431943115010BDC0460000214004F000000449054A8858054B0340C020C00103438B5070470000214004F00000FF8FFFFF1B
:401D00000449054A8858054B03408020C00103438B5070470000214004F00000FF8FFFFF70B50400022805D0052803D01F49204800F0FCF900F099FA05001E4B5B690722BF
:401D400013409C422DD0022C0DD1FFF78DFFFFF79FFF18494B6907229343043A13434B61FFF7BEFF0BE013494B6907229343043A13434B61C82000F0CDF9FFF7C1FF0D4928
:401D80004B69072293431A000723234013434B61052C06D1C82000F0BDF9FFF78DFFFFF76DFF280000F065FA70BDC046EA050000184D00100000264010B50400012803D90B
:401DC0000D490E4800F0B2F9002C03D10C4B5869C00F00E00020012C0CD1094B9B695B0005D4074B9B69002B03DA012002E0012000E0002010BDC04641060000184D00100E
:401E00000000264070B504000D00072803D90D490D4800F08BF90D4B9B690722134021009C420DD0094882690726B243344014438461002D04D0994202D9C82000F06AF928
:401E400070BDC046A1060000184D00100000264070B50500012803D92A492B4800F066F900F003FA0400294B294AD3581F221340E822D200B02149058A5CD31A5A1E934198
:401E8000DBB29D4239D0002D14D1FFF7EDFEFFF7FFFE1F481D4943581F229343143A13434350FFF71DFFE823DB00B0225205D35CDAB211E01648154943581F229343143A88
:401EC00013434350092000F025F9FFF719FF114BB0225205D35CDAB20D4E0C4831581F23994313400B433350012D06D1092000F011F9FFF7E1FEFFF7C1FE200000F0B9F986
:401F000070BDC046ED060000184D00101CFF0000000026404107000070B5040000F0A5F9002C05D01A4B1B681F2B03D9002502E0002500E00125002D25D0E368002B1FD0BE
:401F40002368002B1ED0124B59680B00002203E0A34204D01A005B69002BF9D100E00025002D10D0002902D1094B5C6000E05461226100236361064A13680133136002E092
:401F8000002500E0002500F074F9280070BDC046F814000870B584B005000E00042803D929492A4800F0C2F8731EDBB2012B07D9042E05D0082E03D02549244800F0B6F877
:401FC000042E01D0012E1DD1224B5C68002013E023799D420FD1A368002B01D01E420AD1E36801A85A6842609B688360067023689847184B9C606469002C23D0164B98423C
:40200000E6D11FE0134B9C68022E02D1002C00D02469002011E023799D420DD1A368002B01D01E4208D1E36801A85A6842609B6883600670236898472469002C02D0064B58
:402040009842E8D104B070BD24080000184D001025080000F8140008FF00420070B50500012804D9972149001B4800F05FF81B4B1B68002B05D001210020FFF78BFF04003F
:4020800000E00024002C20D100F0EFF80600134B1B68002B03D004210020FFF77BFF104A136904218B431361012D01D030BF00E020BF300000F0DDF8084B1B68002B09D0D5
:4020C00008210020FFF766FF04E002210020FFF761FF044C200070BD184D0010F814000800ED00E0FF00420010B500F0BEF8074B5A6807490A40E824A40122435A605A68E0
:40210000114059605B6800F0B4F810BD00002640FF00FC0F10B5034B1B78584300F09CF810BDC046D400000801BEFEE770B50D00044C18220100200002F022FCA5610020CE
:40214000FFF7F2FF700500080122014B9A60704700002540054B802212069A649B6C002B01DB002000E002487047C0460000274003004600054B8022120198585B68FF22D0
:402180001A4202D08023DB021843704700002640FEE7C04610B50A4B0268DA6142681A6282685A62C2689A620269DA6242691A6382695A63C2699A63FFF7EAFF10BDC0460C
:4021C00070050008F0B5002801D0192200E064228A42924152421C4BE8256D005C590327BC433A4014435C515C59184E34405C51D03D5C59BC4322435A515A5916405E51EE
:40220000002805D010290DD921290DD8012014E01D290BD93A290BD957290BD978290BD803200AE0002008E0022006E0002004E0012002E0022000E00420054A13680F21A1
:402240008B4303431360F0BD00002140FFFCFFFF00002540000000000230800803D001300238FCD1C046C0467047EFF3108072B6704780F310887047042805D1094A116802
:4022800004230B4313600CE00006C0239B04184090239B00044AD050024A136804218B431360704710E000E00000214070B50378012B02D0082B40D045E00320FEF7DEFCA1
:4022C000244B984241D000F051FC01283FD0022003F0C0FB0500FFF7C8FF1F4B186003F0BDFB0400062817D0022D0AD1022005F0DFF8032C01D0052C10D1002810D0174C62
:4023000013E0012005F0D4F8022C0BD000280BD1FFF7A4FE114C08E0002406E00F4C04E0002402E00D4C00E00C4C0C4B9C420FD1094B1868FFF79DFF0AE0074B1868FFF7D1
:4023400098FF002404E0054C02E0044C00E0034C200070BD0101880024150008FF00420010B5002803D0044B5860002400E0034CFEF7B0F8200010BD2415000801001600B7
:4023800000B58BB028220021684602F0F1FAD7231B016A4693811B2313835383183B1377013353770C33D377202269468B5401328B5452334B8401223C3BCA540848FFF71B
:4023C000ABFD03F02FFB06A803F078FB002804D1044B0193684603F045FB0BB000BDC046E8000008AC050008014B024AD050704778F0010000003C4010B50BF0AFFD10BD8F
:4024000010B5024B1B68984710BDC0463815000810B5002809D0FA23FF33994207D80A00044902F09CFA002002E0034800E0024810BDC0460708001601001600F0B55F4682
:4024400056464D464446F0B4944CA54483460E0090460B00924A914204D942468A1891498A4211D9904A934204D94246B2188F498A4209D98E4A934200D8F3E04346F318E8
:402480008C4A934200D9F0E08B4B5B695B000AD5894B5B6907241C40022C07D10520FFF73FFC029403E00523029300E00294824B1B681B0214D4814B7F4AD3581F221A401D
:4024C000E823DB00B0214905CB5C9B1A5A1E9341DBB20393002B05D10120FFF7B9FC01E001230393F0231B069C466644730A99465C0200210320FEF735FB0028F9D100252A
:40250000002301938AE0B4421BD3BD4219D25A4652191078804604A84146C154514600290DD1802149058846A044414609786846017001781278914201D0012292460135CD
:4025400005E080225205A218127804A8C2540134013304E0002100238A4684464746584A9342D0D951466046B846002953D0C82300951D00B2464E46A14680231B03F71838
:402580007F023800FFF732F90400013D0120FFF7C1FDA423DB0322001A409A4201D1002DEBD122000194009D4C46B1465646454B9A4205D1FFF716F9434B9842FAD00190EF
:4025C000019B002B24D1C83300953D001F00A24604A92800FFF744F90400013F0120FFF799FDA423DB0322001A409A4201D1002FEED122000194009D5446324B9A4209D174
:40260000FFF7F0F8304B9842FAD00190012002E0012000E0012001239C46E144019B002B01D1454596D3002801D0FFF78DFD00210320FEF7DDFA0028F9D11F4B5B695B002C
:4026400005D5029B022B02D10230FFF769FB1A4B1B681B020BD4039B002B08D10020FFF7F7FB04E0194B019301E0184B0193184B0199994208D0154B994205D0002901D15A
:40268000002002E0134800E0134885239B009D443CBC90469946A246AB46F0BDECFDFFFFFFFFFF0F00001010FFFFFF1300800014FF070016000A0016000026401CFF0000B7
:4026C000FF01000001005000020050000600520002005200130016000100160010B5002808D0FA23FF33994206D80A000349FFF7A5FE02E0024800E0014810BD0708001648
:4027000001001600002070470020704710B5FFF701FD10BDA023DB00024AD358032018407047C04600002640024B034AD058C00F7047C0461C0500000000264010B5FEF70C
:4027400007FF10BD10B5FEF72FFE10BD10B5FEF743FF10BD10B500F02BFA0220FFF744FE094C236818680949FEF7EAF823681B6800229A5E002A05DB1F231A401E3B934052
:40278000034A136010BDC04628150008F923001000E100E00420704710B5FFF766FD10BD10B5FFF766FD10BD10B5FFF757FC10BD10B50021FFF726FB10BDC04610B5002013
:4027C000FEF768FC10BDC04610B5FFF7F7FF074B1B681B6800229A5E002A05DB1F231A401E3B9340024A136010BDC0462815000800E100E010B50020FEF726FC10BDC04651
:4028000010B5FFF7F7FF094B1B681B6800229A5E002A0ADB1F231A401E3B9340802204498B50BFF34F8FBFF36F8F10BD2815000800E100E010B5074B1960012201000020EB
:40284000FEF76AFB002803D100220349FEF764FB10BDC046381500080124001070B50B001500020000210120FEF7F6FA041E03D029000020FEF770FB200070BD70B50D0058
:402880000F4B184300040F4BD861FA24A40003E0013C0120FFF73EFC0A4B1B6CDB0701D4002CF5D1002C08D0064B196C01220A431A64DB6A2B80002000E0034870BDC046DE
:4028C0000080FFFF00003C400400160010B500040E4B184001430E4BD961FA24A40003E0013C0120FFF716FC094B1B6CDB0701D4002CF5D1002C06D0054A116C01230B43A4
:402900001364002000E0034810BDC0460000FF7F00003C4004001600F0B583B006000A24C02149017548FFF7D1FF002804D16B46991D7248FFF7A2FF002C01D0013C00E065
:402940006F48002805D16B46DA88C0235B019A42E6D1002825D16B46991D6A48FFF78EFF00281ED16B4606331B885B0519D40A248021C9006348FFF7A9FF002804D16B4683
:40298000991D6048FFF77AFF002C01D0013C00E05B48002805D16B46DA888023DB009A42E6D1002804D16B46991D5748FFF766FF002844D16B4606331B883F229343B278E2
:4029C000012A15D1F178012904D88FB20222D21B95B201E000250227402213439BB2302213436A46D380494BCB40494A136013E0F178002904D18FB20122D21B95B201E067
:402A00000025012740229343102213436A46D380404BCB403E4A13606B469C1DD9883943D9803948FFF752FFF378DB1B03221340AA0092B213432380374A38498B50B0231D
:402A40005B055B78002B04D0B0235B055B78DBB200E02123212B4FD0314BB0225205D35A9BB2002B48D0002804D16B46991D2D48FFF704FF002824D16B469A1DDB88602165
:402A80008B4318001380B0256D05254C2B5B60310B405B08034324490B401380295BC901F020C00001400B43204919401180285BC0239B000340DB00194311801948FFF72C
:402AC00005FF002804D16B46991D1948FFF7D6FE002811D16B469A1DD988C023994311800F4BB0204005C05A302303409B00194311800F48FFF7EAFE03B0F0BD021E0000C4
:402B000004001600031E0000091E00000048E801C00000080024F40064F0010000003C4016180000071E00007FF8FFFFFFE7FFFF061E000070B50C0040000849014308482B
:402B4000FFF7C4FE051E04D106490748FFF7BEFE05006001FFF7DEFA280070BD01100000081E0000376800000F1E000010B5002405E02000FEF7D8FA032804D00134042CB0
:402B8000F7D9002000E0012010BDC046A023DB00064AD35803221340012B03D0032B03D1012002E0012000E0002070470000264010B59CB02422002113A801F0D9FE154B23
:402BC0001693154C1894154B1A931B93242200210AA801F0CDFE124B0D930F94114B1193114B12932422002101A801F0C1FE0F4B049306940E4B089313A90E48FEF7DAFFCF
:402C00000AA90D48FEF7D6FF01A90C48FEF7D2FF1CB010BD666666660000FFFF1C1C1C1C66E6EE661C1A1A1A1A1A000066E666661A1A001C000132408001324000023240DF
:402C40000349044A8858102303438B507047C04600003C4070F00100F8B5051E00D1C1E0644B5B689B0301D5FFF73EFA624B634AD358DB0704D5624BD358DB0700D5B3E034
:402C8000FFF796FF5D4B5F495F4A99502A788021C9020A435D495A505D495E4A9950802252009B58DB0700D5A0E05B4B1B6F1B0709D45A4B18685A4B984206D9190000F0EC
:402CC000D7F8013802E0012000E000204B4B1B68002803D04003534A104300E052481843464B1860434B5B695B000ED501210320FFF788F83F4B5B695B000CD53D4A93694C
:402D00008021C9050B43936105E03C49474A8858032303438B50394C374AA658444B3343A3504020FFF7F6F9424BE358DB070BD42700404C01233B514020FFF7EBF9032333
:402D40003B514020FFF7E6F93B4B1E403B4B1E43294B2A4AD650FA24E40003E0013C0120FFF7D8F9364B374AD358DB0601D4002CF4D1002C01D0002400E0334C002C23D13B
:402D80001E49324A8858082303438B500120FFF713F8002801D108231E432D4B1E4001231E43154B154AD6502A4E03E0013E0120FFF7B0F9124B114AD358DB0701D4002EFA
:402DC000F4D1002E00D1204C002C03D12800FFF7A3FD0400002C0AD168782978FFF7AAFE040004E01C4C02E01C4C00E01C4C2000F8BDC04600002640A0F0010000003C408B
:402E0000B4F0010006000001A4F00100A8F0010001000100ACF0010000F03D40C800000800093D00041A0080040A0080C4F0010030000300B0F00100EFFFFEFF20000200D4
:402E400010400000000032400400160068F00100FFFFFBFFF07E0E00010016000300160002001600014B18687047C046C0000008002243088B4274D303098B425FD3030A77
:402E80008B4244D3030B8B4228D3030C8B420DD3FF22090212BA030C8B4202D31212090265D0030B8B4219D300E0090AC30B8B4201D3CB03C01A5241830B8B4201D38B036E
:402EC000C01A5241430B8B4201D34B03C01A5241030B8B4201D30B03C01A5241C30A8B4201D3CB02C01A5241830A8B4201D38B02C01A5241430A8B4201D34B02C01A524119
:402F0000030A8B4201D30B02C01A5241CDD2C3098B4201D3CB01C01A524183098B4201D38B01C01A524143098B4201D34B01C01A524103098B4201D30B01C01A5241C30867
:402F40008B4201D3CB00C01A524183088B4201D38B00C01A524143088B4201D34B00C01A5241411A00D20146524110467047FFE701B5002000F0F0F802BDC0460029F7D053
:402F800076E7704703460B437FD4002243088B4274D303098B425FD3030A8B4244D3030B8B4228D3030C8B420DD3FF22090212BA030C8B4202D31212090265D0030B8B421C
:402FC00019D300E0090AC30B8B4201D3CB03C01A5241830B8B4201D38B03C01A5241430B8B4201D34B03C01A5241030B8B4201D30B03C01A5241C30A8B4201D3CB02C01A35
:403000005241830A8B4201D38B02C01A5241430A8B4201D34B02C01A5241030A8B4201D30B02C01A5241CDD2C3098B4201D3CB01C01A524183098B4201D38B01C01A52419A
:4030400043098B4201D34B01C01A524103098B4201D30B01C01A5241C3088B4201D3CB00C01A524183088B4201D38B00C01A524143088B4201D34B00C01A5241411A00D2EB
:4030800001465241104670475DE0CA0F00D04942031000D34042534000229C4603098B422DD3030A8B4212D3FC22890112BA030A8B420CD3890192118B4208D389019211F2
:4030C0008B4204D389013AD0921100E08909C3098B4201D3CB01C01A524183098B4201D38B01C01A524143098B4201D34B01C01A524103098B4201D30B01C01A5241C30820
:403100008B4201D3CB00C01A524183088B4201D38B00C01A5241D9D243088B4201D34B00C01A5241411A00D20146634652415B10104601D34042002B00D549427047634691
:403140005B1000D3404201B5002000F005F802BD0029F8D016E770477047C046002B11D1002A0FD1002900D1002802D00021C943081C07B4024802A14018029003BDC046F7
:40318000D9FFFFFF03B4684601B5029800F050F8019B9E4602B00CBC7047C046F0B54F464646C0B41604360C9946330005042C0C070C150C63437E436F4365431C0CAD19C9
:4031C00064199C46A64203D980235B02984647446346250CEF191D044B464A4343432D0C240464199918C91920000CBC90469946F0BDC04670B500220C4B04000D0001F03B
:403200005DFA002804D12000290001F0B5F970BD064B00222000290000F05AFE01F0ACF980231B069C466044F1E7C0460000E041F0B54D46564644465F46F0B4924683B090
:4032400004000D0099468B422FD82CD04946504601F05CFA29000600200001F057FA331A9846203B9B4600D574E053465A4693401F005346424693401E00AF4229D826D0DC
:403280005B46A41BBD41002B00DA79E0002200230092019301235A4693400193012342469340009319E08242D0D900220023009201930C9B002B01D01C605D6000980199CB
:4032C00003B03CBC90469946A246AB46F0BDA342D6D900220023009201934346002BE8D0FB0772081A4346467B080EE0AB4201D1A2420CD8A41A9D41012024196D41002157
:40330000013E24184D41002E06D0AB42EED9013E24196D41002EF8D15B460098019900196941002B22DB2B005A46D3402A004446E2401C005B461500002B2CDB26009E4031
:40334000330026004746BE403200801A994100900191AEE7424620239B1A5246DA40414613004A468A4017001F4382E7424620239B1A2A0046469A402300F3401343D5E78C
:403380004246202300219B1A0022009101920122DA40019282E74246202326009B1ADE402F00B446974066463B003343C9E7C046F0B556464D4644465F46F0B41D000E0341
:4033C0004C00CB0F87B0070092468146360B640D98466AD06D4B9C4235D08022430F12041343F6001E43C3009946694B00279C460023644402932B0368001B0BED0F5146A0
:403400009B46400D009500D178E0604B98426CD05B46DA004B0F802109040B4313439B465346D9005A4B9C46002360444246201A6A40924601901F430F2F00D9B0E055489C
:40344000BF00C0598746374300D088E0002399460233082700260293CDE74346B34649460093029B009A9246022B00D0BFE1002153460122002689461A40444B00213603BB
:403480000C0D2405360B2643434C1B0526401E437600D207760816434846310007B03CBC90469946A246AB46F0BD330003434FD0002E00D1BCE1300001F00AF903000B3B3A
:4034C0001C2B00DDADE11D220100D31A08393A008F408E40DA40B9461643304B00279C46002360444442029385E753465A4613432CD1002300219B46023397E70B4320D0EF
:403500005B46002B00D19EE1584601F0E1F803000B3B1C2B00DD8FE102005946083A91408B461D21CB1A5146D9400B0059460B4351469B469140194B9C4660444042002302
:4035400074E7002300219B4601336FE703236DE70023994601330427002602934BE703230C27029347E70122D51A382D00DCB0E153461A4000210023002689467EE70023C5
:403580008026994600223603004B77E7FF07000001FCFFFF18580010FFFF0F80F30300005E4500D972E100D16DE1019B4D46013B01930023340002935B461E020B0E1E436A
:4035C0000B020393330C994633041B0C494620000093FFF74DFC009B370043430600494620009846FFF7CAFC2C0C09040C43A04509D9E419731EA74200D95CE1A04500D8DF
:4036000059E1023EE4194346E41A49462000FFF72FFC0300009A80465343494620009B46FFF7ACFC2A040904120C0A4393450DD94346D219013B974200D93AE1934500D804
:4036400037E102235B429C46D219E0445B46D21A4346360433439B460399180C0B0C1D00059309045B46090C0C001B041B0C4443049159436B4368431B190D0CEB189C42F8
:4036800003D980246402A44660441C0C09041B04090C20185D18824200D2DEE000D1D7E0161A029B9C465D1BAC459B415B42F61AB74200D106E149463000FFF7D9FB009B2E
:4036C00004004343494630009846FFF757FC2E0C09040E43B04509D9F619631EB74200D9F3E0B04500D8F0E0023CF6194346F31A494618000293FFF7BBFB009B0600434327
:40370000494602989846FFF739FC2D0409042D0C0D43A84509D9ED19731EAF4200D9D6E0A84500D8D3E0023EED192404210043463143049E059A3000ED1A0B040C0C1B0CE0
:4037400058436643534354439A19030C9B189E4203D980225202944664441A0C00041B04000C14191B18A54250D34DD001231943964A019B94466344002B00DCF3E64A07A5
:4037800009D00F220A40042A05D00A1D8A42894149428B4411005A46D20108D55A468C4B1A4093468022D2009446019B6344894A934200DD5BE65A46C908500708435602CE
:4037C000514601225B058146360B5B0D0A4055E680231B031E4211D05A461A420ED15E461E433603360B2A0089467B4B46E6032B00D1E1E0012BBBD11A40BBE61E43360366
:40380000360B4246744B39E6002BB1D07D194A1EAF4252D91100A542A8D1039A9A42A5D1A6E703003E00283B9E400023994654E600F04EFF203041E603005246283B9A40E4
:403840000021934677E6504600F042FF20305EE6029B0026AB4200D323E7039E0299B44661448846B045B6415B467642F619B218013B0291974213D290424FD800D18EE07D
:40388000161A9B460DE7894500D28EE674084B46F60735005B081D434B46DB0702938BE69742EDD10399029CA142E5D93E1A9B46F7E69846CAE61E00A5E6AC423ED874D06D
:4038C000110053E70121494252E71C000EE71E002BE71F2D3CDC20230A0058465B1B9840EA4099400243481E81415E461143EE404B0709D00F230B40042B05D00B00191D36
:4039000099429B415B42F61833023CD55346012200211A40002601238946AFE502235B429C46039CE344A446029B63449846A045B6417642F6190293B218B1E603988A1EA9
:4039400041008142B6417642F619AD19039161E71F225242D31A5A46DA401300202D29D040225846551BA8400143481E814107200B4318400026002809D00F2200261A40A5
:403980001900042ABBD10B0070077602360BDB0803439946012253461A4000236EE502998D42BBD89B4600267BE603989842C5D3110032E70020D7E780265B4636031E430A
:4039C0003603360B009A8946034B57E5FF030000FFFFFFFEFE070000FF070000F0B55F4656464D464446F0B40D0399464E002B0B87B00700924680469B46760DCC0F002EEF
:403A000069D06D4B9E4235D05B468022DD001204430F13432B439B46C3009846674B00279C460023664401934A4615035000D20F53462D0B400D914600D176E05E4A904257
:403A40006CD080225B0F120413435C4AED0094461D4353460022DB00604449463618701C6140029017430F2F00D9AFE05448BF00C759BF465B461F4300D088E000239B4630
:403A80009846023308270193CEE74946022A6AD0032A00D109E2012A00D0BBE111400022002300259046CCB200212D030A0D12052D0B1543434A1B0515401D436D00E4072E
:403AC0006D0825434046290007B03CBC90469946A246AB46F0BD034352D05B46002B00D18AE1584600F0F4FD03000B3B1C2B00DD7BE11D22D31A3A0001005D46DA40083933
:403B00008D4013008F402B439B46B8462E4B00279C46002360444642019385E752462A432CD100250023022297E752462A4321D0002D00D154E1280000F0CAFD03000B3B7B
:403B40001C2B00DD46E11D21CB1A51460200D9405346083A954093400D431B4A944660444042002279E7012400220C40124B0025904699E70025002301226EE703226CE7C8
:403B800000239B4698460133042701934CE703230C27019348E700238025984600242D03054B81E75D464346019A6FE75D4643462100019A6AE7C046FF07000001FCFFFFD2
:403BC00058580010FFFF0F80F30300004246120C91461A0C9446424617044A461B041B0C5A43604690464A4642431000039262461C003F0C7A437C4342440192220C92460F
:403C0000019A5244904506D98246802040028046C24450460390100C049048462404240C1204121905922A0C2D042D0C68432C00824648467C4350438146200C8046574320
:403C400057444744BA4503D9802040028046C144380C3F04B84648442404240C01900498A044404404905846000C814658460404200C8246070048465F434C464343604604
:403C800060436446834650464443380C8446E4186444A34203D980235B029C46E34448463F04230C3F0C2404E419574668436F4384464D46504655434243380C814662442A
:403CC0004A445B44944503D9802040028446654403983F04834604983F0C8446E344C345804140428246100484460198674484466744A344BC46A345A4419946D444644211
:403D00008742BF41D4458041E144A04699459B417F424042C8440743120CBA18A045A4415F423B0064422343D71843467D19DB0D6D021D435B465A02059B1A43531E9A41D5
:403D40005B46DB0D1A4343465B021343EA0107D501225C0813402343EA07029E13436D08574AB218002A4BDD580709D00F201840042805D0181D98429B415B42ED180300B1
:403D8000E80104D54F4A15408022D200B2184E48824200DDE7E60124DB08680718436D02530580462D0B5B0D0C407DE6802259461203114208D0154206D115432D0398464E
:403DC0002D0B4C46414B6FE65D4615432D032D0B3E4B69E603005546283B9D400023BCE6504600F075FC2030A8E60300283B9F400023BB46984689E600F06AFC203073E6B0
:403E00000124A61A382E07DD00220C4000230025904649E6029EA3E71F2E20DC20222C001800921BF040944093400443581E83411C43F540630709D00F232340042B05D02A
:403E400023001C1D9C4292415242AD182B021FD5012400220C4001230025904624E61F202C004042821AD440202E1CD04022961BB5402B43581E834107202343184000256E
:403E8000002809D00F2200251A401C00042AD8D1230068076D022D0B0124DB08034398460C40002300E60025E3E780220124120315432D0398462D0B0C40044BF4E5C046C1
:403EC000FF030000FFFFFFFEFE070000FF070000F0B557464E464546E0B40E001100F20F9246C500420F180337037400400A4E0F7F0A3043CF4E17435A00640D520DDB0FC0
:403F0000C900B24200D1E5E001267340A61AB446534500D1AFE0002E00DC0DE1002A3AD103000B4300D0E4E06B0709D00F232B40042B05D02B1DAB42AD416D427F191D001D
:403F40003B0200D488E0BB4B01349C4200D110E13A00B94B51461A4001235007ED08520264050543120B640D0B400021280012030D0D120B64052D0515436208AF4CDB07A1
:403F80002C401443640064081C4321001CBC90469946A246F0BDA74B9C42C5D080231B0418436346382B00DDFDE01F2B00DD30E1624620239B1A02009A40664690460A0044
:403FC0009940F24046464B1E99413243114363460200DA40691A8D429B410D00BA1A5B42D71A3B0235D57A02530A98464346002B00D1C4E0404600F06BFB0300083B1F2B29
:4040000000DDC5E020222900D21A4746D1409F400A009D403A439C4200DDC0E01C1B631C1F2B00DDE4E0202114002800C91AD8408C408D400443DA40681E8541170025438D
:40404000002471E7424663461A4300D14CE2674645466B0700D069E7012351467807ED08FA080B40054373498C4238D012036405120B640D79E7002E00DC9AE0002A47D0E6
:404080006C4A944200D14FE78022120410436246382A00DC08E10143481E81410022C9B24919D219A942BF410D007F42BF183A0200D442E15F4A0134944200D14EE10120A5
:4040C0005D4A69083A4028400843D507054357089A4629E706000E4300D017E714E72900114300D1F9E1802109030A431203120B3BE701235B429846C4446346002B72D1B4
:40410000691A8D429B413F1A5B42FF1A0D0068E702000A4300D107E7012252429046C4446246002A00D0E6E06918A942B6413F187642F7190D00BAE7002E00D080E0621CCF
:404140005205520D012A00DCF9E06A1A91464D45B6413A1A7642921B9046120200D499E04D1BA9428941C71B49427A1A90469A463CE752460123002513400022F5E6280085
:4041800000F0A6FA20300300083B1F2B00DC39E72A002838824000259C4200DC3EE7264FE41A1740C0E60143481E81410022C9B210E7002E00D0F1E0621C94465205520DF6
:4041C000012A00DCA0E01B4A944500D1C5E06918A94292413F185242D2194908D5070D4357086446A0E6134B9C4200D0D9E69BE611001F3CE1400C00202B00D180E04021A1
:40420000CB1A9A4015436A1E95410027254300241FE763460200203BDA406346202B71D0402366469B1B98400143481E814111430022CFE6FF070000FFFF7FFFFFFF0F80B8
:40424000002C48D0CA4CA24200D1A2E07442A1468024240427434C46382C00DDDBE01F2C00DD44E14E462024A41B3E00A640A246B0464C462E00E640B446464664462643E7
:404280005446A5406C1EA54134002C434D46EF400D1B28E04A4643464D461A4300D0A5E6002300240025DEE61F2A5ADC66462022921B060096409146B04662460E00D64057
:4042C000424616434A4691404A1E9141020060463143C240E4E63C002C435AD0F443A146002C52D14D1BA9428941C71B49427F1A14009A4675E69E4A944200D0C7E613E672
:4043000000227FE700208FE7002C00D0C8E03B002B4300D10FE103000B4300D104E66918A9429B413F185B42DF193B0200D41AE1904B0D001F406446F6E59A4689E63A00B0
:404340002A43002C5CD1002A75D102000A4300D1CAE007000D009A46E6E564460022002581E662460600203AD6406246B046202A00D1B7E040226646921B90400143424661
:40438000481E8141114300228AE6794CA24200D061E707000D0014009A46C5E5002C41D13C002C4378D0F443A146002C20D0704CA24271D04C46382C00DDB2E01F2C00DDA3
:4043C000BCE02026341BA2463C005646B4404E46A0462C00F440A446444666463443A4465446A54064466E1EB54125434C46E7406D188D4289413F184942CF19140056E679
:40440000002A2FD102000A4300D184E007000D009A46574C88E53D436F1EBD41ECB200270D1B60E7524CA24236D0744280263604A1463743BEE702000A4300D174E56A1A6A
:4044400090464545B6413A1A7642921B9446120200D4F7E54D1BA9428941C71B49427F1A9A4661E502000A433AD0ED087C072C438025FA082D032A4208D0C7082F4205D1D4
:4044800045072C003A009A46C9080C43670FD200E5001743364C47E507000D00140043E53A002A4343D002000A4319D0ED087C072C438025FA082D032A4207D0C6082E4294
:4044C00004D147073C003200C9080C43D700620FE50017439A46264C26E50022002544E5234C21E5002049E700230025BBE54C463E00203CE6404C46B446202C31D040247B
:404500004E46A61BB7403D436C1EA54164462C4300270D1BE7E6802200231203144C0025A1E53D436F1EBD410027EDB260E707000D000F4CF8E407000D00F5E44E463C0005
:40454000203EF440A0464C46202C0ED040244E46A41BA7403D436F1EBD4144460027254346E70027CFE70D0073E50027F2E7C046FF070000FFFF7FFF0B0330B5134D1A0BD6
:404580004B005B0DC90F0024AB4211DD104CA34210DC8024640322430E4CE41A1F2C0CDD0D48C31ADA4013005C42002900D11C00200030BD094BCC18FAE7E040084CA446B1
:4045C00063449A4013000343EEE7C046FE0300001D0400003304000013040000FFFFFF7FEDFBFFFF70B5051E28D000F071F8154B154A1B1AD21A1F2A16DD2C00134A0025D1
:40460000D21A94405A052403240B520D002124030B0D240B1B0523430D4C1205234013435B002800590870BD0B212C00081AC440954024035A05240B520DE7E700220024DC
:40464000E4E7C0461E0400003304000013040000FFFF0F808446101C62468C46191C634600E0C0461FB500F001F9002801D40021C8421FBD10B500F055F84042013010BDF4
:4046800010B500F0F3F8002801DB002010BD012010BDC04610B500F0E9F8002801DD002010BD012010BDC04610B500F07BF8002801DC002010BD012010BDC04610B500F035
:4046C00071F8002801DA002010BD012010BDC0461C2101231B04984201D3000C10391B0A984201D3000A08391B09984201D30009043902A2105C40187047C0460403020284
:4047000001010101000000000000000010B5002903D1FFF7DDFF203002E0081CFFF7D8FF10BDC046F0B55F4656464D464446F0B41F035C00DB0F9A46194B0E034D00C90F62
:404740008046360B6D0D8B4691463F0B640D9D4219D0134B9C421BD00123A54206D018003CBC90469946A246AB46F0BDBE42F6D1C845F4D1D34510D0002DF0D13043030045
:404780005A1E9341EBE7310001230143E7D1E0E73A430123002AE2D1DEE70023DFE7C046FF070000F0B55F46444656464D46F0B41F033C0B2C4F0E034D00A3465C00844693
:4047C000360B6D0DC90F9046640DDB0FBD422BD0254FBC422ED0002D0ED130430700814678427841002C17D15F463A4314D14B460020002B0AD006E0002C02D15846024332
:4048000001D099421AD00123484218433CBC90469946A246AB46F0BD0028F2D058425841012240421043F1E737000743D0D002204042EBE75F461743CDD0F8E7A542E2DC02
:4048400005DB5E45DFD808D000205E45DED248424841012340421843D8E7C445D3D80020C445F4D3D2E7C046FF070000F0B55F464D4644465646F0B41C03240BA4462F4C1D
:404880000F034D005E00C90F80463F0B6D0D8B469146760DDB0FA54220D0284CA64222D0002D12D1384344424441002E20D0002C0DD05C42634101245B421C4320003CBC67
:4048C00090469946A246AB46F0BD002E17D05B4519D05B465C4201231C43EFE7390002240143EBD1D9E7614602241143E6D1D7E761460A43DBD100240028DFD0E9E7614680
:404900000A43E4D1E5E7B54203DD01225C421443D4E7B542CDDB6745DBD809D000246745CCD259464C426141012449420C43C5E7C845CED80024C845F3D3BFE7FF070000EA
:4049400030B50024A24208D0035D651C0C5DA34201D0181B02E02C00F4E7002030BD002310B59A4203D0CC5CC4540133F9E710BD03008218934202D019700133FAE77047F8
:40498000030030B5002A0DD00C7801335D1E013A2C700131002CF5D19A189A4202D01C700133FAE730BD0000F8B5C046F8BC08BC9E467047F8B5C046F8BC08BC9E46704760
:4049C00001B40248844601BC604700BFB90200080300000001000000010000000000000005036000040000000100000000000000010000000604600008000000A81400085F
:404A0000B10400100300180003000000F4010000140004010A0009050800000063010000030000000000000000000000680000000000000000000000000000001212000072
:404A400000000000000000000000000000000000000000BA0000000000000000000000000000000000001D1D80000000000000000000000000000060000000000000000062
:404A80000000000000000000000000001C0800102808001034080010400800104C0800105808001064080010700800109C080010A6080010B0080010BA080010C40800101E
:404AC000CE080010D8080010E208001047656E6572617465645F536F757263655C50536F43365C70646C5C647269766572735C7065726970686572616C5C737973696E741B
:404B00005C63795F737973696E742E630000000047656E6572617465645F536F757263655C50536F43365C70646C5C647269766572735C7065726970686572616C5C6970A9
:404B4000635C63795F6970635F6472762E68000047656E6572617465645F536F757263655C50536F43365C70646C5C647269766572735C7065726970686572616C5C6970C4
:404B8000635C63795F6970635F6472762E63000047656E6572617465645F536F757263655C50536F43365C70646C5C647269766572732F7065726970686572616C2F6970E3
:404BC000632F63795F6970635F6472762E68000047656E6572617465645F536F757263655C50536F43365C70646C5C647269766572735C7065726970686572616C5C697071
:404C0000635C63795F6970635F706970652E630047656E6572617465645F536F757263655C50536F43365C70646C5C647269766572735C7065726970686572616C5C737993
:404C400073636C6B5C63795F737973636C6B2E630000000047656E6572617465645F536F757263655C50536F43365C70646C5C647269766572735C7065726970686572616D
:404C80006C5C737973636C6B5C63795F737973636C6B2E680000000047656E6572617465645F536F757263655C50536F43365C70646C5C647269766572735C706572697014
:404CC000686572616C5C6770696F5C63795F6770696F2E630000000047656E6572617465645F536F757263655C50536F43365C70646C5C647269766572735C70657269700D
:404D0000686572616C5C6770696F5C63795F6770696F2E680000000047656E6572617465645F536F757263655C50536F43365C70646C5C647269766572735C7065726970C7
:404D4000686572616C5C737973706D5C63795F737973706D2E6300007C01000031010000090901120C00FF0380ABCDABCD80409C1B04041BFFFFFFFF000000000410080027
:404D800007070400F216FBE0FBE01F60427EF56D720096BE2090000010502604060037D7F401FA00960064004B0032001E00140003040506020D1100B9E200101DE20010EA
:404DC0006FE800106DE300101FE400101BE8001033E80010F5E8001099E4001001E50010DDE600100BE7001043E9001009E80010D7E80010D7E80010D7E80010B1E7001004
:404E000059E700109DE700102D1E0110391E0110612D0110492E0110552E011069E30010B7E20010B3E800101DE4001057E400102BE800104DE8001041E90010FDE4001070
:404E400059E50010F7E6001031E70010AFE9001013E8001041E9001041E9001041E9001001E8001041E9001041E9001041E9001041E9001041E9001041E9001041E90010DF
:404E8000A7FE0010AFFE0010ABFE0010A5FE001083FE00107FFE00109DFE00109BFE001077FE00107BFE0010B3FE00109FFE001099FE0010B7FE0010B7FE001075FE001072
:404EC000A3FE001095150110491901100D170110B9140110C90701107D0401104D0F0110910A0110E9FF00104D000110A11A0110D9120110290A0110FD030110D90E0110C9
:404F0000D962001089130110411B0110BD1E011009200110DD200110F91C01109D1B0110451E01107D1C0110A71C0110B71C0110B91C0110BD1C0110D7E80010A91C01109E
:404F4000B31C0110B11C011061310110592B0110CD3001107D30011019310110612E01106D2D0110052E0110C92E0110EDC600107B2B0110712B0110772B0110752B0110F2
:404F8000792B0110732B0110D7E80010D7E80010D7E80010C1B50010494401102B4401102B4401102B44011061440110258101102B440110158101102D8101101D8101107A
:404FC000E3480110DB480110454801103D4801103B44011023440110194401103F4401103548011065480110334401105D480110BD4801102B4401106D480110554801106F
:405000004D4801102B4401106944011071440110794401102F4401102F440110494401102B4401102B4401102B44011061440110258101102B440110158101102D8101107F
:405040001D810110E3480110DB480110454801103D4801103B44011023440110194401103F4401103548011065480110334401105D480110BD4801102B4401106D480110ED
:40508000554801104D4801102B4401106944011071440110794401102F4401102F440110796A01106D6A0110856A01102F4401102F4401100568011041680110116801101C
:4050C00035680110296801101D6801104D68011059680110616A0110616C0110656C0110716C0110496C0110556C01102F4401102F4401102F4401102F4401102F4401107C
:405100002F4401102F4401102F4401102F4401102F4401102F4401102F4401102F4401102F4401102F4401102F4401102F4401102F4401102F4401102F4401102F4401102F
:405140002F4401102F4401102F4401102F44011065680110A35E0110515D0110515D0110515D0110D55E0110655E0110515D0110495E0110155F01105F5E0110EF5E0110B2
:40518000E55E0110D35C0110515D0110515D0110515D0110575C0110335E01107D5C0110B55E0110DB5D0110EB5D0110655D0110515D01102B5F0110A15D0110935D0110CB
:4051C000515D01101F5E0110635F0110515D0110515D0110515D0110296A01101D6A0110356A0110E95D0110835D0110516701108D6701105D670110816701107567011095
:405200006967011099670110A5670110116A0110016C01100D6C0110196C0110E96B0110F56B0110515D0110515D0110515D0110515D0110515D0110515D0110515D011026
:40524000515D0110515D0110515D0110515D0110515D0110515D0110515D0110515D0110515D0110515D0110515D0110515D0110515D0110515D0110515D0110515D01103E
:40528000515D0110515D0110B1670110D3610110016101100161011001610110176201107D61011001610110C5610110C56101106F6101102D6201101B6201107D60011052
:4052C000796001105D61011011600110036001100360011015600110F761011031610110456101100561011001610110616201101D61011009610110016101106161011034
:405300007D620110796201100161011001610110556901104969011061690110A5620110FF5F011099660110A1660110AD660110B9660110A1660110A1660110C5660110CF
:40534000D16601103D6901100D6B0110196B0110256B0110F56A0110016B011001610110016101100161011001610110016101100161011001610110016101100161011077
:4053800001610110016101100161011001610110016101100161011001610110016101100161011001610110016101100161011001610110016101100161011001610110BD
:4053C000DD66011008000000060F0020200107021900000007070E05020220001C1202000103000E03060004004027070000070701020002030703040000000000000000B3
:405400000000000000000000000000000000000000080000A35E0110515D0110515D0110515D0110D55E0110655E0110515D0110495E0110155F01105F5E0110EF5E0110D5
:40544000E55E0110D35C0110515D0110515D0110515D0110575C0110335E01107D5C0110B55E0110DB5D0110EB5D0110655D0110515D01102B5F0110A15D0110935D011008
:40548000515D01101F5E0110635F0110515D0110515D0110515D0110D3610110016101100161011001610110176201107D61011001610110C5610110C56101106F610110B6
:4054C0002D6201101B6201107D600110796001105D61011011600110036001100360011015600110F761011031610110456101100561011001610110616201101D610110D7
:405500000961011001610110616101107D62011079620110016101100161011008000000060F0020200107021900000007070E05020220001C1202000103000E032000803E
:405540000000C00000000004000000A822000000000000040000F7FFFF7F0000003000000000000000000000000000000000000000000000000000000000000000000000F5
:4055800031650110E96601105166011091650110F76601107966011061650110056701105D6601108F650110096701107566011079650110F76601106D6601106365011003
:4055C000F766011065660110A76501101567011081660110AD6501102567011089660110515D0110016101102F440110515D0110016101102F440110515D01100161011061
:405600002F440110515D0110016101102F440110515D0110016101102F440110515D0110016101102F440110515D0110016101102F440110515D0110016101102F44011058
:40564000BB6501103D67011091660110515D0110016101102F440110515D0110016101102F440110515D0110016101102F440110515D0110016101102F440110515D0110A5
:40568000016101102F44011075680110856901102B6901107368011079690110236901109B680110D169011033690110716801106D6901101B690110515D01100161011041
:4056C0002F440110515D0110016101102F440110515D0110016101102F440110515D0110016101102F440110515D0110016101102F440110B16A01106D6B01100000000039
:40570000BF6A0110816B0110A12F0110CD6A0110AB6B0110D12F0110916A0110316B0110552C01109F6A01104F6B0110712C011030303031423830303031303230333034CE
:4057400030353036303730383039304130423043304430453046313031313132313331343135313631373138313931413142314331443145314632303231323232333234CB
:40578000323532363237323832393241324232433244324532463330333133323333333433353336333733383339334133423343334433454142000026002B003000360088
:4057C0003C0043004B0055005F006A00770086009600A800BD00D400EE000B012B014F017801A601DA01130254029D02EE024A03B1032404A5043605D9058F065C0742085D
:405800004409650AAA0B160DAF0E79107C12BD1445171C1A4B1DDE20A03500106E3400107435001064340010743500107E35001074350010643400106E3400106E340010FE
:405840007E350010643400105A3400105A3400105A340010D0370010CC3B00108C3A00108C3A00108A3A0010A43B0010A43B0010963B00108A3A0010A43B0010963B0010D2
:40588000A43B00108A3A0010AC3B0010AC3B0010AC3B0010AC3D001000000000F8B5074600256846058078683C1D30492E46002807D06268002A06D0800702D1207A80078B
:4058C00001D00D464FE0FCF745FFFCF799FFFCF761FF00F033F900283DD1788C0006C00F00F0AAF905460004000C34D12049084600F0ACFE0004000C2DD12289A17A206875
:405900001C4C002806D02060A280E68021810021FFF72EF8684601F0F3FC054616486B460078E2888000001DC1B21B88A088D418A04206D3C01A801A80B201F093F9044661
:4059400000E00E4C00F04CFD002C04D100F084FB0B480121817000F0FFF8002D03D001F069FB074806702846F8BD000001001600115B0010401700087C170008FFFF00002F
:405980000001000810B5094CA07801280AD06078012806D12078002803D101F026FB0020607010BD00F0FEFF10BD00000001000810B5FCF7AFFE032801D100F0F5FD00F077
:4059C000F3F901F01FFD00F073FE02490020887010BD000000010008004870474017000870B5044600208A0703D08A07920F891A091D084B89B2DA889E885518B54206D870
:405A00001D68AA182260DA885118D98070BD024870BD00004017000803001600004870474C17000810B501F00BFC10BD0549002806D0054981800521017000214170817074
:405A400008467047010016008203000010B5FFF799FF10BD10B501F0FBFB10BD10B501F009FC10BD38B50546002069460880002D09D0284601F00AFD0446684601F034FC50
:405A8000002C02D015E00C4838BD01F0EBFB2846FFF704FF04000CD1284601F07FFC040007D1FCF737FE032803D100F053FD00F091FD204638BD00000100160038B5044647
:405AC000002069460880002C08D06189090A05D1617A102902D8E179102901D90A4838BDA0816946204601F09DFC05466946A08909884018A081002D04D110222146034803
:405B0000FEF72DFF284638BD010016004C1700087047000010B5084900200978002909D005F040FF044605F003FE201A80B281004018C00810BD00000801000810B5FDF7D7
:405B400037F8442202490348FEF709FF002010BD5C4D00105C17000810B5FCF735FE10BD10B51A46034C01F0C3F9002800D00024204610BDFFFF000010B501F0C9FA10BD70
:405B800010B501F027FA10BD010010B5044806D0044A01201070002007F054FE002010BDFFFF00000801000870B50024034D20462C7007F075FE2C70204670BD08010008C0
:405BC00001480078704700000801000870B5591C89B24C080B4D64000021451906E028685054000A5618891C707089B2A142F6D3D80705D0D0182038D15CC47FD454C177F6
:405C000070BD000000103C4030B50A4C002100195B1E07E054186478555C240225430560891C89B29942F5DB994201D1515C016030BD000000103C40F8B50746FF2000F022
:405C4000F3F9164EFF2070701548164900684018406B0024410F301D0125022901D0457000E0447005700D48801C4470384612F0BDFA070010D112F0FBFA3070012000F0A1
:405C8000D3F912F0FFFA68460470447012F064FE6846457012F060FE3846F8BD090100080401000840F03D40F0B50021094D5B1E08E0441924685718260A7E705454001D69
:405CC000891C89B29942F4DB994202D1401900685054F0BD00103C4070B500210A4E5B1E09E0541864782502545C2C4385192C60001D891C89B29942F3DB994202D1515C15
:405D00008019016070BD000000103C40F0B50599091FCFB200217E1E0AE054186478555C24022543144C04192560001D891C89B2B142F2DBFC0710D01C78515C24020E4A35
:405D40000C4381180C609C785D782102001D294384182160001DD9780BE059781A7809021143054A84182160D978001D9B780902194380180160F0BD00103C4038B509483E
:405D80000024447012F07EFA69460C704C70684612F0E2FD012069464870684612F0DCFD002038BD0B01000810B501F05BFA0A480078012805D1FCF7D9FE012809D012F03F
:405DC000AFFE05490020891E0870062000F02CF910BD12F08FFEF4E70B01000810B50B460B281BD00ADC012811D0032813D0062803D11146184612F02DFD10BD112811D0E7
:405E00001228FAD11146184612F096F910BD0020FFF712FF10BDFFF7B1FF10BD04480078107010BD1146184612F096F910BD00000D010008F8B5184D184E28688019846A1A
:405E4000E00719D001F04AFA0127012811D1002001F016FB052000F0E7F81149FF204870881C4078002804D128688019416B39434163286880198762E0050CD50848801C91
:405E80000078052802D1042000F0CEF8FF202968013089198862F8BD0401000840F03D40090100080549002805D005494A7842700978017000210846704700000100160066
:405EC0000D01000838B504000C4816D06178012913D801F0C7F9607812F0F4FC207000280AD169460870684600F090F869460878012801D104202070002038BD010016000E
:405F000010B5094900280CD00278082A09D24278042A06D205494A700078087012F0B2F90021084610BD0000010016000D01000810B504460448032C05D801F093F92046A7
:405F400012F0CCFC002010BDFFFF160010B50400054808D06178012905D801F083F9204612F0FAFC002010BD0100160010B5FCF7FDFD0122084992040028084B086804D03E
:405F8000C018016A1143016210BDC018016A9143016212F0CFF810BD0401000880F03D400949087805280ED14A780848084900684018002A03D1416B490849004163C16AFC
:405FC00001221143C16270470B0100080401000840F03D4001480078704700000B01000802484078022800D00120704709010008012807D0032807D0042803D0052803D00F
:40600000FF207047012070470220704710B5040002D012F0E5F8207010BD000001494870704700000B01000810B50446FCF7E8FB062C01D9FF2C01D102480470FCF7C4FBD7
:4060400010BD00000B010008014948707047000009010008002070471CB5002469460C700A2001902346054A054800F0F5F904480068401C00D1034C20461CBDCD60001033
:4060800010010008FFFF00003EB50F4A01460D4800230124126800290BD0012908D168460093048143816946104600F0D0F980B23EBD68460093048143816946104600F024
:4060C000C1F9F4E7FFFF00001001000810B50089002100280BD0012802D0052807D103E000200DF0E9FD02E0084600F0F5F8002010BD000010B50248006800F035FC10BD3D
:4061000010010008FFB581B01F00154606463CD001F0A8F8FCF774FB2F49304B4878401CC0B2044606E02201D218127A202A2AD0641CE4B2202CF6D3002406E02201D218CC
:40614000127A202A1FD0641CE4B28442F6D32024202C1AD03470029821490202120A200602432001C61872601F501B4869180078009120280CD0FFF7CDFC0746BD4223D3B6
:40618000281AF0601BE04C70E2E7164805B0F0BD13484042854207D9FFF7F6FC014611488142F3D0009807E0A8B2FFF7EDFC01460C488142EAD00020F060074804703472D2
:4061C000FCF702FB0020E1E7FFF7EEFC781B012100F01EF9DCE7000014010008A0170008C063FFFFFFFF000070B5074CA5780E2D07D2FFF787FF002802D1A178491CA170BE
:4062000070BD024870BD000014010008FFFF0000F8B520280BD2234D07017C19207A202805D001F01FF8E068002802D031E00120F8BDFCF7E5FAFFF76DFC012100F0E8F8B5
:406240000020184EE060FFF7AFFCFCF7BDFA00F0ADF80546202819D0FCF7D2FA280186191148F168814205D90646FFF78DFC0021304604E088B2FFF787FC0021F06800F0C0
:40628000C7F8FCF7A1FA0948057002E00749202008702020034920720020C8516060E060F8BD0000A0170008409C00001401000810B5074CA178002908D0FFF7A9FF002825
:4062C00002D1A078401EA070002010BD014810BD14010008FFFF0000F0B500258BB02E46089500F0BFFF00236A4618462C49040161180C7A202C02D0C96800291DD0002133
:406300001154401CC0B22028F0D300240993099800280FD06846005D00283BD020482101081806684168089100210160202241600272C160002D04D028E0012111540B4644
:40634000DFE700F033F80546202819D0144829010818C7681348874207D90021074600F057F8FCF74DFA384606E00021384600F04FF8FCF745FAB8B2FFF706FCFCF724FA21
:40638000094805700998002808D00125002E01D00898B047641CE4B2202CB8D30BB0F0BDA0170008409C00001401000830B50023DB432020094C00210A011219157A202DBF
:4063C00006D0D268002A03D09A4201D808461346491CC9B22029EFD330BD0000A017000830B50020084C05462023020111190B72A550401C4D60C0B2CD602028F5D3034814
:406400000370457030BD0000A01700081401000830B50B4D00231A015219147A202C0AD0D468002901D0241804E0844201D9241A00E00024D4605B1CDBB2202BEBD330BD6B
:40644000A017000810B50EC900F0A6FA10BD10B50EC900F0D9FA10BD38B50024E443054600290AD0052000904B68097804A000F037FA2860401C00D00024204638BD0000D1
:406480007461736B000000000EB5002005216A46009011815081034869460068FFF7D7FF0EBD00001001000810B51D481D4C0178491E0170FF206070FCF736F9002825D059
:4064C000FCF7D0FC01460020FCF738F9FCF73EF9411C14DB80B2012811D862881248824208D0124B0021601CFFF77EFE002802D10220207010BD0D2010F0EFFD10BDFF20CD
:40650000F530FCF703F900F065F810BD0548084B02220021401CFFF767FE0028EBD110BD1601000818010008FFFF00006D650010A964001010B503480078042801D100F02D
:4065400049F810BD18010008014800787047000018010008044800210170FF214170FF21F5314180704700001801000806490878401E087005480178012901D003210170CA
:40658000FF21417070470000160100081801000801494880704700001801000801490870704700001801000810B5054C6078FF2803D000F007F8FF2060700020207010BD4C
:4065C0001801000810B502484078FFF771FE10BD1801000810B5FF22043280210820FCF7B1F80B4C6078FF2801D0FFF7EBFF0848084B04220021401CFFF7F6FD002803D0AE
:406600000D2010F06AFD10BD0120207010BD000018010008A9640010C0080A21484380B20849C82801D2084809E002461923C83A5B019A4201D2400801E0FF20F53048807A
:406640007047000018010008FFFF000010B50F4A002313600E4A13600E4B18600E4801600E49012008600E490860882090600E490C4808600D49143008609C38506000F07D
:40668000BFF800F0E5F9002010BD0000340100081C010008480100084C0100083801000828010008281A00082C0100084001000800207047014610B50020002910D0094BC6
:4066C0001A689C685118A14209D25868196080188A0704D08A07920F891A091D196010BD002010BD1C010008F8B50024164E671E321F3D463168136806E0142262431032BF
:406700008A58521C1BD0641C9C42F6D36A1C14D02C461422544322460C3288500C214843FFF7C8FF3168002808510AD031680020103408517068401C70602846F8BD25467F
:40674000E4E73846F8BD00002C010008F3B50026F64381B000281BDB1E490968884217D80299002914D01B4F142204463F1D54432546396810354859401C09D0FCF740F828
:4067800038682F1F4159C359994203DBFCF71CF83046FEBD214608310091465801590C20704308180C220299FEF7D9F80948761C001D0068C159B14200D100260549009A39
:4067C000091D865008684159491C4151FBF7FCFF0020FEBD28010008002803DB07490968884202D90020C043704704491422091D0968504310300858704700002801000828
:40680000F0B500200D4A451E0346171F50600FE014260146714314680E1DA3510C461668083433511668083435511468401C635039688842ECD30020F0BD00002C01000864
:40684000F3B50026F64381B0002841DB2349096888423DD8029900293AD0204F142204463F1D54432546396810354859401C2FD0FBF7C6FF3868415900292BD0211D0091FF
:4068800046580C21005971430F46C1190C220298FEF765F811480021001D0068761C00590C34C0190160416081600C48001D00680159B14200D100260849009A091D8650CD
:4068C00008684159491E4151FBF77EFF0020FEBD3046FEBDFBF778FFFAE7000028010008FEB504460D4600201E49089E0860471E009001900290002C11D0486885420ED23E
:40690000002A0CD0002E0AD0642E08D808460C3001681C2068430C18207A002801D03846FEBD0120226020721846FFF7DDFE6060401C13D06681A6810A4827610C306761BE
:406940000179A94200D205710021684601810A462846029B00F058F82846FEBD00202072DDE700003401000810B5002810DB0949496888420CD807491C220C31096850434A
:4069800008184068FFF728FF002801D0002010BD012010BD3401000838B50124009400F039F838BDFEB50027164EFF433D4600240EE01C20316860430818017A002906D0FE
:4069C0004068FFF709FF002801D0254603E0641C3079A042EDDA681C12D01C2130684D434419FBF70DFF69466068FFF729FF0546FBF7EAFE002DD9D1216868468847D5E75F
:406A0000FEBD00004001000838B50024009400F001F838BD1FB500220C49541E0A60002811DB496888420ED808491C220C31096850430818406801A9FFF788FE401C02D047
:406A4000002004B010BD2046FBE7000034010008F0B50021114A4D1E174611710C3F0B46BD6016E008461C2460431668041D355114680646235014680836A3551468361DC4
:406A8000A353044616680A34335318301468491C255078688142E5D30020F0BD4001000838B500210091002811DB0F49097888420DDA0D4D04010C3529680859002807D077
:406AC000201D0818694600F073F9002801D0002038BDFBF795FE28680F34015D491E0155FBF772FE009838BD50010008F7B582B0002502986E1E06602F48D21C02401746D2
:406B00002E4A2C4610460C380178106805E02301C358002B0FD0641CE4B28C42F7D3711C29D03401211D40180191039900F02EF9002820D101E02646F1E7204801682046F9
:406B40000C300F521D480399026820460E3011541A480399026820460F30115403993846484300F0A1F8154900280968085102D00024009011E001251AE010480168019823
:406B80000818009900F02FF9002801D0012502E00098C0190090641CE4B203988442ECD3002D05D10298054906600879401C0871284605B0F0BD0000FCFF00005C010008F5
:406BC000F8B50D4600216A468C461180002839DB23490978884235DA214B04010C3319680A59002A2ED020460C300B5A801C0E5C184670438018954224D3854222D2002044
:406C000006E007465F43BF18AF4206D0401CC0B2B042F6D36046002814D0114E271DC8190C366A46294600F008F900280AD168460088012808D030682946C01900F0D3F8FB
:406C4000002803D00120F8BD0020F8BDFBF7D8FD30680F34015D491C0155FBF7B5FDF3E750010008F8B50F46002400F031F8002817D10C4900220B460C334A600EE02101CC
:406C80001D680E466A501D680C36AA53B61C1D680F31AA551D68641C6A54E4B2BC42EED31A71F8BD5001000800280BD0C01C074A81085068890053884118994203D8936857
:406CC00051601818704700207047000050010008F8B5064600200F4D009029700C0121466846FEF77DFE00280CD129460C3100980860301B001F84B221466846FEF770FED3
:406D0000002801D00448F8BD6C800098A8600020F8BD000050010008FFFF0000F8B5002827DB19490978884223DA174C05010C342168485900281CD028460C30085A00909D
:406D400028460E300E5C401C0E5420682F1DC01900F064F800280CD12068002445590EE0094829460C300068C01900F03CF8002801D00120F8BD00982D18641CE4B2B442F0
:406D8000EED30020F8BD00005001000830B50D4604000BD0A800FFF787FF6060002805D000202570C0436080002030BD012030BD70B50D46040005D0002D03D00220205E48
:406DC000002801DA012070BDFBF71AFD0221615E60688900405828606088401E6080FBF7F3FC002070BD70B50D46040007D0002D05D002212078615E401E814201DB0120A5
:406E000070BDFBF7FDFC6088401C00B26080616880000D50FBF7D8FC002070BD10B5040009D0227800216068FDF7A2FD0020C0436080002010BD012010BDF0B500231D46EA
:406E4000002802D00224045F0AE00120F0BD46689F00F6598E4201D1012503E05B1CDBB29C42F4DA15700020F0BD0000F7B5002584B0160A17462C46009501950295012EA9
:406E800002D0022E1ED10BE0042203A80499FDF766FD6846857B04992D1D2A4605980FE0042203A80599FDF75AFD6946CA89497B101D890685B2890F0598049914D0001D5A
:406EC000FDF74DFD2A46094D01232D6830460599A847684604704670078104980190684600F017F907B0F0BD0830E9E76401000810B5024806C000F09DF810BD640100082A
:406F000005490978002905D0044B81885B68806801221847704700000001000864010008FEB50446294800210078002814D06078012815D0022812D1009120690190684673
:406F4000C588281D86B210F09FF8A84202D3A088B04215D008201EE01D4901200870FEBDA06800F0EBF9002202A9012010F092F8012801D004200EE0A289A068029922E0E2
:406F80006846808869460205120D022010F082F8012803D0052010F0A0F8FEBD2146042210310098FDF7DBFC684640798006800F06D10098214604221431001DFDF7CFFC6C
:406FC000A289A068009910F01BF9FEBD00010008010100083EB501236C462370607022816846019100F095F83EBD10B50CF00EFF10BD000070B5044602460D460C20424306
:4070000000212846FDF7B4FC074B00201C711D609871587105490648FBF70CFC002801D0002070BD012070BD6C010008016F0010216F001010B502491420FFF7DBFF10BD2F
:40704000581A000810B5FBF7A7FB06494A7989798A4201D1012400E00024FBF7A1FB204610BD00006C01000805494879401CC0B248710A79904201D10020487170470000DF
:407080006C01000810B5FBF7B5FB0B4948798A7990420DD00C22096850430818074A0849FBF7DCFB002803D00021052010F0DBF8FBF784FB10BD00006C01000885700010A4
:4070C0006970001030B5114CA2796379511CC9B28B4219D025798D4201D1002B14D00C235A43216843688918026880684B600A608860A079401CC0B2A0712179884201D164
:407100000020A071012030BD002030BD6C010008704710B5FFF7D6FF0446FFF7B3FF204610BD0000FEB5114C114F089E099D00280BD0002909D0002A07D0002E05D0002D30
:4071400003D0002B01D01B2B01D93C460CE00096019508F04DFC042802D0052803D003E0034C133400E000242046FEBDFFFF160001001600FEB50E4C0E4F089E099D0028A0
:407180000BD0002909D0002A07D0002D05D0002E03D0002B01D01B2B01D93C4606E00096019508F06EFC042800D100242046FEBDFFFF160001001600F0B589B015460F46E1
:4071C0000646144C00F04EF8002E20D0002F1ED0002D1CD0102239466846FDF7C0FB1022314604A8FDF7BBFB1021684610F078FA102104A810F074FA2B46102204A96846B2
:4072000008F00EFC1021284610F06AFA0024204609B0F0BD0100160010B50FF011FC0AF0B5FC0EF0BDFB10BD10B50FF0FBFC0BF097FC10BD10B508F015FE0FF0BFFA10BDD8
