:020000041000EA
:4000000000400208310100100D000000950100100000000000000000000000000000000000000000000000000000000091010010000000000000000091010010910100109B
:4000400091010010A5040010910100109101001091010010910100109101001091010010910100109101001091010010910100109101001091010010910100109101001049
:400080009101001091010010910100109101001091010010910100109101001091010010910100109101001091010010910100109101001091010010910100109101001020
:4000C00010B5064C2378002B07D1054B002B02D0044800E000BF0123237010BD54040008000000008C1A0010084B10B5002B03D00749084800E000BF07480368002B00D16E
:4001000010BD064B002BFBD09847F9E700000000580400088C1A0010EC000008000000007047EFF3108072B6704780F310887047FFF7F6FF72B6104C104DAC4209DA2168EE
:400140006268A368043B02DBC858D050FAE70C34F3E70B490B4A0020521A02DD043A8850FCDC094809490860BFF34F8F00F000F900F01EF8FEE70000901A0010A81A001056
:4001800054040008200600080000000808ED00E0FEE7FEE700B504207146084202D0EFF3098001E0EFF30880043001F095F9FEE710B562B6014800F04FF9FEE700000810B5
:4001C00070B56249E0239B00CB580F2213401A00D0329200525807210A40032A05D0042A06D0002A12D15A4814E05A4A106811E01A00C0329200554952581F210A40112ABF
:4002000006D0132A04D0FA20C00103E0524801E080200002002B36D14C4BB222D2009A5801211140B125ED005A59120F032422405B591B0F1C4207D0444C63591B0F032458
:400240002340012B02D102E0012300E00023002B01D0002901D1032A4BD13C4BB022D2009D58AD03AD0B3D495958C904C90C9C58240E01231C40013401F0B8F96843210029
:4002800001F0B4F935E0012B33D1304BC822D2009A5801251540C024E4001A59120F03210A401B591B0F194207D028490B591B0F03210B40012B02D102E0012300E00023A7
:4002C000002B01D0002D01D1032A12D11F4DC022D200AB587F210B40A958090A1F263140AC58240C3440584301F080F9210001F07DF9E0239B00154AD3581B090322134022
:40030000D840144C6060164B1D692D0AFC32154001351969090E013101F068F9A060290001F064F90500E06020610E4BC0180E4901F05CF920750D4BE818FA21890001F004
:4003400055F9A061C003E06170BDC0460000264000127A00C000000800366E0184050000000021403F420F0040420F00E703000010B5234BB021C9005A58520052085A50CE
:40038000E02080001A583024A2431A50802252045A501C491C4A9950A021890104329950FF211A4A995081315A58920092088020C00502435A505A588020000602435A5050
:4003C0005A58012082435A5000F042F9FFF7F8FE00F070F800F078F800F020FFB0235B055B78002B04D0B0235B055B78DBB200E02123212B03D1064B0022DA605A6010BDCD
:400400000000264001000200840500008C050000E00023408023024AD3580320184070470000214010B5FFF77CFE084980228C58074B2340074C23438B508823034AD358D1
:40044000DB06FAD5FFF771FE10BDC04600002140FCFF00000100FA0570B50500FFF761FE0400FFF7D7FF032801D1FFF7DBFF0A4AB0239B00D55080215058084B0340084806
:40048000034353508823044AD358DB06FAD52000FFF74BFE70BDC04600002140FCFF00000300FA0510B5024800F08AFC10BDC0467004000810B5034A60328021042000F062
:4004C0006FFA10BD7005000810B501F06EF80400044800F025FB044800F08CFB200001F068F810BD7004000854170010FEE7C04630B587B0484BA021C9005A580320824317
:400500005A50464990240A59454802400A510A691202120A8024640422430A610A6910400861E022920099580F208143995099582130814399509958802000060143995082
:400540000021012000F09EFC0021022000F09AFC0021032000F096FC0021042000F092FC0021002000F08EFC01A82E4903000A0032CA32C312CA12C300F0ACFC002802D041
:400580000420FFF7B3FF2449274A8B588020000603438B50254800F057FD002802D00420FFF7A4FF1C4C224BE158224A0A40E250E158214A0A40E250E25880252D062A43EA
:4005C000E250043BE1581D4A0A40E250E1581C4A0A40802189010A43E250E258802109020A43E250174A1168174B0B40802149000B431360002000F0DFFF144BE258154365
:40060000E550E158012291430A43E2506421002000F07AFF07B030BD0000264000002140FF00FFFF88170010087F0000400D030004050000FEFCFFFFFFFF00FFFFF0FFFFEF
:40064000FF8FFFFF00002740FFFCFFFF0C05000030B58BB09621002000F056FF00F02CFF002801D100F018FF012000F097FE1A4A516C1A4B0B40E82189010B435364536C57
:400680001B0AFF2213403A2B07D1134A516C144B0B40E82189010B435364FFF729FF01AC24220021200001F02DF8C023DB01E36021000C4800F0BCFD22000B4B143323CBD3
:4006C00023C223CB23C223CB23C22100074800F0AFFD0BB030BDC04600002740FF00FFFFFFC5FFDF00003240881700100003324010B583089A00801AC000FF228240D443DB
:4007000081400A40072B32D89B001949CB589F46184B196A0C4022431A6228E0154B596A0C4022435A6222E0124B996A0C4022439A621CE00F4BD96A0C402243DA6216E037
:400740000C4B196B0C4022431A6310E0094B596B0C4022435A630AE0064B996B0C4022439A6304E0034BD96B0C402243DA6310BDC01700100000214083089A00801AC10014
:40078000FF228A40072B2BD89B001748C3589F46164B186A1040C84023E0144B586A1040C8401EE0114B986A1040C84019E00F4BD86A1040C84014E00C4B186B1040C840A1
:4007C0000FE00A4B586B1040C8400AE0074B986B1040C84005E0054BD86B1040C84000E00020C0B27047C046E01700100000214070B504000D000B4B9A680B4B9A420BD100
:40080000002903D1FC21094800F038FE1034064BA400E058E55003E01034A400044BE05870BDC04600ED00E0000000080018001000000010F0B583B0041E019150D0436898
:40084000032B03D93621294800F018FE0023E05E002802DBA178FFF74BFF0023E25E6368002A12DB9008224EC0308000875903210A40D200FF25290091408F4399012B004F
:400880000B4093403B43835117E092B20F21114008398908063189001648844661444E6803200240D200FF2738009040864398013B000340934033434B600E4B9A680E4B0A
:4008C0009A420FD1019B002B03D14521074800F0D5FD0023E05E0199FFF78AFF002002E0064800E0002003B0F0BDC0460018001000E100E000ED00E00000000801005600E5
:4009000070B504000D000369002B0ADA0B0C03D00549064800F0B2FD2D042D0C6560002000E0034870BDC046A70200004418001001008A0070B505000C000368002B01DAED
:40094000002300E0084B002B0BD1EA60230C03D00649074800F092FD2404240CAC60002000E0014870BDC04601008A008E0200004418001070B505000C1E03D1992106481A
:4009800000F07CFD2B69002B03DAEB682360002000E0024870BDC0468418001001008A00F8B504000E0015000F283FD8002A10D100290ED10F2804D99E21FF31214800F017
:4009C0005DFD6401204B9C466444204B1C60002037E0002D2CD0002E2CD0F3062CD10F2C04D99E21FF31174800F048FD6401164B9C466444154F3C607E60BD60F2080021DB
:400A0000280000F07FFE00212000FFF779FF3A0001CA0021FFF78EFF00280FD10B4B18680021FFF76DFF00280AD10AE0084808E0074806E0064804E0054802E0054800E080
:400A40000448F8BDC4180010000023400006000803018A0001018A00F0B583B00D001C4B1B68DC68236883422DD947097B01C01A012383401E00002903D100F096FD0190D9
:400A800001E000230193124B18680368002B01DA002300E00F4B002B0ED16368BF00DF193B68334203D0B3433B60002400E00A4C0021FFF725FF00E0084C002D04D1019887
:400AC00000F077FD00E0064C200003B0F0BDC0460006000801008A00020188000301880004018A000A4B1B68DA68136883420BD943095901401A0121814052689B009B5832
:400B00000B4203D0034802E0034800E003487047000600080101880004018A0000018800034B1B68002B01D1014B18607047C0460C060008F0B5474680B404000F009046D3
:400B40001E00072803D9B421254800F097FC254B1B682C2060431C18FF22150035402560330A13406360330CA3600F2D04D99E21FF311D4800F082FC6B011C4A944663447E
:400B8000236165680F2D04D9DC214900164800F075FC6D01164B9C4665446561A668330C04D0EB214900104800F068FC330C04D0D821FF310C4800F061FC3604330C1E43CD
:400BC000AE604346E36127620023A361069B002B02D000229B5EA38104BC9046F0BDC046041900100C060008C41800100000234000102340F0B58FB0041E03D150212E487A
:400C000000F03CFC6368032B03D952212A4800F035FCE36A002B03D15621274800F02EFCE368072B03D95721234800F027FC236A072B03D95821204800F020FC236B002BD5
:400C400003D159211C4800F019FC07AA1300210061C961C321C921C302AD290023001433C1CBC1C141CB41C10821535E0CAE3380079B1933B370089B0D930B9B0A980096E5
:400C8000A26AE16AFFF756FF2B69E868002200920021FFF74FFF216B3000FFF7CBFD0023F25E002A05DB1F231A401E3B9340034A13600FB0F0BDC0460419001000E100E0B6
:400CC000F8B505000F0016001C00002A03D1FC21244800F0D3FB072D03D9FD21214800F0CDFB072F03D9FE211E4800F0C7FB1E4B1B682C21280048431818794359180122B8
:400D000013004D68AB401B044568AA4015000269002A20D08F69002F1FD11268002A01DA002200E0114A002A19D132681204120C134333600369DE6001238B614C6204691D
:400D40002B0C03D00A490B4800F098FB2A04120CA260002004E0084802E0084800E00748F8BDC046041900100C06000801008A008E020000C418001004028A0007028A0011
:400D800070B505000C001600072804D96021FF31084800F073FB084B1B682C2068431818C369B34204D9036AB6009C51002000E0024870BD041900100C0600080A028A001D
:400DC00070B582B0040000230193002804D1D92149002B4800F052FB2369002B04D1B421FF31274800F04AFB6369002B04D1DA214900234800F042FB236A002B04D1B621B0
:400E0000FF311F4800F03AFB6269D5682B0C1FD01B041360136820690369002B18DA01A9FFF7A8FD00280ED1019803681E0CFF221340E269934207D29B00226AD358002B45
:400E400002D0984700E0002631002069FFF758FD2D042D0C0FD063691D601B68636A002B03D098470023636203E0A36A002B00D098470023A36163691B6802B070BDC046EA
:400E80000419001004281DD8042904D94B1EFF3B9BB2132B18D8FF290CD91F2319400B4A0300C0339B009950D03080000423835000200AE007231940D0308000034BC1505F
:400EC000002002E0024800E0014870470000264001004A0070B5041E04D1EF2149004C4800F0CCFAB023DB004A4AD358002B01DB002500E0484D002D00D086E0474B2268C9
:400F00009A4204D9EE21FF31414800F0B7FA23689B03990BE3791B068022520413400B43B022D2003B498B50A2883D4B9A4204D9FA214900364800F0A1FA2289394B9A42C6
:400F400004D9F621FF31324800F098FAA388DB04D90C23891B04344A13400B43334A2D498B50A37A0F2B04D9FC21FF31284800F085FAE37A0F2B04D9FE214900244800F012
:400F80007DFAA289264B9A4204D9FE21FF31204800F074FAA37A0F211940E27A1201FF2313400B43A289120221490A401343A27B1207C02189050A401343B122D2001549E7
:400FC0008B50A379072B03D91A49114800F056FA228A144B9A4203D917490D4800F04EFA0C4816494658164B1E40A3791B02E022D2001340334343504658124B1E40238AC1
:401000001B04094A134033434350280070BDC046441900100000264003004A00FFFF0300FF1F0000FF0100000000FF018405000000FF1F0005020000060200008C05000001
:40104000FFF8FFFFFFFF00FE70B505002D492E4A8B588020000603438B502C0003E0012000F000FA013CB223DB00264AD3585B0701D4002CF3D12349B122D2008858234B95
:4010800003408020800503438B50002D02D00ED0002C0CD01B49B022D2008B588020000603438B5003E0012000F0DCF9013CB223DB00144AD358DB0701D4002CF3D1002DFD
:4010C0000ED0002C0CD10F4AB021C90053585B005B0853500C4953585B005B0853500BE0084B0221B222D2009950B121C9005A58C020800502435A50002C01D1044800E0EE
:40110000002070BD000026408C050000FFFFFFCF02004A00214B984230D00ED8402831D004D800281FD010282AD031E080282BD080235B00984229D02AE0194B984229D0D3
:4011400007D8A0231B0698420DD0164B984212D01EE0154B98420AD0144B984209D0144B984215D101E0002016E0124814E0124812E0124810E0A020C0030DE007480BE010
:401180000F4809E00F4807E00F4805E0034803E00E4801E0A420C0037047C04606005200010000F0090000A0040000F0050000F0030000F001005200020052000300520002
:4011C000010050000200500005005200FF00520010B50C4B1B69002B11DB0B4B1868FFF799FF0121094B0A4AD150084B084AD358002BFAD1074BD358002BF6D100E006483B
:4012000010BDC04600002340100600080C040000000025408C0400000200500010B5022202490020FFF7ACFD10BDC0463501000870B505000C00002848D0002948D0FF2326
:401240000A689A4303D08D21224800F017F9FF2322699A4303D08E211E4800F00FF9A3685B0D03D08F211B4800F008F963685B0A03D09021174800F001F9E3695B0F03D0FA
:401280009121144800F0FAF8236A5B0F03D09221104800F0F3F8104BEB18DB090F4A944663441B0122682A60E268AA622269EA6262692A63A2686A626268AA61A2696A633A
:4012C000E2691A60226A5A60002002E0044800E0034870BDCC1900100000CEBF0010030401005A00034A9369802149040B4393617047C04600F02540024A9169024B0B40E0
:401300009361704700F02540FFFFFFFE10B5074A074813580F24A34302210B43135004381358A3431943115010BDC0460000214004F0000010B5074A074813580F24A3439A
:4013400003210B43135004381358A3431943115010BDC0460000214004F000000449054A8858054B0340C020C00103438B5070470000214004F00000FF8FFFFF0449054A21
:401380008858054B03408020C00103438B5070470000214004F00000FF8FFFFF70B50500012803D92A492B4800F068F800F0FDF80400294B294AD3581F221340E822D200D0
:4013C000B02149058A5CD31A5A1E9341DBB29D4239D0002D14D1FFF785FFFFF797FF1F481D4943581F229343143A13434350FFF7B5FFE823DB00B0225205D35CDAB211E007
:401400001648154943581F229343143A13434350092000F027F8FFF7B1FF114BB0225205D35CDAB20D4E0C4831581F23994313400B433350012D06D1092000F013F8FFF750
:4014400079FFFFF759FF200000F0B3F870BDC046ED0600004C1A00101CFF0000000026404107000010B5034B1B78584300F094F810BDC046D400000801BEFEE770B50D0044
:40148000044C18220100200000F044F9A5610020FFF7F2FF18040008054B802212069A649B6C002B01DB002000E002487047C0460000274003004600054B80221201985861
:4014C0005B68FF221A4202D08023DB021843704700002640FEE7C04610B50A4B0268DA6142681A6282685A62C2689A620269DA6242691A6382695A63C2699A63FFF7EAFFC8
:4015000010BDC04618040008F0B5002801D0192200E064228A42924152421C4BE8256D005C590327BC433A4014435C515C59184E34405C51D03D5C59BC4322435A515A5945
:4015400016405E51002805D010290DD921290DD8012014E01D290BD93A290BD957290BD978290BD803200AE0002008E0022006E0002004E0012002E0022000E00420054A14
:4015800013680F218B4303431360F0BD00002140FFFCFFFF000025400230800803D001300238FCD1C046C0467047EFF3108072B6704780F310887047042805D1094A116824
:4015C00004230B4313600CE00006C0239B04184090239B00044AD050024A136804218B431360704710E000E000002140002243088B4274D303098B425FD3030A8B4244D3E9
:40160000030B8B4228D3030C8B420DD3FF22090212BA030C8B4202D31212090265D0030B8B4219D300E0090AC30B8B4201D3CB03C01A5241830B8B4201D38B03C01A52417D
:40164000430B8B4201D34B03C01A5241030B8B4201D30B03C01A5241C30A8B4201D3CB02C01A5241830A8B4201D38B02C01A5241430A8B4201D34B02C01A5241030A8B4244
:4016800001D30B02C01A5241CDD2C3098B4201D3CB01C01A524183098B4201D38B01C01A524143098B4201D34B01C01A524103098B4201D30B01C01A5241C3088B4201D339
:4016C000CB00C01A524183088B4201D38B00C01A524143088B4201D34B00C01A5241411A00D20146524110467047FFE701B5002000F006F802BDC0460029F7D076E7704763
:401700007047C04603008218934202D019700133FAE77047030030B5002A0DD00C7801335D1E013A2C700131002CF5D19A189A4202D01C700133FAE730BD0000F8B5C04695
:40174000F8BC08BC9E467047F8B5C046F8BC08BC9E4670470300000001000000010000000000000005036000040000000100000000000000010000000604600008000000AB
:40178000E0050008A5040010F4010000140004010A0009050800000063010000000000000000000000000000000000BA0000000000000000000000000000000000001D1DFD
:4017C000100700101C0700102807001034070010400700104C0700105807001064070010900700109A070010A4070010AE070010B8070010C2070010CC070010D607001011
:4018000047656E6572617465645F536F757263655C50536F43365C70646C5C647269766572735C7065726970686572616C5C737973696E745C63795F737973696E742E630B
:401840000000000047656E6572617465645F536F757263655C50536F43365C70646C5C647269766572735C7065726970686572616C5C6970635C63795F6970635F6472768D
:401880002E68000047656E6572617465645F536F757263655C50536F43365C70646C5C647269766572735C7065726970686572616C5C6970635C63795F6970635F647276B7
:4018C0002E63000047656E6572617465645F536F757263655C50536F43365C70646C5C647269766572732F7065726970686572616C2F6970632F63795F6970635F64727603
:401900002E68000047656E6572617465645F536F757263655C50536F43365C70646C5C647269766572735C7065726970686572616C5C6970635C63795F6970635F70697039
:40194000652E630047656E6572617465645F536F757263655C50536F43365C70646C5C647269766572735C7065726970686572616C5C737973636C6B5C63795F737973635E
:401980006C6B2E630000000047656E6572617465645F536F757263655C50536F43365C70646C5C647269766572735C7065726970686572616C5C737973636C6B5C63795F6E
:4019C000737973636C6B2E680000000047656E6572617465645F536F757263655C50536F43365C70646C5C647269766572735C7065726970686572616C5C6770696F5C6329
:401A0000795F6770696F2E630000000047656E6572617465645F536F757263655C50536F43365C70646C5C647269766572735C7065726970686572616C5C6770696F5C63FF
:401A4000795F6770696F2E680000000047656E6572617465645F536F757263655C50536F43365C70646C5C647269766572735C7065726970686572616C5C737973706D5C90
:401A800063795F737973706D2E630000000000000000001000000008C0000000B01A0010C00000085803000054040008CC0100000048E80100127A0000093D0000093D00D3
:401AC00000093D0004000000A00F00000000D00702FF0000E9000010C1000010000000000004400B12D03E22094B1A60094A0A4B1A600A4B0621A322D2009950084A985094
:401B00009B58074B054AD358002BFADA7047C046040126401E1F000008012640000026401C05000010B54378FF2B0DD100F064F9064BDB685A68116801230B431360136888
:401B4000DB07FCD400F048F910BDC04680002340F0B583B006000F0000F046F90500032824D12B4B1B69002B22DB002000F02CF9284B98421ED00023274A0021012000F033
:401B800003F9002803D0254C17E0013400E00024002000F019F91F4B984202D0204B9C42F3D91F4B9C4207D91C4C06E0002404E01A4C02E0194C00E00024002C24D100F000
:401BC0001BF90190174A0121174800F0E5F800280ED1002E04D13800FFF782FF134C08E0114B1B69002BFBDB00F0DEF8040000E00A4C032D05D10121002000F0DDF800287B
:401C0000F9D1019800F0E8F8200003B0F0BDC046C000234001018800E000000805005200EF49020010060008000023400100500070B5304B1B68002BFBDA2E4BD9680222F2
:401C40000A43DA60DB68DB071FD52A4EF2681204150C294B1A69120A1204FF2424042240110090241A59120A12060A432A43F2601969224A114090252D01294319611959F3
:401C80000A402A431A511A691B591A4B00225A605B681B4A116904230B431361012801D030BF00E020BF134B1B68002BFBDA114BDB68DB0715D510480269104B1A401400BF
:401CC0000C4DEA68120C1202FF2109020A4022430261902142581340EA68120E120213434350044BDA6802218A43DA6000225A6070BDC046E000234000002140FF00FFFF52
:401D000000ED00E0164A116904230B431361012801D030BF00E020BF124B1B68002BFBDA86235B00104AD358002B14D10F4A104B1A6006220F4B1A6038320F4B1A60063252
:401D40000E4B1A600D4B1B68002BFBDA0C4986235B00054AD1500022024B5A607047C04600ED00E0E0002340000025401E1F00000801264018052640040126401C05264070
:401D8000AAAAAAAA0000000001B40248844601BC604700BFC10C001001B40248844601BC604700BF3509001001B40248844601BC604700BFD111001001B40248844601BC14
:401DC000604700BF590A001001B40248844601BC604700BFE50A001001B40248844601BC604700BFB315001001B40248844601BC604700BF1504001001B40248844601BCC0
:401E0000604700BFAB15001000000000000000000000000000000000000000000000000000000000000000000000000000000000000000000000000000000000000000006C
:401E40000000000000000000000000000000000000000000000000000000000000000000000000000000000000000000000000000000000000000000000000000000000062
:401E80000000000000000000000000000000000000000000000000000000000000000000000000000000000000000000000000000000000000000000000000000000000022
:401EC00000000000000000000000000000000000000000000000000000000000000000000000000000000000000000000000000000000000000000000000000000000000E2
:401F000000000000000000000000000000000000000000000000000000000000000000000000000000000000000000000000000000000000000000000000000000000000A1
:401F40000000000000000000000000000000000000000000000000000000000000000000000000000000000000000000000000000000000000000000000000000000000061
:401F80000000000000000000000000000000000000000000000000000000000000000000000000000000000000000000000000000000000000000000000000000000000021
:401FC00000000000000000000000000000000000000000000000000000000000000000000000000000000000000000000000000000000000000000000000000000000000E1
:020000041008E2
:4000000000780408F90208100D0000006103081061030810610308106103081000000000000000000000000000000000612008105D03081000000000D120081035210810A4
:400040005D0308105D0308105D0308105D0308105D0308105D0308105D0308105D0308105D0308105D0308105D0308105D0308105D0308105D0308105D0308105D03081000
:400080005D0308105D0308105D0308105D0308105D0308105D0308105D0308105D0308105D0308105D0308105D0308105D0308105D030810C90508105D0308105D03081052
:4000C0005D0308105D0308105D0308105D0308105D0308105D0308105D0308105D0308105D0308105D0308105D0308105D0308105D0308105D0308105D0308105D03081080
:400100005D0308105D0308105D0308105D0308105D0308105D0308105D0308105D0308105D0308105D0308105D0308105D0308105D0308105D0308105D0308105D0308103F
:400140005D0308105D0308105D0308105D0308105D0308105D0308105D0308105D0308105D0308105D0308105D0308105D0308105D0308105D0308105D0308105D030810FF
:400180005D0308105D0308105D0308105D0308105D0308105D0308105D0308105D0308105D0308105D0308105D0308105D0308105D0308105D0308105D0308105D030810BF
:4001C0005D0308105D0308105D0308105D0308105D0308105D0308105D0308105D0308105D0308105D0308105D0308105D0308105D0308105D0308105D0308105D0308107F
:400200005D0308105D0308105D0308105D0308105D0308105D0308105D0308105D0308105D0308105D0308105D0308105D0308105D0308105D0308105D0308105D0308103E
:400240005D0308105D0308105D0308105D0308105D0308105D0308105D0308105D0308105D0308105D0308105D0308105D0308105D0308105D0308105D0308105D030810FE
:400280005D0308105D0308105D03081010B5054C237833B9044B13B10448AFF300800123237010BDA44702080000000028250810084B10B51BB108490848AFF300800848E3
:4002C000036803B910BD074B002BFBD0BDE81040184700BF00000000A847020828250810BC420208000000007047EFF3108072B6704780F310887047FFF7F6FF72B6114C0F
:40030000114DAC4209DA21686268A368043BA2BFC858D050FAE70C34F3E70C490C4A00209142BCBF41F8040BFAE70A480A490860BFF34F8F00F034F900F00EF900F02EF84C
:40034000FEE700002C25081044250810A4470208587302080040020808ED00E0FEE7FEE700B504207146084202D0EFF3098001E0EFF30880043000F0F7FCFEE708B5064C8E
:400380000825A5604FF4FA7001F000FB65604FF4FA7001F0FBFAF2E70000324000B583B062B600230193012200924FF4C8720349034801F08FF901F0BFF9FEE73C230810D1
:4003C0007D030810704700BF5C4AD2F8803303F00F0303F1D00152F8212002F00702032A04D0042A05D092B9554914E0554A116811E003F1C002514951F8222002F01F02A4
:40040000112A06D0132A04D04FF4FA4103E04E4901E04FF400418BBB484BD3F8902502F00100D3F88825C2F30172D3F8883513F0405F07D0414BD3F88835C3F30173012BE6
:4004400002D102E0012300E0002303B108B9032A46D13A48D0F88025C2F31103D0F88425C2F30C02D0F88005C0F300600130B1FBF2F202FB03F2B2FBF0F131E0012B2FD11D
:400480002E4BD3F8402602F00100D3F80026C2F30172D3F8003613F0405F07D0274BD3F80036C3F30173012B02D102E0012300E0002303B108B9032A12D12048D0F800268C
:4004C00002F07F02D0F80036C3F30423D0F80006C0F3044002FB01F2B2FBF3F2B2FBF0F1164BD3F88033C3F3011321FA03F215494A601648D0F89030C3F3072301330069B5
:40050000000E0130B2FBF0F08860B2FBF3F3CB600B6103F5742202F23F220D48A0FB0202C2F387420A7503F2E7330A4AA2FB03239B098B61DB03CB61704700BF000026406D
:4005400000127A008C42020800366E010000214083DE1B43D34D621008B5104BD3F8802122F0404242F08042C3F88021D3F8802142F00042C3F88021D3F8802122F001029B
:40058000C3F88021FFF71EFFFFF71EFF00F024F800F02AF800F0B0FB08BD00BF0000264008B5FFF7A2FE074AD2F8883043F47003C2F88830BFF34F8FBFF36F8FFFF799FE07
:4005C00008BD00BF00ED00E008B5024800F0C4FA08BD00BFEC47020808B500221146042000F0C0F808BD00BF10B500F01AFC0446044800F073F9044800F0D4F9204600F092
:4006000014FC10BDC04702084823081038B50C4B9A680C4B9A420ED10D46044619B9FC21094800F091FB04F11003064A52F8230042F8235038BD1030044B53F8200038BD42
:4006400000ED00E0004002087C2308100000081070B338B504460D464368072B03D93621154800F071FBB4F900306268002B08DB5201D2B203F1604303F5614383F80023C1
:4006800005E003F00F035201D2B20C49CA540C4B9A680C4B9A420DD11DB94521064800F053FB2946B4F90000FFF7B0FF002038BD05487047002038BD7C23081014ED00E04D
:4006C00000ED00E0004002080100560038B50369002B0DDA0D4604460B0C1B0423B140F2A721044800F030FBA9B26160002038BD014838BDC023081001008A0038B50368CC
:40070000002B01DA002300E0094B73B90D460446C2600B0C1B0423B140F28E21054800F013FBA9B2A160002038BD014838BD00BF01008A00C023081038B504460D4619B9EB
:400740009921064800F000FB2369002B03DAE3682B60002038BD024838BD00BF0024081001008A000F2840D8F8B515460E46044682B979B90F2804D940F29D11214800F093
:40078000E3FA600100F1804000F50C101E4B18600020F8BD5DB366B316F01F0F2BD10F2C04D940F29D11174800F0CEFA640104F1804404F50C14144F3C607E60BD60F208F0
:4007C0000021284601F093FD00212046FFF77EFF3A4652F8040B0021FFF790FF68B900213868FFF773FF50B9F8BD084870470748F8BD0648F8BD0548F8BD0548F8BD04480A
:40080000F8BD00BF402408104049020803018A0001018A002DE9F0411B4B1B68DC68236883422CD90D464609A0EB4610012303FA00F819B900F0F5FA074600E00027124B54
:4008400018680368002B01DA002300E00F4B83B9626852F8263018EA030F05D023EA080342F82630002400E0094C0021FFF72EFF00E0084C25B9384600F0D7FA00E0064CD3
:400880002046BDE8F08100BF4049020801008A00020188000301880004018A000B4B1B68DB681A6882420CD94109A0EB4110012202FA00F05B6853F82130184203D00448E5
:4008C0007047044870470448704700BF404902080101880004018A0000018800024B1B680BB9014B186070474C4902082DE9F8430446884691461E46089F072803D9B4216E
:40090000244800F021FA244B1B682C2000FB04F01C18F5B21D50C6F307236360360CA6600F2D04D940F29D111C4800F00DFA6D0105F1804505F50C15256165680F2D04D9D9
:400940004FF4DC71154800F0FFF9154B03EB45156561A668330C1B0423B14FF4EB710F4800F0F2F9330C1B0423B140F2D7110B4800F0EAF9B3B243EA0646AE60C4F81C905D
:40098000C4F820800023A36117B1B7F90030A381BDE8F883802408104C4902084024081000102340F0B58FB0044618B950212C4800F0CAF9A369072B03D95421284800F0F8
:4009C000C3F9E36A1BB95621254800F0BDF9E368072B03D95721224800F0B6F9236A072B03D958211E4800F0AFF9236B1BB959211B4800F0A9F907AE04F114050FCD0FC65F
:400A00002F6802AD26460FCE0FC533682B60079B1933ADF83030089B0D93A26AE16A0CAD00953B460A98FFF761FF00210091069B0A460598FFF75AFF216B2846FFF708FE54
:400A4000BDF93030002B08DB590903F01F03012202FA03F3034A42F821300FB0F0BD00BF8024081000E100E0F8B507460E461D4614461AB9FC21224800F066F9072F03D980
:400A8000FD211F4800F060F9072E03D9FE211C4800F05AF91B4B1B682C2202FB073002FB06367368012202FA03F31B04476802FA07F70269EAB1B169E9B91268002A01DAF4
:400AC000002200E0104AC2B92288134323600369DC600123B361756204693B0C1B0423B140F28E21094800F02FF9BAB2A2600020F8BD0748F8BD0748F8BD0648F8BD00BFE7
:400B0000802408104C49020801008A004024081004028A0007028A0070B504460E461546072804D940F25F11084800F00DF9084B1B682C2202FB0434E369AB4204D9236A22
:400B400043F82560002070BD024870BD802408104C4902080A028A0070B582B000230193044620B94FF4D971264800F0EDF8236923B940F2B311234800F0E6F8636923B9C0
:400B80004FF4DA711F4800F0DFF8236A23B940F2B5111C4800F0D8F86369DD682A0C1CD012041A601B6820690369002B15DA01A9FFF7C2FD60B9019803681E0CDBB2E26921
:400BC000934206D2226A52F8233013B1984700E0002631462069FFF779FDADB275B16369ADB21D601B68636A1BB198470023636202E0A36A03B198470023A36163691B6802
:400C000002B070BD802408101F4B98422DD00CD840282ED003D8E8B1102828D02FE0802829D0B0F5807F28D029E0184B984228D006D8B0F1204F0DD0154B984212D01EE07B
:400C4000144B98420AD00133984209D0023B984215D101E0002070470F4870470F4870470F4870474FF4A0007047074870470D4870470D4870470D487047034870470C4881
:400C800070474FF4A400704706005200010000F0090000A0040000F0010052000200520003005200010050000200500005005200FF00520008B50C4B1B69002B12DB0B4BAC
:400CC0001868FFF7A1FF0122094BC3F88C24084BD3F80C34002BFAD1054BD3F88C34002BF5D108BD034808BD2000234050490208000025400200500000B583B05523ADF825
:400D00000030002301930C496846FFF7A1FCBDF90030002B08DB590903F01F03012202FA03F3064A42F82130022205490120FFF7F3FE03B05DF804FB0143020800E100E04B
:400D40002144020801BEFEE738B50D46044C18220146204601F0D3FAA5610020FFF7F2FF10470208FEE700BF08B50268254BDA6142681A6282685A62C2689A620269DA62AE
:400D800042691A6382695A63C2699A631E4A916AD963D16A1964516A5964516B9964926BDA64F1EE103A13F0900F27D0026A154B1A65426A5A65826A9A65C26ADA65026B3D
:400DC0001A66426B5A66826B9A66C26BDA66026C1A67426C5A67826C9A67C26CDA67026DC3F88020426DC3F88420826DC3F88820C26DC3F88C20026EC3F89020FFF7B2FFAE
:400E000008BD00BF1047020800ED00E0000000000230800803D001300238FCD100BF00BF7047EFF3108072B6704780F31088704700F1080343604FF0FF328260C36003617B
:400E400000230360704700BF00230361704700BF43684B609A688A609A68516099600861036801330360704730B40D68B5F1FF3F01D1026907E000F1080200E01A46536812
:400E80001C68A542FAD253684B6099608A605160086103680133036030BC704703694268816891608268416851605A68904201D182685A6000220261186801381860704748
:400EC00010B5044601F0DEF8A26BE36B9A4201D1012400E0002401F0E9F8204610BD00BF10B5044601F0CEF8A36B0BB9012400E0002401F0DBF8204610BD00BF70B5044640
:400F00001646856B026CFAB166B9806801F0E4F9A268236C1344A3606268934214D32368A36011E0C06801F0D7F9236C5B42E2681A44E26021688A4202D262681344E360F3
:400F4000022E01D105B1013D0135A563002070BD026C72B110B50346C4681444C4604068844201D31868D8600846D96801F0B4F910BD704738B5054601F084F895F8454047
:400F800064B20AE06B6A53B105F1240000F0E4FD08B100F05FFE013C64B2002CF2DCFF2385F8453001F082F801F06CF895F8444064B20AE02B6953B105F1100000F0CCFDDE
:400FC00008B100F047FE013C64B2002CF2DCFF2385F8443001F06AF838BD00BF08B972B6FEE738B504460D4601F04CF82168E26B236C03FB021060600020A063A160013A7B
:4010000002FB0313E360FF2384F8443084F845307DB92369ABB104F1100000F09DFD80B14FF08052094B1A60BFF34F8FBFF36F8F07E004F11000FFF7FBFE04F12400FFF770
:40104000F7FE01F033F8012038BD00BF04ED00E010B5029B0C4609B91B6000E01A60D8631C6401211846FFF7B9FF10BD08B972B6FEE7F0B583B0034611B101FB00F000E03B
:4010800000201D4617460C46483001F0F1F8064638B100903B4600F1480221462846FFF7D7FF304603B0F0BDF0B585B0019208B972B6FEE7044619B9026C1AB9012202E017
:4010C000012200E000220AB972B6FEE7022B03D1E26B012A02D102E0012200E000220AB972B6FEE71D460E4600F0BCFD18B9019B1BB9012302E0012300E000230BB972B61E
:40110000FEE7002700F0BEFFA26BE36B9A4201D3022D21D12A4631462046FFF7EFFE636A6BB104F1240000F017FD88B14FF08052324B1A60BFF34F8FBFF36F8F08E038B142
:401140004FF080522D4B1A60BFF34F8FBFF36F8F00F0ACFF01204EE0019B1BB900F0A6FF002048E01FB902A800F034FD012700F09DFF00F011FB00F085FF94F844305BB221
:40118000B3F1FF3F02D1002384F8443094F845305BB2B3F1FF3F02D1002384F8453000F085FF01A902A800F023FDF0B92046FFF787FEA0B1019904F1100000F0A5FC204647
:4011C000FFF7D8FE00F070FB00289BD14FF080520A4B1A60BFF34F8FBFF36F8F92E72046FFF7C8FE00F060FB8CE72046FFF7C2FE00F05AFB002005B0F0BD00BF04ED00E048
:4012000008B972B6FEE72DE9F843044619B9006C18B9012002E0012000E0002008B972B6FEE7022B03D1E06B012802D102E0012000E0002008B972B6FEE71F469046894621
:4012400000F0EEFFEFF311864FF0BF0383F31188BFF36F8FBFF34F8FA26BE36B9A4201D3022F1ED194F845506DB23A4649462046FFF744FEB5F1FF3F0DD1636A9BB104F1E0
:40128000240000F069FC80B1B8F1000F0FD00120C8F800000CE06B1C5BB284F84530012006E0002004E0012002E0012000E0012086F31188BDE8F8832DE9F04184B001922B
:4012C00008B972B6FEE7044619B9026C1AB9012202E0012200E000220AB972B6FEE71F46884600F0BFFC18B9019B1BB9012302E0012300E000230BB972B6FEE7002600F096
:40130000C1FEA56B5DB3E66841462046FFF720FE8FB9013DA5632369EBB104F1100000F01BFCC0B14FF08052394B1A60BFF34F8FBFF36F8F0FE0E660636A63B104F12400CE
:4013400000F00AFC38B14FF08052314B1A60BFF34F8FBFF36F8F00F0A9FE012054E0019B1BB900F0A3FE00204EE01EB902A800F031FC012600F09AFE00F00EFA00F082FE57
:4013800094F844305BB2B3F1FF3F02D1002384F8443094F845305BB2B3F1FF3F02D1002384F8453000F082FE01A902A800F020FCF0B92046FFF794FDA0B1019904F1240017
:4013C00000F0A2FB2046FFF7D5FD00F06DFA002895D14FF080520E4B1A60BFF34F8FBFF36F8F8CE72046FFF7C5FD00F05DFA86E72046FFF7BFFD00F057FA2046FFF770FDC2
:4014000000283FF47CAF002004B0BDE8F08100BF04ED00E000230BE0074A52F8332032B9054A42F8331002EBC303586070470133092BF1D9704700BF0873020870B504463B
:401440000D46164600F01EFE94F844305BB2B3F1FF3F02D1002384F8443094F845305BB2B3F1FF3F02D1002384F8453000F01EFEA36B2BB93246294604F1240000F056FBC6
:401480002046FFF777FD70BD094B9B6A1B680BB9012300E0002323B14FF0FF32044BDA627047034B9A6AD268D2685268DA6270479049020810B50446006B00F009FF2046B4
:4014C00000F006FF10BD00BF2DE9F0478246894615469846089F099E0A9C9200A521206B00F005FF236B05F18042013A03EB820525F00705002308E019F80310E21882F8C9
:40150000341019F8032012B101330F2BF4D9002384F84330062F00D90627E762201DFFF793FC04F11800FFF78FFC2461C7F10703A3616462002306E003F1100204EB8202BC
:40154000002151600133042BF6D90023A36584F85C3042465146284600F066FD206006B13460BDE8F08700BF70B5002407E004EB8402930010481844FFF75AFC0134062C0F
:40158000F5D90E4C04F1BC063046FFF751FC04F1D0052846FFF74CFC04F11400FFF748FC04F1E400FFF744FC2046FFF741FCA662C4F8F85070BD00BFC04902089049020844
:4015C00038B5044600F05EFD264BD3F8FC200132C3F8FC20D3F800314BB9224BC3F80041D3F8FC30012B10D1FFF7BEFF0DE01D4BD3F804314BB91B4BD3F80031DA6AE36A9B
:401600009A4202D8174BC3F80041164AD2F808310133C2F80831E36AD2F80C21934202D9104AC2F80C310F4D05F1300003EB83039A00211D1044FFF70BFC00F037FDD5F8B7
:4016400004316BB1D5F80031DA6AE36A9A4207D24FF08052044B1A60BFF34F8FBFF36F8F38BD00BF9049020804ED00E070B504460E46174BD3F81051D3F800010430FFF70C
:401680000DFCB4F1FF3F07D136B11148D0F800110431FFF7DDFB70BD2C440D4BD3F800315C60A54208D90A4BD3F8F800D3F800110431FFF7D9FB70BD054DA86AD5F8001173
:4016C0000431FFF7D1FBEB6A9C4200D2EC6270BD904902082DE9F04385B006460F4615469846900000F0C4FD60B18146602000F0BFFD044610B1C0F8309004E0484600F00E
:40170000E7FD00E000248CB10023039302940D9B01930C9B009343462A4639463046FFF7D3FE2046FFF74CFF012001E04FF0FF3005B0BDE8F08300BF00B583B0124B01938E
:4017400000230093802211491148FFF7C3FF012801D100F0EDFA01280DD172B60D4B4FF0FF32DA620122C3F804210022C3F8102100F004FD04E0B0F1FF3F01D172B6FEE7FD
:4017800003B05DF804FB00BFAC4A0208C0240810251A081090490208034AD2F818310133C2F81831704700BF90490208014BD3F810017047904902082DE9F041394BD3F8E5
:4017C0001831002B5ED1374BD3F810410134C3F8104194B99B6A1B680BB172B6FEE7314B9A6AD3F8F8109962C3F8F820D3F820210132C3F82021FFF747FE2A4BDB6A9C429A
:4018000003D2002645E0012600E00026254B9B6A1B680BB9012300E0002323B14FF0FF32204BDA6235E01F4B9B6ADB68DD686B689C4202D21B4AD3622BE005F104084046CF
:40184000FFF72CFBAB6A1BB105F11800FFF726FBEB6A144AD2F80C21934202D9114AC2F80C31104F07F1300003EB83039A0041461044FFF7EDFAEA6AD7F80031DB6A9A42D7
:40188000C1D2C3E7074AD2F824310133C2F824310026044BD3F8283103B101263046BDE8F08100BF90490208364BD3F818310BB972B6FEE770B500F0E5FB324BD3F81821BA
:4018C000013AC3F81821D3F81831002B52D12D4BD3F8FC303BBB00244FE02A4D2B6ADC6804F11800FFF7DAFA261D3046FFF7D6FAE36AD5F80C21934201D9C5F80C31214D9B
:4019000005F1300003EB83039A0031461044FFF79FFAE26AD5F80031DB6A9A4204D30122C5F8282100E00024164B5B69002BD4D10CB1FFF7A9FD134BD3F8244164B1FFF7C3
:401940003BFF18B101220F4BC3F82821013CF6D100220C4BC3F824210A4BD3F828315BB14FF08052084B1A60BFF34F8FBFF36F8F012402E0002400E0002400F097FB2046AC
:4019800070BD00BF9049020804ED00E010B578B104460D4BD3F818310BB172B6FEE7FFF7FBFE00212046FFF761FEFFF77DFF00E0002038B94FF08052044B1A60BFF34F8F82
:4019C000BFF36F8F10BD00BF9049020804ED00E038B51FE0FFF7E0FE114BD3F8E440FFF763FFBCB100F04EFB0D4CD4F8F030DD68281DFFF753FAD4F8FC30013BC4F8FC30C0
:401A0000D4F81431013BC4F8143100F04FFB2846FFF750FD024BD3F81431002BDAD138BD9049020808B5FFF7D3FF064B1B6B012BF9D94FF08052044B1A60BFF34F8FBFF3EC
:401A40006F8FF0E79049020804ED00E02D4BD3F8183123B101222B4BC3F82821704710B5284B0022C3F82821D3F800311B6B1A68B2F1A53F0BD15A68B2F1A53F07D19A6841
:401A8000B2F1A53F03D1DB68B3F1A53F07D01D4BD3F80001D3F80011343100F0DFFB194BD3F80C3103E00BB972B6FEE7013B03EB83018A0013490A44126B002AF3D0084630
:401AC0009900CC18A2000244546B64685463303019448A0008320244944206D1606803EB83018A0007490A445063064903EB830082000A44526BD268C1F80021C1F80C315F
:401B000010BD00BF9049020808B972B6FEE710B50C46054BD3F800111831FFF7A5F901212046FFF7A3FD10BD9049020808B972B6FEE738B50C461546064AD2F8001118319E
:401B4000FFF786F90DB14FF0FF3429462046FFF78DFD38BD9049020838B5C368DC680CB972B6FEE704F118052846FFF797F9164BD3F81831ABB9251D2846FFF78FF9E36A0B
:401B8000114AD2F80C21934202D90F4AC2F80C3103EB83039A0029460C481044FFF758F903E029460A48FFF753F9E26A064BD3F80031DB6A9A4204D90120034BC3F8280197
:401BC00038BD002038BD00BF90490208C0490208A449020808B972B6FEE7044AD2F820110160D2F810214260704700BF9049020808B972B6FEE738B5044609B972B6FEE7ED
:401C00000D4600F03FFA124BD3F810112A68B2F1FF3F13D02068D3F82031984202D0636899420DD26368C81A82420BD95B1A13442B602046FFF7CEFF002404E0002402E0D1
:401C4000012400E0012400F031FA204638BD00BF904902080122024BC3F82821704700BF90490208064BD3F804312BB1044BD3F818311BB902207047012070470020704769
:401C800090490208064B1A681368B3FA83F35B09036013B9D368186870470020704700BFBC4A020808B54160006191420AD8D21A83699A4211D2011D0A4B5868FFF7D4F825
:401CC000002008BD9A4201D2994208D2011D054B1868FFF7C9F8002008BD012008BD012008BD00BFBC4A020870B500F0CBF90E4B9B68B3B90C4C04F10C063046FFF798F87A
:401D000004F120052846FFF793F82660656000220C210A20FFF7AAF9A06010B10349FFF779FB00F0C3F970BDBC4A0208C824081000B583B0FFF7D8FF0A4B9B6853B10A4B73
:401D40000193032300930023802208490848FFF7C1FC00E0002008B972B6FEE703B05DF804FB00BFBC4A0208F04A0208D0240810C51F081008B972B6FEE730B585B01546CA
:401D80000446124A9068F0B11A46019102950394052913DCFFF766FF022807D10023089A01A90A488068FFF77FF90DE000231A4601A906488068FFF777F905E0002301A9CB
:401DC000FFF71EFA00E0002005B030BDBC4A020870B582B022E0DB681E68DC68251D2846FFF75CF8636A20469847E369012B15D1A36933449E4207D26360246129460D4B08
:401E00001868FFF731F809E0002100910B4632462046FFF7AFFF08B972B6FEE7054B1B681A68002AD7D1034A51681160536002B070BD00BFBC4A020838B50546FFF7B6FCE8
:401E40000446074B9B6B984204D2FFF7C1FF01232B6001E000232B60014B9C63204638BDBC4A020870B582B005460E46104B1B68DB68DC68201DFFF711F8E369012B11D175
:401E8000A1692B46324629442046FFF70BFF48B1002100910B462A462046FFF76BFF08B972B6FEE7636A2046984702B070BD00BFBC4A020870B582B006460C46FFF76CFC49
:401EC00001A8FFF7B9FF019B1BBB054644B9B04206D3FFF7E9FC29463046FFF7C3FF1AE02CB10E4B5B681C68B4FA84F464092246711B0A4B9868FFF7A1FAFFF7D5FC50B9DA
:401F00004FF08052064B1A60BFF34F8FBFF36F8F01E0FFF7C9FC02B070BD00BFBC4A020804ED00E030B587B03FE0039B002B3CDB059C636913B1201DFEF7B0FF02A8FFF79D
:401F40007BFF039B092B30D8DFE803F00505052F202C05052F200499A5690B46024629442046FFF79FFE00B3636A20469847E369012B1AD1A269002100910B4604980244AE
:401F80002046FFF7F7FE80B972B6FEE70499A16109B972B6FEE70346024601442046FFF781FE02E0204600F093F900231A4603A903488068FFF780F90028B6D107B030BD83
:401FC000BC4A020800B583B001A8FFF75BFE0199FFF770FFFFF7A6FFF6E700BF044B1B68B3F1FF3F01D072B6FEE772B6FEE700BFB042020806480068006880F3088862B628
:4020000061B6BFF34F8FBFF36F8F00DF00BF000008ED00E0DFF80C00016841F4700101607047000088ED00E04FF0807340F8043C21F0010140F8081C054B40F80C3C40F856
:40204000202C6FF0020340F8243C4438704700BFDD1F0810000000000000000000000000074B19680868B0E8F04F80F30988BFF36F8F4FF0000080F311887047AFF3008020
:40208000904A020872B6074A136801331360012B06D1054B1B6813F0FF0F01D072B6FEE7704700BFB042020804ED00E0054B1B680BB972B6FEE7013B024A136003B962B626
:4020C000704700BFB04202080000000000000000EFF30980BFF36F8F154B1A681EF0100F08BF20ED108A20E9F04F10604DF8043D4FF0BF0080F31188BFF34F8FBFF36F8F4E
:40210000FFF7A4FC4FF0000080F3118808BC19680868B0E8F04F1EF0100F08BFB0EC108A80F30988BFF36F8F704700BFAFF30080904A020808B572B6FFF73EFB18B14FF0BC
:402140008052024B1A6062B608BD00BF04ED00E0064B1B68064AA2FB03239B09013B054A13600722044B1A60704700BF98420208D34D621014E000E010E000E000B583B066
:40218000224B1A78D2B20192FF221A701B78DBB28DF803309DF803301D4A03F0BF0313700723536009E01A4A5368013B53609DF803305B00DBB28DF803309DF8033013F018
:4021C000800FF0D1124A53681B0203F4E0635360019BDBB20D4A13700E4B1A6842F47F021A601A6842F07F421A60FFF7B1FF0022094B1A60FFF70EFF084A136843F0404354
:402200001360FFF7F7FEFFF7E9FE00BF00E400E0F84A020820ED00E0B042020834EF00E0EFF305830F2B08D9094A9B5CDBB2094A1278934201D272B6FEE7074B1B6803F4EE
:40224000E063044A5268934201D972B6FEE77047F0E300E0F84A02080CED00E008B572B640F20B310148FEF76FFDFEE7D824081038B5044610F0070F02D020F0070408345C
:40228000FFF78AFA104B1B682BB90F4A02F10C0323F0070313600D4BD3F814361C4442F2F772944208D8A34208D2074A15681D44064BC3F8144602E0002500E00025FFF781
:4022C000F3FA284638BD00BF004B0208F06C020808B172B6FEE7704710B5431E0A44914204D011F8014B03F8014FF8E710BD02440346934202D003F8011BFAE7704710B586
:40230000034642B111F8014B03F8014B013A002CF7D11A4400E010BD934202D003F8014BFAE710BDF8B500BFF8BC08BC9E467047F8B500BFF8BC08BC9E4670474C454420FC
:402340005461736B00000000030000000100000001000000000000000503600004000000010000000000000001000000060460000800000020490208C905081047656E650D
:4023800072617465645F536F757263655C50536F43365C70646C5C647269766572735C7065726970686572616C5C737973696E745C63795F737973696E742E6300000000FF
:4023C00047656E6572617465645F536F757263655C50536F43365C70646C5C647269766572735C7065726970686572616C5C6970635C63795F6970635F6472762E6800006C
:4024000047656E6572617465645F536F757263655C50536F43365C70646C5C647269766572735C7065726970686572616C5C6970635C63795F6970635F6472762E63000030
:4024400047656E6572617465645F536F757263655C50536F43365C70646C5C647269766572732F7065726970686572616C2F6970632F63795F6970635F6472762E68000072
:4024800047656E6572617465645F536F757263655C50536F43365C70646C5C647269766572735C7065726970686572616C5C6970635C63795F6970635F706970652E63004E
:4024C00049444C4500000000546D725100000000546D72205376630047656E6572617465645F536F757263655C50536F43365C70646C5C72746F735C4672656552544F538F
:402500005C392E302E305C536F757263655C706F727461626C655C4743435C434D34465C706F72742E6300000000000000000810004002088C0200004C2508108C42020836
:4025400084040000A4470208B42B00000048E80100127A0000093D0000127A0000127A0008000000401F00000000A00F02FF0000AAAAAAAAB10208108D02081000000000B3
:4025800080B2C300B0B13E210B4A116041F61E7104321160A2F584720621C2F8181523F07F43C2F81C35D2F81C35044BD3F81C35002BFADA704700BF0401264000002640EC
:4025C00008B54FF26003404AD3589BB2A2F580229268013B032B76D8DFE803F0021F3C59032A02D10822394B9A60394A13691069C0F307221B0E581C02FB0000354B03FB09
:4026000000F0354B1B68354AA2FB03239B09B0FBF3F08230FFF7B4FF08BD032A02D108222A4B9A602A4A13691069C0F307221B0E581C02FB0000274B03FB00F0264B1B6847
:40264000264AA2FB03239B09B0FBF3F08230FFF797FF08BD032A02D108221C4B9A601C4A13691069C0F307221B0E581C02FB0000184B03FB00F0184B1B68184AA2FB03233A
:402680009B09B0FBF3F08230FFF77AFF08BD032A02D108220D4B9A600D4A13691069C0F307221B0E581C02FB00000A4B03FB00F0094B1B68094AA2FB03239B09B0FBF3F062
:4026C0008230FFF75DFF08BD00002540A00023400000214040420F0090420208D34D621008B54378FF2B0ED100F06AF9064BDB685A68136843F001031360136813F0010F6C
:40270000FBD100F045F908BD80002340F8B505460E46264B1B69002B1FDB002000F048F9234B98421BD00023224A0121184600F037F918B1204C15E0013400E0002400205B
:4027400000F036F91A4B984202D01C4B9C42F3D91A4B9C4205D9184C04E0174C02E0164C00E0002404BB00F02BF90746144A0121144800F0F5F868B925B93046FFF700FFC1
:40278000114C08E00F4B1B69002BFBDB00F0F8F8044600E0084C0121002000F0E9F80028F9D1384600F0F4F82046F8BDA000234001018800AC42020805005200EF49020007
:4027C000504902082000234001005000394B1B68002BFBDA30B4374BDA6842F00102DA60DB6813F0020F20D0324DEB689CB232490A69120A120402F47F02D1F890301B0A98
:4028000042EA03632343EB600B6923F47F4343F410630B61D1F8903023F47F4343F41063C1F890300B69D1F89030224B00225A605B68224A136943F004031361012801D0D4
:4028400030BF07E020BF1E4B1B7803B120BF01221B4B1A70184BD3F8803003F00303022BE7D0144B1B68002BFBDA124BDB6813F0020F15D010490B6923F47F420D48C368A6
:402880001B0C1B0203F47F4313430B61D1F8903023F47F42C3681B0E42EA0323C1F89030044BDA6822F00102DA6000225A6030BC704700BFE00023400000214000ED00E04A
:4028C000604902081E4A136943F004031361012801D030BF07E020BF1A4B1B7803B120BF0122184B1A70184BD3F8803003F00303022BE7D0154B1B68002BFBDA144BD3F881
:402900000C31C3B941F61E72124B1A60062203F582631A603E22A3F214431A60442203F583631A600C4B1B68002BFBDA4FF0AA32074BC3F80C210022044B5A60704700BF6D
:4029400000ED00E06049020800002140E000234000002540080126401C0526400000000001B40248844601BC604700BFFD06081001B40248844601BC604700BF15080810B0
:4029800001B40248844601BC604700BFB50C081001B40248844601BC604700BF2B0E081001B40248844601BC604700BF690A081001B40248844601BC604700BF9D080810F5
:4029C00001B40248844601BC604700BF230E0810000000000000000000000000000000000000000000000000000000000000000000000000000000000000000000000000A2
:0200000490303A
:02000000A2D686
:0200000490501A
:0C0000000005E20721002101E220C3D628
:00000001FF