:020000041000EA
:4000000000400208310100100D000000950100100000000000000000000000000000000000000000000000000000000091010010000000000000000091010010910100109B
:4000400091010010A5040010910100109101001091010010910100109101001091010010910100109101001091010010910100109101001091010010910100109101001049
:400080009101001091010010910100109101001091010010910100109101001091010010910100109101001091010010910100109101001091010010910100109101001020
:4000C00010B5064C2378002B07D1054B002B02D0044800E000BF0123237010BD5404000800000000E81A0010084B10B5002B03D00749084800E000BF07480368002B00D112
:4001000010BD064B002BFBD09847F9E70000000058040008E81A0010EC000008000000007047EFF3108072B6704780F310887047FFF7F6FF72B6104C104DAC4209DA216892
:400140006268A368043B02DBC858D050FAE70C34F3E70B490B4A0020521A02DD043A8850FCDC094809490860BFF34F8F00F000F900F01EF8FEE70000EC1A0010041B00109D
:4001800054040008200600080000000808ED00E0FEE7FEE700B504207146084202D0EFF3098001E0EFF30880043001F0AFF9FEE710B562B6014800F04FF9FEE7000008109B
:4001C00070B56249E0239B00CB580F2213401A00D0329200525807210A40032A05D0042A06D0002A12D15A4814E05A4A106811E01A00C0329200554952581F210A40112ABF
:4002000006D0132A04D0FA20C00103E0524801E080200002002B36D14C4BB222D2009A5801211140B125ED005A59120F032422405B591B0F1C4207D0444C63591B0F032458
:400240002340012B02D102E0012300E00023002B01D0002901D1032A4BD13C4BB022D2009D58AD03AD0B3D495958C904C90C9C58240E01231C40013401F0D4F9684321000D
:4002800001F0D0F935E0012B33D1304BC822D2009A5801251540C024E4001A59120F03210A401B591B0F194207D028490B591B0F03210B40012B02D102E0012300E000238B
:4002C000002B01D0002D01D1032A12D11F4DC022D200AB587F210B40A958090A1F263140AC58240C3440584301F09CF9210001F099F9E0239B00154AD3581B0903221340EA
:40030000D840144C6060164B1D692D0AFC32154001351969090E013101F084F9A060290001F080F90500E06020610E4BC0180E4901F078F920750D4BE818FA21890001F0B0
:4003400071F9A061C003E06170BDC0460000264000127A00C000000800366E0184050000000021403F420F0040420F00E703000010B5234BB021C9005A58520052085A50B2
:40038000E02080001A583024A2431A50802252045A501C491C4A9950A021890104329950FF211A4A995081315A58920092088020C00502435A505A588020000602435A5050
:4003C0005A58012082435A5000F05AF9FFF7F8FE00F070F800F078F800F03AFFB0235B055B78002B04D0B0235B055B78DBB200E02123212B03D1064B0022DA605A6010BD9B
:400400000000264001000200840500008C050000E00023408023024AD3580320184070470000214010B5FFF77CFE084980228C58074B2340074C23438B508823034AD358D1
:40044000DB06FAD5FFF771FE10BDC04600002140FCFF00000100FA0570B50500FFF761FE0400FFF7D7FF032801D1FFF7DBFF0A4AB0239B00D55080215058084B0340084806
:40048000034353508823044AD358DB06FAD52000FFF74BFE70BDC04600002140FCFF00000300FA0510B5024800F0A4FC10BDC0467004000810B5034A60328021042000F048
:4004C00089FA10BD7005000810B501F08AF80400044800F03FFB044800F0A6FB200001F084F810BD700400088C170010FEE7C04630B587B0514BA021C9005A580320824350
:400500005A504F4990240A594E4802400A510A691202120A8024640422430A610A6910400861E022920099580F208143995099582130814399509958802000060143995070
:400540000021012000F0B8FC0021022000F0B4FC0021032000F0B0FC0021042000F0ACFC0021002000F0A8FC01A8374903000A0032CA32C312CA12C300F0C6FC002802D09C
:400580000420FFF7B3FF2D49304A8B588020000603438B502E4800F071FD002802D00420FFF7A4FF254C2B4BE1582B4A0A40E250E1582A4A0A40E250E25880252D062A4391
:4005C000E250043BE158264A0A40E250E158254A0A40802189010A43E250E258802109020A43E250204A1168204B0B40802149000B431360002000F0FBFF1D4BE25815431C
:40060000E550E158012291430A43E2506421002000F094FF174B0021174A9950802109015858084A02408C20800102435A508022D200124999509B5807B030BD0000264021
:4006400000002140FF00FFFFC0170010087F0000400D030004050000FEFCFFFFFFFF00FFFFF0FFFFFF8FFFFF00002740FFFCFFFF0C05000000000140140C000000FF008096
:4006800070B58AB09621002000F058FF00F02EFF002801D100F01AFF012000F099FE1B4A516C1B4B0B40E82189010B435364536C1B0AFF2213403A2B07D1144A516C154B7A
:4006C0000B40E82189010B435364FFF711FF01AD114C2A002300143343CB43C243CB43C243CB43C229000D4800F0BCFD2A002300383313CB13C213CB13C213CB13C2290018
:40070000074800F0AFFD0AB070BDC04600002740FF00FFFFFFC5FFDFC0170010800232400003324010B583089A00801AC000FF228240D44381400A40072B32D89B00194909
:40074000CB589F46184B196A0C4022431A6228E0154B596A0C4022435A6222E0124B996A0C4022439A621CE00F4BD96A0C402243DA6216E00C4B196B0C4022431A6310E042
:40078000094B596B0C4022435A630AE0064B996B0C4022439A6304E0034BD96B0C402243DA6310BD1C1800100000214083089A00801AC100FF228A40072B2BD89B00174856
:4007C000C3589F46164B186A1040C84023E0144B586A1040C8401EE0114B986A1040C84019E00F4BD86A1040C84014E00C4B186B1040C8400FE00A4B586B1040C8400AE032
:40080000074B986B1040C84005E0054BD86B1040C84000E00020C0B27047C0463C1800100000214070B504000D000B4B9A680B4B9A420BD1002903D1FC21094800F038FE1A
:400840001034064BA400E058E55003E01034A400044BE05870BDC04600ED00E0000000085C18001000000010F0B583B0041E019150D04368032B03D93621294800F018FEB5
:400880000023E05E002802DBA178FFF74BFF0023E25E6368002A12DB9008224EC0308000875903210A40D200FF25290091408F4399012B000B4093403B43835117E092B23C
:4008C0000F21114008398908063189001648844661444E6803200240D200FF2738009040864398013B000340934033434B600E4B9A680E4B9A420FD1019B002B03D14521B8
:40090000074800F0D5FD0023E05E0199FFF78AFF002002E0064800E0002003B0F0BDC0465C18001000E100E000ED00E0000000080100560070B504000D000369002B0ADA54
:400940000B0C03D00549064800F0B2FD2D042D0C6560002000E0034870BDC046A7020000A018001001008A0070B505000C000368002B01DA002300E0084B002B0BD1EA605B
:40098000230C03D00649074800F092FD2404240CAC60002000E0014870BDC04601008A008E020000A018001070B505000C1E03D19921064800F07CFD2B69002B03DAEB68CD
:4009C0002360002000E0024870BDC046E018001001008A00F8B504000E0015000F283FD8002A10D100290ED10F2804D99E21FF31214800F05DFD6401204B9C466444204BB4
:400A00001C60002037E0002D2CD0002E2CD0F3062CD10F2C04D99E21FF31174800F048FD6401164B9C466444154F3C607E60BD60F2080021280000F081FE00212000FFF7EB
:400A400079FF3A0001CA0021FFF78EFF00280FD10B4B18680021FFF76DFF00280AD10AE0084808E0074806E0064804E0054802E0054800E00448F8BD20190010000023405F
:400A80000006000803018A0001018A00F0B583B00D001C4B1B68DC68236883422DD947097B01C01A012383401E00002903D100F098FD019001E000230193124B1868036807
:400AC000002B01DA002300E00F4B002B0ED16368BF00DF193B68334203D0B3433B60002400E00A4C0021FFF725FF00E0084C002D04D1019800F079FD00E0064C200003B0BC
:400B0000F0BDC0460006000801008A00020188000301880004018A000A4B1B68DA68136883420BD943095901401A0121814052689B009B580B4203D0034802E0034800E0E2
:400B400003487047000600080101880004018A0000018800034B1B68002B01D1014B18607047C0460C060008F0B5474680B404000F0090461E00072803D9B421254800F0B0
:400B800097FC254B1B682C2060431C18FF22150035402560330A13406360330CA3600F2D04D99E21FF311D4800F082FC6B011C4A94466344236165680F2D04D9DC214900E9
:400BC000164800F075FC6D01164B9C4665446561A668330C04D0EB214900104800F068FC330C04D0D821FF310C4800F061FC3604330C1E43AE604346E36127620023A361B2
:400C0000069B002B02D000229B5EA38104BC9046F0BDC046601900100C060008201900100000234000102340F0B58FB0041E03D150212E4800F03CFC6368032B03D952219B
:400C40002A4800F035FCE36A002B03D15621274800F02EFCE368072B03D95721234800F027FC236A072B03D95821204800F020FC236B002B03D159211C4800F019FC07AA9D
:400C80001300210061C961C321C921C302AD290023001433C1CBC1C141CB41C10821535E0CAE3380079B1933B370089B0D930B9B0A980096A26AE16AFFF756FF2B69E86887
:400CC000002200920021FFF74FFF216B3000FFF7CBFD0023F25E002A05DB1F231A401E3B9340034A13600FB0F0BDC0466019001000E100E0F8B505000F0016001C00002A83
:400D000003D1FC21244800F0D3FB072D03D9FD21214800F0CDFB072F03D9FE211E4800F0C7FB1E4B1B682C2128004843181879435918012213004D68AB401B044568AA402B
:400D400015000269002A20D08F69002F1FD11268002A01DA002200E0114A002A19D132681204120C134333600369DE6001238B614C6204692B0C03D00A490B4800F098FB13
:400D80002A04120CA260002004E0084802E0084800E00748F8BDC046601900100C06000801008A008E0200002019001004028A0007028A0070B505000C001600072804D9F3
:400DC0006021FF31084800F073FB084B1B682C2068431818C369B34204D9036AB6009C51002000E0024870BD601900100C0600080A028A0070B582B004000023019300289F
:400E000004D1D92149002B4800F052FB2369002B04D1B421FF31274800F04AFB6369002B04D1DA214900234800F042FB236A002B04D1B621FF311F4800F03AFB6269D568E5
:400E40002B0C1FD01B041360136820690369002B18DA01A9FFF7A8FD00280ED1019803681E0CFF221340E269934207D29B00226AD358002B02D0984700E000263100206958
:400E8000FFF758FD2D042D0C0FD063691D601B68636A002B03D098470023636203E0A36A002B00D098470023A36163691B6802B070BDC0466019001004281DD8042904D967
:400EC0004B1EFF3B9BB2132B18D8FF290CD91F2319400B4A0300C0339B009950D03080000423835000200AE007231940D0308000034BC150002002E0024800E0014870474B
:400F00000000264001004A0070B5041E04D1EF2149004C4800F0CCFAB023DB004A4AD358002B01DB002500E0484D002D00D086E0474B22689A4204D9EE21FF31414800F043
:400F4000B7FA23689B03990BE3791B068022520413400B43B022D2003B498B50A2883D4B9A4204D9FA214900364800F0A1FA2289394B9A4204D9F621FF31324800F098FAD7
:400F8000A388DB04D90C23891B04344A13400B43334A2D498B50A37A0F2B04D9FC21FF31284800F085FAE37A0F2B04D9FE214900244800F07DFAA289264B9A4204D9FE2107
:400FC000FF31204800F074FAA37A0F211940E27A1201FF2313400B43A289120221490A401343A27B1207C02189050A401343B122D20015498B50A379072B03D91A491148D1
:4010000000F056FA228A144B9A4203D917490D4800F04EFA0C4816494658164B1E40A3791B02E022D2001340334343504658124B1E40238A1B04094A13403343435028004B
:4010400070BDC046A01900100000264003004A00FFFF0300FF1F0000FF0100000000FF018405000000FF1F0005020000060200008C050000FFF8FFFFFFFF00FE70B5050040
:401080002D492E4A8B588020000603438B502C0003E0012000F000FA013CB223DB00264AD3585B0701D4002CF3D12349B122D2008858234B03408020800503438B50002DBA
:4010C00002D00ED0002C0CD01B49B022D2008B588020000603438B5003E0012000F0DCF9013CB223DB00144AD358DB0701D4002CF3D1002D0ED0002C0CD10F4AB021C90099
:4011000053585B005B0853500C4953585B005B0853500BE0084B0221B222D2009950B121C9005A58C020800502435A50002C01D1044800E0002070BD000026408C05000043
:40114000FFFFFFCF02004A00214B984230D00ED8402831D004D800281FD010282AD031E080282BD080235B00984229D02AE0194B984229D007D8A0231B0698420DD0164BFC
:40118000984212D01EE0154B98420AD0144B984209D0144B984215D101E0002016E0124814E0124812E0124810E0A020C0030DE007480BE00F4809E00F4807E00F4805E0F1
:4011C000034803E00E4801E0A420C0037047C04606005200010000F0090000A0040000F0050000F0030000F001005200020052000300520001005000020050000500520082
:40120000FF00520010B50C4B1B69002B11DB0B4B1868FFF799FF0121094B0A4AD150084B084AD358002BFAD1074BD358002BF6D100E0064810BDC0460000234010060008A0
:401240000C040000000025408C0400000200500010B5022202490020FFF7ACFD10BDC0463501000870B505000C00002848D0002948D0FF230A689A4303D08D21224800F010
:4012800017F9FF2322699A4303D08E211E4800F00FF9A3685B0D03D08F211B4800F008F963685B0A03D09021174800F001F9E3695B0F03D09121144800F0FAF8236A5B0FFD
:4012C00003D09221104800F0F3F8104BEB18DB090F4A944663441B0122682A60E268AA622269EA6262692A63A2686A626268AA61A2696A63E2691A60226A5A60002002E0D4
:40130000044800E0034870BD281A00100000CEBF0010030401005A00034A9369802149040B4393617047C04600F02540024A9169024B0B409361704700F02540FFFFFFFE54
:4013400010B5074A074813580F24A34302210B43135004381358A3431943115010BDC0460000214004F0000010B5074A074813580F24A34303210B43135004381358A343F3
:401380001943115010BDC0460000214004F000000449054A8858054B0340C020C00103438B5070470000214004F00000FF8FFFFF0449054A8858054B03408020C001034329
:4013C0008B5070470000214004F00000FF8FFFFF70B50500012803D92A492B4800F068F800F0FFF80400294B294AD3581F221340E822D200B02149058A5CD31A5A1E93416A
:40140000DBB29D4239D0002D14D1FFF785FFFFF797FF1F481D4943581F229343143A13434350FFF7B5FFE823DB00B0225205D35CDAB211E01648154943581F229343143A48
:4014400013434350092000F027F8FFF7B1FF114BB0225205D35CDAB20D4E0C4831581F23994313400B433350012D06D1092000F013F8FFF779FFFFF759FF200000F0B5F849
:4014800070BDC046ED060000A81A00101CFF0000000026404107000010B5034B1B78584300F096F810BDC046D400000801BEFEE770B50D00044C18220100200000F046F94D
:4014C000A5610020FFF7F2FF18040008054B802212069A649B6C002B01DB002000E002487047C0460000274003004600054B8022120198585B68FF221A4202D08023DB0267
:401500001843704700002640FEE7C04610B50A4B0268DA6142681A6282685A62C2689A620269DA6242691A6382695A63C2699A63FFF7EAFF10BDC04618040008F0B5002855
:4015400001D0192200E064228A42924152421C4BE8256D005C590327BC433A4014435C515C59184E34405C51D03D5C59BC4322435A515A5916405E51002805D010290DD9A8
:4015800021290DD8012014E01D290BD93A290BD957290BD978290BD803200AE0002008E0022006E0002004E0012002E0022000E00420054A13680F218B4303431360F0BD16
:4015C00000002140FFFCFFFF00002540000000000230800803D001300238FCD1C046C0467047EFF3108072B6704780F310887047042805D1094A116804230B4313600CE0EF
:401600000006C0239B04184090239B00044AD050024A136804218B431360704710E000E000002140002243088B4274D303098B425FD3030A8B4244D3030B8B4228D3030C97
:401640008B420DD3FF22090212BA030C8B4202D31212090265D0030B8B4219D300E0090AC30B8B4201D3CB03C01A5241830B8B4201D38B03C01A5241430B8B4201D34B03E5
:40168000C01A5241030B8B4201D30B03C01A5241C30A8B4201D3CB02C01A5241830A8B4201D38B02C01A5241430A8B4201D34B02C01A5241030A8B4201D30B02C01A5241F3
:4016C000CDD2C3098B4201D3CB01C01A524183098B4201D38B01C01A524143098B4201D34B01C01A524103098B4201D30B01C01A5241C3088B4201D3CB00C01A5241830884
:401700008B4201D38B00C01A524143088B4201D34B00C01A5241411A00D20146524110467047FFE701B5002000F006F802BDC0460029F7D076E770477047C046030082188B
:40174000934202D019700133FAE77047030030B5002A0DD00C7801335D1E013A2C700131002CF5D19A189A4202D01C700133FAE730BD0000F8B5C046F8BC08BC9E4670479C
:40178000F8B5C046F8BC08BC9E4670470300000001000000010000000000000005036000040000000100000000000000010000000604600008000000E0050008A5040010D8
:4017C000F4010000140004010A00090508000000630100000300000000000000000000006800000000000000000000000000000012120000000000000000000000000000C8
:4018000000000000000000BA0000000000000000000000000000000000001D1D44070010500700105C0700106807001074070010800700108C07001098070010C4070010B1
:40184000CE070010D8070010E2070010EC070010F6070010000800100A08001047656E6572617465645F536F757263655C50536F43365C70646C5C647269766572735C7048
:4018800065726970686572616C5C737973696E745C63795F737973696E742E630000000047656E6572617465645F536F757263655C50536F43365C70646C5C64726976653C
:4018C00072735C7065726970686572616C5C6970635C63795F6970635F6472762E68000047656E6572617465645F536F757263655C50536F43365C70646C5C647269766577
:4019000072735C7065726970686572616C5C6970635C63795F6970635F6472762E63000047656E6572617465645F536F757263655C50536F43365C70646C5C64726976653B
:4019400072732F7065726970686572616C2F6970632F63795F6970635F6472762E68000047656E6572617465645F536F757263655C50536F43365C70646C5C64726976657D
:4019800072735C7065726970686572616C5C6970635C63795F6970635F706970652E630047656E6572617465645F536F757263655C50536F43365C70646C5C647269766559
:4019C00072735C7065726970686572616C5C737973636C6B5C63795F737973636C6B2E630000000047656E6572617465645F536F757263655C50536F43365C70646C5C6422
:401A00007269766572735C7065726970686572616C5C737973636C6B5C63795F737973636C6B2E680000000047656E6572617465645F536F757263655C50536F43365C70B6
:401A4000646C5C647269766572735C7065726970686572616C5C6770696F5C63795F6770696F2E630000000047656E6572617465645F536F757263655C50536F43365C70BF
:401A8000646C5C647269766572735C7065726970686572616C5C6770696F5C63795F6770696F2E680000000047656E6572617465645F536F757263655C50536F43365C707A
:401AC000646C5C647269766572735C7065726970686572616C5C737973706D5C63795F737973706D2E630000000000000000001000000008C00000000C1B0010C000000860
:401B00005803000054040008CC0100000048E80100127A0000093D0000093D0000093D0004000000A00F00000000D00702FF0000E9000010C1000010000000000004400BEA
:401B400012D03E22094B1A60094A0A4B1A600A4B0621A322D2009950084A98509B58074B054AD358002BFADA7047C046040126401E1F000008012640000026401C050000E4
:401B800010B54378FF2B0DD100F044F9064BDB685A68116801230B4313601368DB07FCD400F030F910BDC04680002340F0B583B006000F0000F036F90500032824D12B4B19
:401BC0001B69002B22DB002000F044F9284B98421ED00023274A0021012000F02BF9002803D0254C17E0013400E00024002000F031F91F4B984202D0204B9C42F3D91F4B5C
:401C00009C4207D91C4C06E0002404E01A4C02E0194C00E00024002C24D100F0FBF80190174A0121174800F0E5F800280ED1002E04D13800FFF782FF134C08E0114B1B69BB
:401C4000002BFBDB00F0CEF8040000E00A4C032D05D10121002000F0F5F80028F9D1019800F0D0F8200003B0F0BDC046C000234001018800E000000805005200EF4902005F
:401C800010060008000023400100500070B5304B1B68002BFBDA2E4BD96802220A43DA60DB68DB071FD52A4EF2681204150C294B1A69120A1204FF2424042240110090240D
:401CC0001A59120A12060A432A43F2601969224A114090252D012943196119590A402A431A511A691B591A4B00225A605B681B4A116904230B431361012801D030BF00E009
:401D000020BF134B1B68002BFBDA114BDB68DB0715D510480269104B1A4014000C4DEA68120C1202FF2109020A4022430261902142581340EA68120E120213434350044B76
:401D4000DA6802218A43DA6000225A6070BDC046E000234000002140FF00FFFF00ED00E0164A116904230B431361012801D030BF00E020BF124B1B68002BFBDA86235B002B
:401D8000104AD358002B14D10F4A104B1A6006220F4B1A6038320F4B1A6006320E4B1A600D4B1B68002BFBDA0C4986235B00054AD1500022024B5A607047C04600ED00E0C4
:401DC000E0002340000025401E1F00000801264018052640040126401C052640AAAAAAAA0000000001B40248844601BC604700BF0512001001B40248844601BC604700BF73
:401E00006909001001B40248844601BC604700BFEB15001001B40248844601BC604700BFE315001001B40248844601BC604700BF1504001001B40248844601BC604700BF2F
:401E4000F50C001001B40248844601BC604700BF8D0A001001B40248844601BC604700BF190B0010000000000000000000000000000000000000000000000000000000009E
:401E80000000000000000000000000000000000000000000000000000000000000000000000000000000000000000000000000000000000000000000000000000000000022
:401EC00000000000000000000000000000000000000000000000000000000000000000000000000000000000000000000000000000000000000000000000000000000000E2
:401F000000000000000000000000000000000000000000000000000000000000000000000000000000000000000000000000000000000000000000000000000000000000A1
:401F40000000000000000000000000000000000000000000000000000000000000000000000000000000000000000000000000000000000000000000000000000000000061
:401F80000000000000000000000000000000000000000000000000000000000000000000000000000000000000000000000000000000000000000000000000000000000021
:401FC00000000000000000000000000000000000000000000000000000000000000000000000000000000000000000000000000000000000000000000000000000000000E1
:020000041008E2
:4000000000780408F90208100D0000006103081061030810610308106103081000000000000000000000000000000000712A08105D03081000000000E12A0810452B081056
:400040005D0308105D0308105D0308105D0308105D0308105D0308105D0308105D0308105D0308105D0308105D0308105D0308105D0308105D0308105D0308105D03081000
:400080005D0308105D0308105D0308105D0308105D0308105D0308105D0308105D0308105D0308105D0308105D0308105D0308105D030810ED0608105D0308105D0308102D
:4000C0005D0308105D0308105D0308105D0308105D0308105D0308105D0308105D0308105D0308105D0308105D0308105D0308105D0308105D0308105D0308105D03081080
:400100005D0308105D0308105D0308105D0308105D0308105D0308105D0308105D0308105D0308105D0308105D0308105D0308105D0308105D0308105D0308105D0308103F
:400140005D0308105D0308105D0308105D0308105D0308105D0308105D0308105D0308105D0308105D0308105D0308105D0308105D0308105D0308105D0308105D030810FF
:400180005D0308105D0308105D0308105D0308105D0308105D0308105D0308105D0308105D0308105D0308105D0308105D0308105D0308105D0308105D0308105D030810BF
:4001C0005D0308105D0308105D0308105D0308105D0308105D0308105D0308105D0308105D0308105D0308105D0308105D0308105D0308105D0308105D0308105D0308107F
:400200005D0308105D0308105D0308105D0308105D0308105D0308105D0308105D0308105D0308105D0308105D0308105D0308105D0308105D0308105D0308105D0308103E
:400240005D0308105D0308105D0308105D0308105D0308105D0308105D0308105D0308105D0308105D0308105D0308105D0308105D0308105D0308105D0308105D030810FE
:400280005D0308105D0308105D03081010B5054C237833B9044B13B10448AFF300800123237010BD0448020800000000883D0810084B10B51BB108490848AFF3008008480A
:4002C000036803B910BD074B002BFBD0BDE81040184700BF0000000008480208883D081020430208000000007047EFF3108072B6704780F310887047FFF7F6FF72B6114CD1
:40030000114DAC4209DA21686268A368043BA2BFC858D050FAE70C34F3E70C490C4A00209142BCBF41F8040BFAE70A480A490860BFF34F8F00F024F900F0FEF800F01EF87D
:40034000FEE700008C3D0810A43D081004480208080C03080040020808ED00E0FEE7FEE700B504207146084202D0EFF3098001E0EFF30880043001F0D7F9FEE700B583B03C
:4003800062B600230193022200924FF4C8720349034801F0C9FE01F0F9FEFEE7083A08101D060810704700BF5C4AD2F8803303F00F0303F1D00152F8212002F00702032A74
:4003C00004D0042A05D092B9554914E0554A116811E003F1C002514951F8222002F01F02112A06D0132A04D04FF4FA4103E04E4901E04FF400418BBB484BD3F8902502F088
:400400000100D3F88825C2F30172D3F8883513F0405F07D0414BD3F88835C3F30173012B02D102E0012300E0002303B108B9032A46D13A48D0F88025C2F31103D0F88425F2
:40044000C2F30C02D0F88005C0F300600130B1FBF2F202FB03F2B2FBF0F131E0012B2FD12E4BD3F8402602F00100D3F80026C2F30172D3F8003613F0405F07D0274BD3F86E
:400480000036C3F30173012B02D102E0012300E0002303B108B9032A12D12048D0F8002602F07F02D0F80036C3F30423D0F80006C0F3044002FB01F2B2FBF3F2B2FBF0F1D6
:4004C000164BD3F88033C3F3011321FA03F215494A601648D0F89030C3F3072301330069000E0130B2FBF0F08860B2FBF3F3CB600B6103F5742202F23F220D48A0FB020223
:40050000C2F387420A7503F2E7330A4AA2FB03239B098B61DB03CB61704700BF0000264000127A008C42020800366E010000214083DE1B43D34D621008B5104BD3F88021E3
:4005400022F0404242F08042C3F88021D3F8802142F00042C3F88021D3F8802122F00102C3F88021FFF71EFFFFF71EFF00F0C6F800F0CCF801F0A0F808BD00BF0000264083
:4005800008B5FFF7B2FE074AD2F8883043F47003C2F88830BFF34F8FBFF36F8FFFF7A9FE08BD00BF00ED00E000B583B0164B0022C3F8C82F0422C3F8C02FD3F8C03F134BA6
:4005C000B3F90030002B09DB5A0903F01F03012101FA03F360320E4941F8223002A9002341F8043D0B4B186801F046FB019B43B13BB14FF08052084B1A60BFF34F8FBFF325
:400600006F8F03B05DF804FB00006640683A081000E100E02048020804ED00E010B500F0ABF82A4B1868002302221946406802F023FC274802F0ECFB03220021012001F005
:40064000F5F9244B1860244C2449204600F0E8F8B4F90030002B08DB590903F01F03012202FA03F31E4A42F8213004221D4BC3F8C82F00234FF0FF3219461648006801F03F
:4006800045FB16E0114B186842685368013B5360002B04DA416802F0C3FBC0B204E042681368591C116018783F2802D10E4802F0AFFB0C4BD3F80833C3F30803002BE1D15A
:4006C0000422084BC3F8C82FD3E700BF14430208143A081020480208683A0810A905081000E100E000006640243A081008B5024800F01AFB08BD00BF5048020808B50022AF
:400700001146042000F016F908BD00BF10B501F068F80446044800F0C9F9044800F02AFA204601F062F810BD24480208343A081010B504462146034800F078FB0028F9D06E
:4007400010BD00BF00006640054BD3F80833C3F30803002BF8D0024BD3F84003704700BF0000664008B50249024800F0B9FE08BD7C0B03080000664008B5114B1B785BB910
:40078000104A1149114800F081FC1149114800F047F801220A4B1A700E4BB3F90030002B08DB590903F01F03012202FA03F30A4A42F82130054A136843F00043136008BDB5
:4007C000A44902087C0B0308703A08100000664065070810683A081000E100E038B50C4B9A680C4B9A420ED10D46044619B9FC21094800F089FF04F11003064A52F8230097
:4008000042F8235038BD1030044B53F8200038BD00ED00E000400208B03A08100000081070B338B504460D464368072B03D93621154800F069FFB4F900306268002B08DBCF
:400840005201D2B203F1604303F5614383F8002305E003F00F035201D2B20C49CA540C4B9A680C4B9A420DD11DB94521064800F04BFF2946B4F90000FFF7B0FF002038BD98
:4008800005487047002038BDB03A081014ED00E000ED00E0004002080100560038B50369002B0DDA0D4604460B0C1B0423B140F2A721044800F028FFA9B26160002038BD2E
:4008C000014838BDF43A081001008A0038B50368002B01DA002300E0094B73B90D460446C2600B0C1B0423B140F28E21054800F00BFFA9B2A160002038BD014838BD00BFA9
:4009000001008A00F43A081038B504460D4619B99921064800F0F8FE2369002B03DAE3682B60002038BD024838BD00BF343B081001008A000F2840D8F8B515460E46044618
:4009400082B979B90F2804D940F29D11214800F0DBFE600100F1804000F50C101E4B18600020F8BD5DB366B316F01F0F2BD10F2C04D940F29D11174800F0C6FE640104F14D
:40098000804404F50C14144F3C607E60BD60F2080021284602F0D9F900212046FFF77EFF3A4652F8040B0021FFF790FF68B900213868FFF773FF50B9F8BD0848704707483C
:4009C000F8BD0648F8BD0548F8BD0548F8BD0448F8BD00BF743B0810A849020803018A0001018A002DE9F0411B4B1B68DC68236883422CD90D464609A0EB4610012303FA32
:400A000000F819B900F0EDFE074600E00027124B18680368002B01DA002300E00F4B83B9626852F8263018EA030F05D023EA080342F82630002400E0094C0021FFF72EFF3E
:400A400000E0084C25B9384600F0CFFE00E0064C2046BDE8F08100BFA849020801008A00020188000301880004018A000B4B1B68DB681A6882420CD94109A0EB4110012200
:400A800002FA00F05B6853F82130184203D004487047044870470448704700BFA84902080101880004018A0000018800024B1B680BB9014B18607047B44902082DE9F843F2
:400AC0000446884691461E46089F072803D9B421244800F019FE244B1B682C2000FB04F01C18F5B21D50C6F307236360360CA6600F2D04D940F29D111C4800F005FE6D0188
:400B000005F1804505F50C15256165680F2D04D94FF4DC71154800F0F7FD154B03EB45156561A668330C1B0423B14FF4EB710F4800F0EAFD330C1B0423B140F2D7110B4888
:400B400000F0E2FDB3B243EA0646AE60C4F81C90C4F820800023A36117B1B7F90030A381BDE8F883B43B0810B4490208743B081000102340F0B58FB0044618B950212C48B7
:400B800000F0C2FDA369072B03D95421284800F0BBFDE36A1BB95621254800F0B5FDE368072B03D95721224800F0AEFD236A072B03D958211E4800F0A7FD236B1BB9592178
:400BC0001B4800F0A1FD07AE04F114050FCD0FC62F6802AD26460FCE0FC533682B60079B1933ADF83030089B0D93A26AE16A0CAD00953B460A98FFF761FF00210091069B60
:400C00000A460598FFF75AFF216B2846FFF708FEBDF93030002B08DB590903F01F03012202FA03F3034A42F821300FB0F0BD00BFB43B081000E100E0F8B507460E461D4656
:400C400014461AB9FC21224800F05EFD072F03D9FD211F4800F058FD072E03D9FE211C4800F052FD1B4B1B682C2202FB073002FB06367368012202FA03F31B04476802FA68
:400C800007F70269EAB1B169E9B91268002A01DA002200E0104AC2B92288134323600369DC600123B361756204693B0C1B0423B140F28E21094800F027FDBAB2A260002069
:400CC000F8BD0748F8BD0748F8BD0648F8BD00BFB43B0810B449020801008A00743B081004028A0007028A0070B504460E461546072804D940F25F11084800F005FD084B91
:400D00001B682C2202FB0434E369AB4204D9236A43F82560002070BD024870BDB43B0810B44902080A028A0070B582B000230193044620B94FF4D971264800F0E5FC236959
:400D400023B940F2B311234800F0DEFC636923B94FF4DA711F4800F0D7FC236A23B940F2B5111C4800F0D0FC6369DD682A0C1CD012041A601B6820690369002B15DA01A98C
:400D8000FFF7C2FD60B9019803681E0CDBB2E269934206D2226A52F8233013B1984700E0002631462069FFF779FDADB275B16369ADB21D601B68636A1BB198470023636264
:400DC00002E0A36A03B198470023A36163691B6802B070BDB43B081010B4D0F8003303F00F03072B06D900230DE0D0F84043CC54013300E000239342F7D306E0D0F84043BE
:400E000021F8134001339342F8D35DF8044B704710B51446D0F80833C3F308039A4200D31C462246FFF7D8FF204610BD036813F4006F01D0802200E04022D0F80832C3F36D
:400E40000803934203D0C0F84012012070470020704700BF10B4D0F8003203F00F03072B06D900230DE0CC5CC0F84042013300E000239342F7D306E031F81340C0F840428F
:400E800001339342F8D35DF8044B704710B51446036813F4006F01D0802200E04022D0F80832C3F30803D31AA34200D81C462246FFF7D0FF204610BD2DE9F84305460C4631
:400EC000036813F4006F02D04FF0800801E04FF04008D5F8007207F00F07A26A012A19D9D4F82490E262561EB9F1000F00D026B940F22C51254800F007FC32464946284677
:400F0000FFF7C4FFA36A1B1AA362072F00D9400048446062D5F80832C3F30803984533D0A36A012B30D10023A362072F02D8636A1E7801E0636A1E8800F053FCC5F84062A5
:400F40004FF40073C5F8803FD5F8803F00F04DFCD5F8883F23F4007222F0010242F4007623F4EE6323F0030323B14FF48161084800F0CAFBC5F8886F236843F00203236023
:400F8000236B0BB101209847BDE8F883F43B0810343C08102DE9F04105460C46036813F4006F01D0802600E040267608A769D4F81C8017B1B8F1000F04D14FF4906131487E
:400FC00000F0A2FB424639462846FFF721FF236A03442362E3691B1AE36173BBA368FBB1E3689E4201D8013E00E05E1E2B6813F4006F01D0802300E040239E4204D340F28E
:401000005E21214800F080FBD5F8043323F0FF03F6B21E43C5F804630123C5F8C83F02E00023C5F8C83F636823F001036360236B33B304209847BDE8F081A169D5F800233A
:4010400002F00F02072A00D940000844A0619E4216D95C1E2B6813F4006F01D0802300E040239C4204D340F25E21074800F04CFBD5F8043323F0FF02E3B21343C5F80433EA
:40108000BDE8F081F43B0810343C0810002800F0A98170B50546002900F0A6819E4B984200F0A48116460C460B78022B03D942219A4800F029FB637B023BDBB2062B03D939
:4010C0004321964800F020FBA37B3BB1022B05D0032B03D04421914800F016FB94F82130012B03D945218D4800F00EFB94F82830012B03D94621894800F006FB2378012B62
:4011000006D86368083B082B94BF0023012307E0A37F2BB16368013B062B94BF002301231BB148217D4800F0EFFAA368053B042B03D94921794800F0E7FA6369FF2B03D948
:401140004A21764800F0E0FAA369FF2B03D94B21724800F0D9FAA37C6BB1237833B9A368092B05D1A37B2BB1012304E0012302E0012300E000231BB14D21684800F0C4FAE3
:40118000636B23F4366323F00D031BB14F21634800F0BAFAE36B23F4EE6323F003031BB150215E4800F0B0FA2378022B01D1A37F13B163685A1E00E00022237F13B14FF449
:4011C000803100E00021A068082802D84FF4006300E00023194302F00F030B4343F000732B60236B2A6812F4006F01D0802200E04022934203D36521484800F085FAA36B1B
:401200002A6812F4006F01D0802200E04022934203D36621414800F077FA636A2A6812F4006F01D0802200E04022934203D367213A4800F069FA23781B0603F040732B6454
:40124000637F0BB1402200E00022A17C11B14FF4806300E000231343227C12B14FF4807200E000221343627C12B14FF4007200E000221A43E36A013B1B0403F470231343E3
:40128000627B013A02F007021343A27B120102F030021343AB64237B13B14FF4807200E00022E17B21B92378022B03D1012302E0012300E0002313B14FF4007300E00023F7
:4012C0001A43A368013B03F00F031343C5F80033227DA3691B0403F47F031343C5F81033E26AD5F8003303F00F0303339A4201D3102A03D97D21094800F006FAE37F23B104
:401300002378012B03D0002302E0002300E0012333B14FF4807204E000006940783C08100022637B013B03F007031A43A37B1B0103F0300313436B64237B13B14FF48072C3
:4013400000E00022A368013B03F00F0313432278012A02D14FF4803200E000221343C5F8003294F83030C5F8043394F8203013B14FF0007100E0002194F82120012A02D1F9
:401380004FF0807300E000230B4394F82820012A02D14FF4803200E00022134394F8242013432B6594F83830C5F80432636B23F4926323F002031B051B0DC5F8C83FE36BA2
:4013C00023F08C035B055B0DC5F8883F86B1002070603060B060F0603062F0623063054B736370BD04487047034870BD024870BD002070BDEFCDAB000160AA000B694A6946
:40140000934202D34869181A7047CA694869101A184470472DE9F04107460D46036813F4006F02D04FF0800801E04FF040084FEA5808D7F80863C6F308062C6926E0013414
:40144000EB689C4200D100246B699C420FD12B6B0BB1082098476B699C4208D10023C7F8C83F0CB1013C13E0EC68013C10E0D7F84023D7F8003303F00F03072B02D8AB6821
:401480001A5502E0AB6823F81420013E002ED6D12C61EC6829463846FFF7B0FF201A804519D908B1441E00E000243B6813F4006F01D0802300E040239C4204D340F25E21AC
:4014C000064800F021F9D7F8040320F0FF03E0B21843C7F80403BDE8F08100BF343C081038B504460D46D0F8003E13F0080F35D0D0F8CC3F13F448730AD04A681A434A60C5
:40150000C0F8C03FD0F8C03F0B6B0BB110209847D4F8CC3F13F4006F09D06B6843F400636B604FF40063C4F8C03FD4F8C03FD4F8CC3F13F0010F11D0EB6923B1294620469A
:40154000FFF728FD05E0AB681BB129462046FFF761FF0123C4F8C03FD4F8C03FD4F8003E13F0040F2ED0D4F88C3F13F4A0630AD02A681A432A60C4F8803FD4F8803F2B6B09
:401580000BB120209847D4F88C3F13F0010F08D029462046FFF790FC0123C4F8803FD4F8803FD4F88C3F13F4007F0BD00022C4F8882F2B6823F001032B60EA622B6B0BB1ED
:4015C0000220984738BD00BF1F4B98422DD00CD840282ED003D8E8B1102828D02FE0802829D0B0F5807F28D029E0184B984228D006D8B0F1204F0DD0154B984212D01EE098
:40160000144B98420AD00133984209D0023B984215D101E0002070470F4870470F4870470F4870474FF4A0007047074870470D4870470D4870470D487047034870470C48B7
:4016400070474FF4A400704706005200010000F0090000A0040000F0010052000200520003005200010050000200500005005200FF00520008B50C4B1B69002B12DB0B4BE2
:401680001868FFF7A1FF0122094BC3F88C24084BD3F80C34002BFAD1054BD3F88C34002BF5D108BD034808BD20002340B8490208000025400200500000B583B05523ADF8F3
:4016C0000030002301930C496846FFF7A9F8BDF90030002B08DB590903F01F03012202FA03F3064A42F82130022205490120FFF7FBFA03B05DF804FB6543020800E100E016
:401700008544020801BEFEE738B50D46044C18220146204601F05AFCA5610020FFF7F2FF70470208FEE700BF08B50268254BDA6142681A6282685A62C2689A620269DA6297
:4017400042691A6382695A63C2699A631E4A916AD963D16A1964516A5964516B9964926BDA64F1EE103A13F0900F27D0026A154B1A65426A5A65826A9A65C26ADA65026B73
:401780001A66426B5A66826B9A66C26BDA66026C1A67426C5A67826C9A67C26CDA67026DC3F88020426DC3F88420826DC3F88820C26DC3F88C20026EC3F89020FFF7B2FFE4
:4017C00008BD00BF7047020800ED00E0000000000230800803D001300238FCD100BF00BF7047EFF3108072B6704780F31088704700F1080343604FF0FF328260C360036152
:4018000000230360704700BF00230361704700BF43684B609A688A609A68516099600861036801330360704730B40D68B5F1FF3F01D1026907E000F1080200E01A46536848
:401840001C68A542FAD253684B6099608A605160086103680133036030BC704703694268816891608268416851605A68904201D182685A600022026118680138186070477E
:4018800010B5044601F006F9A26BE36B9A4201D1012400E0002401F011F9204610BD00BF10B5044601F0F6F8A36B0BB9012400E0002401F003F9204610BD00BF70B50446D3
:4018C0001646856B026CFAB166B9806801F032FAA268236C1344A3606268934214D32368A36011E0C06801F025FA236C5B42E2681A44E26021688A4202D262681344E3608C
:40190000022E01D105B1013D0135A563002070BD026C72B110B50346C4681444C4604068844201D31868D8600846D96801F002FA10BD704738B5054601F0ACF895F8454006
:4019400064B20AE06B6A53B105F1240000F00CFE08B100F087FE013C64B2002CF2DCFF2385F8453001F0AAF801F094F895F8444064B20AE02B6953B105F1100000F0F4FD4B
:4019800008B100F06FFE013C64B2002CF2DCFF2385F8443001F092F838BD00BF08B972B6FEE738B504460D4601F074F82168E26B236C03FB021060600020A063A160013A39
:4019C00002FB0313E360FF2384F8443084F845307DB92369ABB104F1100000F0C5FD80B14FF08052094B1A60BFF34F8FBFF36F8F07E004F11000FFF7FBFE04F12400FFF77F
:401A0000F7FE01F05BF8012038BD00BF04ED00E010B5029B0C4609B91B6000E01A60D8631C6401211846FFF7B9FF10BD08B972B6FEE7F0B583B0034611B101FB00F000E049
:401A400000201D4617460C46483001F019F9064638B100903B4600F1480221462846FFF7D7FF304603B0F0BDF0B585B0019208B972B6FEE7044619B9026C1AB9012202E024
:401A8000012200E000220AB972B6FEE7022B03D1E26B012A02D102E0012200E000220AB972B6FEE71D460E4600F0E4FD18B9019B1BB9012302E0012300E000230BB972B62C
:401AC000FEE7002700F0E6FFA26BE36B9A4201D3022D21D12A4631462046FFF7EFFE636A6BB104F1240000F03FFD88B14FF08052324B1A60BFF34F8FBFF36F8F08E038B129
:401B00004FF080522D4B1A60BFF34F8FBFF36F8F00F0D4FF01204EE0019B1BB900F0CEFF002048E01FB902A800F05CFD012700F0C5FF00F05BFB00F0ADFF94F844305BB245
:401B4000B3F1FF3F02D1002384F8443094F845305BB2B3F1FF3F02D1002384F8453000F0ADFF01A902A800F04BFDF0B92046FFF787FEA0B1019904F1100000F0CDFC204605
:401B8000FFF7D8FE00F0BAFB00289BD14FF080520A4B1A60BFF34F8FBFF36F8F92E72046FFF7C8FE00F0AAFB8CE72046FFF7C2FE00F0A4FB002005B0F0BD00BF04ED00E0A0
:401BC00008B972B6FEE72DE9F843044619B9006C18B9012002E0012000E0002008B972B6FEE7022B03D1E06B012802D102E0012000E0002008B972B6FEE71F469046894658
:401C000001F016F8EFF311864FF0BF0383F31188BFF36F8FBFF34F8FA26BE36B9A4201D3022F1ED194F845506DB23A4649462046FFF744FEB5F1FF3F0DD1636A9BB104F1F4
:401C4000240000F091FC80B1B8F1000F0FD00120C8F800000CE06B1C5BB284F84530012006E0002004E0012002E0012000E0012086F31188BDE8F88308B972B6FEE770B554
:401C80000446036C0BB172B6FEE703681BB943681BB9012302E0012300E000230BB972B6FEE70E4600F0C4FFEFF311854FF0BF0383F31188BFF36F8FBFF34F8FA26BE36BBC
:401CC0009A4218D294F845305BB20132A263B3F1FF3F0AD1636A83B104F1240000F044FC68B176B1012030600CE001335BB284F84530012006E0002004E0012002E0012093
:401D000000E0012085F3118870BD00BF2DE9F04184B0019208B972B6FEE7044619B9026C1AB9012202E0012200E000220AB972B6FEE71F46884600F09DFC18B9019B1BB975
:401D4000012302E0012300E000230BB972B6FEE7002600F09FFEA56B5DB3E66841462046FFF7D6FD8FB9013DA5632369EBB104F1100000F0F9FBC0B14FF08052394B1A606F
:401D8000BFF34F8FBFF36F8F0FE0E660636A63B104F1240000F0E8FB38B14FF08052314B1A60BFF34F8FBFF36F8F00F087FE012054E0019B1BB900F081FE00204EE01EB9E3
:401DC00002A800F00FFC012600F078FE00F00EFA00F060FE94F844305BB2B3F1FF3F02D1002384F8443094F845305BB2B3F1FF3F02D1002384F8453000F060FE01A902A81D
:401E000000F0FEFBF0B92046FFF74AFDA0B1019904F1240000F080FB2046FFF78BFD00F06DFA002895D14FF080520E4B1A60BFF34F8FBFF36F8F8CE72046FFF77BFD00F0DA
:401E40005DFA86E72046FFF775FD00F057FA2046FFF726FD00283FF47CAF002004B0BDE8F08100BF04ED00E000230BE0074A52F8332032B9054A42F8331002EBC3035860F2
:401E800070470133092BF1D9704700BFB40B030870B504460D46164600F0FCFD94F844305BB2B3F1FF3F02D1002384F8443094F845305BB2B3F1FF3F02D1002384F8453046
:401EC00000F0FCFDA36B2BB93246294604F1240000F034FB2046FFF72DFD70BD094B9B6A1B680BB9012300E0002323B14FF0FF32044BDA627047034B9A6AD268D268526868
:401F0000DA627047F849020810B50446006B00F0E7FE204600F0E4FE10BD00BF2DE9F0478246894615469846089F099E0A9C9200A521206B00F009FF236B05F18042013AE3
:401F400003EB820525F00705002308E019F80310E21882F8341019F8032012B101330F2BF4D9002384F84330062F00D90627E762201DFFF749FC04F11800FFF745FC2461DB
:401F8000C7F10703A3616462002306E003F1100204EB8202002151600133042BF6D90023A36584F85C3042465146284600F044FD206006B13460BDE8F08700BF70B500242F
:401FC00007E004EB8402930010481844FFF710FC0134062CF5D90E4C04F1BC063046FFF707FC04F1D0052846FFF702FC04F11400FFF7FEFB04F1E400FFF7FAFB2046FFF743
:40200000F7FBA662C4F8F85070BD00BF284A0208F849020838B5044600F03CFD264BD3F8FC200132C3F8FC20D3F800314BB9224BC3F80041D3F8FC30012B10D1FFF7BEFF0D
:402040000DE01D4BD3F804314BB91B4BD3F80031DA6AE36A9A4202D8174BC3F80041164AD2F808310133C2F80831E36AD2F80C21934202D9104AC2F80C310F4D05F13000AF
:4020800003EB83039A00211D1044FFF7C1FB00F015FDD5F804316BB1D5F80031DA6AE36A9A4207D24FF08052044B1A60BFF34F8FBFF36F8F38BD00BFF849020804ED00E080
:4020C00070B504460E46174BD3F81051D3F800010430FFF7C3FBB4F1FF3F07D136B11148D0F800110431FFF793FB70BD2C440D4BD3F800315C60A54208D90A4BD3F8F800C1
:40210000D3F800110431FFF78FFB70BD054DA86AD5F800110431FFF787FBEB6A9C4200D2EC6270BDF84902082DE9F04385B006460F4615469846900000F0A2FD60B18146D8
:40214000602000F09DFD044610B1C0F8309004E0484600F0C5FD00E000248CB10023039302940D9B01930C9B009343462A4639463046FFF7D3FE2046FFF74CFF012001E04A
:402180004FF0FF3005B0BDE8F08300BF00B583B0124B019300230093802211491148FFF7C3FF012801D100F0CBFA01280DD172B60D4B4FF0FF32DA620122C3F80421002281
:4021C000C3F8102100F0E2FC04E0B0F1FF3F01D172B6FEE703B05DF804FB00BF144B0208B83C081035240810F8490208034AD2F818310133C2F81831704700BFF849020834
:40220000014BD3F810017047F84902082DE9F041394BD3F81831002B5ED1374BD3F810410134C3F8104194B99B6A1B680BB172B6FEE7314B9A6AD3F8F8109962C3F8F8209D
:40224000D3F820210132C3F82021FFF747FE2A4BDB6A9C4203D2002645E0012600E00026254B9B6A1B680BB9012300E0002323B14FF0FF32204BDA6235E01F4B9B6ADB686E
:40228000DD686B689C4202D21B4AD3622BE005F104084046FFF7E2FAAB6A1BB105F11800FFF7DCFAEB6A144AD2F80C21934202D9114AC2F80C31104F07F1300003EB8303F3
:4022C0009A0041461044FFF7A3FAEA6AD7F80031DB6A9A42C1D2C3E7074AD2F824310133C2F824310026044BD3F8283103B101263046BDE8F08100BFF8490208364BD3F81B
:4023000018310BB972B6FEE770B500F0C3FB324BD3F81821013AC3F81821D3F81831002B52D12D4BD3F8FC303BBB00244FE02A4D2B6ADC6804F11800FFF790FA261D304650
:40234000FFF78CFAE36AD5F80C21934201D9C5F80C31214D05F1300003EB83039A0031461044FFF755FAE26AD5F80031DB6A9A4204D30122C5F8282100E00024164B5B69AB
:40238000002BD4D10CB1FFF7A9FD134BD3F8244164B1FFF73BFF18B101220F4BC3F82821013CF6D100220C4BC3F824210A4BD3F828315BB14FF08052084B1A60BFF34F8F67
:4023C000BFF36F8F012402E0002400E0002400F075FB204670BD00BFF849020804ED00E038B51FE0FFF702FF114BD3F8E440FFF785FFBCB100F04EFB0D4CD4F8F030DD6858
:40240000281DFFF72BFAD4F8FC30013BC4F8FC30D4F81431013BC4F8143100F04FFB2846FFF772FD024BD3F81431002BDAD138BDF849020808B5FFF7D3FF064B1B6B012BCA
:40244000F9D94FF08052044B1A60BFF34F8FBFF36F8FF0E7F849020804ED00E02D4BD3F8183123B101222B4BC3F82821704710B5284B0022C3F82821D3F800311B6B1A6867
:40248000B2F1A53F0BD15A68B2F1A53F07D19A68B2F1A53F03D1DB68B3F1A53F07D01D4BD3F80001D3F80011343100F0DFFB194BD3F80C3103E00BB972B6FEE7013B03EB10
:4024C00083018A0013490A44126B002AF3D008469900CC18A2000244546B64685463303019448A0008320244944206D1606803EB83018A0007490A445063064903EB83007C
:4025000082000A44526BD268C1F80021C1F80C3110BD00BFF849020808B972B6FEE710B50C46054BD3F800111831FFF77DF901212046FFF7C5FD10BDF849020808B972B626
:40254000FEE738B50C461546064AD2F800111831FFF75EF90DB14FF0FF3429462046FFF7AFFD38BDF849020838B5C368DC680CB972B6FEE704F118052846FFF76FF9164BC7
:40258000D3F81831ABB9251D2846FFF767F9E36A114AD2F80C21934202D90F4AC2F80C3103EB83039A0029460C481044FFF730F903E029460A48FFF72BF9E26A064BD3F894
:4025C0000031DB6A9A4204D90120034BC3F8280138BD002038BD00BFF8490208284A02080C4A020808B972B6FEE7044AD2F820110160D2F810214260704700BFF849020893
:4026000008B972B6FEE738B5044609B972B6FEE70D4600F03FFA124BD3F810112A68B2F1FF3F13D02068D3F82031984202D0636899420DD26368C81A82420BD95B1A1344B5
:402640002B602046FFF7CEFF002404E0002402E0012400E0012400F031FA204638BD00BFF84902080122024BC3F82821704700BFF8490208064BD3F804312BB1044BD3F872
:4026800018311BB9022070470120704700207047F8490208064B1A681368B3FA83F35B09036013B9D368186870470020704700BF244B020808B54160006191420AD8D21A45
:4026C00083699A4211D2011D0A4B5868FFF7ACF8002008BD9A4201D2994208D2011D054B1868FFF7A1F8002008BD012008BD012008BD00BF244B020870B500F0CBF90E4B81
:402700009B68B3B90C4C04F10C063046FFF770F804F120052846FFF76BF82660656000220C210A20FFF782F9A06010B10349FFF79BFB00F0C3F970BD244B0208C03C0810E2
:4027400000B583B0FFF7D8FF0A4B9B6853B10A4B0193032300930023802208490848FFF7E3FC00E0002008B972B6FEE703B05DF804FB00BF244B0208584B0208C83C081095
:40278000D529081008B972B6FEE730B585B015460446124A9068F0B11A46019102950394052913DCFFF766FF022807D10023089A01A90A488068FFF757F90DE000231A4688
:4027C00001A906488068FFF74FF905E0002301A9FFF7F6F900E0002005B030BD244B020870B582B022E0DB681E68DC68251D2846FFF734F8636A20469847E369012B15D161
:40280000A36933449E4207D26360246129460D4B1868FFF709F809E0002100910B4632462046FFF7AFFF08B972B6FEE7054B1B681A68002AD7D1034A51681160536002B097
:4028400070BD00BF244B020838B50546FFF7D8FC0446074B9B6B984204D2FFF7C1FF01232B6001E000232B60014B9C63204638BD244B020870B582B005460E46104B1B68B8
:40288000DB68DC68201DFEF7E9FFE369012B11D1A1692B46324629442046FFF70BFF48B1002100910B462A462046FFF76BFF08B972B6FEE7636A2046984702B070BD00BFA7
:4028C000244B020870B582B006460C46FFF78EFC01A8FFF7B9FF019B1BBB054644B9B04206D3FFF70BFD29463046FFF7C3FF1AE02CB10E4B5B681C68B4FA84F46409224601
:40290000711B0A4B9868FFF7C3FAFFF7F7FC50B94FF08052064B1A60BFF34F8FBFF36F8F01E0FFF7EBFC02B070BD00BF244B020804ED00E030B587B03FE0039B002B3CDB34
:40294000059C636913B1201DFEF788FF02A8FFF77BFF039B092B30D8DFE803F00505052F202C05052F200499A5690B46024629442046FFF79FFE00B3636A20469847E36921
:40298000012B1AD1A269002100910B46049802442046FFF7F7FE80B972B6FEE70499A16109B972B6FEE70346024601442046FFF781FE02E0204600F093F900231A4603A967
:4029C00003488068FFF7A2F90028B6D107B030BD244B020800B583B001A8FFF75BFE0199FFF770FFFFF7A6FFF6E700BF044B1B68B3F1FF3F01D072B6FEE772B6FEE700BFD3
:402A0000B042020806480068006880F3088862B661B6BFF34F8FBFF36F8F00DF00BF000008ED00E0DFF80C00016841F4700101607047000088ED00E04FF0807340F8043C8E
:402A400021F0010140F8081C054B40F80C3C40F8202C6FF0020340F8243C4438704700BFED290810000000000000000000000000074B19680868B0E8F04F80F30988BFF3A7
:402A80006F8F4FF0000080F311887047AFF30080F84A020872B6074A136801331360012B06D1054B1B6813F0FF0F01D072B6FEE7704700BFB042020804ED00E0054B1B6832
:402AC0000BB972B6FEE7013B024A136003B962B6704700BFB04202080000000000000000EFF30980BFF36F8F154B1A681EF0100F08BF20ED108A20E9F04F10604DF8043DEE
:402B00004FF0BF0080F31188BFF34F8FBFF36F8FFFF7A4FC4FF0000080F3118808BC19680868B0E8F04F1EF0100F08BFB0EC108A80F30988BFF36F8F704700BFAFF3008068
:402B4000F84A020808B572B6FFF760FB18B14FF08052024B1A6062B608BD00BF04ED00E0064B1B68064AA2FB03239B09013B054A13600722044B1A60704700BF98420208F0
:402B8000D34D621014E000E010E000E000B583B0224B1A78D2B20192FF221A701B78DBB28DF803309DF803301D4A03F0BF0313700723536009E01A4A5368013B53609DF88E
:402BC00003305B00DBB28DF803309DF8033013F0800FF0D1124A53681B0203F4E0635360019BDBB20D4A13700E4B1A6842F47F021A601A6842F07F421A60FFF7B1FF002200
:402C0000094B1A60FFF70EFF084A136843F040431360FFF7F7FEFFF7E9FE00BF00E400E0604B020820ED00E0B042020834EF00E0EFF305830F2B08D9094A9B5CDBB2094A32
:402C40001278934201D272B6FEE7074B1B6803F4E063044A5268934201D972B6FEE77047F0E300E0604B02080CED00E008B572B640F20B310148FEF747FDFEE7D03C08106C
:402C800038B5044610F0070F02D020F007040834FFF7ACFA104B1B682BB90F4A02F10C0323F0070313600D4BD3F85C351C444BF6F772944208D8A34208D2074A15681D44F3
:402CC000064BC3F85C4502E0002500E00025FFF715FB284638BD00BF684B02081006030808B172B6FEE7704770B539B900240AE015F8010BFDF71CFD013402E016460D4687
:402D00000024B442F4DB204670BD00BF70B551B900240DE0FDF718FDC0B2287001340A2806D0013502E016460D460024B442F1DB204670BD10B5431E0A44914204D011F864
:402D4000014B03F8014FF8E710BD02440346934202D003F8011BFAE77047000070B50E46054618B183690BB900F00AFBAB69AC6813B9284600F004FB224B9C4201D16C68B7
:402D800008E0214B9C4201D1AC6803E01F4B9C4208BFEC68A3891B0701D523693BB92146284600F07BF910B14FF0FF3070BD013EA36816F8011F013BA36091B1002B04DA7A
:402DC000A269934206DB0A2904D023685A1C22601970EDE72246284600F00CF90130E7D1E2E7002B08DA22460A21284600F002F90130D9D00A2070BD23680A205A1C2260D7
:402E0000187070BD283D0810483D0810683D0810024B01461868FFF7A1BF00BF1443020838B50C46054618B183690BB900F0A8FA0E4B9C4201D16C6808E00D4B9C4201D11A
:402E4000AC6803E00B4B9C4208BFEC682146284600F05AFC38B96368013B636023685A1C2260187838BD4FF0FF3038BD283D0810483D0810683D08102DE9F7431D464F4BA7
:402E80001E6804460F46904626B1B36913B9304600F076FA4A4B9C4201D1746808E0494B9C4201D1B46803E0474B9C4208BFF468B8F1020F04D0B8F1010F79D8002D77DB8C
:402EC0002146304600F0E0F9616B41B104F14403994202D0304600F061FB002363630023A3616360A3891B0603D52169304600F055FBA38923F44A6323F00303B8F1020FC8
:402F0000A3811ED001AB6A462146304600F0DEFAA3891843A0810DB9009D00E02FBB284600F034FB0746D0B9DDF80090A94502D14FF0FF3006E0484600F028FB074678B9AD
:402F4000F6E70020A38943F00203A3810023A36004F1470323602361012363612AE0A946A38943F08003A3814D46B36913B9304600F006FAB8F1010F08BFA389276004BFA2
:402F800043F00103A381A389276103F0080080B2656158B113F001034FF000001DBF6D42A060A561A56008BF184603E0A06001E04FF0FF3003B0BDE8F08300BF14430208E8
:402FC000283D0810483D0810683D081010B5034642B111F8014B03F8014B013A002CF7D11A4400E010BD934202D003F8014BFAE710BD0000F8B50F461446064618B183692A
:403000000BB900F0BDF9224B9C4201D1746808E0204B9C4201D1B46803E01F4B9C4208BFF468A369A360A3891A0709D523693BB123682069181A63699842FDB20FDB08E0A1
:403040002146304600F02AF80028F1D04FF0FF30F8BD2146304600F017F90028F6D1A368013BA36023685A1C22601F706269431C934204D0A389DB0707D50A2D05D12146FC
:40308000304600F001F90028E0D12846F8BD00BF283D0810483D0810683D0810324B70B51D6806460C4625B1AB6913B9284600F067F92E4B9C4201D16C6808E02C4B9C42AB
:4030C00001D1AC6803E02B4B9C4208BFEC68B4F90C309AB215071DD4D00602D4092232603AE0510712D5616B41B104F14403994202D0304600F052FA00236363A38923F013
:403100002403A3810023636023692360A38943F00803A38123694BB9A38903F42073B3F5007F03D02146304600F0F4F9A28912F0010305D00023A36063695B42A36103E04B
:40314000920758BF6369A36023695BB9B4F90C3003F0800080B230B143F04003A3814FF0FF3070BD002070BD14430208283D0810483D0810683D08108A892DE9F041054662
:4031800010070C4659D44B68002B02DC0B6C002B17DDE66AAEB102F48052002392B22F682B600AB1606D15E0216A01232846B047411C0FD12B686BB11D2B01D0162B03D17C
:4031C0002F600020BDE8F081A38943F04003A381BDE8F081A3895A0705D56368C01A636B0BB1236CC01A00230246E66A216A2846B047431CA38906D129681D293AD8214ACE
:40320000CA40D60736D500226260D9042269226004D5421C01D12B6803B96065616B2F600029CED004F14403994202D0284600F0B5F900206063BDE8F0810F69002FC0D06A
:4032400093070E6808BF4B690F6018BF0023C7EB06088B6002E00744C0EB0808B8F1000FAFDD43463A46216AA66A2846B0470028F1DCA38943F04003A3814FF0FF30BDE8AC
:40328000F08100BF0100402038B50B6905460C46DBB118B183690BB900F072F80C4B9C4201D16C6808E00B4B9C4201D1AC6803E0094B9C4208BFEC68B4F90C302BB12146E7
:4032C0002846BDE83840FFF757BF002038BD00BF283D0810483D0810683D0810014620B9044B0549186800F0D3B8044B1868FFF7CBBF00BF243D0810893208101443020819
:40330000014900F0C5B800BF89320810002310B5044603604360836081814366C281036143618361194608225C30FFF70EFD054B6362054BA362054BE362054B24622363DE
:4033400010BD00BF393808105B38081093380810B738081070B568234D1E5D430E4605F1740100F069F9044640B1002180E842000C30A06005F16802FFF7E7FC204670BDC9
:40338000836910B5044633BB8364C3640365124B124A1B688262984204BF0123836100F01FF86060204600F01BF8A060204600F017F80022E06004216068FFF7A7FF012246
:4033C0000921A068FFF7A2FF02221221E068FFF79DFF0123A36110BD243D081001330810F8B51C4B1E68B369074613B93046FFF7C7FF4836B4687368013B04D4B4F90C5086
:403400007DB16834F8E733680BB13668F2E704213846FFF79FFF30600028F6D10C233B60F8BD4FF6FF73E3810123A38165662560A560656025616561A5610822294604F183
:403440005C00FFF782FC6563A563A564E5642046F8BD00BF243D08102DE9F041884600F1480400268CB1A5686768013F0BD4AB89012B06D9B5F90E30013302D02846C047B1
:4034800006436835F1E72468ECE73046BDE8F0812DE9F8438046894600F14804002694B1A5686768013F0CD4AB89012B07D9B5F90E30013303D029464046C84706436835BC
:4034C000F0E72468EBE73046BDE8F88370B50E46B1F90E10002990B014461D4606DA00232B60B3891A060ED540230EE001AA00F009FA0028F3DB029A02F47042A2F50053BA
:403500005A425A412A604FF480630020236010B070BD00008B8973B59E0705460C4610D401AB6A46FFF7D2FF00990646284600F083F868B9B4F90C309A0522D443F00203FA
:40354000A38104F14703236023610123636118E00D4BAB62A389206043F08003A381009B6361019B20614BB1B4F90E10284600F0DBF918B1A38943F00103A381A0893043B5
:40358000A08102B070BD00BF01330810024B0146186800F051B800BF1443020838B50546002946D051F8043C0C1F002BB8BFE41800F0DCF91F4A1368114613B96360146007
:4035C00032E0A3420ED92268A018834204BF18685B68636004BF121822600C6024E0A24203D813465A68002AF9D118681918A1420BD12168014458188242196014D1106828
:4036000052685A60014419600EE002D90C232B600AE021686018824204BF10685268626004BF091821605C602846BDE8384000F09EB938BD740B030870B5CD1C25F00305D2
:4036400008350C2D38BF0C25002D064601DBA94202D90C23336046E000F088F9234B1C681A462146A1B10B685B1B0ED40B2B03D90B60CC18CD501EE08C420DBF63684B68CE
:403680006360136018BF0C4615E00C464968E9E7174C23681BB9304600F0BEF820602946304600F0B9F8431C18D0C41C24F00304A0420DD12560304600F059F904F10B00C0
:4036C000231D20F00700C31A0ED05A42E25070BD211A304600F0A0F80130EBD10C233360304600F044F9002070BD00BF740B0308700B0308838903F00903092B01D1FFF70F
:40370000EDBD002070470000F8B50C46054618B183690BB9FFF734FE3A4B9C4201D16C6808E0394B9C4201D1AC6803E0374B9C4208BFEC68B4F90C200023636093B29E06DE
:403740005BD458071AD4D90605D4092342F040022B60A28151E01A070BD521462846FFF793FD002849D1A389A06023F00803A381A061A38943F00403A38110E0616B71B121
:4037800004F14403994202D02846FFF707FF236C63600020606313B1E36B2360F8BD23691BB921462846FFF7B5FEB4F90C70BEB2B3070FD00123A381154B1649186806F0AA
:4037C0000906FFF749FE092EA78103D121462846FFF7D2FC22692260666A6369216A2846B047002860600BDCA38917BF002243F0200343F040036260A3814FF0FF30F8BD50
:403800000020F8BD283D0810483D0810683D0810243D0810F536081038B5064C002305460846236000F0D6F8431C02D1236803B12B6038BD040C030810B50C46B1F90E10F9
:4038400000F096F80028ABBF636DA3891B1823F48053ACBF6365A38110BD2DE9F0411F468B89DB0505460C46164605D502230022B1F90E1000F068F8A389B4F90E1023F41B
:403880008053A38132463B462846BDE8F04100F017B810B50C46B1F90E1000F055F8431CA38915BF606523F4805343F48053A38118BFA38110BDB1F90E1000F013B8000072
:4038C00038B5074C054608461146002222601A46FFF70AFA431C02D1236803B12B6038BD040C030838B5064C002305460846236000F050F8431C02D1236803B12B6038BDE7
:40390000040C030838B5074C0023054608461146236000F047F8431C02D1236803B12B6038BD00BF040C030838B5064C002305460846236000F03EF8431C02D1236803B187
:403940002B6038BD040C030838B5074C054608461146002222601A4600F034F8431C02D1236803B12B6038BD040C03087047704738B5074C054608461146002222601A46AE
:40398000FFF7C4F9431C02D1236803B12B6038BD040C0308024B58221A604FF0FF307047040C0308024B58221A604FF0FF307047040C0308024B58221A600020704700BF6F
:4039C000040C0308024B58221A604FF0FF307047040C0308044A05491368002B08BF0B461844106018467047780B0308080C0308F8B500BFF8BC08BC9E467047F8B500BF58
:403A0000F8BC08BC9E46704755415254205461736B00000053746172746564205461736B0D0000003F095072696E742048656C700D000000030000000100000001000000DD
:403A4000000000000503600004000000010000000000000001000000060460000800000084490208ED0608102E00000007000000000000000C000000080000000002000039
:403A8000000000000000000000000000000000000000000000000000000000000B0000000000000000000000000000000000000047656E6572617465645F536F757263659C
:403AC0005C50536F43365C70646C5C647269766572735C7065726970686572616C5C737973696E745C63795F737973696E742E630000000047656E6572617465645F536FD8
:403B0000757263655C50536F43365C70646C5C647269766572735C7065726970686572616C5C6970635C63795F6970635F6472762E68000047656E6572617465645F536F14
:403B4000757263655C50536F43365C70646C5C647269766572735C7065726970686572616C5C6970635C63795F6970635F6472762E63000047656E6572617465645F536FD9
:403B8000757263655C50536F43365C70646C5C647269766572732F7065726970686572616C2F6970632F63795F6970635F6472762E68000047656E6572617465645F536F1B
:403BC000757263655C50536F43365C70646C5C647269766572735C7065726970686572616C5C6970635C63795F6970635F706970652E630047656E6572617465645F536FF7
:403C0000757263655C50536F43365C70646C5C647269766572735C7065726970686572616C5C7363625C63795F7363625F756172742E680047656E6572617465645F536FAB
:403C4000757263655C50536F43365C70646C5C647269766572735C7065726970686572616C5C7363625C63795F7363625F636F6D6D6F6E2E6800000047656E657261746523
:403C8000645F536F757263655C50536F43365C70646C5C647269766572735C7065726970686572616C5C7363625C63795F7363625F756172742E630049444C45000000003D
:403CC000546D725100000000546D72205376630047656E6572617465645F536F757263655C50536F43365C70646C5C72746F735C4672656552544F535C392E302E305C5395
:403D00006F757263655C706F727461626C655C4743435C434D34465C706F72742E63000043000000B44202080000000000000000000000000000000000000000000000002C
:403D40000000000000000000000000000000000000000000000000000000000000000000000000000000000000000000000000000000000000000000000000000000000043
:403D800000000000000000000000000000000810004002088C020000AC3D08108C420208E40400000448020804C400000048E80100127A0000093D0000127A0000127A0019
:403DC00008000000401F00000000A00F02FF0000AAAAAAAA00000000283D0810483D0810683D081000000000000000000000000000000000203D08100000000000000000B8
:403E000000000000000000000000000000000000000000000000000000000000000000000000000000000000000000000000000000000000B4420208B10208108D02081010
:403E40000000000080B2C300B0B13E210B4A116041F61E7104321160A2F584720621C2F8181523F07F43C2F81C35D2F81C35044BD3F81C35002BFADA704700BF0401264079
:403E80000000264008B54FF26003404AD3589BB2A2F580229268013B032B76D8DFE803F0021F3C59032A02D10822394B9A60394A13691069C0F307221B0E581C02FB000048
:403EC000354B03FB00F0354B1B68354AA2FB03239B09B0FBF3F08230FFF7B4FF08BD032A02D108222A4B9A602A4A13691069C0F307221B0E581C02FB0000274B03FB00F0E5
:403F0000264B1B68264AA2FB03239B09B0FBF3F08230FFF797FF08BD032A02D108221C4B9A601C4A13691069C0F307221B0E581C02FB0000184B03FB00F0184B1B68184A30
:403F4000A2FB03239B09B0FBF3F08230FFF77AFF08BD032A02D108220D4B9A600D4A13691069C0F307221B0E581C02FB00000A4B03FB00F0094B1B68094AA2FB03239B0954
:403F8000B0FBF3F08230FFF75DFF08BD00002540A00023400000214040420F0090420208D34D621008B54378FF2B0ED100F038F9064BDB685A68136843F00103136013684A
:403FC00013F0010FFBD100F043F908BD80002340F8B505460E46264B1B69002B1FDB002000F03EF9234B98421BD00023224A0121184600F025F918B1204C15E0013400E0D2
:404000000024002000F02CF91A4B984202D01C4B9C42F3D91A4B9C4205D9184C04E0174C02E0164C00E0002404BB00F0F9F80746144A0121144800F023F968B925B93046A7
:40404000FFF700FF114C08E00F4B1B69002BFBDB00F00EF9044600E0084C0121002000F0E7F80028F9D1384600F0F2F82046F8BDA000234001018800AC4202080500520060
:40408000EF490200B84902082000234001005000394B1B68002BFBDA30B4374BDA6842F00102DA60DB6813F0020F20D0324DEB689CB232490A69120A120402F47F02D1F802
:4040C00090301B0A42EA03632343EB600B6923F47F4343F410630B61D1F8903023F47F4343F41063C1F890300B69D1F89030224B00225A605B68224A136943F00403136111
:40410000012801D030BF07E020BF1E4B1B7803B120BF01221B4B1A70184BD3F8803003F00303022BE7D0144B1B68002BFBDA124BDB6813F0020F15D010490B6923F47F4253
:404140000D48C3681B0C1B0203F47F4313430B61D1F8903023F47F42C3681B0E42EA0323C1F89030044BDA6822F00102DA6000225A6030BC704700BFE000234000002140BE
:4041800000ED00E0C84902081E4A136943F004031361012801D030BF07E020BF1A4B1B7803B120BF0122184B1A70184BD3F8803003F00303022BE7D0154B1B68002BFBDA9D
:4041C000144BD3F80C31C3B941F61E72124B1A60062203F582631A603E22A3F214431A60442203F583631A600C4B1B68002BFBDA4FF0AA32074BC3F80C210022044B5A60E1
:40420000704700BF00ED00E0C849020800002140E000234000002540080126401C05264001B40248844601BC604700BFE317081001B40248844601BC604700BFE509081031
:4042400001B40248844601BC604700BF390C081001B40248844601BC604700BFEB17081001B40248844601BC604700BF6D0A081001B40248844601BC604700BF75160810E5
:4042800001B40248844601BC604700BFCD08081000000000000000000000000000000000000000000000000000000000000000000000000000000000000000000000000025
:4042C00000000000000000000000000000000000000000000000000000000000000000000000000000000000000000000000000000000000000000000000000000000000BE
:40430000000000000000000000000000000000000000000000000000000000000000000000000000000000000000000000000000000000000000000000000000000000007D
:40434000000000000000000000000000000000000000000000000000000000000000000000000000000000000000000000000000000000000000000000000000000000003D
:4043800000000000000000000000000000000000000000000000000000000000000000000000000000000000000000000000000000000000000000000000000000000000FD
:4043C00000000000000000000000000000000000000000000000000000000000000000000000000000000000000000000000000000000000000000000000000000000000BD
:0200000490303A
:02000000B98DB8
:0200000490501A
:0C0000000005E20721002101E229DA8D51
:00000001FF